07:32:43.737313 a7:5f:3a:8d:0e:93 (oui Unknown) > d4:00:00:00:98:01 (oui Unknown), ethertype Unknown (0xd978), length 14: 
	0x0000:  d400 0000 9801 a75f 3a8d 0e93 d978
07:32:43.737645 cb:64:39:ad:73:3a (oui Unknown) > b4:00:68:01:72:3a (oui Unknown), ethertype Unknown (0xcb64), length 20: 
	0x0000:  b400 6801 723a cb64 39ad 733a cb64 517d
	0x0010:  8d80 46cd
07:32:43.737755 cb:64:51:7d:82:dd (oui Unknown) > c4:00:2c:01:72:3a (oui Unknown), ethertype Unknown (0x8d54), length 14: 
	0x0000:  c400 2c01 723a cb64 517d 82dd 8d54
07:32:43.737889 cb:64:51:7d:72:3a (oui Unknown) > 94:00:00:00:72:3a (oui Unknown), ethertype Unknown (0xcb64), length 32: 
	0x0000:  9400 0000 723a cb64 517d 723a cb64 39ad
	0x0010:  0400 902a ffff ffff ffff ffff 1d60 c4bb
07:32:43.738000 cb:64:51:7d:2f:a1 (oui Unknown) > c4:00:00:00:72:3a (oui Unknown), ethertype Unknown (0x235c), length 14: 
	0x0000:  c400 0000 723a cb64 517d 2fa1 235c
07:32:43.738117 20:59:4d:63:71:3a (oui Unknown) > b4:00:e0:00:48:45 (oui Unknown), ethertype Unknown (0xcb64), length 20: 
	0x0000:  b400 e000 4845 2059 4d63 713a cb64 39af
	0x0010:  6f89 4b1f
07:32:43.738245 cb:64:52:59:73:3a (oui Unknown) > b4:00:bc:00:72:3a (oui Unknown), ethertype Unknown (0xcb64), length 20: 
	0x0000:  b400 bc00 723a cb64 5259 733a cb64 517d
	0x0010:  4b50 b4b0
07:32:43.738350 cb:64:51:7d:f5:24 (oui Unknown) > c4:00:80:00:72:3a (oui Unknown), ethertype Unknown (0x180f), length 14: 
	0x0000:  c400 8000 723a cb64 517d f524 180f
07:32:43.738466 cb:64:51:7d:72:3a (oui Unknown) > 94:00:00:00:72:3a (oui Unknown), ethertype Unknown (0xcb64), length 32: 
	0x0000:  9400 0000 723a cb64 517d 723a cb64 5259
	0x0010:  0400 d033 ffff ffff ffff ffff 5614 df3c
07:32:43.738607 20:59:4d:63:71:3a (oui Unknown) > b4:00:cc:01:48:45 (oui Unknown), ethertype Unknown (0xcb64), length 20: 
	0x0000:  b400 cc01 4845 2059 4d63 713a cb64 39af
	0x0010:  1fb9 4c25
07:32:43.738805 a7:5f:3a:8d:71:3a (oui Unknown) > b4:00:e8:00:98:01 (oui Unknown), ethertype Unknown (0xcb64), length 20: 
	0x0000:  b400 e800 9801 a75f 3a8d 713a cb64 5259
	0x0010:  ac03 2146
07:32:43.738911 cb:64:52:59:f5:45 (oui Unknown) > c4:00:ac:00:70:3a (oui Unknown), ethertype Unknown (0x27fb), length 14: 
	0x0000:  c400 ac00 703a cb64 5259 f545 27fb
07:32:43.739039 cb:64:52:59:98:01 (oui Unknown) > 94:00:00:00:70:3a (oui Unknown), ethertype Unknown (0xa75f), length 32: 
	0x0000:  9400 0000 703a cb64 5259 9801 a75f 3a8d
	0x0010:  0500 30c6 0300 0000 0000 0000 74ca deb2
07:32:43.739168 20:59:4d:63:71:3a (oui Unknown) > b4:00:30:01:48:45 (oui Unknown), ethertype Unknown (0xcb64), length 20: 
	0x0000:  b400 3001 4845 2059 4d63 713a cb64 39af
	0x0010:  9574 a566
07:32:43.739263 20:59:4d:63:2c:ad (oui Unknown) > d4:00:04:00:48:45 (oui Unknown), ethertype Unknown (0x1110), length 14: 
	0x0000:  d400 0400 4845 2059 4d63 2cad 1110
07:32:43.739381 cb:64:39:ad:73:3a (oui Unknown) > b4:00:44:01:72:3a (oui Unknown), ethertype Unknown (0xcb64), length 20: 
	0x0000:  b400 4401 723a cb64 39ad 733a cb64 517d
	0x0010:  7869 d72a
07:32:43.740644 cb:64:51:7d:73:3a (oui Unknown) > b4:00:b8:00:72:3a (oui Unknown), ethertype Unknown (0xcb64), length 20: 
	0x0000:  b400 b800 723a cb64 517d 733a cb64 5259
	0x0010:  2e72 4b0b
07:32:43.741430 20:59:4d:63:2c:ad (oui Unknown) > d4:00:04:00:48:45 (oui Unknown), ethertype Unknown (0x1110), length 14: 
	0x0000:  d400 0400 4845 2059 4d63 2cad 1110
07:32:43.741541 cb:64:51:7d:73:3a (oui Unknown) > b4:00:b8:00:72:3a (oui Unknown), ethertype Unknown (0xcb64), length 20: 
	0x0000:  b400 b800 723a cb64 517d 733a cb64 5259
	0x0010:  2e72 4b0b
07:32:43.741758 cb:64:39:ad:73:3a (oui Unknown) > b4:00:68:01:72:3a (oui Unknown), ethertype Unknown (0xcb64), length 20: 
	0x0000:  b400 6801 723a cb64 39ad 733a cb64 517d
	0x0010:  8d80 46cd
07:32:43.741846 cb:64:51:7d:82:dd (oui Unknown) > c4:00:2c:01:72:3a (oui Unknown), ethertype Unknown (0x8d54), length 14: 
	0x0000:  c400 2c01 723a cb64 517d 82dd 8d54
07:32:43.742203 cb:64:51:7d:72:3a (oui Unknown) > 94:00:00:00:72:3a (oui Unknown), ethertype Unknown (0xcb64), length 32: 
	0x0000:  9400 0000 723a cb64 517d 723a cb64 39ad
	0x0010:  0400 f02a ffff ffff ffff ffff 6d64 236a
07:32:43.742413 cb:64:51:7d:2f:a1 (oui Unknown) > c4:00:00:00:72:3a (oui Unknown), ethertype Unknown (0x235c), length 14: 
	0x0000:  c400 0000 723a cb64 517d 2fa1 235c
07:32:43.742526 cb:64:51:7d:72:3a (oui Unknown) > 94:00:00:00:72:3a (oui Unknown), ethertype Unknown (0xcb64), length 32: 
	0x0000:  9400 0000 723a cb64 517d 723a cb64 39ad
	0x0010:  0400 102b ffff ffff ffff ffff 5f7d ba4a
07:32:43.742645 cb:64:52:59:98:01 (oui Unknown) > 94:00:00:00:70:3a (oui Unknown), ethertype Unknown (0xa75f), length 32: 
	0x0000:  9400 0000 703a cb64 5259 9801 a75f 3a8d
	0x0010:  0500 50c6 0100 0000 0000 0000 79c9 1c21
07:32:43.743028 20:59:4d:63:71:3a (oui Unknown) > b4:00:64:01:48:45 (oui Unknown), ethertype Unknown (0xcb64), length 20: 
	0x0000:  b400 6401 4845 2059 4d63 713a cb64 39af
	0x0010:  1330 0258
07:32:43.743493 cb:64:39:ad:73:3a (oui Unknown) > b4:00:fc:00:72:3a (oui Unknown), ethertype Unknown (0xcb64), length 20: 
	0x0000:  b400 fc00 723a cb64 39ad 733a cb64 517d
	0x0010:  9d05 bdec
07:32:43.743587 cb:64:51:7d:18:e6 (oui Unknown) > c4:00:c0:00:72:3a (oui Unknown), ethertype Unknown (0x8526), length 14: 
	0x0000:  c400 c000 723a cb64 517d 18e6 8526
07:32:43.743715 cb:64:51:7d:72:3a (oui Unknown) > 94:00:00:00:72:3a (oui Unknown), ethertype Unknown (0xcb64), length 32: 
	0x0000:  9400 0000 723a cb64 517d 723a cb64 39ad
	0x0010:  0400 202b ffff ffff ffff ffff 67ff 4922
07:32:43.743811 cb:64:51:7d:2f:a1 (oui Unknown) > c4:00:00:00:72:3a (oui Unknown), ethertype Unknown (0x235c), length 14: 
	0x0000:  c400 0000 723a cb64 517d 2fa1 235c
07:32:43.743919 cb:64:51:7d:72:3a (oui Unknown) > 94:00:00:00:72:3a (oui Unknown), ethertype Unknown (0xcb64), length 32: 
	0x0000:  9400 0000 723a cb64 517d 723a cb64 39ad
	0x0010:  0400 302b ffff ffff ffff ffff 8f7e e705
07:32:43.744434 20:59:4d:63:71:3a (oui Unknown) > b4:00:64:01:48:45 (oui Unknown), ethertype Unknown (0xcb64), length 20: 
	0x0000:  b400 6401 4845 2059 4d63 713a cb64 39af
	0x0010:  1330 0258
07:32:43.744908 cb:64:51:7d:73:3a (oui Unknown) > b4:00:b8:00:72:3a (oui Unknown), ethertype Unknown (0xcb64), length 20: 
	0x0000:  b400 b800 723a cb64 517d 733a cb64 5259
	0x0010:  2e72 4b0b
07:32:43.745547 cb:64:39:ad:73:3a (oui Unknown) > b4:00:44:01:72:3a (oui Unknown), ethertype Unknown (0xcb64), length 20: 
	0x0000:  b400 4401 723a cb64 39ad 733a cb64 517d
	0x0010:  7869 d72a
07:32:43.745635 cb:64:51:7d:2e:b1 (oui Unknown) > c4:00:08:01:72:3a (oui Unknown), ethertype Unknown (0xb129), length 14: 
	0x0000:  c400 0801 723a cb64 517d 2eb1 b129
07:32:43.745874 cb:64:51:7d:72:3a (oui Unknown) > 94:00:00:00:72:3a (oui Unknown), ethertype Unknown (0xcb64), length 32: 
	0x0000:  9400 0000 723a cb64 517d 723a cb64 39ad
	0x0010:  0400 502b ffff ffff ffff ffff ff7a 00d4
07:32:43.745971 cb:64:51:7d:2f:a1 (oui Unknown) > c4:00:00:00:72:3a (oui Unknown), ethertype Unknown (0x235c), length 14: 
	0x0000:  c400 0000 723a cb64 517d 2fa1 235c
07:32:43.746079 cb:64:51:7d:72:3a (oui Unknown) > 94:00:00:00:72:3a (oui Unknown), ethertype Unknown (0xcb64), length 32: 
	0x0000:  9400 0000 723a cb64 517d 723a cb64 39ad
	0x0010:  0400 602b ffff ffff ffff ffff c7f8 f3bc
07:32:43.746173 cb:64:51:7d:2f:a1 (oui Unknown) > c4:00:00:00:72:3a (oui Unknown), ethertype Unknown (0x235c), length 14: 
	0x0000:  c400 0000 723a cb64 517d 2fa1 235c
07:32:43.746282 cb:64:51:7d:73:3a (oui Unknown) > b4:00:b8:00:72:3a (oui Unknown), ethertype Unknown (0xcb64), length 20: 
	0x0000:  b400 b800 723a cb64 517d 733a cb64 5259
	0x0010:  2e72 4b0b
07:32:43.746633 cb:64:51:7d:73:3a (oui Unknown) > b4:00:b0:00:72:3a (oui Unknown), ethertype Unknown (0xcb64), length 20: 
	0x0000:  b400 b000 723a cb64 517d 733a cb64 39ad
	0x0010:  71e8 cb04
07:32:43.746726 cb:64:39:ad:3e:0d (oui Unknown) > c4:00:74:00:72:3a (oui Unknown), ethertype Unknown (0xce5f), length 14: 
	0x0000:  c400 7400 723a cb64 39ad 3e0d ce5f
07:32:43.747012 20:59:4d:63:71:3a (oui Unknown) > b4:00:04:02:48:45 (oui Unknown), ethertype Unknown (0xcb64), length 20: 
	0x0000:  b400 0402 4845 2059 4d63 713a cb64 39af
	0x0010:  f4d3 1569
07:32:43.747647 cb:64:51:7d:73:3a (oui Unknown) > b4:00:b8:00:72:3a (oui Unknown), ethertype Unknown (0xcb64), length 20: 
	0x0000:  b400 b800 723a cb64 517d 733a cb64 5259
	0x0010:  2e72 4b0b
07:32:43.747738 cb:64:52:59:e2:92 (oui Unknown) > c4:00:7c:00:72:3a (oui Unknown), ethertype Unknown (0xf2b0), length 14: 
	0x0000:  c400 7c00 723a cb64 5259 e292 f2b0
07:32:43.747862 cb:64:52:59:72:3a (oui Unknown) > 94:00:00:00:72:3a (oui Unknown), ethertype Unknown (0xcb64), length 32: 
	0x0000:  9400 0000 723a cb64 5259 723a cb64 517d
	0x0010:  0400 b0b0 ffff ffff ffff ffff 281e 03dd
07:32:43.747987 20:59:4d:63:71:3a (oui Unknown) > b4:00:14:01:48:45 (oui Unknown), ethertype Unknown (0xcb64), length 20: 
	0x0000:  b400 1401 4845 2059 4d63 713a cb64 39af
	0x0010:  5683 6db2
07:32:43.748403 cb:64:39:ad:73:3a (oui Unknown) > b4:00:44:01:72:3a (oui Unknown), ethertype Unknown (0xcb64), length 20: 
	0x0000:  b400 4401 723a cb64 39ad 733a cb64 517d
	0x0010:  7869 d72a
07:32:43.748492 cb:64:51:7d:2e:b1 (oui Unknown) > c4:00:08:01:72:3a (oui Unknown), ethertype Unknown (0xb129), length 14: 
	0x0000:  c400 0801 723a cb64 517d 2eb1 b129
07:32:43.748724 cb:64:51:7d:72:3a (oui Unknown) > 94:00:00:00:72:3a (oui Unknown), ethertype Unknown (0xcb64), length 32: 
	0x0000:  9400 0000 723a cb64 517d 723a cb64 39ad
	0x0010:  0400 802b ffff ffff ffff ffff b6f5 118b
07:32:43.748819 cb:64:51:7d:2f:a1 (oui Unknown) > c4:00:00:00:72:3a (oui Unknown), ethertype Unknown (0x235c), length 14: 
	0x0000:  c400 0000 723a cb64 517d 2fa1 235c
07:32:43.748927 cb:64:51:7d:72:3a (oui Unknown) > 94:00:00:00:72:3a (oui Unknown), ethertype Unknown (0xcb64), length 32: 
	0x0000:  9400 0000 723a cb64 517d 723a cb64 39ad
	0x0010:  0400 902b ffff ffff ffff ffff 5e74 bfac
07:32:43.749047 20:59:4d:63:71:3a (oui Unknown) > b4:00:98:01:48:45 (oui Unknown), ethertype Unknown (0xcb64), length 20: 
	0x0000:  b400 9801 4845 2059 4d63 713a cb64 39af
	0x0010:  99fd eb1b
07:32:43.749789 20:59:4d:63:71:3a (oui Unknown) > b4:00:98:01:48:45 (oui Unknown), ethertype Unknown (0xcb64), length 20: 
	0x0000:  b400 9801 4845 2059 4d63 713a cb64 39af
	0x0010:  99fd eb1b
07:32:43.750555 20:59:4d:63:71:3a (oui Unknown) > b4:00:38:02:48:45 (oui Unknown), ethertype Unknown (0xcb64), length 20: 
	0x0000:  b400 3802 4845 2059 4d63 713a cb64 39af
	0x0010:  6d06 36e8
07:32:43.751342 20:59:4d:63:71:3a (oui Unknown) > b4:00:d0:01:48:45 (oui Unknown), ethertype Unknown (0xcb64), length 20: 
	0x0000:  b400 d001 4845 2059 4d63 713a cb64 39af
	0x0010:  5e14 0b69
07:32:43.752326 20:59:4d:63:2c:ad (oui Unknown) > d4:00:04:00:48:45 (oui Unknown), ethertype Unknown (0x1110), length 14: 
	0x0000:  d400 0400 4845 2059 4d63 2cad 1110
07:32:43.752767 20:59:4d:63:2c:ad (oui Unknown) > d4:00:04:00:48:45 (oui Unknown), ethertype Unknown (0x1110), length 14: 
	0x0000:  d400 0400 4845 2059 4d63 2cad 1110
07:32:43.753432 cb:64:51:7d:73:3a (oui Unknown) > b4:00:b0:00:72:3a (oui Unknown), ethertype Unknown (0xcb64), length 20: 
	0x0000:  b400 b000 723a cb64 517d 733a cb64 39ad
	0x0010:  71e8 cb04
07:32:43.753521 cb:64:39:ad:3e:0d (oui Unknown) > c4:00:74:00:72:3a (oui Unknown), ethertype Unknown (0xce5f), length 14: 
	0x0000:  c400 7400 723a cb64 39ad 3e0d ce5f
07:32:43.753734 cb:64:52:59:73:3a (oui Unknown) > b4:00:bc:00:72:3a (oui Unknown), ethertype Unknown (0xcb64), length 20: 
	0x0000:  b400 bc00 723a cb64 5259 733a cb64 517d
	0x0010:  4b50 b4b0
07:32:43.753823 cb:64:51:7d:f5:24 (oui Unknown) > c4:00:80:00:72:3a (oui Unknown), ethertype Unknown (0x180f), length 14: 
	0x0000:  c400 8000 723a cb64 517d f524 180f
07:32:43.753932 cb:64:51:7d:72:3a (oui Unknown) > 94:00:00:00:72:3a (oui Unknown), ethertype Unknown (0xcb64), length 32: 
	0x0000:  9400 0000 723a cb64 517d 723a cb64 5259
	0x0010:  0400 e033 ffff ffff ffff ffff 6e96 2c54
07:32:43.754051 cb:64:51:7d:73:3a (oui Unknown) > b4:00:b0:00:72:3a (oui Unknown), ethertype Unknown (0xcb64), length 20: 
	0x0000:  b400 b000 723a cb64 517d 733a cb64 39ad
	0x0010:  71e8 cb04
07:32:43.754140 cb:64:39:ad:3e:0d (oui Unknown) > c4:00:74:00:72:3a (oui Unknown), ethertype Unknown (0xce5f), length 14: 
	0x0000:  c400 7400 723a cb64 39ad 3e0d ce5f
07:32:43.754333 cb:64:39:ad:72:3a (oui Unknown) > 94:00:00:00:72:3a (oui Unknown), ethertype Unknown (0xcb64), length 32: 
	0x0000:  9400 0000 723a cb64 39ad 723a cb64 517d
	0x0010:  0400 2047 ffff ffff ffff ffff 7327 fef8
07:32:43.756480 a7:5f:3a:8d:0e:93 (oui Unknown) > d4:00:00:00:98:01 (oui Unknown), ethertype Unknown (0xd978), length 14: 
	0x0000:  d400 0000 9801 a75f 3a8d 0e93 d978
07:32:43.756804 cb:64:52:59:98:01 (oui Unknown) > 94:00:00:00:70:3a (oui Unknown), ethertype Unknown (0xa75f), length 32: 
	0x0000:  9400 0000 703a cb64 5259 9801 a75f 3a8d
	0x0010:  0500 60c6 0100 0000 0000 0000 414b ef49
07:32:43.757981 cb:64:51:7d:73:3a (oui Unknown) > b4:00:b8:00:72:3a (oui Unknown), ethertype Unknown (0xcb64), length 20: 
	0x0000:  b400 b800 723a cb64 517d 733a cb64 5259
	0x0010:  2e72 4b0b
07:32:43.758070 cb:64:52:59:e2:92 (oui Unknown) > c4:00:7c:00:72:3a (oui Unknown), ethertype Unknown (0xf2b0), length 14: 
	0x0000:  c400 7c00 723a cb64 5259 e292 f2b0
07:32:43.758177 cb:64:52:59:72:3a (oui Unknown) > 94:00:00:00:72:3a (oui Unknown), ethertype Unknown (0xcb64), length 32: 
	0x0000:  9400 0000 723a cb64 5259 723a cb64 517d
	0x0010:  0400 c0b0 ffff ffff ffff ffff b09b 4a2b
07:32:43.760201 cb:64:39:ad:73:3a (oui Unknown) > b4:00:44:01:72:3a (oui Unknown), ethertype Unknown (0xcb64), length 20: 
	0x0000:  b400 4401 723a cb64 39ad 733a cb64 517d
	0x0010:  7869 d72a
07:32:43.760291 cb:64:51:7d:2e:b1 (oui Unknown) > c4:00:08:01:72:3a (oui Unknown), ethertype Unknown (0xb129), length 14: 
	0x0000:  c400 0801 723a cb64 517d 2eb1 b129
07:32:43.760532 cb:64:51:7d:72:3a (oui Unknown) > 94:00:00:00:72:3a (oui Unknown), ethertype Unknown (0xcb64), length 32: 
	0x0000:  9400 0000 723a cb64 517d 723a cb64 39ad
	0x0010:  0400 b02b ffff ffff ffff ffff 8e77 e2e3
07:32:43.760628 cb:64:51:7d:2f:a1 (oui Unknown) > c4:00:00:00:72:3a (oui Unknown), ethertype Unknown (0x235c), length 14: 
	0x0000:  c400 0000 723a cb64 517d 2fa1 235c
07:32:43.760738 cb:64:51:7d:72:3a (oui Unknown) > 94:00:00:00:72:3a (oui Unknown), ethertype Unknown (0xcb64), length 32: 
	0x0000:  9400 0000 723a cb64 517d 723a cb64 39ad
	0x0010:  0400 c02b ffff ffff ffff ffff 16f2 ab15
07:32:43.760832 cb:64:51:7d:2f:a1 (oui Unknown) > c4:00:00:00:72:3a (oui Unknown), ethertype Unknown (0x235c), length 14: 
	0x0000:  c400 0000 723a cb64 517d 2fa1 235c
07:32:43.760940 cb:64:52:59:73:3a (oui Unknown) > b4:00:18:01:72:3a (oui Unknown), ethertype Unknown (0xcb64), length 20: 
	0x0000:  b400 1801 723a cb64 5259 733a cb64 517d
	0x0010:  ef91 993a
07:32:43.761033 cb:64:51:7d:7c:c2 (oui Unknown) > c4:00:dc:00:72:3a (oui Unknown), ethertype Unknown (0x910d), length 14: 
	0x0000:  c400 dc00 723a cb64 517d 7cc2 910d
07:32:43.761862 cb:64:39:ad:73:3a (oui Unknown) > b4:00:20:01:72:3a (oui Unknown), ethertype Unknown (0xcb64), length 20: 
	0x0000:  b400 2001 723a cb64 39ad 733a cb64 517d
	0x0010:  4a69 a6bf
07:32:43.761957 cb:64:51:7d:b4:8a (oui Unknown) > c4:00:e4:00:72:3a (oui Unknown), ethertype Unknown (0xb95b), length 14: 
	0x0000:  c400 e400 723a cb64 517d b48a b95b
07:32:43.762081 cb:64:51:7d:72:3a (oui Unknown) > 94:00:00:00:72:3a (oui Unknown), ethertype Unknown (0xcb64), length 32: 
	0x0000:  9400 0000 723a cb64 517d 723a cb64 39ad
	0x0010:  0400 e02b ffff ffff ffff ffff c6f1 f65a
07:32:43.762177 cb:64:51:7d:2f:a1 (oui Unknown) > c4:00:00:00:72:3a (oui Unknown), ethertype Unknown (0x235c), length 14: 
	0x0000:  c400 0000 723a cb64 517d 2fa1 235c
07:32:43.762286 20:59:4d:63:71:3a (oui Unknown) > b4:00:68:01:48:45 (oui Unknown), ethertype Unknown (0xcb64), length 20: 
	0x0000:  b400 6801 4845 2059 4d63 713a cb64 39af
	0x0010:  3ea1 f772
07:32:43.762814 cb:64:52:59:73:3a (oui Unknown) > b4:00:34:01:72:3a (oui Unknown), ethertype Unknown (0xcb64), length 20: 
	0x0000:  b400 3401 723a cb64 5259 733a cb64 517d
	0x0010:  1a78 08dd
07:32:43.762908 cb:64:51:7d:d0:ae (oui Unknown) > c4:00:f8:00:72:3a (oui Unknown), ethertype Unknown (0xad70), length 14: 
	0x0000:  c400 f800 723a cb64 517d d0ae ad70
07:32:43.763105 cb:64:51:7d:72:3a (oui Unknown) > 94:00:00:00:72:3a (oui Unknown), ethertype Unknown (0xcb64), length 32: 
	0x0000:  9400 0000 723a cb64 517d 723a cb64 5259
	0x0010:  0400 0034 ffff ffff ffff ffff d6f6 af07
07:32:43.763202 cb:64:51:7d:2f:a1 (oui Unknown) > c4:00:00:00:72:3a (oui Unknown), ethertype Unknown (0x235c), length 14: 
	0x0000:  c400 0000 723a cb64 517d 2fa1 235c
07:32:43.763286 20:59:4d:63:2c:ad (oui Unknown) > d4:00:04:00:48:45 (oui Unknown), ethertype Unknown (0x1110), length 14: 
	0x0000:  d400 0400 4845 2059 4d63 2cad 1110
07:32:43.763498 cb:64:39:ad:73:3a (oui Unknown) > b4:00:fc:00:72:3a (oui Unknown), ethertype Unknown (0xcb64), length 20: 
	0x0000:  b400 fc00 723a cb64 39ad 733a cb64 517d
	0x0010:  9d05 bdec
07:32:43.763587 cb:64:51:7d:18:e6 (oui Unknown) > c4:00:c0:00:72:3a (oui Unknown), ethertype Unknown (0x8526), length 14: 
	0x0000:  c400 c000 723a cb64 517d 18e6 8526
07:32:43.763695 cb:64:51:7d:72:3a (oui Unknown) > 94:00:00:00:72:3a (oui Unknown), ethertype Unknown (0xcb64), length 32: 
	0x0000:  9400 0000 723a cb64 517d 723a cb64 39ad
	0x0010:  0400 f02b ffff ffff ffff ffff 2e70 587d
07:32:43.763790 cb:64:51:7d:2f:a1 (oui Unknown) > c4:00:00:00:72:3a (oui Unknown), ethertype Unknown (0x235c), length 14: 
	0x0000:  c400 0000 723a cb64 517d 2fa1 235c
07:32:43.764237 cb:64:51:7d:73:3a (oui Unknown) > b4:00:b0:00:72:3a (oui Unknown), ethertype Unknown (0xcb64), length 20: 
	0x0000:  b400 b000 723a cb64 517d 733a cb64 39ad
	0x0010:  71e8 cb04
07:32:43.764326 cb:64:39:ad:3e:0d (oui Unknown) > c4:00:74:00:72:3a (oui Unknown), ethertype Unknown (0xce5f), length 14: 
	0x0000:  c400 7400 723a cb64 39ad 3e0d ce5f
07:32:43.764645 cb:64:52:59:98:01 (oui Unknown) > 94:00:00:00:70:3a (oui Unknown), ethertype Unknown (0xa75f), length 32: 
	0x0000:  9400 0000 703a cb64 5259 9801 a75f 3a8d
	0x0010:  0500 70c6 0300 0000 0000 0000 d4cd 642c
07:32:43.764742 cb:64:52:59:36:b7 (oui Unknown) > c4:00:00:00:70:3a (oui Unknown), ethertype Unknown (0xc506), length 14: 
	0x0000:  c400 0000 703a cb64 5259 36b7 c506
07:32:43.764871 20:59:4d:63:71:3a (oui Unknown) > b4:00:68:01:48:45 (oui Unknown), ethertype Unknown (0xcb64), length 20: 
	0x0000:  b400 6801 4845 2059 4d63 713a cb64 39af
	0x0010:  3ea1 f772
07:32:43.765852 20:59:4d:63:2c:ad (oui Unknown) > d4:00:04:00:48:45 (oui Unknown), ethertype Unknown (0x1110), length 14: 
	0x0000:  d400 0400 4845 2059 4d63 2cad 1110
07:32:43.767452 cb:64:51:7d:73:3a (oui Unknown) > b4:00:b0:00:72:3a (oui Unknown), ethertype Unknown (0xcb64), length 20: 
	0x0000:  b400 b000 723a cb64 517d 733a cb64 39ad
	0x0010:  71e8 cb04
07:32:43.767546 cb:64:39:ad:3e:0d (oui Unknown) > c4:00:74:00:72:3a (oui Unknown), ethertype Unknown (0xce5f), length 14: 
	0x0000:  c400 7400 723a cb64 39ad 3e0d ce5f
07:32:43.767655 cb:64:39:ad:72:3a (oui Unknown) > 94:00:00:00:72:3a (oui Unknown), ethertype Unknown (0xcb64), length 32: 
	0x0000:  9400 0000 723a cb64 39ad 723a cb64 517d
	0x0010:  0400 4047 ffff ffff ffff ffff 0323 1929
07:32:43.772752 cb:64:39:ad:73:3a (oui Unknown) > b4:00:44:01:72:3a (oui Unknown), ethertype Unknown (0xcb64), length 20: 
	0x0000:  b400 4401 723a cb64 39ad 733a cb64 517d
	0x0010:  7869 d72a
07:32:43.772842 cb:64:51:7d:2e:b1 (oui Unknown) > c4:00:08:01:72:3a (oui Unknown), ethertype Unknown (0xb129), length 14: 
	0x0000:  c400 0801 723a cb64 517d 2eb1 b129
07:32:43.773085 cb:64:51:7d:72:3a (oui Unknown) > 94:00:00:00:72:3a (oui Unknown), ethertype Unknown (0xcb64), length 32: 
	0x0000:  9400 0000 723a cb64 517d 723a cb64 39ad
	0x0010:  0400 102c ffff ffff ffff ffff 9610 db2e
07:32:43.773183 cb:64:51:7d:2f:a1 (oui Unknown) > c4:00:00:00:72:3a (oui Unknown), ethertype Unknown (0x235c), length 14: 
	0x0000:  c400 0000 723a cb64 517d 2fa1 235c
07:32:43.773291 cb:64:52:59:73:3a (oui Unknown) > b4:00:bc:00:72:3a (oui Unknown), ethertype Unknown (0xcb64), length 20: 
	0x0000:  b400 bc00 723a cb64 5259 733a cb64 517d
	0x0010:  4b50 b4b0
07:32:43.773380 cb:64:51:7d:f5:24 (oui Unknown) > c4:00:80:00:72:3a (oui Unknown), ethertype Unknown (0x180f), length 14: 
	0x0000:  c400 8000 723a cb64 517d f524 180f
07:32:43.773569 cb:64:51:7d:72:3a (oui Unknown) > 94:00:00:00:72:3a (oui Unknown), ethertype Unknown (0xcb64), length 32: 
	0x0000:  9400 0000 723a cb64 517d 723a cb64 5259
	0x0010:  0400 1034 ffff ffff ffff ffff 3e77 0120
07:32:43.773691 cb:64:39:ad:73:3a (oui Unknown) > b4:00:e0:00:72:3a (oui Unknown), ethertype Unknown (0xcb64), length 20: 
	0x0000:  b400 e000 723a cb64 39ad 733a cb64 517d
	0x0010:  dca8 faa0
07:32:43.773784 cb:64:51:7d:59:48 (oui Unknown) > c4:00:a4:00:72:3a (oui Unknown), ethertype Unknown (0x2472), length 14: 
	0x0000:  c400 a400 723a cb64 517d 5948 2472
07:32:43.773900 cb:64:51:7d:72:3a (oui Unknown) > 94:00:00:00:72:3a (oui Unknown), ethertype Unknown (0xcb64), length 32: 
	0x0000:  9400 0000 723a cb64 517d 723a cb64 39ad
	0x0010:  0400 202c ffff ffff ffff ffff ae92 2846
07:32:43.774021 20:59:4d:63:71:3a (oui Unknown) > b4:00:44:01:48:45 (oui Unknown), ethertype Unknown (0xcb64), length 20: 
	0x0000:  b400 4401 4845 2059 4d63 713a cb64 39af
	0x0010:  cb48 6695
07:32:43.774528 cb:64:39:ad:73:3a (oui Unknown) > b4:00:c4:00:72:3a (oui Unknown), ethertype Unknown (0xcb64), length 20: 
	0x0000:  b400 c400 723a cb64 39ad 733a cb64 517d
	0x0010:  1f5f 3274
07:32:43.774621 cb:64:51:7d:40:3f (oui Unknown) > c4:00:88:00:72:3a (oui Unknown), ethertype Unknown (0xfddc), length 14: 
	0x0000:  c400 8800 723a cb64 517d 403f fddc
07:32:43.774739 cb:64:51:7d:72:3a (oui Unknown) > 94:00:00:00:72:3a (oui Unknown), ethertype Unknown (0xcb64), length 32: 
	0x0000:  9400 0000 723a cb64 517d 723a cb64 39ad
	0x0010:  0400 302c ffff ffff ffff ffff 4613 8661
07:32:43.774835 cb:64:51:7d:2f:a1 (oui Unknown) > c4:00:00:00:72:3a (oui Unknown), ethertype Unknown (0x235c), length 14: 
	0x0000:  c400 0000 723a cb64 517d 2fa1 235c
07:32:43.775047 20:59:4d:63:71:3a (oui Unknown) > b4:00:fc:00:48:45 (oui Unknown), ethertype Unknown (0xcb64), length 20: 
	0x0000:  b400 fc00 4845 2059 4d63 713a cb64 39af
	0x0010:  2e24 0c53
07:32:43.775476 cb:64:52:59:98:01 (oui Unknown) > 94:00:00:00:70:3a (oui Unknown), ethertype Unknown (0xa75f), length 32: 
	0x0000:  9400 0000 703a cb64 5259 9801 a75f 3a8d
	0x0010:  0500 90c6 0100 0000 0000 0000 d8c7 a359
07:32:43.775775 20:59:4d:63:d6:a3 (oui Unknown) > d4:00:00:00:48:45 (oui Unknown), ethertype Unknown (0x5b94), length 14: 
	0x0000:  d400 0000 4845 2059 4d63 d6a3 5b94
07:32:43.775869 20:59:4d:63:2c:ad (oui Unknown) > d4:00:04:00:48:45 (oui Unknown), ethertype Unknown (0x1110), length 14: 
	0x0000:  d400 0400 4845 2059 4d63 2cad 1110
07:32:43.775978 20:59:4d:63:71:3a (oui Unknown) > b4:00:d8:00:48:45 (oui Unknown), ethertype Unknown (0xcb64), length 20: 
	0x0000:  b400 d800 4845 2059 4d63 713a cb64 39af
	0x0010:  edd3 c487
07:32:43.776410 a7:5f:3a:8d:0e:93 (oui Unknown) > d4:00:00:00:98:01 (oui Unknown), ethertype Unknown (0xd978), length 14: 
	0x0000:  d400 0000 9801 a75f 3a8d 0e93 d978
07:32:43.776727 cb:64:39:ad:73:3a (oui Unknown) > b4:00:14:01:72:3a (oui Unknown), ethertype Unknown (0xcb64), length 20: 
	0x0000:  b400 1401 723a cb64 39ad 733a cb64 517d
	0x0010:  e5a2 dc0d
07:32:43.776822 cb:64:51:7d:86:cc (oui Unknown) > c4:00:d8:00:72:3a (oui Unknown), ethertype Unknown (0xdb89), length 14: 
	0x0000:  c400 d800 723a cb64 517d 86cc db89
07:32:43.777171 cb:64:51:7d:73:3a (oui Unknown) > b4:00:b0:00:72:3a (oui Unknown), ethertype Unknown (0xcb64), length 20: 
	0x0000:  b400 b000 723a cb64 517d 733a cb64 39ad
	0x0010:  71e8 cb04
07:32:43.777260 cb:64:39:ad:3e:0d (oui Unknown) > c4:00:74:00:72:3a (oui Unknown), ethertype Unknown (0xce5f), length 14: 
	0x0000:  c400 7400 723a cb64 39ad 3e0d ce5f
07:32:43.777472 cb:64:51:7d:73:3a (oui Unknown) > b4:00:b8:00:72:3a (oui Unknown), ethertype Unknown (0xcb64), length 20: 
	0x0000:  b400 b800 723a cb64 517d 733a cb64 5259
	0x0010:  2e72 4b0b
07:32:43.777561 cb:64:52:59:e2:92 (oui Unknown) > c4:00:7c:00:72:3a (oui Unknown), ethertype Unknown (0xf2b0), length 14: 
	0x0000:  c400 7c00 723a cb64 5259 e292 f2b0
07:32:43.777669 cb:64:52:59:72:3a (oui Unknown) > 94:00:00:00:72:3a (oui Unknown), ethertype Unknown (0xcb64), length 32: 
	0x0000:  9400 0000 723a cb64 5259 723a cb64 517d
	0x0010:  0400 d0b0 ffff ffff ffff ffff 581a e40c
07:32:43.778142 cb:64:39:ad:73:3a (oui Unknown) > b4:00:14:01:72:3a (oui Unknown), ethertype Unknown (0xcb64), length 20: 
	0x0000:  b400 1401 723a cb64 39ad 733a cb64 517d
	0x0010:  e5a2 dc0d
07:32:43.778233 cb:64:51:7d:86:cc (oui Unknown) > c4:00:d8:00:72:3a (oui Unknown), ethertype Unknown (0xdb89), length 14: 
	0x0000:  c400 d800 723a cb64 517d 86cc db89
07:32:43.778341 cb:64:51:7d:72:3a (oui Unknown) > 94:00:00:00:72:3a (oui Unknown), ethertype Unknown (0xcb64), length 32: 
	0x0000:  9400 0000 723a cb64 517d 723a cb64 39ad
	0x0010:  0400 602c ffff ffff ffff ffff 0e95 92d8
07:32:43.778436 cb:64:51:7d:2f:a1 (oui Unknown) > c4:00:00:00:72:3a (oui Unknown), ethertype Unknown (0x235c), length 14: 
	0x0000:  c400 0000 723a cb64 517d 2fa1 235c
07:32:43.778895 cb:64:39:ad:73:3a (oui Unknown) > b4:00:30:01:72:3a (oui Unknown), ethertype Unknown (0xcb64), length 20: 
	0x0000:  b400 3001 723a cb64 39ad 733a cb64 517d
	0x0010:  2655 14d9
07:32:43.778997 [|llc]
	0x0000:  c400 f400 723a cb64 517d 9fbb 0227
07:32:43.779226 cb:64:51:7d:72:3a (oui Unknown) > 94:00:00:00:72:3a (oui Unknown), ethertype Unknown (0xcb64), length 32: 
	0x0000:  9400 0000 723a cb64 517d 723a cb64 39ad
	0x0010:  0400 902c ffff ffff ffff ffff 9719 dec8
07:32:43.779324 cb:64:51:7d:2f:a1 (oui Unknown) > c4:00:00:00:72:3a (oui Unknown), ethertype Unknown (0x235c), length 14: 
	0x0000:  c400 0000 723a cb64 517d 2fa1 235c
07:32:43.779671 20:59:4d:63:71:3a (oui Unknown) > b4:00:44:01:48:45 (oui Unknown), ethertype Unknown (0xcb64), length 20: 
	0x0000:  b400 4401 4845 2059 4d63 713a cb64 39af
	0x0010:  cb48 6695
07:32:43.780117 cb:64:39:ad:73:3a (oui Unknown) > b4:00:14:01:72:3a (oui Unknown), ethertype Unknown (0xcb64), length 20: 
	0x0000:  b400 1401 723a cb64 39ad 733a cb64 517d
	0x0010:  e5a2 dc0d
07:32:43.780206 cb:64:51:7d:86:cc (oui Unknown) > c4:00:d8:00:72:3a (oui Unknown), ethertype Unknown (0xdb89), length 14: 
	0x0000:  c400 d800 723a cb64 517d 86cc db89
07:32:43.780314 cb:64:51:7d:72:3a (oui Unknown) > 94:00:00:00:72:3a (oui Unknown), ethertype Unknown (0xcb64), length 32: 
	0x0000:  9400 0000 723a cb64 517d 723a cb64 39ad
	0x0010:  0400 a02c ffff ffff ffff ffff af9b 2da0
07:32:43.780408 cb:64:51:7d:2f:a1 (oui Unknown) > c4:00:00:00:72:3a (oui Unknown), ethertype Unknown (0x235c), length 14: 
	0x0000:  c400 0000 723a cb64 517d 2fa1 235c
07:32:43.780620 cb:64:51:7d:72:3a (oui Unknown) > 94:00:00:00:72:3a (oui Unknown), ethertype Unknown (0xcb64), length 32: 
	0x0000:  9400 0000 723a cb64 517d 723a cb64 39ad
	0x0010:  0400 c02c ffff ffff ffff ffff df9f ca71
07:32:43.780740 20:59:4d:63:71:3a (oui Unknown) > b4:00:68:01:48:45 (oui Unknown), ethertype Unknown (0xcb64), length 20: 
	0x0000:  b400 6801 4845 2059 4d63 713a cb64 39af
	0x0010:  3ea1 f772
07:32:43.781270 cb:64:39:ad:73:3a (oui Unknown) > b4:00:fc:00:72:3a (oui Unknown), ethertype Unknown (0xcb64), length 20: 
	0x0000:  b400 fc00 723a cb64 39ad 733a cb64 517d
	0x0010:  9d05 bdec
07:32:43.781621 20:59:4d:63:d6:a3 (oui Unknown) > d4:00:00:00:48:45 (oui Unknown), ethertype Unknown (0x5b94), length 14: 
	0x0000:  d400 0000 4845 2059 4d63 d6a3 5b94
07:32:43.781729 20:59:4d:63:71:3a (oui Unknown) > b4:00:30:01:48:45 (oui Unknown), ethertype Unknown (0xcb64), length 20: 
	0x0000:  b400 3001 4845 2059 4d63 713a cb64 39af
	0x0010:  9574 a566
07:32:43.782217 20:59:4d:63:2c:ad (oui Unknown) > d4:00:04:00:48:45 (oui Unknown), ethertype Unknown (0x1110), length 14: 
	0x0000:  d400 0400 4845 2059 4d63 2cad 1110
07:32:43.782526 cb:64:51:7d:73:3a (oui Unknown) > b4:00:b0:00:72:3a (oui Unknown), ethertype Unknown (0xcb64), length 20: 
	0x0000:  b400 b000 723a cb64 517d 733a cb64 39ad
	0x0010:  71e8 cb04
07:32:43.782615 cb:64:39:ad:3e:0d (oui Unknown) > c4:00:74:00:72:3a (oui Unknown), ethertype Unknown (0xce5f), length 14: 
	0x0000:  c400 7400 723a cb64 39ad 3e0d ce5f
07:32:43.782998 20:59:4d:63:2c:ad (oui Unknown) > d4:00:04:00:48:45 (oui Unknown), ethertype Unknown (0x1110), length 14: 
	0x0000:  d400 0400 4845 2059 4d63 2cad 1110
07:32:43.783191 cb:64:51:7d:73:3a (oui Unknown) > b4:00:b0:00:72:3a (oui Unknown), ethertype Unknown (0xcb64), length 20: 
	0x0000:  b400 b000 723a cb64 517d 733a cb64 39ad
	0x0010:  71e8 cb04
07:32:43.783677 cb:64:51:7d:73:3a (oui Unknown) > b4:00:b0:00:72:3a (oui Unknown), ethertype Unknown (0xcb64), length 20: 
	0x0000:  b400 b000 723a cb64 517d 733a cb64 39ad
	0x0010:  71e8 cb04
07:32:43.783774 cb:64:39:ad:3e:0d (oui Unknown) > c4:00:74:00:72:3a (oui Unknown), ethertype Unknown (0xce5f), length 14: 
	0x0000:  c400 7400 723a cb64 39ad 3e0d ce5f
07:32:43.783882 cb:64:39:ad:72:3a (oui Unknown) > 94:00:00:00:72:3a (oui Unknown), ethertype Unknown (0xcb64), length 32: 
	0x0000:  9400 0000 723a cb64 39ad 723a cb64 517d
	0x0010:  0400 7047 ffff ffff ffff ffff 3ba1 ea41
07:32:43.784385 cb:64:39:ad:73:3a (oui Unknown) > b4:00:14:01:72:3a (oui Unknown), ethertype Unknown (0xcb64), length 20: 
	0x0000:  b400 1401 723a cb64 39ad 733a cb64 517d
	0x0010:  e5a2 dc0d
07:32:43.784474 cb:64:51:7d:86:cc (oui Unknown) > c4:00:d8:00:72:3a (oui Unknown), ethertype Unknown (0xdb89), length 14: 
	0x0000:  c400 d800 723a cb64 517d 86cc db89
07:32:43.784583 cb:64:51:7d:72:3a (oui Unknown) > 94:00:00:00:72:3a (oui Unknown), ethertype Unknown (0xcb64), length 32: 
	0x0000:  9400 0000 723a cb64 517d 723a cb64 39ad
	0x0010:  0400 d02c ffff ffff ffff ffff 371e 6456
07:32:43.784678 cb:64:51:7d:2f:a1 (oui Unknown) > c4:00:00:00:72:3a (oui Unknown), ethertype Unknown (0x235c), length 14: 
	0x0000:  c400 0000 723a cb64 517d 2fa1 235c
07:32:43.785156 cb:64:51:7d:73:3a (oui Unknown) > b4:00:b0:00:72:3a (oui Unknown), ethertype Unknown (0xcb64), length 20: 
	0x0000:  b400 b000 723a cb64 517d 733a cb64 39ad
	0x0010:  71e8 cb04
07:32:43.785248 cb:64:39:ad:3e:0d (oui Unknown) > c4:00:74:00:72:3a (oui Unknown), ethertype Unknown (0xce5f), length 14: 
	0x0000:  c400 7400 723a cb64 39ad 3e0d ce5f
07:32:43.785460 cb:64:39:ad:73:3a (oui Unknown) > b4:00:4c:01:72:3a (oui Unknown), ethertype Unknown (0xcb64), length 20: 
	0x0000:  b400 4c01 723a cb64 39ad 733a cb64 517d
	0x0010:  4e77 8e19
07:32:43.785553 cb:64:51:7d:b0:9b (oui Unknown) > c4:00:10:01:72:3a (oui Unknown), ethertype Unknown (0xef86), length 14: 
	0x0000:  c400 1001 723a cb64 517d b09b ef86
07:32:43.785809 cb:64:51:7d:72:3a (oui Unknown) > 94:00:00:00:72:3a (oui Unknown), ethertype Unknown (0xcb64), length 32: 
	0x0000:  9400 0000 723a cb64 517d 723a cb64 39ad
	0x0010:  0400 002d ffff ffff ffff ff9f 65e4 bc53
07:32:43.785906 cb:64:51:7d:2f:a1 (oui Unknown) > c4:00:00:00:72:3a (oui Unknown), ethertype Unknown (0x235c), length 14: 
	0x0000:  c400 0000 723a cb64 517d 2fa1 235c
07:32:43.786199 cb:64:51:7d:72:3a (oui Unknown) > 94:00:00:00:72:3a (oui Unknown), ethertype Unknown (0xcb64), length 32: 
	0x0000:  9400 0000 723a cb64 517d 723a cb64 39ad
	0x0010:  0400 002d ffff ffff ffff ffff 3d85 0e1e
07:32:43.786294 cb:64:51:7d:2f:a1 (oui Unknown) > c4:00:00:00:72:3a (oui Unknown), ethertype Unknown (0x235c), length 14: 
	0x0000:  c400 0000 723a cb64 517d 2fa1 235c
07:32:43.786402 cb:64:51:7d:72:3a (oui Unknown) > 94:00:00:00:72:3a (oui Unknown), ethertype Unknown (0xcb64), length 32: 
	0x0000:  9400 0000 723a cb64 517d 723a cb64 39ad
	0x0010:  0400 202d ffff ffff ffff ffff ed86 5351
07:32:43.786497 cb:64:51:7d:2f:a1 (oui Unknown) > c4:00:00:00:72:3a (oui Unknown), ethertype Unknown (0x235c), length 14: 
	0x0000:  c400 0000 723a cb64 517d 2fa1 235c
07:32:43.786709 20:59:4d:63:71:3a (oui Unknown) > b4:00:e0:00:48:45 (oui Unknown), ethertype Unknown (0xcb64), length 20: 
	0x0000:  b400 e000 4845 2059 4d63 713a cb64 39af
	0x0010:  6f89 4b1f
07:32:43.787416 ff:ff:ff:ff:d8:0d (oui Unknown) > 80:00:00:00:ff:ff (oui Unknown), ethertype Unknown (0x1772), length 256: 
	0x0000:  8000 0000 ffff ffff ffff d80d 1772 583a
	0x0010:  d80d 1772 583a b053 5920 2d9c 0200 0000
	0x0020:  6400 1110 000f 5450 2d4c 696e 6b5f 3538
	0x0030:  3343 5f35 4701 088c 1298 24b0 4860 6c05
	0x0040:  0400 0100 0030 1401 0000 0fac 0401 0000
	0x0050:  0fac 0401 0000 0fac 020c 0046 0532 0801
	0x0060:  0000 2d1a ad09 17ff ff00 0000 0000 0000
	0x0070:  0000 0000 0000 0000 0000 0000 0000 3d16
	0x0080:  9908 0000 0000 0000 0000 0000 0000 0000
	0x0090:  0000 0000 0000 7f08 0400 0000 0000 0040
	0x00a0:  bf0c b201 8003 faff 0000 faff 0000 c005
	0x00b0:  0099 0000 00c3 0200 0edd 1c00 50f2 0410
	0x00c0:  4a00 0110 1044 0001 0210 4900 0a00 372a
	0x00d0:  0001 2005 0226 88dd 0900 1018 0200 001c
	0x00e0:  0000 dd18 0050 f202 0101 8000 03a4 0000
	0x00f0:  27a4 0000 4243 5e00 6232 2f00 086c 9e0d
07:32:43.788214 cb:64:52:59:73:3a (oui Unknown) > b4:00:e0:00:72:3a (oui Unknown), ethertype Unknown (0xcb64), length 20: 
	0x0000:  b400 e000 723a cb64 5259 733a cb64 517d
	0x0010:  fb0a 4abd
07:32:43.788306 cb:64:51:7d:59:48 (oui Unknown) > c4:00:a4:00:72:3a (oui Unknown), ethertype Unknown (0x2472), length 14: 
	0x0000:  c400 a400 723a cb64 517d 5948 2472
07:32:43.788415 cb:64:51:7d:72:3a (oui Unknown) > 94:00:00:00:72:3a (oui Unknown), ethertype Unknown (0xcb64), length 32: 
	0x0000:  9400 0000 723a cb64 517d 723a cb64 5259
	0x0010:  0400 2034 ffff ffff ffff ffff 06f5 f248
07:32:43.788547 20:59:4d:63:71:3a (oui Unknown) > b4:00:48:01:48:45 (oui Unknown), ethertype Unknown (0xcb64), length 20: 
	0x0000:  b400 4801 4845 2059 4d63 713a cb64 39af
	0x0010:  e6d9 93bf
07:32:43.789033 cb:64:39:ad:73:3a (oui Unknown) > b4:00:64:01:72:3a (oui Unknown), ethertype Unknown (0xcb64), length 20: 
	0x0000:  b400 6401 723a cb64 39ad 733a cb64 517d
	0x0010:  a011 b3e7
07:32:43.789129 cb:64:51:7d:78:d3 (oui Unknown) > c4:00:28:01:72:3a (oui Unknown), ethertype Unknown (0xc7d0), length 14: 
	0x0000:  c400 2801 723a cb64 517d 78d3 c7d0
07:32:43.789396 cb:64:51:7d:72:3a (oui Unknown) > 94:00:00:00:72:3a (oui Unknown), ethertype Unknown (0xcb64), length 32: 
	0x0000:  9400 0000 723a cb64 517d 723a cb64 39ad
	0x0010:  0400 402d ffff ffff ffff ffbf 0dc3 68f6
07:32:43.789493 cb:64:51:7d:2f:a1 (oui Unknown) > c4:00:00:00:72:3a (oui Unknown), ethertype Unknown (0x235c), length 14: 
	0x0000:  c400 0000 723a cb64 517d 2fa1 235c
07:32:43.789706 cb:64:51:7d:72:3a (oui Unknown) > 94:00:00:00:72:3a (oui Unknown), ethertype Unknown (0xcb64), length 32: 
	0x0000:  9400 0000 723a cb64 517d 723a cb64 39ad
	0x0010:  0400 602d ffff ffff ffff ffaf b9d0 82a4
07:32:43.789825 20:59:4d:63:71:3a (oui Unknown) > b4:00:44:01:48:45 (oui Unknown), ethertype Unknown (0xcb64), length 20: 
	0x0000:  b400 4401 4845 2059 4d63 713a cb64 39af
	0x0010:  cb48 6695
07:32:43.790262 cb:64:39:ad:73:3a (oui Unknown) > b4:00:44:01:72:3a (oui Unknown), ethertype Unknown (0xcb64), length 20: 
	0x0000:  b400 4401 723a cb64 39ad 733a cb64 517d
	0x0010:  7869 d72a
07:32:43.790351 cb:64:51:7d:2e:b1 (oui Unknown) > c4:00:08:01:72:3a (oui Unknown), ethertype Unknown (0xb129), length 14: 
	0x0000:  c400 0801 723a cb64 517d 2eb1 b129
07:32:43.790593 cb:64:51:7d:72:3a (oui Unknown) > 94:00:00:00:72:3a (oui Unknown), ethertype Unknown (0xcb64), length 32: 
	0x0000:  9400 0000 723a cb64 517d 723a cb64 39ad
	0x0010:  0400 602d ffff ffff ffff ffff 4d81 e9cf
07:32:43.790688 cb:64:51:7d:2f:a1 (oui Unknown) > c4:00:00:00:72:3a (oui Unknown), ethertype Unknown (0x235c), length 14: 
	0x0000:  c400 0000 723a cb64 517d 2fa1 235c
07:32:43.790796 cb:64:52:59:98:01 (oui Unknown) > 94:00:00:00:70:3a (oui Unknown), ethertype Unknown (0xa75f), length 32: 
	0x0000:  9400 0000 703a cb64 5259 9801 a75f 3a8d
	0x0010:  0500 a0c6 0100 0000 0000 0000 e045 5031
07:32:43.790916 20:59:4d:63:70:3a (oui Unknown) > 94:00:00:00:48:45 (oui Unknown), ethertype Unknown (0xcb64), length 32: 
	0x0000:  9400 0000 4845 2059 4d63 703a cb64 39af
	0x0010:  0400 50b9 ffff ffff ffff ffff ab8e 08e2
07:32:43.791028 20:59:4d:63:2c:ad (oui Unknown) > d4:00:04:00:48:45 (oui Unknown), ethertype Unknown (0x1110), length 14: 
	0x0000:  d400 0400 4845 2059 4d63 2cad 1110
07:32:43.792532 cb:64:51:7d:33:d7 (oui Unknown) > c4:00:d0:00:72:3a (oui Unknown), ethertype Unknown (0x3e5a), length 14: 
	0x0000:  c400 d000 723a cb64 517d 33d7 3e5a
07:32:43.792764 cb:64:51:7d:72:3a (oui Unknown) > 94:00:00:00:72:3a (oui Unknown), ethertype Unknown (0xcb64), length 32: 
	0x0000:  9400 0000 723a cb64 517d 723a cb64 5259
	0x0010:  0400 4034 ffff ffff ffff ffff 76f1 1599
07:32:43.792939 cb:64:51:7d:2f:a1 (oui Unknown) > c4:00:00:00:72:3a (oui Unknown), ethertype Unknown (0x235c), length 14: 
	0x0000:  c400 0000 723a cb64 517d 2fa1 235c
07:32:43.793307 20:59:4d:63:71:3a (oui Unknown) > b4:00:ac:01:48:45 (oui Unknown), ethertype Unknown (0xcb64), length 20: 
	0x0000:  b400 ac01 4845 2059 4d63 713a cb64 39af
	0x0010:  3636 91a9
07:32:43.793871 cb:64:39:ad:73:3a (oui Unknown) > b4:00:b0:01:72:3a (oui Unknown), ethertype Unknown (0xcb64), length 20: 
	0x0000:  b400 b001 723a cb64 39ad 733a cb64 517d
	0x0010:  c4ba 675a
07:32:43.793965 cb:64:51:7d:f1:35 (oui Unknown) > c4:00:74:01:72:3a (oui Unknown), ethertype Unknown (0x4ed2), length 14: 
	0x0000:  c400 7401 723a cb64 517d f135 4ed2
07:32:43.794310 cb:64:51:7d:72:3a (oui Unknown) > 94:00:00:00:72:3a (oui Unknown), ethertype Unknown (0xcb64), length 32: 
	0x0000:  9400 0000 723a cb64 517d 723a cb64 39ad
	0x0010:  0400 a02d ffff ffff ffff ffff ec8f 56b7
07:32:43.794405 cb:64:51:7d:2f:a1 (oui Unknown) > c4:00:00:00:72:3a (oui Unknown), ethertype Unknown (0x235c), length 14: 
	0x0000:  c400 0000 723a cb64 517d 2fa1 235c
07:32:43.794514 cb:64:51:7d:73:3a (oui Unknown) > b4:00:b0:00:72:3a (oui Unknown), ethertype Unknown (0xcb64), length 20: 
	0x0000:  b400 b000 723a cb64 517d 733a cb64 39ad
	0x0010:  71e8 cb04
07:32:43.794930 cb:64:39:ad:73:3a (oui Unknown) > b4:00:20:01:72:3a (oui Unknown), ethertype Unknown (0xcb64), length 20: 
	0x0000:  b400 2001 723a cb64 39ad 733a cb64 517d
	0x0010:  4a69 a6bf
07:32:43.795019 cb:64:51:7d:b4:8a (oui Unknown) > c4:00:e4:00:72:3a (oui Unknown), ethertype Unknown (0xb95b), length 14: 
	0x0000:  c400 e400 723a cb64 517d b48a b95b
07:32:43.795232 cb:64:51:7d:72:3a (oui Unknown) > 94:00:00:00:72:3a (oui Unknown), ethertype Unknown (0xcb64), length 32: 
	0x0000:  9400 0000 723a cb64 517d 723a cb64 39ad
	0x0010:  0400 c02d ffff ffff ffff ffff 9c8b b166
07:32:43.795327 cb:64:51:7d:2f:a1 (oui Unknown) > c4:00:00:00:72:3a (oui Unknown), ethertype Unknown (0x235c), length 14: 
	0x0000:  c400 0000 723a cb64 517d 2fa1 235c
07:32:43.795435 cb:64:52:59:98:01 (oui Unknown) > 94:00:00:00:70:3a (oui Unknown), ethertype Unknown (0xa75f), length 32: 
	0x0000:  9400 0000 703a cb64 5259 9801 a75f 3a8d
	0x0010:  0500 b0c6 0300 0000 0000 0000 75c3 db54
07:32:43.795530 cb:64:52:59:36:b7 (oui Unknown) > c4:00:00:00:70:3a (oui Unknown), ethertype Unknown (0xc506), length 14: 
	0x0000:  c400 0000 703a cb64 5259 36b7 c506
07:32:43.795638 cb:64:51:7d:73:3a (oui Unknown) > b4:00:b0:00:72:3a (oui Unknown), ethertype Unknown (0xcb64), length 20: 
	0x0000:  b400 b000 723a cb64 517d 733a cb64 39ad
	0x0010:  71e8 cb04
07:32:43.795727 cb:64:39:ad:3e:0d (oui Unknown) > c4:00:74:00:72:3a (oui Unknown), ethertype Unknown (0xce5f), length 14: 
	0x0000:  c400 7400 723a cb64 39ad 3e0d ce5f
07:32:43.796023 a7:5f:3a:8d:0e:93 (oui Unknown) > d4:00:00:00:98:01 (oui Unknown), ethertype Unknown (0xd978), length 14: 
	0x0000:  d400 0000 9801 a75f 3a8d 0e93 d978
07:32:43.796132 cb:64:39:ad:73:3a (oui Unknown) > b4:00:dc:00:72:3a (oui Unknown), ethertype Unknown (0xcb64), length 20: 
	0x0000:  b400 dc00 723a cb64 39ad 733a cb64 517d
	0x0010:  457d d921
07:32:43.796225 cb:64:51:7d:a3:46 (oui Unknown) > c4:00:a0:00:72:3a (oui Unknown), ethertype Unknown (0x6ef6), length 14: 
	0x0000:  c400 a000 723a cb64 517d a346 6ef6
07:32:43.796341 cb:64:51:7d:72:3a (oui Unknown) > 94:00:00:00:72:3a (oui Unknown), ethertype Unknown (0xcb64), length 32: 
	0x0000:  9400 0000 723a cb64 517d 723a cb64 39ad
	0x0010:  0400 d02d ffff ffff ffff ffff 740a 1f41
07:32:43.796438 cb:64:51:7d:2f:a1 (oui Unknown) > c4:00:00:00:72:3a (oui Unknown), ethertype Unknown (0x235c), length 14: 
	0x0000:  c400 0000 723a cb64 517d 2fa1 235c
07:32:43.796546 cb:64:51:7d:72:3a (oui Unknown) > 94:00:00:00:72:3a (oui Unknown), ethertype Unknown (0xcb64), length 32: 
	0x0000:  9400 0000 723a cb64 517d 723a cb64 39ad
	0x0010:  0400 e02d ffff ffff ffff ffff 4c88 ec29
07:32:43.796641 cb:64:51:7d:2f:a1 (oui Unknown) > c4:00:00:00:72:3a (oui Unknown), ethertype Unknown (0x235c), length 14: 
	0x0000:  c400 0000 723a cb64 517d 2fa1 235c
07:32:43.796824 cb:64:51:7d:73:3a (oui Unknown) > b4:00:b0:00:72:3a (oui Unknown), ethertype Unknown (0xcb64), length 20: 
	0x0000:  b400 b000 723a cb64 517d 733a cb64 39ad
	0x0010:  71e8 cb04
07:32:43.796915 cb:64:39:ad:3e:0d (oui Unknown) > c4:00:74:00:72:3a (oui Unknown), ethertype Unknown (0xce5f), length 14: 
	0x0000:  c400 7400 723a cb64 39ad 3e0d ce5f
07:32:43.797128 cb:64:52:59:73:3a (oui Unknown) > b4:00:bc:00:72:3a (oui Unknown), ethertype Unknown (0xcb64), length 20: 
	0x0000:  b400 bc00 723a cb64 5259 733a cb64 517d
	0x0010:  4b50 b4b0
07:32:43.797216 cb:64:51:7d:f5:24 (oui Unknown) > c4:00:80:00:72:3a (oui Unknown), ethertype Unknown (0x180f), length 14: 
	0x0000:  c400 8000 723a cb64 517d f524 180f
07:32:43.797324 cb:64:51:7d:72:3a (oui Unknown) > 94:00:00:00:72:3a (oui Unknown), ethertype Unknown (0xcb64), length 32: 
	0x0000:  9400 0000 723a cb64 517d 723a cb64 5259
	0x0010:  0400 5034 ffff ffff ffff ffff 9e70 bbbe
07:32:43.797524 20:59:4d:63:d6:a3 (oui Unknown) > d4:00:00:00:48:45 (oui Unknown), ethertype Unknown (0x5b94), length 14: 
	0x0000:  d400 0000 4845 2059 4d63 d6a3 5b94
07:32:43.797881 20:59:4d:63:71:3a (oui Unknown) > b4:00:18:02:48:45 (oui Unknown), ethertype Unknown (0xcb64), length 20: 
	0x0000:  b400 1802 4845 2059 4d63 713a cb64 39af
	0x0010:  b57e 5225
07:32:43.798546 cb:64:51:7d:73:3a (oui Unknown) > b4:00:b8:00:72:3a (oui Unknown), ethertype Unknown (0xcb64), length 20: 
	0x0000:  b400 b800 723a cb64 517d 733a cb64 5259
	0x0010:  2e72 4b0b
07:32:43.798815 cb:64:51:7d:73:3a (oui Unknown) > b4:00:b8:00:72:3a (oui Unknown), ethertype Unknown (0xcb64), length 20: 
	0x0000:  b400 b800 723a cb64 517d 733a cb64 5259
	0x0010:  2e72 4b0b
07:32:43.798903 cb:64:52:59:e2:92 (oui Unknown) > c4:00:7c:00:72:3a (oui Unknown), ethertype Unknown (0xf2b0), length 14: 
	0x0000:  c400 7c00 723a cb64 5259 e292 f2b0
07:32:43.799012 cb:64:52:59:72:3a (oui Unknown) > 94:00:00:00:72:3a (oui Unknown), ethertype Unknown (0xcb64), length 32: 
	0x0000:  9400 0000 723a cb64 5259 723a cb64 517d
	0x0010:  0400 e0b0 ffff ffff ffff ffff 6098 1764
07:32:43.799131 cb:64:39:ad:73:3a (oui Unknown) > b4:00:8c:01:72:3a (oui Unknown), ethertype Unknown (0xcb64), length 20: 
	0x0000:  b400 8c01 723a cb64 39ad 733a cb64 517d
	0x0010:  5d6f 44db
07:32:43.799223 cb:64:51:7d:5d:59 (oui Unknown) > c4:00:50:01:72:3a (oui Unknown), ethertype Unknown (0x72af), length 14: 
	0x0000:  c400 5001 723a cb64 517d 5d59 72af
07:32:43.799445 cb:64:51:7d:72:3a (oui Unknown) > 94:00:00:00:72:3a (oui Unknown), ethertype Unknown (0xcb64), length 32: 
	0x0000:  9400 0000 723a cb64 517d 723a cb64 39ad
	0x0010:  0400 202e ffff ffff ffff ffff 28ba de68
07:32:43.799541 cb:64:51:7d:2f:a1 (oui Unknown) > c4:00:00:00:72:3a (oui Unknown), ethertype Unknown (0x235c), length 14: 
	0x0000:  c400 0000 723a cb64 517d 2fa1 235c
07:32:43.799904 cb:64:51:7d:72:3a (oui Unknown) > 94:00:00:00:72:3a (oui Unknown), ethertype Unknown (0xcb64), length 32: 
	0x0000:  9400 0000 723a cb64 517d 723a cb64 39ad
	0x0010:  0400 402e ffff ffff ffff ffff 58be 39b9
07:32:43.800005 cb:64:51:7d:2f:a1 (oui Unknown) > c4:00:00:00:72:3a (oui Unknown), ethertype Unknown (0x235c), length 14: 
	0x0000:  c400 0000 723a cb64 517d 2fa1 235c
07:32:43.800113 cb:64:51:7d:73:3a (oui Unknown) > b4:00:b0:00:72:3a (oui Unknown), ethertype Unknown (0xcb64), length 20: 
	0x0000:  b400 b000 723a cb64 517d 733a cb64 39ad
	0x0010:  71e8 cb04
07:32:43.800202 cb:64:39:ad:3e:0d (oui Unknown) > c4:00:74:00:72:3a (oui Unknown), ethertype Unknown (0xce5f), length 14: 
	0x0000:  c400 7400 723a cb64 39ad 3e0d ce5f
07:32:43.800286 20:59:4d:63:2c:ad (oui Unknown) > d4:00:04:00:48:45 (oui Unknown), ethertype Unknown (0x1110), length 14: 
	0x0000:  d400 0400 4845 2059 4d63 2cad 1110
07:32:43.801076 a7:5f:3a:8d:71:3a (oui Unknown) > b4:00:af:00:98:01 (oui Unknown), ethertype Unknown (0xcb64), length 20: 
	0x0000:  b400 af00 9801 a75f 3a8d 713a cb64 5259
	0x0010:  9d5e 5562
07:32:43.801171 cb:64:52:59:45:21 (oui Unknown) > c4:00:73:00:70:3a (oui Unknown), ethertype Unknown (0x1a24), length 14: 
	0x0000:  c400 7300 703a cb64 5259 4521 1a24
07:32:43.801371 cb:64:52:59:98:01 (oui Unknown) > 94:00:00:00:70:3a (oui Unknown), ethertype Unknown (0xa75f), length 32: 
	0x0000:  9400 0000 703a cb64 5259 9801 a75f 3a8d
	0x0010:  0500 d0c6 0100 0000 0000 0000 78c0 19c7
07:32:43.801469 20:59:4d:63:2c:ad (oui Unknown) > d4:00:04:00:48:45 (oui Unknown), ethertype Unknown (0x1110), length 14: 
	0x0000:  d400 0400 4845 2059 4d63 2cad 1110
07:32:43.801577 cb:64:39:ad:73:3a (oui Unknown) > b4:00:dc:00:72:3a (oui Unknown), ethertype Unknown (0xcb64), length 20: 
	0x0000:  b400 dc00 723a cb64 39ad 733a cb64 517d
	0x0010:  457d d921
07:32:43.801667 cb:64:51:7d:a3:46 (oui Unknown) > c4:00:a0:00:72:3a (oui Unknown), ethertype Unknown (0x6ef6), length 14: 
	0x0000:  c400 a000 723a cb64 517d a346 6ef6
07:32:43.801775 cb:64:51:7d:72:3a (oui Unknown) > 94:00:00:00:72:3a (oui Unknown), ethertype Unknown (0xcb64), length 32: 
	0x0000:  9400 0000 723a cb64 517d 723a cb64 39ad
	0x0010:  0400 502e ffff ffff ffff ffff b03f 979e
07:32:43.801870 cb:64:51:7d:2f:a1 (oui Unknown) > c4:00:00:00:72:3a (oui Unknown), ethertype Unknown (0x235c), length 14: 
	0x0000:  c400 0000 723a cb64 517d 2fa1 235c
07:32:43.801978 cb:64:51:7d:73:3a (oui Unknown) > b4:00:b8:00:72:3a (oui Unknown), ethertype Unknown (0xcb64), length 20: 
	0x0000:  b400 b800 723a cb64 517d 733a cb64 39ad
	0x0010:  47f6 9237
07:32:43.802066 cb:64:39:ad:8b:16 (oui Unknown) > c4:00:7c:00:72:3a (oui Unknown), ethertype Unknown (0x2b8c), length 14: 
	0x0000:  c400 7c00 723a cb64 39ad 8b16 2b8c
07:32:43.802178 cb:64:39:ad:72:3a (oui Unknown) > 94:00:00:00:72:3a (oui Unknown), ethertype Unknown (0xcb64), length 32: 
	0x0000:  9400 0000 723a cb64 39ad 723a cb64 517d
	0x0010:  0400 a047 ffff ffff ffff ffff 722e fb1e
07:32:43.802298 20:59:4d:63:71:3a (oui Unknown) > b4:00:f4:01:48:45 (oui Unknown), ethertype Unknown (0xcb64), length 20: 
	0x0000:  b400 f401 4845 2059 4d63 713a cb64 39af
	0x0010:  9de3 c3bd
07:32:43.803028 cb:64:51:7d:73:3a (oui Unknown) > b4:00:b0:00:72:3a (oui Unknown), ethertype Unknown (0xcb64), length 20: 
	0x0000:  b400 b000 723a cb64 517d 733a cb64 39ad
	0x0010:  71e8 cb04
07:32:43.803117 cb:64:39:ad:3e:0d (oui Unknown) > c4:00:74:00:72:3a (oui Unknown), ethertype Unknown (0xce5f), length 14: 
	0x0000:  c400 7400 723a cb64 39ad 3e0d ce5f
07:32:43.803413 20:59:4d:63:71:3a (oui Unknown) > b4:00:d8:00:48:45 (oui Unknown), ethertype Unknown (0xcb64), length 20: 
	0x0000:  b400 d800 4845 2059 4d63 713a cb64 39af
	0x0010:  edd3 c487
07:32:43.803816 cb:64:51:7d:73:3a (oui Unknown) > b4:00:b0:00:72:3a (oui Unknown), ethertype Unknown (0xcb64), length 20: 
	0x0000:  b400 b000 723a cb64 517d 733a cb64 39ad
	0x0010:  71e8 cb04
07:32:43.803904 cb:64:39:ad:3e:0d (oui Unknown) > c4:00:74:00:72:3a (oui Unknown), ethertype Unknown (0xce5f), length 14: 
	0x0000:  c400 7400 723a cb64 39ad 3e0d ce5f
07:32:43.804012 cb:64:39:ad:72:3a (oui Unknown) > 94:00:00:00:72:3a (oui Unknown), ethertype Unknown (0xcb64), length 32: 
	0x0000:  9400 0000 723a cb64 39ad 723a cb64 517d
	0x0010:  0400 b047 ffff ffff ffff ffff 9aaf 5539
07:32:43.804316 20:59:4d:63:2c:ad (oui Unknown) > d4:00:04:00:48:45 (oui Unknown), ethertype Unknown (0x1110), length 14: 
	0x0000:  d400 0400 4845 2059 4d63 2cad 1110
07:32:43.804579 20:59:4d:63:2c:ad (oui Unknown) > d4:00:04:00:48:45 (oui Unknown), ethertype Unknown (0x1110), length 14: 
	0x0000:  d400 0400 4845 2059 4d63 2cad 1110
07:32:43.806245 cb:64:51:7d:73:3a (oui Unknown) > b4:00:b0:00:72:3a (oui Unknown), ethertype Unknown (0xcb64), length 20: 
	0x0000:  b400 b000 723a cb64 517d 733a cb64 39ad
	0x0010:  71e8 cb04
07:32:43.806334 cb:64:39:ad:3e:0d (oui Unknown) > c4:00:74:00:72:3a (oui Unknown), ethertype Unknown (0xce5f), length 14: 
	0x0000:  c400 7400 723a cb64 39ad 3e0d ce5f
07:32:43.806811 cb:64:51:7d:73:3a (oui Unknown) > b4:00:b0:00:72:3a (oui Unknown), ethertype Unknown (0xcb64), length 20: 
	0x0000:  b400 b000 723a cb64 517d 733a cb64 39ad
	0x0010:  71e8 cb04
07:32:43.806899 cb:64:39:ad:3e:0d (oui Unknown) > c4:00:74:00:72:3a (oui Unknown), ethertype Unknown (0xce5f), length 14: 
	0x0000:  c400 7400 723a cb64 39ad 3e0d ce5f
07:32:43.807082 cb:64:39:ad:72:3a (oui Unknown) > 94:00:00:00:72:3a (oui Unknown), ethertype Unknown (0xcb64), length 32: 
	0x0000:  9400 0000 723a cb64 39ad 723a cb64 517d
	0x0010:  0400 c047 ffff ffff ffff ffff 022a 1ccf
07:32:43.811577 cb:64:52:59:73:3a (oui Unknown) > b4:00:b0:00:72:3a (oui Unknown), ethertype Unknown (0xcb64), length 20: 
	0x0000:  b400 b000 723a cb64 5259 733a cb64 39ad
	0x0010:  1df2 b6b1
07:32:43.811666 cb:64:39:ad:3e:0d (oui Unknown) > c4:00:74:00:72:3a (oui Unknown), ethertype Unknown (0xce5f), length 14: 
	0x0000:  c400 7400 723a cb64 39ad 3e0d ce5f
07:32:43.811775 cb:64:39:ad:72:3a (oui Unknown) > 94:00:00:00:72:3a (oui Unknown), ethertype Unknown (0xcb64), length 32: 
	0x0000:  9400 0000 723a cb64 39ad 723a cb64 5259
	0x0010:  0400 50fb ffff 0300 0000 0000 d7ab ced9
07:32:43.812787 cb:64:39:ad:73:3a (oui Unknown) > b4:00:44:01:72:3a (oui Unknown), ethertype Unknown (0xcb64), length 20: 
	0x0000:  b400 4401 723a cb64 39ad 733a cb64 517d
	0x0010:  7869 d72a
07:32:43.812876 cb:64:51:7d:2e:b1 (oui Unknown) > c4:00:08:01:72:3a (oui Unknown), ethertype Unknown (0xb129), length 14: 
	0x0000:  c400 0801 723a cb64 517d 2eb1 b129
07:32:43.813117 cb:64:51:7d:72:3a (oui Unknown) > 94:00:00:00:72:3a (oui Unknown), ethertype Unknown (0xcb64), length 32: 
	0x0000:  9400 0000 723a cb64 517d 723a cb64 39ad
	0x0010:  0400 702e ffff ffff ffff ffff 603c cad1
07:32:43.813212 cb:64:51:7d:2f:a1 (oui Unknown) > c4:00:00:00:72:3a (oui Unknown), ethertype Unknown (0x235c), length 14: 
	0x0000:  c400 0000 723a cb64 517d 2fa1 235c
07:32:43.813320 cb:64:52:59:73:3a (oui Unknown) > b4:00:bc:00:72:3a (oui Unknown), ethertype Unknown (0xcb64), length 20: 
	0x0000:  b400 bc00 723a cb64 5259 733a cb64 517d
	0x0010:  4b50 b4b0
07:32:43.813410 cb:64:51:7d:f5:24 (oui Unknown) > c4:00:80:00:72:3a (oui Unknown), ethertype Unknown (0x180f), length 14: 
	0x0000:  c400 8000 723a cb64 517d f524 180f
07:32:43.813518 cb:64:51:7d:72:3a (oui Unknown) > 94:00:00:00:72:3a (oui Unknown), ethertype Unknown (0xcb64), length 32: 
	0x0000:  9400 0000 723a cb64 517d 723a cb64 5259
	0x0010:  0400 6034 ffff ffff ffff ffff a6f2 48d6
07:32:43.813741 cb:64:39:ad:73:3a (oui Unknown) > b4:00:e0:00:72:3a (oui Unknown), ethertype Unknown (0xcb64), length 20: 
	0x0000:  b400 e000 723a cb64 39ad 733a cb64 517d
	0x0010:  dca8 faa0
07:32:43.813830 cb:64:51:7d:59:48 (oui Unknown) > c4:00:a4:00:72:3a (oui Unknown), ethertype Unknown (0x2472), length 14: 
	0x0000:  c400 a400 723a cb64 517d 5948 2472
07:32:43.814258 cb:64:39:ad:73:3a (oui Unknown) > b4:00:fc:00:72:3a (oui Unknown), ethertype Unknown (0xcb64), length 20: 
	0x0000:  b400 fc00 723a cb64 39ad 733a cb64 517d
	0x0010:  9d05 bdec
07:32:43.814347 cb:64:51:7d:18:e6 (oui Unknown) > c4:00:c0:00:72:3a (oui Unknown), ethertype Unknown (0x8526), length 14: 
	0x0000:  c400 c000 723a cb64 517d 18e6 8526
07:32:43.814456 cb:64:51:7d:72:3a (oui Unknown) > 94:00:00:00:72:3a (oui Unknown), ethertype Unknown (0xcb64), length 32: 
	0x0000:  9400 0000 723a cb64 517d 723a cb64 39ad
	0x0010:  0400 802e ffff ffff ffff ffff f9b0 86c1
07:32:43.814551 cb:64:51:7d:2f:a1 (oui Unknown) > c4:00:00:00:72:3a (oui Unknown), ethertype Unknown (0x235c), length 14: 
	0x0000:  c400 0000 723a cb64 517d 2fa1 235c
07:32:43.814763 20:59:4d:63:71:3a (oui Unknown) > b4:00:44:01:48:45 (oui Unknown), ethertype Unknown (0xcb64), length 20: 
	0x0000:  b400 4401 4845 2059 4d63 713a cb64 39af
	0x0010:  cb48 6695
07:32:43.815437 a7:5f:3a:8d:0e:93 (oui Unknown) > d4:00:00:00:98:01 (oui Unknown), ethertype Unknown (0xd978), length 14: 
	0x0000:  d400 0000 9801 a75f 3a8d 0e93 d978
07:32:43.815650 20:59:4d:63:71:3a (oui Unknown) > b4:00:fc:00:48:45 (oui Unknown), ethertype Unknown (0xcb64), length 20: 
	0x0000:  b400 fc00 4845 2059 4d63 713a cb64 39af
	0x0010:  2e24 0c53
07:32:43.816276 cb:64:52:59:98:01 (oui Unknown) > 94:00:00:00:70:3a (oui Unknown), ethertype Unknown (0xa75f), length 32: 
	0x0000:  9400 0000 703a cb64 5259 9801 a75f 3a8d
	0x0010:  0500 e0c6 0100 0000 0000 0000 4042 eaaf
07:32:43.816458 20:59:4d:63:2c:ad (oui Unknown) > d4:00:04:00:48:45 (oui Unknown), ethertype Unknown (0x1110), length 14: 
	0x0000:  d400 0400 4845 2059 4d63 2cad 1110
07:32:43.816570 cb:64:39:ad:73:3a (oui Unknown) > b4:00:68:01:72:3a (oui Unknown), ethertype Unknown (0xcb64), length 20: 
	0x0000:  b400 6801 723a cb64 39ad 733a cb64 517d
	0x0010:  8d80 46cd
07:32:43.816659 cb:64:51:7d:82:dd (oui Unknown) > c4:00:2c:01:72:3a (oui Unknown), ethertype Unknown (0x8d54), length 14: 
	0x0000:  c400 2c01 723a cb64 517d 82dd 8d54
07:32:43.816767 cb:64:51:7d:72:3a (oui Unknown) > 94:00:00:00:72:3a (oui Unknown), ethertype Unknown (0xcb64), length 32: 
	0x0000:  9400 0000 723a cb64 517d 723a cb64 39ad
	0x0010:  0400 b02e ffff ffff ffff ffff c132 75a9
07:32:43.816862 cb:64:51:7d:2f:a1 (oui Unknown) > c4:00:00:00:72:3a (oui Unknown), ethertype Unknown (0x235c), length 14: 
	0x0000:  c400 0000 723a cb64 517d 2fa1 235c
07:32:43.816946 20:59:4d:63:2c:ad (oui Unknown) > d4:00:04:00:48:45 (oui Unknown), ethertype Unknown (0x1110), length 14: 
	0x0000:  d400 0400 4845 2059 4d63 2cad 1110
07:32:43.817054 cb:64:39:ad:73:3a (oui Unknown) > b4:00:20:01:72:3a (oui Unknown), ethertype Unknown (0xcb64), length 20: 
	0x0000:  b400 2001 723a cb64 39ad 733a cb64 517d
	0x0010:  4a69 a6bf
07:32:43.817142 cb:64:51:7d:b4:8a (oui Unknown) > c4:00:e4:00:72:3a (oui Unknown), ethertype Unknown (0xb95b), length 14: 
	0x0000:  c400 e400 723a cb64 517d b48a b95b
07:32:43.817357 cb:64:51:7d:72:3a (oui Unknown) > 94:00:00:00:72:3a (oui Unknown), ethertype Unknown (0xcb64), length 32: 
	0x0000:  9400 0000 723a cb64 517d 723a cb64 39ad
	0x0010:  0400 d02e ffff ffff ffff ffff b136 9278
07:32:43.817452 cb:64:51:7d:2f:a1 (oui Unknown) > c4:00:00:00:72:3a (oui Unknown), ethertype Unknown (0x235c), length 14: 
	0x0000:  c400 0000 723a cb64 517d 2fa1 235c
07:32:43.817952 cb:64:39:ad:73:3a (oui Unknown) > b4:00:dc:00:72:3a (oui Unknown), ethertype Unknown (0xcb64), length 20: 
	0x0000:  b400 dc00 723a cb64 39ad 733a cb64 517d
	0x0010:  457d d921
07:32:43.818042 cb:64:51:7d:a3:46 (oui Unknown) > c4:00:a0:00:72:3a (oui Unknown), ethertype Unknown (0x6ef6), length 14: 
	0x0000:  c400 a000 723a cb64 517d a346 6ef6
07:32:43.818152 cb:64:51:7d:72:3a (oui Unknown) > 94:00:00:00:72:3a (oui Unknown), ethertype Unknown (0xcb64), length 32: 
	0x0000:  9400 0000 723a cb64 517d 723a cb64 39ad
	0x0010:  0400 e02e ffff ffff ffff ffff 89b4 6110
07:32:43.818247 cb:64:51:7d:2f:a1 (oui Unknown) > c4:00:00:00:72:3a (oui Unknown), ethertype Unknown (0x235c), length 14: 
	0x0000:  c400 0000 723a cb64 517d 2fa1 235c
07:32:43.818355 cb:64:51:7d:73:3a (oui Unknown) > b4:00:b8:00:72:3a (oui Unknown), ethertype Unknown (0xcb64), length 20: 
	0x0000:  b400 b800 723a cb64 517d 733a cb64 5259
	0x0010:  2e72 4b0b
07:32:43.818583 20:59:4d:63:71:3a (oui Unknown) > b4:00:d0:01:48:45 (oui Unknown), ethertype Unknown (0xcb64), length 20: 
	0x0000:  b400 d001 4845 2059 4d63 713a cb64 39af
	0x0010:  5e14 0b69
07:32:43.819225 cb:64:51:7d:73:3a (oui Unknown) > b4:00:b8:00:72:3a (oui Unknown), ethertype Unknown (0xcb64), length 20: 
	0x0000:  b400 b800 723a cb64 517d 733a cb64 5259
	0x0010:  2e72 4b0b
07:32:43.819313 cb:64:52:59:e2:92 (oui Unknown) > c4:00:7c:00:72:3a (oui Unknown), ethertype Unknown (0xf2b0), length 14: 
	0x0000:  c400 7c00 723a cb64 5259 e292 f2b0
07:32:43.819422 cb:64:52:59:72:3a (oui Unknown) > 94:00:00:00:72:3a (oui Unknown), ethertype Unknown (0xcb64), length 32: 
	0x0000:  9400 0000 723a cb64 5259 723a cb64 517d
	0x0010:  0400 f0b0 ffff ffff ffff ffff 8819 b943
07:32:43.819541 cb:64:51:7d:73:3a (oui Unknown) > b4:00:b0:00:72:3a (oui Unknown), ethertype Unknown (0xcb64), length 20: 
	0x0000:  b400 b000 723a cb64 517d 733a cb64 39ad
	0x0010:  71e8 cb04
07:32:43.819761 cb:64:52:59:73:3a (oui Unknown) > b4:00:40:01:72:3a (oui Unknown), ethertype Unknown (0xcb64), length 20: 
	0x0000:  b400 4001 723a cb64 5259 733a cb64 517d
	0x0010:  4444 cb2e
07:32:43.819855 cb:64:51:7d:61:a4 (oui Unknown) > c4:00:04:01:72:3a (oui Unknown), ethertype Unknown (0x1e7e), length 14: 
	0x0000:  c400 0401 723a cb64 517d 61a4 1e7e
07:32:43.820055 cb:64:51:7d:72:3a (oui Unknown) > 94:00:00:00:72:3a (oui Unknown), ethertype Unknown (0xcb64), length 32: 
	0x0000:  9400 0000 723a cb64 517d 723a cb64 5259
	0x0010:  0400 8034 ffff ffff ffff ffff d7ff aae1
07:32:43.820175 20:59:4d:63:71:3a (oui Unknown) > b4:00:d8:00:48:45 (oui Unknown), ethertype Unknown (0xcb64), length 20: 
	0x0000:  b400 d800 4845 2059 4d63 713a cb64 39af
	0x0010:  edd3 c487
07:32:43.820617 cb:64:39:ad:73:3a (oui Unknown) > b4:00:68:01:72:3a (oui Unknown), ethertype Unknown (0xcb64), length 20: 
	0x0000:  b400 6801 723a cb64 39ad 733a cb64 517d
	0x0010:  8d80 46cd
07:32:43.820706 cb:64:51:7d:82:dd (oui Unknown) > c4:00:2c:01:72:3a (oui Unknown), ethertype Unknown (0x8d54), length 14: 
	0x0000:  c400 2c01 723a cb64 517d 82dd 8d54
07:32:43.820984 cb:64:51:7d:72:3a (oui Unknown) > 94:00:00:00:72:3a (oui Unknown), ethertype Unknown (0xcb64), length 32: 
	0x0000:  9400 0000 723a cb64 517d 723a cb64 39ad
	0x0010:  0400 102f ffff ffff ffff ffff 532c 5617
07:32:43.821079 cb:64:51:7d:2f:a1 (oui Unknown) > c4:00:00:00:72:3a (oui Unknown), ethertype Unknown (0x235c), length 14: 
	0x0000:  c400 0000 723a cb64 517d 2fa1 235c
07:32:43.821187 cb:64:51:7d:72:3a (oui Unknown) > 94:00:00:00:72:3a (oui Unknown), ethertype Unknown (0xcb64), length 32: 
	0x0000:  9400 0000 723a cb64 517d 723a cb64 39ad
	0x0010:  0400 202f ffff ffff ffff ffff 6bae a57f
07:32:43.821386 20:59:4d:63:2c:ad (oui Unknown) > d4:00:04:00:48:45 (oui Unknown), ethertype Unknown (0x1110), length 14: 
	0x0000:  d400 0400 4845 2059 4d63 2cad 1110
07:32:43.821629 cb:64:51:7d:73:3a (oui Unknown) > b4:00:b0:00:72:3a (oui Unknown), ethertype Unknown (0xcb64), length 20: 
	0x0000:  b400 b000 723a cb64 517d 733a cb64 39ad
	0x0010:  71e8 cb04
07:32:43.821718 cb:64:39:ad:3e:0d (oui Unknown) > c4:00:74:00:72:3a (oui Unknown), ethertype Unknown (0xce5f), length 14: 
	0x0000:  c400 7400 723a cb64 39ad 3e0d ce5f
07:32:43.821827 cb:64:39:ad:72:3a (oui Unknown) > 94:00:00:00:72:3a (oui Unknown), ethertype Unknown (0xcb64), length 32: 
	0x0000:  9400 0000 723a cb64 39ad 723a cb64 517d
	0x0010:  0400 d047 ffff ffff ffff ffff eaab b2e8
07:32:43.822053 cb:64:39:ad:73:3a (oui Unknown) > b4:00:44:01:72:3a (oui Unknown), ethertype Unknown (0xcb64), length 20: 
	0x0000:  b400 4401 723a cb64 39ad 733a cb64 517d
	0x0010:  7869 d72a
07:32:43.822143 cb:64:51:7d:2e:b1 (oui Unknown) > c4:00:08:01:72:3a (oui Unknown), ethertype Unknown (0xb129), length 14: 
	0x0000:  c400 0801 723a cb64 517d 2eb1 b129
07:32:43.822465 cb:64:51:7d:72:3a (oui Unknown) > 94:00:00:00:72:3a (oui Unknown), ethertype Unknown (0xcb64), length 32: 
	0x0000:  9400 0000 723a cb64 517d 723a cb64 39ad
	0x0010:  0400 402f ffff ffff ffff ffff 1baa 42ae
07:32:43.822560 cb:64:51:7d:2f:a1 (oui Unknown) > c4:00:00:00:72:3a (oui Unknown), ethertype Unknown (0x235c), length 14: 
	0x0000:  c400 0000 723a cb64 517d 2fa1 235c
07:32:43.822784 cb:64:52:59:98:01 (oui Unknown) > 94:00:00:00:70:3a (oui Unknown), ethertype Unknown (0xa75f), length 32: 
	0x0000:  9400 0000 703a cb64 5259 9801 a75f 3a8d
	0x0010:  0500 f0c6 0300 0000 0000 0000 d5c4 61ca
07:32:43.822903 cb:64:51:7d:73:3a (oui Unknown) > b4:00:b0:00:72:3a (oui Unknown), ethertype Unknown (0xcb64), length 20: 
	0x0000:  b400 b000 723a cb64 517d 733a cb64 39ad
	0x0010:  71e8 cb04
07:32:43.822992 cb:64:39:ad:3e:0d (oui Unknown) > c4:00:74:00:72:3a (oui Unknown), ethertype Unknown (0xce5f), length 14: 
	0x0000:  c400 7400 723a cb64 39ad 3e0d ce5f
07:32:43.823204 cb:64:39:ad:73:3a (oui Unknown) > b4:00:fc:00:72:3a (oui Unknown), ethertype Unknown (0xcb64), length 20: 
	0x0000:  b400 fc00 723a cb64 39ad 733a cb64 517d
	0x0010:  9d05 bdec
07:32:43.823293 cb:64:51:7d:18:e6 (oui Unknown) > c4:00:c0:00:72:3a (oui Unknown), ethertype Unknown (0x8526), length 14: 
	0x0000:  c400 c000 723a cb64 517d 18e6 8526
07:32:43.823402 cb:64:51:7d:72:3a (oui Unknown) > 94:00:00:00:72:3a (oui Unknown), ethertype Unknown (0xcb64), length 32: 
	0x0000:  9400 0000 723a cb64 517d 723a cb64 39ad
	0x0010:  0400 502f ffff ffff ffff ffff f32b ec89
07:32:43.823571 cb:64:51:7d:2f:a1 (oui Unknown) > c4:00:00:00:72:3a (oui Unknown), ethertype Unknown (0x235c), length 14: 
	0x0000:  c400 0000 723a cb64 517d 2fa1 235c
07:32:43.823786 20:59:4d:63:71:3a (oui Unknown) > b4:00:7c:01:48:45 (oui Unknown), ethertype Unknown (0xcb64), length 20: 
	0x0000:  b400 7c01 4845 2059 4d63 713a cb64 39af
	0x0010:  4912 e90d
07:32:43.824440 20:59:4d:63:71:3a (oui Unknown) > b4:00:d0:01:48:45 (oui Unknown), ethertype Unknown (0xcb64), length 20: 
	0x0000:  b400 d001 4845 2059 4d63 713a cb64 39af
	0x0010:  5e14 0b69
07:32:43.825022 cb:64:39:ad:73:3a (oui Unknown) > b4:00:68:01:72:3a (oui Unknown), ethertype Unknown (0xcb64), length 20: 
	0x0000:  b400 6801 723a cb64 39ad 733a cb64 517d
	0x0010:  8d80 46cd
07:32:43.825113 cb:64:51:7d:82:dd (oui Unknown) > c4:00:2c:01:72:3a (oui Unknown), ethertype Unknown (0x8d54), length 14: 
	0x0000:  c400 2c01 723a cb64 517d 82dd 8d54
07:32:43.825390 cb:64:51:7d:72:3a (oui Unknown) > 94:00:00:00:72:3a (oui Unknown), ethertype Unknown (0xcb64), length 32: 
	0x0000:  9400 0000 723a cb64 517d 723a cb64 39ad
	0x0010:  0400 802f ffff ffff ffff ffff baa4 fdd6
07:32:43.825485 cb:64:51:7d:2f:a1 (oui Unknown) > c4:00:00:00:72:3a (oui Unknown), ethertype Unknown (0x235c), length 14: 
	0x0000:  c400 0000 723a cb64 517d 2fa1 235c
07:32:43.825569 20:59:4d:63:2c:ad (oui Unknown) > d4:00:04:00:48:45 (oui Unknown), ethertype Unknown (0x1110), length 14: 
	0x0000:  d400 0400 4845 2059 4d63 2cad 1110
07:32:43.825677 20:59:4d:63:71:3a (oui Unknown) > b4:00:fc:00:48:45 (oui Unknown), ethertype Unknown (0xcb64), length 20: 
	0x0000:  b400 fc00 4845 2059 4d63 713a cb64 39af
	0x0010:  2e24 0c53
07:32:43.826175 cb:64:39:ad:73:3a (oui Unknown) > b4:00:20:01:72:3a (oui Unknown), ethertype Unknown (0xcb64), length 20: 
	0x0000:  b400 2001 723a cb64 39ad 733a cb64 517d
	0x0010:  4a69 a6bf
07:32:43.826265 cb:64:51:7d:b4:8a (oui Unknown) > c4:00:e4:00:72:3a (oui Unknown), ethertype Unknown (0xb95b), length 14: 
	0x0000:  c400 e400 723a cb64 517d b48a b95b
07:32:43.826477 cb:64:51:7d:72:3a (oui Unknown) > 94:00:00:00:72:3a (oui Unknown), ethertype Unknown (0xcb64), length 32: 
	0x0000:  9400 0000 723a cb64 517d 723a cb64 39ad
	0x0010:  0400 a02f ffff ffff ffff ffff 6aa7 a099
07:32:43.826574 cb:64:51:7d:2f:a1 (oui Unknown) > c4:00:00:00:72:3a (oui Unknown), ethertype Unknown (0x235c), length 14: 
	0x0000:  c400 0000 723a cb64 517d 2fa1 235c
07:32:43.826682 cb:64:51:7d:72:3a (oui Unknown) > 94:00:00:00:72:3a (oui Unknown), ethertype Unknown (0xcb64), length 32: 
	0x0000:  9400 0000 723a cb64 517d 723a cb64 39ad
	0x0010:  0400 b02f ffff ffff ffff ffff 8226 0ebe
07:32:43.827262 cb:64:51:7d:73:3a (oui Unknown) > b4:00:b0:00:72:3a (oui Unknown), ethertype Unknown (0xcb64), length 20: 
	0x0000:  b400 b000 723a cb64 517d 733a cb64 39ad
	0x0010:  71e8 cb04
07:32:43.827351 cb:64:39:ad:3e:0d (oui Unknown) > c4:00:74:00:72:3a (oui Unknown), ethertype Unknown (0xce5f), length 14: 
	0x0000:  c400 7400 723a cb64 39ad 3e0d ce5f
07:32:43.827665 20:59:4d:63:71:3a (oui Unknown) > b4:00:f4:01:48:45 (oui Unknown), ethertype Unknown (0xcb64), length 20: 
	0x0000:  b400 f401 4845 2059 4d63 713a cb64 39af
	0x0010:  9de3 c3bd
07:32:43.827908 20:59:4d:63:71:3a (oui Unknown) > b4:00:f4:01:48:45 (oui Unknown), ethertype Unknown (0xcb64), length 20: 
	0x0000:  b400 f401 4845 2059 4d63 713a cb64 39af
	0x0010:  9de3 c3bd
07:32:43.828380 20:59:4d:63:71:3a (oui Unknown) > b4:00:f4:01:48:45 (oui Unknown), ethertype Unknown (0xcb64), length 20: 
	0x0000:  b400 f401 4845 2059 4d63 713a cb64 39af
	0x0010:  9de3 c3bd
07:32:43.828844 20:59:4d:63:71:3a (oui Unknown) > b4:00:f4:01:48:45 (oui Unknown), ethertype Unknown (0xcb64), length 20: 
	0x0000:  b400 f401 4845 2059 4d63 713a cb64 39af
	0x0010:  9de3 c3bd
07:32:43.828963 20:59:4d:63:71:3a (oui Unknown) > b4:00:f4:01:48:45 (oui Unknown), ethertype Unknown (0xcb64), length 20: 
	0x0000:  b400 f401 4845 2059 4d63 713a cb64 39af
	0x0010:  9de3 c3bd
07:32:43.829593 cb:64:39:ad:73:3a (oui Unknown) > b4:00:44:01:72:3a (oui Unknown), ethertype Unknown (0xcb64), length 20: 
	0x0000:  b400 4401 723a cb64 39ad 733a cb64 517d
	0x0010:  7869 d72a
07:32:43.829765 cb:64:51:7d:2e:b1 (oui Unknown) > c4:00:08:01:72:3a (oui Unknown), ethertype Unknown (0xb129), length 14: 
	0x0000:  c400 0801 723a cb64 517d 2eb1 b129
07:32:43.829875 cb:64:51:7d:72:3a (oui Unknown) > 94:00:00:00:72:3a (oui Unknown), ethertype Unknown (0xcb64), length 32: 
	0x0000:  9400 0000 723a cb64 517d 723a cb64 39ad
	0x0010:  0400 d02f ffff ffff ffff ffff f222 e96f
07:32:43.829970 cb:64:51:7d:2f:a1 (oui Unknown) > c4:00:00:00:72:3a (oui Unknown), ethertype Unknown (0x235c), length 14: 
	0x0000:  c400 0000 723a cb64 517d 2fa1 235c
07:32:43.831243 20:59:4d:63:70:3a (oui Unknown) > 94:00:00:00:48:45 (oui Unknown), ethertype Unknown (0xcb64), length 32: 
	0x0000:  9400 0000 4845 2059 4d63 703a cb64 39af
	0x0010:  0400 10ba ffff ffff ffff ffff ceb5 3f45
07:32:43.834279 20:59:4d:63:71:3a (oui Unknown) > b4:00:f4:01:48:45 (oui Unknown), ethertype Unknown (0xcb64), length 20: 
	0x0000:  b400 f401 4845 2059 4d63 713a cb64 39af
	0x0010:  9de3 c3bd
07:32:43.834891 cb:64:39:ad:73:3a (oui Unknown) > b4:00:fc:00:72:3a (oui Unknown), ethertype Unknown (0xcb64), length 20: 
	0x0000:  b400 fc00 723a cb64 39ad 733a cb64 517d
	0x0010:  9d05 bdec
07:32:43.834981 cb:64:51:7d:18:e6 (oui Unknown) > c4:00:c0:00:72:3a (oui Unknown), ethertype Unknown (0x8526), length 14: 
	0x0000:  c400 c000 723a cb64 517d 18e6 8526
07:32:43.835090 cb:64:51:7d:72:3a (oui Unknown) > 94:00:00:00:72:3a (oui Unknown), ethertype Unknown (0xcb64), length 32: 
	0x0000:  9400 0000 723a cb64 517d 723a cb64 39ad
	0x0010:  0400 e02f ffff ffff ffff ffff caa0 1a07
07:32:43.835184 cb:64:51:7d:2f:a1 (oui Unknown) > c4:00:00:00:72:3a (oui Unknown), ethertype Unknown (0x235c), length 14: 
	0x0000:  c400 0000 723a cb64 517d 2fa1 235c
07:32:43.835292 20:59:4d:63:71:3a (oui Unknown) > b4:00:44:01:48:45 (oui Unknown), ethertype Unknown (0xcb64), length 20: 
	0x0000:  b400 4401 4845 2059 4d63 713a cb64 39af
	0x0010:  cb48 6695
07:32:43.835841 cb:64:51:7d:73:3a (oui Unknown) > b4:00:b0:00:72:3a (oui Unknown), ethertype Unknown (0xcb64), length 20: 
	0x0000:  b400 b000 723a cb64 517d 733a cb64 39ad
	0x0010:  71e8 cb04
07:32:43.835931 cb:64:39:ad:3e:0d (oui Unknown) > c4:00:74:00:72:3a (oui Unknown), ethertype Unknown (0xce5f), length 14: 
	0x0000:  c400 7400 723a cb64 39ad 3e0d ce5f
07:32:43.836145 a7:5f:3a:8d:0e:93 (oui Unknown) > d4:00:00:00:98:01 (oui Unknown), ethertype Unknown (0xd978), length 14: 
	0x0000:  d400 0000 9801 a75f 3a8d 0e93 d978
07:32:43.836254 cb:64:39:ad:73:3a (oui Unknown) > b4:00:20:01:72:3a (oui Unknown), ethertype Unknown (0xcb64), length 20: 
	0x0000:  b400 2001 723a cb64 39ad 733a cb64 517d
	0x0010:  4a69 a6bf
07:32:43.836342 cb:64:51:7d:b4:8a (oui Unknown) > c4:00:e4:00:72:3a (oui Unknown), ethertype Unknown (0xb95b), length 14: 
	0x0000:  c400 e400 723a cb64 517d b48a b95b
07:32:43.836554 cb:64:51:7d:72:3a (oui Unknown) > 94:00:00:00:72:3a (oui Unknown), ethertype Unknown (0xcb64), length 32: 
	0x0000:  9400 0000 723a cb64 517d 723a cb64 39ad
	0x0010:  0400 0030 ffff ffff ffff ffff 1b20 8143
07:32:43.836650 cb:64:51:7d:2f:a1 (oui Unknown) > c4:00:00:00:72:3a (oui Unknown), ethertype Unknown (0x235c), length 14: 
	0x0000:  c400 0000 723a cb64 517d 2fa1 235c
07:32:43.836759 cb:64:51:7d:72:3a (oui Unknown) > 94:00:00:00:72:3a (oui Unknown), ethertype Unknown (0xcb64), length 32: 
	0x0000:  9400 0000 723a cb64 517d 723a cb64 39ad
	0x0010:  0400 1030 ffff ffff ffff ffff f3a1 2f64
07:32:43.836854 cb:64:51:7d:2f:a1 (oui Unknown) > c4:00:00:00:72:3a (oui Unknown), ethertype Unknown (0x235c), length 14: 
	0x0000:  c400 0000 723a cb64 517d 2fa1 235c
07:32:43.836962 cb:64:51:7d:73:3a (oui Unknown) > b4:00:b0:00:72:3a (oui Unknown), ethertype Unknown (0xcb64), length 20: 
	0x0000:  b400 b000 723a cb64 517d 733a cb64 39ad
	0x0010:  71e8 cb04
07:32:43.837051 cb:64:39:ad:3e:0d (oui Unknown) > c4:00:74:00:72:3a (oui Unknown), ethertype Unknown (0xce5f), length 14: 
	0x0000:  c400 7400 723a cb64 39ad 3e0d ce5f
07:32:43.837368 20:59:4d:63:70:3a (oui Unknown) > 94:00:00:00:48:45 (oui Unknown), ethertype Unknown (0xcb64), length 32: 
	0x0000:  9400 0000 4845 2059 4d63 703a cb64 39af
	0x0010:  0400 20ba ffff ffff ffff ffff f637 cc2d
07:32:43.837567 cb:64:52:59:73:3a (oui Unknown) > b4:00:bc:00:72:3a (oui Unknown), ethertype Unknown (0xcb64), length 20: 
	0x0000:  b400 bc00 723a cb64 5259 733a cb64 517d
	0x0010:  4b50 b4b0
07:32:43.837659 cb:64:51:7d:f5:24 (oui Unknown) > c4:00:80:00:72:3a (oui Unknown), ethertype Unknown (0x180f), length 14: 
	0x0000:  c400 8000 723a cb64 517d f524 180f
07:32:43.837767 cb:64:51:7d:72:3a (oui Unknown) > 94:00:00:00:72:3a (oui Unknown), ethertype Unknown (0xcb64), length 32: 
	0x0000:  9400 0000 723a cb64 517d 723a cb64 5259
	0x0010:  0400 9034 ffff ffff ffff ffff 3f7e 04c6
07:32:43.837885 cb:64:51:7d:73:3a (oui Unknown) > b4:00:b8:00:72:3a (oui Unknown), ethertype Unknown (0xcb64), length 20: 
	0x0000:  b400 b800 723a cb64 517d 733a cb64 5259
	0x0010:  2e72 4b0b
07:32:43.837974 cb:64:52:59:e2:92 (oui Unknown) > c4:00:7c:00:72:3a (oui Unknown), ethertype Unknown (0xf2b0), length 14: 
	0x0000:  c400 7c00 723a cb64 5259 e292 f2b0
07:32:43.838082 cb:64:52:59:72:3a (oui Unknown) > 94:00:00:00:72:3a (oui Unknown), ethertype Unknown (0xcb64), length 32: 
	0x0000:  9400 0000 723a cb64 5259 723a cb64 517d
	0x0010:  0400 00b1 ffff ffff ffff ffff 5281 8e44
07:32:43.838177 20:59:4d:63:2c:ad (oui Unknown) > d4:00:04:00:48:45 (oui Unknown), ethertype Unknown (0x1110), length 14: 
	0x0000:  d400 0400 4845 2059 4d63 2cad 1110
07:32:43.838495 20:59:4d:63:71:3a (oui Unknown) > b4:00:fc:00:48:45 (oui Unknown), ethertype Unknown (0xcb64), length 20: 
	0x0000:  b400 fc00 4845 2059 4d63 713a cb64 39af
	0x0010:  2e24 0c53
07:32:43.838878 cb:64:39:ad:73:3a (oui Unknown) > b4:00:44:01:72:3a (oui Unknown), ethertype Unknown (0xcb64), length 20: 
	0x0000:  b400 4401 723a cb64 39ad 733a cb64 517d
	0x0010:  7869 d72a
07:32:43.838969 cb:64:51:7d:2e:b1 (oui Unknown) > c4:00:08:01:72:3a (oui Unknown), ethertype Unknown (0xb129), length 14: 
	0x0000:  c400 0801 723a cb64 517d 2eb1 b129
07:32:43.839208 cb:64:51:7d:72:3a (oui Unknown) > 94:00:00:00:72:3a (oui Unknown), ethertype Unknown (0xcb64), length 32: 
	0x0000:  9400 0000 723a cb64 517d 723a cb64 39ad
	0x0010:  0400 3030 ffff ffff ffff ffff 23a2 722b
07:32:43.839303 cb:64:51:7d:2f:a1 (oui Unknown) > c4:00:00:00:72:3a (oui Unknown), ethertype Unknown (0x235c), length 14: 
	0x0000:  c400 0000 723a cb64 517d 2fa1 235c
07:32:43.839411 cb:64:52:59:98:01 (oui Unknown) > 94:00:00:00:70:3a (oui Unknown), ethertype Unknown (0xa75f), length 32: 
	0x0000:  9400 0000 703a cb64 5259 9801 a75f 3a8d
	0x0010:  0500 10c7 0100 0000 0000 0000 9ada dda8
07:32:43.839634 cb:64:39:ad:73:3a (oui Unknown) > b4:00:44:01:72:3a (oui Unknown), ethertype Unknown (0xcb64), length 20: 
	0x0000:  b400 4401 723a cb64 39ad 733a cb64 517d
	0x0010:  7869 d72a
07:32:43.839724 cb:64:51:7d:2e:b1 (oui Unknown) > c4:00:08:01:72:3a (oui Unknown), ethertype Unknown (0xb129), length 14: 
	0x0000:  c400 0801 723a cb64 517d 2eb1 b129
07:32:43.839938 cb:64:51:7d:72:3a (oui Unknown) > 94:00:00:00:72:3a (oui Unknown), ethertype Unknown (0xcb64), length 32: 
	0x0000:  9400 0000 723a cb64 517d 723a cb64 39ad
	0x0010:  0400 5030 ffff ffff ffff ffff 53a6 95fa
07:32:43.840033 cb:64:51:7d:2f:a1 (oui Unknown) > c4:00:00:00:72:3a (oui Unknown), ethertype Unknown (0x235c), length 14: 
	0x0000:  c400 0000 723a cb64 517d 2fa1 235c
07:32:43.840140 cb:64:51:7d:73:3a (oui Unknown) > b4:00:b0:00:72:3a (oui Unknown), ethertype Unknown (0xcb64), length 20: 
	0x0000:  b400 b000 723a cb64 517d 733a cb64 39ad
	0x0010:  71e8 cb04
07:32:43.840229 cb:64:39:ad:3e:0d (oui Unknown) > c4:00:74:00:72:3a (oui Unknown), ethertype Unknown (0xce5f), length 14: 
	0x0000:  c400 7400 723a cb64 39ad 3e0d ce5f
07:32:43.840546 cb:64:39:ad:73:3a (oui Unknown) > b4:00:dc:00:72:3a (oui Unknown), ethertype Unknown (0xcb64), length 20: 
	0x0000:  b400 dc00 723a cb64 39ad 733a cb64 517d
	0x0010:  457d d921
07:32:43.840635 cb:64:51:7d:a3:46 (oui Unknown) > c4:00:a0:00:72:3a (oui Unknown), ethertype Unknown (0x6ef6), length 14: 
	0x0000:  c400 a000 723a cb64 517d a346 6ef6
07:32:43.840824 cb:64:51:7d:72:3a (oui Unknown) > 94:00:00:00:72:3a (oui Unknown), ethertype Unknown (0xcb64), length 32: 
	0x0000:  9400 0000 723a cb64 517d 723a cb64 39ad
	0x0010:  0400 6030 ffff ffff ffff ffff 6b24 6692
07:32:43.840920 cb:64:51:7d:2f:a1 (oui Unknown) > c4:00:00:00:72:3a (oui Unknown), ethertype Unknown (0x235c), length 14: 
	0x0000:  c400 0000 723a cb64 517d 2fa1 235c
07:32:43.841028 cb:64:51:7d:72:3a (oui Unknown) > 94:00:00:00:72:3a (oui Unknown), ethertype Unknown (0xcb64), length 32: 
	0x0000:  9400 0000 723a cb64 517d 723a cb64 39ad
	0x0010:  0400 7030 ffff ffff ffff ffff 83a5 c8b5
07:32:43.841147 20:59:4d:63:71:3a (oui Unknown) > b4:00:44:01:48:45 (oui Unknown), ethertype Unknown (0xcb64), length 20: 
	0x0000:  b400 4401 4845 2059 4d63 713a cb64 39af
	0x0010:  cb48 6695
07:32:43.841564 cb:64:51:7d:73:3a (oui Unknown) > b4:00:b8:00:72:3a (oui Unknown), ethertype Unknown (0xcb64), length 20: 
	0x0000:  b400 b800 723a cb64 517d 733a cb64 39ad
	0x0010:  47f6 9237
07:32:43.841653 cb:64:39:ad:8b:16 (oui Unknown) > c4:00:7c:00:72:3a (oui Unknown), ethertype Unknown (0x2b8c), length 14: 
	0x0000:  c400 7c00 723a cb64 39ad 8b16 2b8c
07:32:43.843022 20:59:4d:63:2c:ad (oui Unknown) > d4:00:04:00:48:45 (oui Unknown), ethertype Unknown (0x1110), length 14: 
	0x0000:  d400 0400 4845 2059 4d63 2cad 1110
07:32:43.843694 cb:64:39:ad:73:3a (oui Unknown) > b4:00:fc:00:72:3a (oui Unknown), ethertype Unknown (0xcb64), length 20: 
	0x0000:  b400 fc00 723a cb64 39ad 733a cb64 517d
	0x0010:  9d05 bdec
07:32:43.843782 cb:64:51:7d:18:e6 (oui Unknown) > c4:00:c0:00:72:3a (oui Unknown), ethertype Unknown (0x8526), length 14: 
	0x0000:  c400 c000 723a cb64 517d 18e6 8526
07:32:43.843890 cb:64:51:7d:72:3a (oui Unknown) > 94:00:00:00:72:3a (oui Unknown), ethertype Unknown (0xcb64), length 32: 
	0x0000:  9400 0000 723a cb64 517d 723a cb64 39ad
	0x0010:  0400 8030 ffff ffff ffff ffff 1a29 84a5
07:32:43.843985 cb:64:51:7d:2f:a1 (oui Unknown) > c4:00:00:00:72:3a (oui Unknown), ethertype Unknown (0x235c), length 14: 
	0x0000:  c400 0000 723a cb64 517d 2fa1 235c
07:32:43.844198 20:59:4d:63:71:3a (oui Unknown) > b4:00:a4:02:48:45 (oui Unknown), ethertype Unknown (0xcb64), length 20: 
	0x0000:  b400 a402 4845 2059 4d63 713a cb64 39af
	0x0010:  ce44 0227
07:32:43.845154 cb:64:51:7d:73:3a (oui Unknown) > b4:00:c4:00:72:3a (oui Unknown), ethertype Unknown (0xcb64), length 20: 
	0x0000:  b400 c400 723a cb64 517d 733a cb64 39ad
	0x0010:  2fd4 08f7
07:32:43.845244 cb:64:39:ad:3b:0c (oui Unknown) > c4:00:88:00:72:3a (oui Unknown), ethertype Unknown (0x0af7), length 14: 
	0x0000:  c400 8800 723a cb64 39ad 3b0c 0af7
07:32:43.845359 cb:64:39:ad:72:3a (oui Unknown) > 94:00:00:00:72:3a (oui Unknown), ethertype Unknown (0xcb64), length 32: 
	0x0000:  9400 0000 723a cb64 39ad 723a cb64 517d
	0x0010:  0400 1048 ffff ffff ffff ffff 9a6a b44f
07:32:43.845582 20:59:4d:63:71:3a (oui Unknown) > b4:00:fc:00:48:45 (oui Unknown), ethertype Unknown (0xcb64), length 20: 
	0x0000:  b400 fc00 4845 2059 4d63 713a cb64 39af
	0x0010:  2e24 0c53
07:32:43.846218 20:59:4d:63:2c:ad (oui Unknown) > d4:00:04:00:48:45 (oui Unknown), ethertype Unknown (0x1110), length 14: 
	0x0000:  d400 0400 4845 2059 4d63 2cad 1110
07:32:43.846912 cb:64:51:7d:73:3a (oui Unknown) > b4:00:b8:00:72:3a (oui Unknown), ethertype Unknown (0xcb64), length 20: 
	0x0000:  b400 b800 723a cb64 517d 733a cb64 39ad
	0x0010:  47f6 9237
07:32:43.847001 cb:64:39:ad:8b:16 (oui Unknown) > c4:00:7c:00:72:3a (oui Unknown), ethertype Unknown (0x2b8c), length 14: 
	0x0000:  c400 7c00 723a cb64 39ad 8b16 2b8c
07:32:43.847109 cb:64:39:ad:72:3a (oui Unknown) > 94:00:00:00:72:3a (oui Unknown), ethertype Unknown (0xcb64), length 32: 
	0x0000:  9400 0000 723a cb64 39ad 723a cb64 517d
	0x0010:  0400 2048 ffff ffff ffff ffff a2e8 4727
07:32:43.847204 20:59:4d:63:2c:ad (oui Unknown) > d4:00:04:00:48:45 (oui Unknown), ethertype Unknown (0x1110), length 14: 
	0x0000:  d400 0400 4845 2059 4d63 2cad 1110
07:32:43.847392 20:59:4d:63:2c:ad (oui Unknown) > d4:00:04:00:48:45 (oui Unknown), ethertype Unknown (0x1110), length 14: 
	0x0000:  d400 0400 4845 2059 4d63 2cad 1110
07:32:43.850149 cb:64:51:7d:73:3a (oui Unknown) > b4:00:bc:00:72:3a (oui Unknown), ethertype Unknown (0xcb64), length 20: 
	0x0000:  b400 bc00 723a cb64 517d 733a cb64 39ad
	0x0010:  5c79 3e2e
07:32:43.850247 cb:64:39:ad:8e:17 (oui Unknown) > c4:00:80:00:72:3a (oui Unknown), ethertype Unknown (0xef24), length 14: 
	0x0000:  c400 8000 723a cb64 39ad 8e17 ef24
07:32:43.850362 cb:64:39:ad:72:3a (oui Unknown) > 94:00:00:00:72:3a (oui Unknown), ethertype Unknown (0xcb64), length 32: 
	0x0000:  9400 0000 723a cb64 39ad 723a cb64 517d
	0x0010:  0400 3048 ffff ffff ffff ffff 4a69 e900
07:32:43.852672 cb:64:52:59:73:3a (oui Unknown) > b4:00:bc:00:72:3a (oui Unknown), ethertype Unknown (0xcb64), length 20: 
	0x0000:  b400 bc00 723a cb64 5259 733a cb64 517d
	0x0010:  4b50 b4b0
07:32:43.852761 cb:64:51:7d:f5:24 (oui Unknown) > c4:00:80:00:72:3a (oui Unknown), ethertype Unknown (0x180f), length 14: 
	0x0000:  c400 8000 723a cb64 517d f524 180f
07:32:43.852869 cb:64:51:7d:72:3a (oui Unknown) > 94:00:00:00:72:3a (oui Unknown), ethertype Unknown (0xcb64), length 32: 
	0x0000:  9400 0000 723a cb64 517d 723a cb64 5259
	0x0010:  0400 a034 ffff ffff ffff ffff 07fc f7ae
07:32:43.855116 cb:64:52:59:98:01 (oui Unknown) > 94:00:00:00:70:3a (oui Unknown), ethertype Unknown (0xa75f), length 32: 
	0x0000:  9400 0000 703a cb64 5259 9801 a75f 3a8d
	0x0010:  0500 20c7 0100 0000 0000 0000 a258 2ec0
07:32:43.857355 a7:5f:3a:8d:0e:93 (oui Unknown) > d4:00:00:00:98:01 (oui Unknown), ethertype Unknown (0xd978), length 14: 
	0x0000:  d400 0000 9801 a75f 3a8d 0e93 d978
07:32:43.858047 cb:64:39:ad:73:3a (oui Unknown) > b4:00:fc:00:72:3a (oui Unknown), ethertype Unknown (0xcb64), length 20: 
	0x0000:  b400 fc00 723a cb64 39ad 733a cb64 517d
	0x0010:  9d05 bdec
07:32:43.858136 cb:64:51:7d:18:e6 (oui Unknown) > c4:00:c0:00:72:3a (oui Unknown), ethertype Unknown (0x8526), length 14: 
	0x0000:  c400 c000 723a cb64 517d 18e6 8526
07:32:43.858245 cb:64:51:7d:72:3a (oui Unknown) > 94:00:00:00:72:3a (oui Unknown), ethertype Unknown (0xcb64), length 32: 
	0x0000:  9400 0000 723a cb64 517d 723a cb64 39ad
	0x0010:  0400 9030 ffff ffff ffff ffff f2a8 2a82
07:32:43.858339 cb:64:51:7d:2f:a1 (oui Unknown) > c4:00:00:00:72:3a (oui Unknown), ethertype Unknown (0x235c), length 14: 
	0x0000:  c400 0000 723a cb64 517d 2fa1 235c
07:32:43.858893 cb:64:39:ad:73:3a (oui Unknown) > b4:00:20:01:72:3a (oui Unknown), ethertype Unknown (0xcb64), length 20: 
	0x0000:  b400 2001 723a cb64 39ad 733a cb64 517d
	0x0010:  4a69 a6bf
07:32:43.858982 cb:64:51:7d:b4:8a (oui Unknown) > c4:00:e4:00:72:3a (oui Unknown), ethertype Unknown (0xb95b), length 14: 
	0x0000:  c400 e400 723a cb64 517d b48a b95b
07:32:43.859194 cb:64:51:7d:72:3a (oui Unknown) > 94:00:00:00:72:3a (oui Unknown), ethertype Unknown (0xcb64), length 32: 
	0x0000:  9400 0000 723a cb64 517d 723a cb64 39ad
	0x0010:  0400 b030 ffff ffff ffff ffff 22ab 77cd
07:32:43.859292 cb:64:51:7d:2f:a1 (oui Unknown) > c4:00:00:00:72:3a (oui Unknown), ethertype Unknown (0x235c), length 14: 
	0x0000:  c400 0000 723a cb64 517d 2fa1 235c
07:32:43.859399 cb:64:51:7d:72:3a (oui Unknown) > 94:00:00:00:72:3a (oui Unknown), ethertype Unknown (0xcb64), length 32: 
	0x0000:  9400 0000 723a cb64 517d 723a cb64 39ad
	0x0010:  0400 c030 ffff ffff ffff ffff ba2e 3e3b
07:32:43.859518 cb:64:51:7d:73:3a (oui Unknown) > b4:00:b0:00:72:3a (oui Unknown), ethertype Unknown (0xcb64), length 20: 
	0x0000:  b400 b000 723a cb64 517d 733a cb64 5259
	0x0010:  186c 1238
07:32:43.859607 cb:64:52:59:57:89 (oui Unknown) > c4:00:74:00:72:3a (oui Unknown), ethertype Unknown (0x1763), length 14: 
	0x0000:  c400 7400 723a cb64 5259 5789 1763
07:32:43.860033 20:59:4d:63:71:3a (oui Unknown) > b4:00:88:01:48:45 (oui Unknown), ethertype Unknown (0xcb64), length 20: 
	0x0000:  b400 8801 4845 2059 4d63 713a cb64 39af
	0x0010:  f5c1 597d
07:32:43.860544 cb:64:51:7d:73:3a (oui Unknown) > b4:00:b8:00:72:3a (oui Unknown), ethertype Unknown (0xcb64), length 20: 
	0x0000:  b400 b800 723a cb64 517d 733a cb64 5259
	0x0010:  2e72 4b0b
07:32:43.860715 cb:64:52:59:e2:92 (oui Unknown) > c4:00:7c:00:72:3a (oui Unknown), ethertype Unknown (0xf2b0), length 14: 
	0x0000:  c400 7c00 723a cb64 5259 e292 f2b0
07:32:43.860826 cb:64:52:59:72:3a (oui Unknown) > 94:00:00:00:72:3a (oui Unknown), ethertype Unknown (0xcb64), length 32: 
	0x0000:  9400 0000 723a cb64 5259 723a cb64 517d
	0x0010:  0400 10b1 ffff ffff ffff ffff ba00 2063
07:32:43.860946 cb:64:52:59:73:3a (oui Unknown) > b4:00:e4:00:72:3a (oui Unknown), ethertype Unknown (0xcb64), length 20: 
	0x0000:  b400 e400 723a cb64 5259 733a cb64 517d
	0x0010:  e085 e6a4
07:32:43.861041 cb:64:51:7d:16:5d (oui Unknown) > c4:00:a8:00:72:3a (oui Unknown), ethertype Unknown (0x8b25), length 14: 
	0x0000:  c400 a800 723a cb64 517d 165d 8b25
07:32:43.861158 cb:64:51:7d:72:3a (oui Unknown) > 94:00:00:00:72:3a (oui Unknown), ethertype Unknown (0xcb64), length 32: 
	0x0000:  9400 0000 723a cb64 517d 723a cb64 5259
	0x0010:  0400 b034 ffff ffff ffff ffff ef7d 5989
07:32:43.862043 cb:64:39:ad:73:3a (oui Unknown) > b4:00:68:01:72:3a (oui Unknown), ethertype Unknown (0xcb64), length 20: 
	0x0000:  b400 6801 723a cb64 39ad 733a cb64 517d
	0x0010:  8d80 46cd
07:32:43.862132 cb:64:51:7d:82:dd (oui Unknown) > c4:00:2c:01:72:3a (oui Unknown), ethertype Unknown (0x8d54), length 14: 
	0x0000:  c400 2c01 723a cb64 517d 82dd 8d54
07:32:43.862409 cb:64:51:7d:72:3a (oui Unknown) > 94:00:00:00:72:3a (oui Unknown), ethertype Unknown (0xcb64), length 32: 
	0x0000:  9400 0000 723a cb64 517d 723a cb64 39ad
	0x0010:  0400 f030 ffff ffff ffff ffff 82ac cd53
07:32:43.862504 cb:64:51:7d:2f:a1 (oui Unknown) > c4:00:00:00:72:3a (oui Unknown), ethertype Unknown (0x235c), length 14: 
	0x0000:  c400 0000 723a cb64 517d 2fa1 235c
07:32:43.862716 cb:64:52:59:98:01 (oui Unknown) > 94:00:00:00:70:3a (oui Unknown), ethertype Unknown (0xa75f), length 32: 
	0x0000:  9400 0000 703a cb64 5259 9801 a75f 3a8d
	0x0010:  0500 30c7 0100 0000 0000 0000 4ad9 80e7
07:32:43.862812 20:59:4d:63:2c:ad (oui Unknown) > d4:00:04:00:48:45 (oui Unknown), ethertype Unknown (0x1110), length 14: 
	0x0000:  d400 0400 4845 2059 4d63 2cad 1110
07:32:43.863413 cb:64:39:ad:73:3a (oui Unknown) > b4:00:44:01:72:3a (oui Unknown), ethertype Unknown (0xcb64), length 20: 
	0x0000:  b400 4401 723a cb64 39ad 733a cb64 517d
	0x0010:  7869 d72a
07:32:43.863503 cb:64:51:7d:2e:b1 (oui Unknown) > c4:00:08:01:72:3a (oui Unknown), ethertype Unknown (0xb129), length 14: 
	0x0000:  c400 0801 723a cb64 517d 2eb1 b129
07:32:43.863743 cb:64:51:7d:72:3a (oui Unknown) > 94:00:00:00:72:3a (oui Unknown), ethertype Unknown (0xcb64), length 32: 
	0x0000:  9400 0000 723a cb64 517d 723a cb64 39ad
	0x0010:  0400 1031 ffff ffff ffff ffff b0b5 5473
07:32:43.863838 cb:64:51:7d:2f:a1 (oui Unknown) > c4:00:00:00:72:3a (oui Unknown), ethertype Unknown (0x235c), length 14: 
	0x0000:  c400 0000 723a cb64 517d 2fa1 235c
07:32:43.864288 20:59:4d:63:71:3a (oui Unknown) > b4:00:68:01:48:45 (oui Unknown), ethertype Unknown (0xcb64), length 20: 
	0x0000:  b400 6801 4845 2059 4d63 713a cb64 39af
	0x0010:  3ea1 f772
07:32:43.865110 cb:64:51:7d:73:3a (oui Unknown) > b4:00:b8:00:72:3a (oui Unknown), ethertype Unknown (0xcb64), length 20: 
	0x0000:  b400 b800 723a cb64 517d 733a cb64 39ad
	0x0010:  47f6 9237
07:32:43.865204 cb:64:39:ad:8b:16 (oui Unknown) > c4:00:7c:00:72:3a (oui Unknown), ethertype Unknown (0x2b8c), length 14: 
	0x0000:  c400 7c00 723a cb64 39ad 8b16 2b8c
07:32:43.865313 cb:64:39:ad:72:3a (oui Unknown) > 94:00:00:00:72:3a (oui Unknown), ethertype Unknown (0xcb64), length 32: 
	0x0000:  9400 0000 723a cb64 39ad 723a cb64 517d
	0x0010:  0400 4048 ffff ffff ffff ffff d2ec a0f6
07:32:43.865432 20:59:4d:63:71:3a (oui Unknown) > b4:00:44:01:48:45 (oui Unknown), ethertype Unknown (0xcb64), length 20: 
	0x0000:  b400 4401 4845 2059 4d63 713a cb64 39af
	0x0010:  cb48 6695
07:32:43.865756 cb:64:39:ad:73:3a (oui Unknown) > b4:00:68:01:72:3a (oui Unknown), ethertype Unknown (0xcb64), length 20: 
	0x0000:  b400 6801 723a cb64 39ad 733a cb64 517d
	0x0010:  8d80 46cd
07:32:43.865926 cb:64:51:7d:82:dd (oui Unknown) > c4:00:2c:01:72:3a (oui Unknown), ethertype Unknown (0x8d54), length 14: 
	0x0000:  c400 2c01 723a cb64 517d 82dd 8d54
07:32:43.866037 cb:64:51:7d:72:3a (oui Unknown) > 94:00:00:00:72:3a (oui Unknown), ethertype Unknown (0xcb64), length 32: 
	0x0000:  9400 0000 723a cb64 517d 723a cb64 39ad
	0x0010:  0400 4031 ffff ffff ffff ffff f833 40ca
07:32:43.866132 cb:64:51:7d:2f:a1 (oui Unknown) > c4:00:00:00:72:3a (oui Unknown), ethertype Unknown (0x235c), length 14: 
	0x0000:  c400 0000 723a cb64 517d 2fa1 235c
07:32:43.866324 20:59:4d:63:2c:ad (oui Unknown) > d4:00:04:00:48:45 (oui Unknown), ethertype Unknown (0x1110), length 14: 
	0x0000:  d400 0400 4845 2059 4d63 2cad 1110
07:32:43.866513 20:59:4d:63:2c:ad (oui Unknown) > d4:00:04:00:48:45 (oui Unknown), ethertype Unknown (0x1110), length 14: 
	0x0000:  d400 0400 4845 2059 4d63 2cad 1110
07:32:43.866725 cb:64:39:ad:73:3a (oui Unknown) > b4:00:fc:00:72:3a (oui Unknown), ethertype Unknown (0xcb64), length 20: 
	0x0000:  b400 fc00 723a cb64 39ad 733a cb64 517d
	0x0010:  9d05 bdec
07:32:43.866813 cb:64:51:7d:18:e6 (oui Unknown) > c4:00:c0:00:72:3a (oui Unknown), ethertype Unknown (0x8526), length 14: 
	0x0000:  c400 c000 723a cb64 517d 18e6 8526
07:32:43.866921 cb:64:51:7d:72:3a (oui Unknown) > 94:00:00:00:72:3a (oui Unknown), ethertype Unknown (0xcb64), length 32: 
	0x0000:  9400 0000 723a cb64 517d 723a cb64 39ad
	0x0010:  0400 5031 ffff ffff ffff ffff 10b2 eeed
07:32:43.867016 cb:64:51:7d:2f:a1 (oui Unknown) > c4:00:00:00:72:3a (oui Unknown), ethertype Unknown (0x235c), length 14: 
	0x0000:  c400 0000 723a cb64 517d 2fa1 235c
07:32:43.867229 cb:64:52:59:73:3a (oui Unknown) > b4:00:18:01:72:3a (oui Unknown), ethertype Unknown (0xcb64), length 20: 
	0x0000:  b400 1801 723a cb64 5259 733a cb64 517d
	0x0010:  ef91 993a
07:32:43.867317 cb:64:51:7d:7c:c2 (oui Unknown) > c4:00:dc:00:72:3a (oui Unknown), ethertype Unknown (0x910d), length 14: 
	0x0000:  c400 dc00 723a cb64 517d 7cc2 910d
07:32:43.867530 cb:64:51:7d:72:3a (oui Unknown) > 94:00:00:00:72:3a (oui Unknown), ethertype Unknown (0xcb64), length 32: 
	0x0000:  9400 0000 723a cb64 517d 723a cb64 5259
	0x0010:  0400 d034 ffff ffff ffff ffff 9f79 be58
07:32:43.867625 cb:b0:93:a1:e0:f3 (oui Unknown) > d4:00:00:00:e0:ac (oui Unknown), ethertype Unknown (0x4c89), length 14: 
	0x0000:  d400 0000 e0ac cbb0 93a1 e0f3 4c89
07:32:43.867743 cb:64:39:ad:73:3a (oui Unknown) > b4:00:20:01:72:3a (oui Unknown), ethertype Unknown (0xcb64), length 20: 
	0x0000:  b400 2001 723a cb64 39ad 733a cb64 517d
	0x0010:  4a69 a6bf
07:32:43.867834 cb:64:51:7d:b4:8a (oui Unknown) > c4:00:e4:00:72:3a (oui Unknown), ethertype Unknown (0xb95b), length 14: 
	0x0000:  c400 e400 723a cb64 517d b48a b95b
07:32:43.868048 cb:64:51:7d:72:3a (oui Unknown) > 94:00:00:00:72:3a (oui Unknown), ethertype Unknown (0xcb64), length 32: 
	0x0000:  9400 0000 723a cb64 517d 723a cb64 39ad
	0x0010:  0400 7031 ffff ffff ffff ffff c0b1 b3a2
07:32:43.868143 cb:64:51:7d:2f:a1 (oui Unknown) > c4:00:00:00:72:3a (oui Unknown), ethertype Unknown (0x235c), length 14: 
	0x0000:  c400 0000 723a cb64 517d 2fa1 235c
07:32:43.868251 cb:64:51:7d:73:3a (oui Unknown) > b4:00:bc:00:72:3a (oui Unknown), ethertype Unknown (0xcb64), length 20: 
	0x0000:  b400 bc00 723a cb64 517d 733a cb64 39ad
	0x0010:  5c79 3e2e
07:32:43.868339 cb:64:39:ad:8e:17 (oui Unknown) > c4:00:80:00:72:3a (oui Unknown), ethertype Unknown (0xef24), length 14: 
	0x0000:  c400 8000 723a cb64 39ad 8e17 ef24
07:32:43.868447 cb:64:39:ad:72:3a (oui Unknown) > 94:00:00:00:72:3a (oui Unknown), ethertype Unknown (0xcb64), length 32: 
	0x0000:  9400 0000 723a cb64 39ad 723a cb64 517d
	0x0010:  0400 5048 ffff ffff ffff ffff 3a6d 0ed1
07:32:43.868580 20:59:4d:63:71:3a (oui Unknown) > b4:00:ac:01:48:45 (oui Unknown), ethertype Unknown (0xcb64), length 20: 
	0x0000:  b400 ac01 4845 2059 4d63 713a cb64 39af
	0x0010:  3636 91a9
07:32:43.869271 cb:64:52:59:98:01 (oui Unknown) > 94:00:00:00:70:3a (oui Unknown), ethertype Unknown (0xa75f), length 32: 
	0x0000:  9400 0000 703a cb64 5259 9801 a75f 3a8d
	0x0010:  0500 40c7 0300 0000 0000 0000 af5b ec53
07:32:43.869474 cb:64:39:ad:73:3a (oui Unknown) > b4:00:fc:00:72:3a (oui Unknown), ethertype Unknown (0xcb64), length 20: 
	0x0000:  b400 fc00 723a cb64 39ad 733a cb64 517d
	0x0010:  9d05 bdec
07:32:43.869567 cb:64:51:7d:18:e6 (oui Unknown) > c4:00:c0:00:72:3a (oui Unknown), ethertype Unknown (0x8526), length 14: 
	0x0000:  c400 c000 723a cb64 517d 18e6 8526
07:32:43.869675 cb:64:51:7d:72:3a (oui Unknown) > 94:00:00:00:72:3a (oui Unknown), ethertype Unknown (0xcb64), length 32: 
	0x0000:  9400 0000 723a cb64 517d 723a cb64 39ad
	0x0010:  0400 8031 ffff ffff ffff ffff 593d ffb2
07:32:43.869770 cb:64:51:7d:2f:a1 (oui Unknown) > c4:00:00:00:72:3a (oui Unknown), ethertype Unknown (0x235c), length 14: 
	0x0000:  c400 0000 723a cb64 517d 2fa1 235c
07:32:43.869878 20:59:4d:63:71:3a (oui Unknown) > b4:00:20:01:48:45 (oui Unknown), ethertype Unknown (0xcb64), length 20: 
	0x0000:  b400 2001 4845 2059 4d63 713a cb64 39af
	0x0010:  f948 1700
07:32:43.870329 cb:64:39:ad:73:3a (oui Unknown) > b4:00:44:01:72:3a (oui Unknown), ethertype Unknown (0xcb64), length 20: 
	0x0000:  b400 4401 723a cb64 39ad 733a cb64 517d
	0x0010:  7869 d72a
07:32:43.870420 cb:64:51:7d:2e:b1 (oui Unknown) > c4:00:08:01:72:3a (oui Unknown), ethertype Unknown (0xb129), length 14: 
	0x0000:  c400 0801 723a cb64 517d 2eb1 b129
07:32:43.870661 cb:64:51:7d:72:3a (oui Unknown) > 94:00:00:00:72:3a (oui Unknown), ethertype Unknown (0xcb64), length 32: 
	0x0000:  9400 0000 723a cb64 517d 723a cb64 39ad
	0x0010:  0400 a031 ffff ffff ffff ffff 893e a2fd
07:32:43.870756 cb:64:51:7d:2f:a1 (oui Unknown) > c4:00:00:00:72:3a (oui Unknown), ethertype Unknown (0x235c), length 14: 
	0x0000:  c400 0000 723a cb64 517d 2fa1 235c
07:32:43.870840 20:59:4d:63:2c:ad (oui Unknown) > d4:00:04:00:48:45 (oui Unknown), ethertype Unknown (0x1110), length 14: 
	0x0000:  d400 0400 4845 2059 4d63 2cad 1110
07:32:43.871053 cb:64:39:ad:73:3a (oui Unknown) > b4:00:dc:00:72:3a (oui Unknown), ethertype Unknown (0xcb64), length 20: 
	0x0000:  b400 dc00 723a cb64 39ad 733a cb64 517d
	0x0010:  457d d921
07:32:43.871248 20:59:4d:63:d6:a3 (oui Unknown) > d4:00:00:00:48:45 (oui Unknown), ethertype Unknown (0x5b94), length 14: 
	0x0000:  d400 0000 4845 2059 4d63 d6a3 5b94
07:32:43.871356 20:59:4d:63:71:3a (oui Unknown) > b4:00:88:01:48:45 (oui Unknown), ethertype Unknown (0xcb64), length 20: 
	0x0000:  b400 8801 4845 2059 4d63 713a cb64 39af
	0x0010:  f5c1 597d
07:32:43.872090 cb:64:39:ad:73:3a (oui Unknown) > b4:00:20:01:72:3a (oui Unknown), ethertype Unknown (0xcb64), length 20: 
	0x0000:  b400 2001 723a cb64 39ad 733a cb64 517d
	0x0010:  4a69 a6bf
07:32:43.872179 cb:64:51:7d:b4:8a (oui Unknown) > c4:00:e4:00:72:3a (oui Unknown), ethertype Unknown (0xb95b), length 14: 
	0x0000:  c400 e400 723a cb64 517d b48a b95b
07:32:43.872391 cb:64:51:7d:72:3a (oui Unknown) > 94:00:00:00:72:3a (oui Unknown), ethertype Unknown (0xcb64), length 32: 
	0x0000:  9400 0000 723a cb64 517d 723a cb64 39ad
	0x0010:  0400 c031 ffff ffff ffff ffff f93a 452c
07:32:43.872488 cb:64:51:7d:2f:a1 (oui Unknown) > c4:00:00:00:72:3a (oui Unknown), ethertype Unknown (0x235c), length 14: 
	0x0000:  c400 0000 723a cb64 517d 2fa1 235c
07:32:43.872595 cb:64:51:7d:73:3a (oui Unknown) > b4:00:bc:00:72:3a (oui Unknown), ethertype Unknown (0xcb64), length 20: 
	0x0000:  b400 bc00 723a cb64 517d 733a cb64 39ad
	0x0010:  5c79 3e2e
07:32:43.872684 cb:64:39:ad:8e:17 (oui Unknown) > c4:00:80:00:72:3a (oui Unknown), ethertype Unknown (0xef24), length 14: 
	0x0000:  c400 8000 723a cb64 39ad 8e17 ef24
07:32:43.872792 cb:64:39:ad:72:3a (oui Unknown) > 94:00:00:00:72:3a (oui Unknown), ethertype Unknown (0xcb64), length 32: 
	0x0000:  9400 0000 723a cb64 39ad 723a cb64 517d
	0x0010:  0400 6048 ffff ffff ffff ffff 02ef fdb9
07:32:43.872911 cb:64:52:59:73:3a (oui Unknown) > b4:00:bc:00:72:3a (oui Unknown), ethertype Unknown (0xcb64), length 20: 
	0x0000:  b400 bc00 723a cb64 5259 733a cb64 517d
	0x0010:  4b50 b4b0
07:32:43.872999 cb:64:51:7d:f5:24 (oui Unknown) > c4:00:80:00:72:3a (oui Unknown), ethertype Unknown (0x180f), length 14: 
	0x0000:  c400 8000 723a cb64 517d f524 180f
07:32:43.873183 cb:64:51:7d:72:3a (oui Unknown) > 94:00:00:00:72:3a (oui Unknown), ethertype Unknown (0xcb64), length 32: 
	0x0000:  9400 0000 723a cb64 517d 723a cb64 5259
	0x0010:  0400 e034 ffff ffff ffff ffff a7fb 4d30
07:32:43.873280 20:59:4d:63:2c:ad (oui Unknown) > d4:00:04:00:48:45 (oui Unknown), ethertype Unknown (0x1110), length 14: 
	0x0000:  d400 0400 4845 2059 4d63 2cad 1110
07:32:43.873388 20:59:4d:63:71:3a (oui Unknown) > b4:00:20:01:48:45 (oui Unknown), ethertype Unknown (0xcb64), length 20: 
	0x0000:  b400 2001 4845 2059 4d63 713a cb64 39af
	0x0010:  f948 1700
07:32:43.873881 cb:64:39:ad:73:3a (oui Unknown) > b4:00:68:01:72:3a (oui Unknown), ethertype Unknown (0xcb64), length 20: 
	0x0000:  b400 6801 723a cb64 39ad 733a cb64 517d
	0x0010:  8d80 46cd
07:32:43.873971 cb:64:51:7d:82:dd (oui Unknown) > c4:00:2c:01:72:3a (oui Unknown), ethertype Unknown (0x8d54), length 14: 
	0x0000:  c400 2c01 723a cb64 517d 82dd 8d54
07:32:43.874247 cb:64:51:7d:72:3a (oui Unknown) > 94:00:00:00:72:3a (oui Unknown), ethertype Unknown (0xcb64), length 32: 
	0x0000:  9400 0000 723a cb64 517d 723a cb64 39ad
	0x0010:  0400 f031 ffff ffff ffff ffff c1b8 b644
07:32:43.874342 cb:64:51:7d:2f:a1 (oui Unknown) > c4:00:00:00:72:3a (oui Unknown), ethertype Unknown (0x235c), length 14: 
	0x0000:  c400 0000 723a cb64 517d 2fa1 235c
07:32:43.874450 cb:64:51:7d:72:3a (oui Unknown) > 94:00:00:00:72:3a (oui Unknown), ethertype Unknown (0xcb64), length 32: 
	0x0000:  9400 0000 723a cb64 517d 723a cb64 39ad
	0x0010:  0400 0032 ffff ffff ffff ffff 9d08 776d
07:32:43.874545 cb:64:51:7d:2f:a1 (oui Unknown) > c4:00:00:00:72:3a (oui Unknown), ethertype Unknown (0x235c), length 14: 
	0x0000:  c400 0000 723a cb64 517d 2fa1 235c
07:32:43.874653 cb:64:52:59:98:01 (oui Unknown) > 94:00:00:00:70:3a (oui Unknown), ethertype Unknown (0xa75f), length 32: 
	0x0000:  9400 0000 703a cb64 5259 9801 a75f 3a8d
	0x0010:  0500 60c7 0100 0000 0000 0000 025f 945e
07:32:43.874748 20:59:4d:63:2c:ad (oui Unknown) > d4:00:04:00:48:45 (oui Unknown), ethertype Unknown (0x1110), length 14: 
	0x0000:  d400 0400 4845 2059 4d63 2cad 1110
07:32:43.874961 cb:64:51:7d:73:3a (oui Unknown) > b4:00:b8:00:72:3a (oui Unknown), ethertype Unknown (0xcb64), length 20: 
	0x0000:  b400 b800 723a cb64 517d 733a cb64 39ad
	0x0010:  47f6 9237
07:32:43.875050 cb:64:39:ad:8b:16 (oui Unknown) > c4:00:7c:00:72:3a (oui Unknown), ethertype Unknown (0x2b8c), length 14: 
	0x0000:  c400 7c00 723a cb64 39ad 8b16 2b8c
07:32:43.875158 cb:64:39:ad:72:3a (oui Unknown) > 94:00:00:00:72:3a (oui Unknown), ethertype Unknown (0xcb64), length 32: 
	0x0000:  9400 0000 723a cb64 39ad 723a cb64 517d
	0x0010:  0400 7048 ffff ffff ffff ffff ea6e 539e
07:32:43.875642 cb:64:51:7d:73:3a (oui Unknown) > b4:00:b8:00:72:3a (oui Unknown), ethertype Unknown (0xcb64), length 20: 
	0x0000:  b400 b800 723a cb64 517d 733a cb64 39ad
	0x0010:  47f6 9237
07:32:43.875731 cb:64:39:ad:8b:16 (oui Unknown) > c4:00:7c:00:72:3a (oui Unknown), ethertype Unknown (0x2b8c), length 14: 
	0x0000:  c400 7c00 723a cb64 39ad 8b16 2b8c
07:32:43.875839 cb:64:39:ad:72:3a (oui Unknown) > 94:00:00:00:72:3a (oui Unknown), ethertype Unknown (0xcb64), length 32: 
	0x0000:  9400 0000 723a cb64 39ad 723a cb64 517d
	0x0010:  0400 8048 ffff ffff ffff ffff 73e2 1f8e
07:32:43.876652 20:59:4d:63:71:3a (oui Unknown) > b4:00:88:01:48:45 (oui Unknown), ethertype Unknown (0xcb64), length 20: 
	0x0000:  b400 8801 4845 2059 4d63 713a cb64 39af
	0x0010:  f5c1 597d
07:32:43.877601 a7:5f:3a:8d:0e:93 (oui Unknown) > d4:00:00:00:98:01 (oui Unknown), ethertype Unknown (0xd978), length 14: 
	0x0000:  d400 0000 9801 a75f 3a8d 0e93 d978
07:32:43.877709 20:59:4d:63:71:3a (oui Unknown) > b4:00:88:01:48:45 (oui Unknown), ethertype Unknown (0xcb64), length 20: 
	0x0000:  b400 8801 4845 2059 4d63 713a cb64 39af
	0x0010:  f5c1 597d
07:32:43.878891 cb:64:51:7d:73:3a (oui Unknown) > b4:00:b8:00:72:3a (oui Unknown), ethertype Unknown (0xcb64), length 20: 
	0x0000:  b400 b800 723a cb64 517d 733a cb64 5259
	0x0010:  2e72 4b0b
07:32:43.879068 cb:64:52:59:e2:92 (oui Unknown) > c4:00:7c:00:72:3a (oui Unknown), ethertype Unknown (0xf2b0), length 14: 
	0x0000:  c400 7c00 723a cb64 5259 e292 f2b0
07:32:43.879180 cb:64:52:59:72:3a (oui Unknown) > 94:00:00:00:72:3a (oui Unknown), ethertype Unknown (0xcb64), length 32: 
	0x0000:  9400 0000 723a cb64 5259 723a cb64 517d
	0x0010:  0400 20b1 ffff ffff ffff ffff 8282 d30b
07:32:43.879382 20:59:4d:63:2c:ad (oui Unknown) > d4:00:04:00:48:45 (oui Unknown), ethertype Unknown (0x1110), length 14: 
	0x0000:  d400 0400 4845 2059 4d63 2cad 1110
07:32:43.879572 20:59:4d:63:2c:ad (oui Unknown) > d4:00:04:00:48:45 (oui Unknown), ethertype Unknown (0x1110), length 14: 
	0x0000:  d400 0400 4845 2059 4d63 2cad 1110
07:32:43.880346 cb:64:51:7d:73:3a (oui Unknown) > b4:00:bc:00:72:3a (oui Unknown), ethertype Unknown (0xcb64), length 20: 
	0x0000:  b400 bc00 723a cb64 517d 733a cb64 39ad
	0x0010:  5c79 3e2e
07:32:43.880436 cb:64:39:ad:8e:17 (oui Unknown) > c4:00:80:00:72:3a (oui Unknown), ethertype Unknown (0xef24), length 14: 
	0x0000:  c400 8000 723a cb64 39ad 8e17 ef24
07:32:43.880545 cb:64:39:ad:72:3a (oui Unknown) > 94:00:00:00:72:3a (oui Unknown), ethertype Unknown (0xcb64), length 32: 
	0x0000:  9400 0000 723a cb64 39ad 723a cb64 517d
	0x0010:  0400 9048 ffff ffff ffff ffff 9b63 b1a9
07:32:43.880664 cb:64:39:ad:73:3a (oui Unknown) > b4:00:68:01:72:3a (oui Unknown), ethertype Unknown (0xcb64), length 20: 
	0x0000:  b400 6801 723a cb64 39ad 733a cb64 517d
	0x0010:  8d80 46cd
07:32:43.880754 cb:64:51:7d:82:dd (oui Unknown) > c4:00:2c:01:72:3a (oui Unknown), ethertype Unknown (0x8d54), length 14: 
