07:37:25.815794 cb:64:52:59:73:3a (oui Unknown) > b4:00:bc:00:72:3a (oui Unknown), ethertype Unknown (0xcb64), length 20: 
	0x0000:  b400 bc00 723a cb64 5259 733a cb64 517d
	0x0010:  4b50 b4b0
07:37:25.816111 cb:64:51:7d:f5:24 (oui Unknown) > c4:00:80:00:72:3a (oui Unknown), ethertype Unknown (0x180f), length 14: 
	0x0000:  c400 8000 723a cb64 517d f524 180f
07:37:25.816250 cb:64:51:7d:72:3a (oui Unknown) > 94:00:00:00:72:3a (oui Unknown), ethertype Unknown (0xcb64), length 32: 
	0x0000:  9400 0000 723a cb64 517d 723a cb64 5259
	0x0010:  0400 6026 ffff ffff ffff ffff 5198 7e54
07:37:25.816390 20:59:4d:63:71:3a (oui Unknown) > b4:00:c4:00:48:45 (oui Unknown), ethertype Unknown (0xcb64), length 20: 
	0x0000:  b400 c400 4845 2059 4d63 713a cb64 39af
	0x0010:  ac7e 83cb
07:37:25.816496 20:59:4d:63:d6:a3 (oui Unknown) > d4:00:00:00:48:45 (oui Unknown), ethertype Unknown (0x5b94), length 14: 
	0x0000:  d400 0000 4845 2059 4d63 d6a3 5b94
07:37:25.816705 20:59:4d:63:71:3a (oui Unknown) > b4:00:48:01:48:45 (oui Unknown), ethertype Unknown (0xcb64), length 20: 
	0x0000:  b400 4801 4845 2059 4d63 713a cb64 39af
	0x0010:  e6d9 93bf
07:37:25.816827 cb:64:52:59:98:01 (oui Unknown) > 94:00:00:00:70:3a (oui Unknown), ethertype Unknown (0xa75f), length 32: 
	0x0000:  9400 0000 703a cb64 5259 9801 a75f 3a8d
	0x0010:  0500 10f7 0100 0000 0000 0000 481a ec86
07:37:25.816965 cb:64:51:7d:73:3a (oui Unknown) > b4:00:b0:00:72:3a (oui Unknown), ethertype Unknown (0xcb64), length 20: 
	0x0000:  b400 b000 723a cb64 517d 733a cb64 39ad
	0x0010:  71e8 cb04
07:37:25.817064 cb:64:39:ad:3e:0d (oui Unknown) > c4:00:74:00:72:3a (oui Unknown), ethertype Unknown (0xce5f), length 14: 
	0x0000:  c400 7400 723a cb64 39ad 3e0d ce5f
07:37:25.817178 20:59:4d:63:d6:a3 (oui Unknown) > d4:00:00:00:48:45 (oui Unknown), ethertype Unknown (0x5b94), length 14: 
	0x0000:  d400 0000 4845 2059 4d63 d6a3 5b94
07:37:25.817417 cb:64:51:7d:73:3a (oui Unknown) > b4:00:b0:00:72:3a (oui Unknown), ethertype Unknown (0xcb64), length 20: 
	0x0000:  b400 b000 723a cb64 517d 733a cb64 39ad
	0x0010:  71e8 cb04
07:37:25.817510 cb:64:39:ad:3e:0d (oui Unknown) > c4:00:74:00:72:3a (oui Unknown), ethertype Unknown (0xce5f), length 14: 
	0x0000:  c400 7400 723a cb64 39ad 3e0d ce5f
07:37:25.818429 cb:64:51:7d:73:3a (oui Unknown) > b4:00:b0:00:72:3a (oui Unknown), ethertype Unknown (0xcb64), length 20: 
	0x0000:  b400 b000 723a cb64 517d 733a cb64 39ad
	0x0010:  71e8 cb04
07:37:25.818539 cb:64:39:ad:3e:0d (oui Unknown) > c4:00:74:00:72:3a (oui Unknown), ethertype Unknown (0xce5f), length 14: 
	0x0000:  c400 7400 723a cb64 39ad 3e0d ce5f
07:37:25.818653 cb:64:39:ad:72:3a (oui Unknown) > 94:00:00:00:72:3a (oui Unknown), ethertype Unknown (0xcb64), length 32: 
	0x0000:  9400 0000 723a cb64 39ad 723a cb64 517d
	0x0010:  0400 1033 ffff ffff ffff ffff 9237 423d
07:37:25.819498 cb:64:51:7d:73:3a (oui Unknown) > b4:00:b0:00:72:3a (oui Unknown), ethertype Unknown (0xcb64), length 20: 
	0x0000:  b400 b000 723a cb64 517d 733a cb64 39ad
	0x0010:  71e8 cb04
07:37:25.819591 cb:64:39:ad:3e:0d (oui Unknown) > c4:00:74:00:72:3a (oui Unknown), ethertype Unknown (0xce5f), length 14: 
	0x0000:  c400 7400 723a cb64 39ad 3e0d ce5f
07:37:25.819701 cb:64:39:ad:72:3a (oui Unknown) > 94:00:00:00:72:3a (oui Unknown), ethertype Unknown (0xcb64), length 32: 
	0x0000:  9400 0000 723a cb64 39ad 723a cb64 517d
	0x0010:  0400 2033 ffff ffff ffff ffff aab5 b155
07:37:25.821019 cb:64:52:59:73:3a (oui Unknown) > b4:00:24:01:72:3a (oui Unknown), ethertype Unknown (0xcb64), length 20: 
	0x0000:  b400 2401 723a cb64 5259 733a cb64 517d
	0x0010:  7644 babb
07:37:25.821116 cb:64:51:7d:fb:9f (oui Unknown) > c4:00:e8:00:72:3a (oui Unknown), ethertype Unknown (0x160c), length 14: 
	0x0000:  c400 e800 723a cb64 517d fb9f 160c
07:37:25.821237 cb:64:51:7d:72:3a (oui Unknown) > 94:00:00:00:72:3a (oui Unknown), ethertype Unknown (0xcb64), length 32: 
	0x0000:  9400 0000 723a cb64 517d 723a cb64 5259
	0x0010:  0400 8026 ffff ffff ffff ffff 2095 9c63
07:37:25.823420 cb:64:52:59:98:01 (oui Unknown) > 94:00:00:00:70:3a (oui Unknown), ethertype Unknown (0xa75f), length 32: 
	0x0000:  9400 0000 703a cb64 5259 9801 a75f 3a8d
	0x0010:  0500 20f7 0300 0000 0000 0000 0d9f 3aac
07:37:25.824268 cb:64:39:ad:73:3a (oui Unknown) > b4:00:14:01:72:3a (oui Unknown), ethertype Unknown (0xcb64), length 20: 
	0x0000:  b400 1401 723a cb64 39ad 733a cb64 517d
	0x0010:  e5a2 dc0d
07:37:25.824371 cb:64:51:7d:86:cc (oui Unknown) > c4:00:d8:00:72:3a (oui Unknown), ethertype Unknown (0xdb89), length 14: 
	0x0000:  c400 d800 723a cb64 517d 86cc db89
07:37:25.824491 cb:64:51:7d:72:3a (oui Unknown) > 94:00:00:00:72:3a (oui Unknown), ethertype Unknown (0xcb64), length 32: 
	0x0000:  9400 0000 723a cb64 517d 723a cb64 39ad
	0x0010:  0400 f0e7 ffff ffff ffff ffff 7280 ab23
07:37:25.824591 cb:64:51:7d:2f:a1 (oui Unknown) > c4:00:00:00:72:3a (oui Unknown), ethertype Unknown (0x235c), length 14: 
	0x0000:  c400 0000 723a cb64 517d 2fa1 235c
07:37:25.825498 cb:64:39:ad:73:3a (oui Unknown) > b4:00:14:01:72:3a (oui Unknown), ethertype Unknown (0xcb64), length 20: 
	0x0000:  b400 1401 723a cb64 39ad 733a cb64 517d
	0x0010:  e5a2 dc0d
07:37:25.825589 cb:64:51:7d:86:cc (oui Unknown) > c4:00:d8:00:72:3a (oui Unknown), ethertype Unknown (0xdb89), length 14: 
	0x0000:  c400 d800 723a cb64 517d 86cc db89
07:37:25.825700 cb:64:51:7d:72:3a (oui Unknown) > 94:00:00:00:72:3a (oui Unknown), ethertype Unknown (0xcb64), length 32: 
	0x0000:  9400 0000 723a cb64 517d 723a cb64 39ad
	0x0010:  0400 10e8 ffff ffff ffff ffff d242 f0cb
07:37:25.825797 cb:64:51:7d:2f:a1 (oui Unknown) > c4:00:00:00:72:3a (oui Unknown), ethertype Unknown (0x235c), length 14: 
	0x0000:  c400 0000 723a cb64 517d 2fa1 235c
07:37:25.826012 cb:64:51:7d:72:3a (oui Unknown) > 94:00:00:00:72:3a (oui Unknown), ethertype Unknown (0xcb64), length 32: 
	0x0000:  9400 0000 723a cb64 517d 723a cb64 39ad
	0x0010:  0400 30e8 ffff ffff ffff ffff 0241 ad84
07:37:25.826132 20:59:4d:63:71:3a (oui Unknown) > b4:00:14:01:48:45 (oui Unknown), ethertype Unknown (0xcb64), length 20: 
	0x0000:  b400 1401 4845 2059 4d63 713a cb64 39af
	0x0010:  5683 6db2
07:37:25.826613 cb:64:39:ad:73:3a (oui Unknown) > b4:00:fc:00:72:3a (oui Unknown), ethertype Unknown (0xcb64), length 20: 
	0x0000:  b400 fc00 723a cb64 39ad 733a cb64 517d
	0x0010:  9d05 bdec
07:37:25.826710 cb:64:51:7d:18:e6 (oui Unknown) > c4:00:c0:00:72:3a (oui Unknown), ethertype Unknown (0x8526), length 14: 
	0x0000:  c400 c000 723a cb64 517d 18e6 8526
07:37:25.826840 cb:64:51:7d:72:3a (oui Unknown) > 94:00:00:00:72:3a (oui Unknown), ethertype Unknown (0xcb64), length 32: 
	0x0000:  9400 0000 723a cb64 517d 723a cb64 39ad
	0x0010:  0400 50e8 ffff ffff ffff ffbf e204 9623
07:37:25.826938 cb:64:51:7d:2f:a1 (oui Unknown) > c4:00:00:00:72:3a (oui Unknown), ethertype Unknown (0x235c), length 14: 
	0x0000:  c400 0000 723a cb64 517d 2fa1 235c
07:37:25.827048 cb:64:51:7d:72:3a (oui Unknown) > 94:00:00:00:72:3a (oui Unknown), ethertype Unknown (0xcb64), length 32: 
	0x0000:  9400 0000 723a cb64 517d 723a cb64 39ad
	0x0010:  0400 50e8 ffff ffff ffff ffff 7245 4a55
07:37:25.827168 20:59:4d:63:71:3a (oui Unknown) > b4:00:48:01:48:45 (oui Unknown), ethertype Unknown (0xcb64), length 20: 
	0x0000:  b400 4801 4845 2059 4d63 713a cb64 39af
	0x0010:  e6d9 93bf
07:37:25.827852 cb:64:39:ad:73:3a (oui Unknown) > b4:00:14:01:72:3a (oui Unknown), ethertype Unknown (0xcb64), length 20: 
	0x0000:  b400 1401 723a cb64 39ad 733a cb64 517d
	0x0010:  e5a2 dc0d
07:37:25.827944 cb:64:51:7d:86:cc (oui Unknown) > c4:00:d8:00:72:3a (oui Unknown), ethertype Unknown (0xdb89), length 14: 
	0x0000:  c400 d800 723a cb64 517d 86cc db89
07:37:25.828055 cb:64:51:7d:72:3a (oui Unknown) > 94:00:00:00:72:3a (oui Unknown), ethertype Unknown (0xcb64), length 32: 
	0x0000:  9400 0000 723a cb64 517d 723a cb64 39ad
	0x0010:  0400 60e8 ffff ffff ffff ffff 4ac7 b93d
07:37:25.828152 cb:64:51:7d:2f:a1 (oui Unknown) > c4:00:00:00:72:3a (oui Unknown), ethertype Unknown (0x235c), length 14: 
	0x0000:  c400 0000 723a cb64 517d 2fa1 235c
07:37:25.828367 cb:64:51:7d:72:3a (oui Unknown) > 94:00:00:00:72:3a (oui Unknown), ethertype Unknown (0xcb64), length 32: 
	0x0000:  9400 0000 723a cb64 517d 723a cb64 39ad
	0x0010:  0400 80e8 ffff ffff ffff ffff 3bca 5b0a
07:37:25.828798 20:59:4d:63:d6:a3 (oui Unknown) > d4:00:00:00:48:45 (oui Unknown), ethertype Unknown (0x5b94), length 14: 
	0x0000:  d400 0000 4845 2059 4d63 d6a3 5b94
07:37:25.828921 20:59:4d:63:71:3a (oui Unknown) > b4:00:f8:00:48:45 (oui Unknown), ethertype Unknown (0xcb64), length 20: 
	0x0000:  b400 f800 4845 2059 4d63 713a cb64 39af
	0x0010:  35ab a04a
07:37:25.829407 20:59:4d:63:d6:a3 (oui Unknown) > d4:00:00:00:48:45 (oui Unknown), ethertype Unknown (0x5b94), length 14: 
	0x0000:  d400 0000 4845 2059 4d63 d6a3 5b94
07:37:25.829520 cb:64:51:7d:73:3a (oui Unknown) > b4:00:b0:00:72:3a (oui Unknown), ethertype Unknown (0xcb64), length 20: 
	0x0000:  b400 b000 723a cb64 517d 733a cb64 39ad
	0x0010:  71e8 cb04
07:37:25.829611 cb:64:39:ad:3e:0d (oui Unknown) > c4:00:74:00:72:3a (oui Unknown), ethertype Unknown (0xce5f), length 14: 
	0x0000:  c400 7400 723a cb64 39ad 3e0d ce5f
07:37:25.829721 cb:64:39:ad:72:3a (oui Unknown) > 94:00:00:00:72:3a (oui Unknown), ethertype Unknown (0xcb64), length 32: 
	0x0000:  9400 0000 723a cb64 39ad 723a cb64 517d
	0x0010:  0400 3033 ffff ffff ffff ffff 4234 1f72
07:37:25.829818 a7:5f:3a:8d:0e:93 (oui Unknown) > d4:00:00:00:98:01 (oui Unknown), ethertype Unknown (0xd978), length 14: 
	0x0000:  d400 0000 9801 a75f 3a8d 0e93 d978
07:37:25.829937 cb:64:39:ad:73:3a (oui Unknown) > b4:00:14:01:72:3a (oui Unknown), ethertype Unknown (0xcb64), length 20: 
	0x0000:  b400 1401 723a cb64 39ad 733a cb64 517d
	0x0010:  e5a2 dc0d
07:37:25.830029 cb:64:51:7d:86:cc (oui Unknown) > c4:00:d8:00:72:3a (oui Unknown), ethertype Unknown (0xdb89), length 14: 
	0x0000:  c400 d800 723a cb64 517d 86cc db89
07:37:25.830244 cb:64:51:7d:72:3a (oui Unknown) > 94:00:00:00:72:3a (oui Unknown), ethertype Unknown (0xcb64), length 32: 
	0x0000:  9400 0000 723a cb64 517d 723a cb64 39ad
	0x0010:  0400 a0e8 ffff ffff ffff ffff ebc9 0645
07:37:25.830340 cb:64:51:7d:2f:a1 (oui Unknown) > c4:00:00:00:72:3a (oui Unknown), ethertype Unknown (0x235c), length 14: 
	0x0000:  c400 0000 723a cb64 517d 2fa1 235c
07:37:25.830450 cb:64:51:7d:72:3a (oui Unknown) > 94:00:00:00:72:3a (oui Unknown), ethertype Unknown (0xcb64), length 32: 
	0x0000:  9400 0000 723a cb64 517d 723a cb64 39ad
	0x0010:  0400 b0e8 ffff ffff ffff ffff 0348 a862
07:37:25.830570 20:59:4d:63:71:3a (oui Unknown) > b4:00:30:01:48:45 (oui Unknown), ethertype Unknown (0xcb64), length 20: 
	0x0000:  b400 3001 4845 2059 4d63 713a cb64 39af
	0x0010:  9574 a566
07:37:25.831133 cb:64:39:ad:73:3a (oui Unknown) > b4:00:14:01:72:3a (oui Unknown), ethertype Unknown (0xcb64), length 20: 
	0x0000:  b400 1401 723a cb64 39ad 733a cb64 517d
	0x0010:  e5a2 dc0d
07:37:25.831227 cb:64:51:7d:86:cc (oui Unknown) > c4:00:d8:00:72:3a (oui Unknown), ethertype Unknown (0xdb89), length 14: 
	0x0000:  c400 d800 723a cb64 517d 86cc db89
07:37:25.831337 cb:64:51:7d:72:3a (oui Unknown) > 94:00:00:00:72:3a (oui Unknown), ethertype Unknown (0xcb64), length 32: 
	0x0000:  9400 0000 723a cb64 517d 723a cb64 39ad
	0x0010:  0400 c0e8 ffff ffff ffff ffff 9bcd e194
07:37:25.831433 cb:64:51:7d:2f:a1 (oui Unknown) > c4:00:00:00:72:3a (oui Unknown), ethertype Unknown (0x235c), length 14: 
	0x0000:  c400 0000 723a cb64 517d 2fa1 235c
07:37:25.831648 cb:64:51:7d:72:3a (oui Unknown) > 94:00:00:00:72:3a (oui Unknown), ethertype Unknown (0xcb64), length 32: 
	0x0000:  9400 0000 723a cb64 517d 723a cb64 39ad
	0x0010:  0400 d0e8 ffff ffff ffff ffff 734c 4fb3
07:37:25.831769 cb:64:51:7d:73:3a (oui Unknown) > b4:00:b0:00:72:3a (oui Unknown), ethertype Unknown (0xcb64), length 20: 
	0x0000:  b400 b000 723a cb64 517d 733a cb64 39ad
	0x0010:  71e8 cb04
07:37:25.831860 cb:64:39:ad:3e:0d (oui Unknown) > c4:00:74:00:72:3a (oui Unknown), ethertype Unknown (0xce5f), length 14: 
	0x0000:  c400 7400 723a cb64 39ad 3e0d ce5f
07:37:25.831970 cb:64:39:ad:72:3a (oui Unknown) > 94:00:00:00:72:3a (oui Unknown), ethertype Unknown (0xcb64), length 32: 
	0x0000:  9400 0000 723a cb64 39ad 723a cb64 517d
	0x0010:  0400 4033 ffff ffff ffff ffff dab1 5684
07:37:25.832175 cb:64:51:7d:73:3a (oui Unknown) > b4:00:b0:00:72:3a (oui Unknown), ethertype Unknown (0xcb64), length 20: 
	0x0000:  b400 b000 723a cb64 517d 733a cb64 5259
	0x0010:  186c 1238
07:37:25.832269 cb:64:52:59:57:89 (oui Unknown) > c4:00:74:00:72:3a (oui Unknown), ethertype Unknown (0x1763), length 14: 
	0x0000:  c400 7400 723a cb64 5259 5789 1763
07:37:25.832392 20:59:4d:63:71:3a (oui Unknown) > b4:00:48:01:48:45 (oui Unknown), ethertype Unknown (0xcb64), length 20: 
	0x0000:  b400 4801 4845 2059 4d63 713a cb64 39af
	0x0010:  e6d9 93bf
07:37:25.832845 20:59:4d:63:d6:a3 (oui Unknown) > d4:00:00:00:48:45 (oui Unknown), ethertype Unknown (0x5b94), length 14: 
	0x0000:  d400 0000 4845 2059 4d63 d6a3 5b94
07:37:25.833178 cb:64:39:ad:73:3a (oui Unknown) > b4:00:14:01:72:3a (oui Unknown), ethertype Unknown (0xcb64), length 20: 
	0x0000:  b400 1401 723a cb64 39ad 733a cb64 517d
	0x0010:  e5a2 dc0d
07:37:25.833269 cb:64:51:7d:86:cc (oui Unknown) > c4:00:d8:00:72:3a (oui Unknown), ethertype Unknown (0xdb89), length 14: 
	0x0000:  c400 d800 723a cb64 517d 86cc db89
07:37:25.833380 cb:64:51:7d:72:3a (oui Unknown) > 94:00:00:00:72:3a (oui Unknown), ethertype Unknown (0xcb64), length 32: 
	0x0000:  9400 0000 723a cb64 517d 723a cb64 39ad
	0x0010:  0400 f0e8 ffff ffff ffff ffff a34f 12fc
07:37:25.833477 cb:64:51:7d:2f:a1 (oui Unknown) > c4:00:00:00:72:3a (oui Unknown), ethertype Unknown (0x235c), length 14: 
	0x0000:  c400 0000 723a cb64 517d 2fa1 235c
07:37:25.833691 cb:64:51:7d:72:3a (oui Unknown) > 94:00:00:00:72:3a (oui Unknown), ethertype Unknown (0xcb64), length 32: 
	0x0000:  9400 0000 723a cb64 517d 723a cb64 39ad
	0x0010:  0400 10e9 ffff ffff ffff ffff 9156 8bdc
07:37:25.833788 cb:64:51:7d:2f:a1 (oui Unknown) > c4:00:00:00:72:3a (oui Unknown), ethertype Unknown (0x235c), length 14: 
	0x0000:  c400 0000 723a cb64 517d 2fa1 235c
07:37:25.833898 20:59:4d:63:71:3a (oui Unknown) > b4:00:14:01:48:45 (oui Unknown), ethertype Unknown (0xcb64), length 20: 
	0x0000:  b400 1401 4845 2059 4d63 713a cb64 39af
	0x0010:  5683 6db2
07:37:25.834350 20:59:4d:63:d6:a3 (oui Unknown) > d4:00:00:00:48:45 (oui Unknown), ethertype Unknown (0x5b94), length 14: 
	0x0000:  d400 0000 4845 2059 4d63 d6a3 5b94
07:37:25.834461 cb:64:51:7d:73:3a (oui Unknown) > b4:00:b8:00:72:3a (oui Unknown), ethertype Unknown (0xcb64), length 20: 
	0x0000:  b400 b800 723a cb64 517d 733a cb64 5259
	0x0010:  2e72 4b0b
07:37:25.834560 cb:64:52:59:e2:92 (oui Unknown) > c4:00:7c:00:72:3a (oui Unknown), ethertype Unknown (0xf2b0), length 14: 
	0x0000:  c400 7c00 723a cb64 5259 e292 f2b0
07:37:25.834686 cb:64:52:59:72:3a (oui Unknown) > 94:00:00:00:72:3a (oui Unknown), ethertype Unknown (0xcb64), length 32: 
	0x0000:  9400 0000 723a cb64 5259 723a cb64 517d
	0x0010:  0400 0075 ffff ffff ffff ffff 16d3 a5a1
07:37:25.834813 cb:64:51:7d:73:3a (oui Unknown) > b4:00:b0:00:72:3a (oui Unknown), ethertype Unknown (0xcb64), length 20: 
	0x0000:  b400 b000 723a cb64 517d 733a cb64 39ad
	0x0010:  71e8 cb04
07:37:25.835191 20:59:4d:63:70:3a (oui Unknown) > 94:00:00:00:48:45 (oui Unknown), ethertype Unknown (0xcb64), length 32: 
	0x0000:  9400 0000 4845 2059 4d63 703a cb64 39af
	0x0010:  0400 e02a ffff ffff ffff ffff 697b e69f
07:37:25.835434 cb:64:51:7d:73:3a (oui Unknown) > b4:00:b0:00:72:3a (oui Unknown), ethertype Unknown (0xcb64), length 20: 
	0x0000:  b400 b000 723a cb64 517d 733a cb64 39ad
	0x0010:  71e8 cb04
07:37:25.835526 cb:64:39:ad:3e:0d (oui Unknown) > c4:00:74:00:72:3a (oui Unknown), ethertype Unknown (0xce5f), length 14: 
	0x0000:  c400 7400 723a cb64 39ad 3e0d ce5f
07:37:25.835637 cb:64:39:ad:72:3a (oui Unknown) > 94:00:00:00:72:3a (oui Unknown), ethertype Unknown (0xcb64), length 32: 
	0x0000:  9400 0000 723a cb64 39ad 723a cb64 517d
	0x0010:  0400 5033 ffff ffff ffff ffff 3230 f8a3
07:37:25.835758 cb:64:39:ad:73:3a (oui Unknown) > b4:00:14:01:72:3a (oui Unknown), ethertype Unknown (0xcb64), length 20: 
	0x0000:  b400 1401 723a cb64 39ad 733a cb64 517d
	0x0010:  e5a2 dc0d
07:37:25.835848 cb:64:51:7d:86:cc (oui Unknown) > c4:00:d8:00:72:3a (oui Unknown), ethertype Unknown (0xdb89), length 14: 
	0x0000:  c400 d800 723a cb64 517d 86cc db89
07:37:25.836033 cb:64:51:7d:72:3a (oui Unknown) > 94:00:00:00:72:3a (oui Unknown), ethertype Unknown (0xcb64), length 32: 
	0x0000:  9400 0000 723a cb64 517d 723a cb64 39ad
	0x0010:  0400 30e9 ffff ffff ffff ffff 4155 d693
07:37:25.836132 cb:64:51:7d:2f:a1 (oui Unknown) > c4:00:00:00:72:3a (oui Unknown), ethertype Unknown (0x235c), length 14: 
	0x0000:  c400 0000 723a cb64 517d 2fa1 235c
07:37:25.836242 cb:64:51:7d:72:3a (oui Unknown) > 94:00:00:00:72:3a (oui Unknown), ethertype Unknown (0xcb64), length 32: 
	0x0000:  9400 0000 723a cb64 517d 723a cb64 39ad
	0x0010:  0400 50e9 ffff ffff ffff ffff 3151 3142
07:37:25.836469 20:59:4d:63:71:3a (oui Unknown) > b4:00:7c:01:48:45 (oui Unknown), ethertype Unknown (0xcb64), length 20: 
	0x0000:  b400 7c01 4845 2059 4d63 713a cb64 39af
	0x0010:  4912 e90d
07:37:25.836964 cb:64:52:59:73:3a (oui Unknown) > b4:00:bc:00:72:3a (oui Unknown), ethertype Unknown (0xcb64), length 20: 
	0x0000:  b400 bc00 723a cb64 5259 733a cb64 517d
	0x0010:  4b50 b4b0
07:37:25.837057 cb:64:51:7d:f5:24 (oui Unknown) > c4:00:80:00:72:3a (oui Unknown), ethertype Unknown (0x180f), length 14: 
	0x0000:  c400 8000 723a cb64 517d f524 180f
07:37:25.837167 cb:64:51:7d:72:3a (oui Unknown) > 94:00:00:00:72:3a (oui Unknown), ethertype Unknown (0xcb64), length 32: 
	0x0000:  9400 0000 723a cb64 517d 723a cb64 5259
	0x0010:  0400 9026 ffff ffff ffff ffff c814 3244
07:37:25.837287 cb:64:51:7d:73:3a (oui Unknown) > b4:00:b0:00:72:3a (oui Unknown), ethertype Unknown (0xcb64), length 20: 
	0x0000:  b400 b000 723a cb64 517d 733a cb64 39ad
	0x0010:  71e8 cb04
07:37:25.837378 cb:64:39:ad:3e:0d (oui Unknown) > c4:00:74:00:72:3a (oui Unknown), ethertype Unknown (0xce5f), length 14: 
	0x0000:  c400 7400 723a cb64 39ad 3e0d ce5f
07:37:25.837592 cb:64:39:ad:73:3a (oui Unknown) > b4:00:30:01:72:3a (oui Unknown), ethertype Unknown (0xcb64), length 20: 
	0x0000:  b400 3001 723a cb64 39ad 733a cb64 517d
	0x0010:  2655 14d9
07:37:25.837688 [|llc]
	0x0000:  c400 f400 723a cb64 517d 9fbb 0227
07:37:25.838187 cb:64:51:7d:72:3a (oui Unknown) > 94:00:00:00:72:3a (oui Unknown), ethertype Unknown (0xcb64), length 32: 
	0x0000:  9400 0000 723a cb64 517d 723a cb64 39ad
	0x0010:  0400 80e9 ffff ffff ffff ffff 78de 201d
07:37:25.838291 cb:64:51:7d:2f:a1 (oui Unknown) > c4:00:00:00:72:3a (oui Unknown), ethertype Unknown (0x235c), length 14: 
	0x0000:  c400 0000 723a cb64 517d 2fa1 235c
07:37:25.838402 cb:64:51:7d:73:3a (oui Unknown) > b4:00:b0:00:72:3a (oui Unknown), ethertype Unknown (0xcb64), length 20: 
	0x0000:  b400 b000 723a cb64 517d 733a cb64 39ad
	0x0010:  71e8 cb04
07:37:25.838492 cb:64:39:ad:3e:0d (oui Unknown) > c4:00:74:00:72:3a (oui Unknown), ethertype Unknown (0xce5f), length 14: 
	0x0000:  c400 7400 723a cb64 39ad 3e0d ce5f
07:37:25.838595 20:59:4d:63:d6:a3 (oui Unknown) > d4:00:00:00:48:45 (oui Unknown), ethertype Unknown (0x5b94), length 14: 
	0x0000:  d400 0000 4845 2059 4d63 d6a3 5b94
07:37:25.838705 cb:64:39:ad:73:3a (oui Unknown) > b4:00:fc:00:72:3a (oui Unknown), ethertype Unknown (0xcb64), length 20: 
	0x0000:  b400 fc00 723a cb64 39ad 733a cb64 517d
	0x0010:  9d05 bdec
07:37:25.838796 cb:64:51:7d:18:e6 (oui Unknown) > c4:00:c0:00:72:3a (oui Unknown), ethertype Unknown (0x8526), length 14: 
	0x0000:  c400 c000 723a cb64 517d 18e6 8526
07:37:25.838906 cb:64:51:7d:72:3a (oui Unknown) > 94:00:00:00:72:3a (oui Unknown), ethertype Unknown (0xcb64), length 32: 
	0x0000:  9400 0000 723a cb64 517d 723a cb64 39ad
	0x0010:  0400 a0e9 ffff ffff ffff ffbf 389c a124
07:37:25.839003 cb:64:51:7d:2f:a1 (oui Unknown) > c4:00:00:00:72:3a (oui Unknown), ethertype Unknown (0x235c), length 14: 
	0x0000:  c400 0000 723a cb64 517d 2fa1 235c
07:37:25.839114 cb:64:51:7d:72:3a (oui Unknown) > 94:00:00:00:72:3a (oui Unknown), ethertype Unknown (0xcb64), length 32: 
	0x0000:  9400 0000 723a cb64 517d 723a cb64 39ad
	0x0010:  0400 a0e9 ffff ffff ffff ffff a8dd 7d52
07:37:25.839343 20:59:4d:63:71:3a (oui Unknown) > b4:00:64:01:48:45 (oui Unknown), ethertype Unknown (0xcb64), length 20: 
	0x0000:  b400 6401 4845 2059 4d63 713a cb64 39af
	0x0010:  1330 0258
07:37:25.839890 cb:64:52:59:98:01 (oui Unknown) > 94:00:00:00:70:3a (oui Unknown), ethertype Unknown (0xa75f), length 32: 
	0x0000:  9400 0000 703a cb64 5259 9801 a75f 3a8d
	0x0010:  0500 40f7 0100 0000 0000 0000 009c f83f
07:37:25.840138 20:59:4d:63:2c:ad (oui Unknown) > d4:00:04:00:48:45 (oui Unknown), ethertype Unknown (0x1110), length 14: 
	0x0000:  d400 0400 4845 2059 4d63 2cad 1110
07:37:25.840466 cb:64:51:7d:73:3a (oui Unknown) > b4:00:b8:00:72:3a (oui Unknown), ethertype Unknown (0xcb64), length 20: 
	0x0000:  b400 b800 723a cb64 517d 733a cb64 39ad
	0x0010:  47f6 9237
07:37:25.840558 cb:64:39:ad:8b:16 (oui Unknown) > c4:00:7c:00:72:3a (oui Unknown), ethertype Unknown (0x2b8c), length 14: 
	0x0000:  c400 7c00 723a cb64 39ad 8b16 2b8c
07:37:25.840673 cb:64:39:ad:72:3a (oui Unknown) > 94:00:00:00:72:3a (oui Unknown), ethertype Unknown (0xcb64), length 32: 
	0x0000:  9400 0000 723a cb64 39ad 723a cb64 517d
	0x0010:  0400 7033 ffff ffff ffff ffff e233 a5ec
07:37:25.841597 20:59:4d:63:71:3a (oui Unknown) > b4:00:7c:01:48:45 (oui Unknown), ethertype Unknown (0xcb64), length 20: 
	0x0000:  b400 7c01 4845 2059 4d63 713a cb64 39af
	0x0010:  4912 e90d
07:37:25.842492 20:59:4d:63:2c:ad (oui Unknown) > d4:00:04:00:48:45 (oui Unknown), ethertype Unknown (0x1110), length 14: 
	0x0000:  d400 0400 4845 2059 4d63 2cad 1110
07:37:25.842707 cb:64:51:7d:73:3a (oui Unknown) > b4:00:b0:00:72:3a (oui Unknown), ethertype Unknown (0xcb64), length 20: 
	0x0000:  b400 b000 723a cb64 517d 733a cb64 39ad
	0x0010:  71e8 cb04
07:37:25.842797 cb:64:39:ad:3e:0d (oui Unknown) > c4:00:74:00:72:3a (oui Unknown), ethertype Unknown (0xce5f), length 14: 
	0x0000:  c400 7400 723a cb64 39ad 3e0d ce5f
07:37:25.842908 cb:64:39:ad:72:3a (oui Unknown) > 94:00:00:00:72:3a (oui Unknown), ethertype Unknown (0xcb64), length 32: 
	0x0000:  9400 0000 723a cb64 39ad 723a cb64 517d
	0x0010:  0400 8033 ffff ffff ffff ffff 7bbf e9fc
07:37:25.843029 cb:64:39:ad:73:3a (oui Unknown) > b4:00:14:01:72:3a (oui Unknown), ethertype Unknown (0xcb64), length 20: 
	0x0000:  b400 1401 723a cb64 39ad 733a cb64 517d
	0x0010:  e5a2 dc0d
07:37:25.843120 cb:64:51:7d:86:cc (oui Unknown) > c4:00:d8:00:72:3a (oui Unknown), ethertype Unknown (0xdb89), length 14: 
	0x0000:  c400 d800 723a cb64 517d 86cc db89
07:37:25.843229 cb:64:51:7d:72:3a (oui Unknown) > 94:00:00:00:72:3a (oui Unknown), ethertype Unknown (0xcb64), length 32: 
	0x0000:  9400 0000 723a cb64 517d 723a cb64 39ad
	0x0010:  0400 b0e9 ffff ffff ffff ffff 405c d375
07:37:25.843325 cb:64:51:7d:2f:a1 (oui Unknown) > c4:00:00:00:72:3a (oui Unknown), ethertype Unknown (0x235c), length 14: 
	0x0000:  c400 0000 723a cb64 517d 2fa1 235c
07:37:25.843435 cb:64:51:7d:72:3a (oui Unknown) > 94:00:00:00:72:3a (oui Unknown), ethertype Unknown (0xcb64), length 32: 
	0x0000:  9400 0000 723a cb64 517d 723a cb64 39ad
	0x0010:  0400 c0e9 ffff ffff ffff ffff d8d9 9a83
07:37:25.843531 cb:64:51:7d:2f:a1 (oui Unknown) > c4:00:00:00:72:3a (oui Unknown), ethertype Unknown (0x235c), length 14: 
	0x0000:  c400 0000 723a cb64 517d 2fa1 235c
07:37:25.844004 cb:64:51:7d:73:3a (oui Unknown) > b4:00:b0:00:72:3a (oui Unknown), ethertype Unknown (0xcb64), length 20: 
	0x0000:  b400 b000 723a cb64 517d 733a cb64 39ad
	0x0010:  71e8 cb04
07:37:25.844095 cb:64:39:ad:3e:0d (oui Unknown) > c4:00:74:00:72:3a (oui Unknown), ethertype Unknown (0xce5f), length 14: 
	0x0000:  c400 7400 723a cb64 39ad 3e0d ce5f
07:37:25.844206 cb:64:39:ad:72:3a (oui Unknown) > 94:00:00:00:72:3a (oui Unknown), ethertype Unknown (0xcb64), length 32: 
	0x0000:  9400 0000 723a cb64 39ad 723a cb64 517d
	0x0010:  0400 9033 ffff ffff ffff ffff 933e 47db
07:37:25.844329 cb:64:39:ad:73:3a (oui Unknown) > b4:00:14:01:72:3a (oui Unknown), ethertype Unknown (0xcb64), length 20: 
	0x0000:  b400 1401 723a cb64 39ad 733a cb64 517d
	0x0010:  e5a2 dc0d
07:37:25.844419 cb:64:51:7d:86:cc (oui Unknown) > c4:00:d8:00:72:3a (oui Unknown), ethertype Unknown (0xdb89), length 14: 
	0x0000:  c400 d800 723a cb64 517d 86cc db89
07:37:25.844600 cb:64:51:7d:72:3a (oui Unknown) > 94:00:00:00:72:3a (oui Unknown), ethertype Unknown (0xcb64), length 32: 
	0x0000:  9400 0000 723a cb64 517d 723a cb64 39ad
	0x0010:  0400 d0e9 ffff ffff ffff ffff 3058 34a4
07:37:25.844699 cb:64:51:7d:2f:a1 (oui Unknown) > c4:00:00:00:72:3a (oui Unknown), ethertype Unknown (0x235c), length 14: 
	0x0000:  c400 0000 723a cb64 517d 2fa1 235c
07:37:25.844809 cb:64:51:7d:72:3a (oui Unknown) > 94:00:00:00:72:3a (oui Unknown), ethertype Unknown (0xcb64), length 32: 
	0x0000:  9400 0000 723a cb64 517d 723a cb64 39ad
	0x0010:  0400 f0e9 ffff ffff ffff ffff e05b 69eb
07:37:25.844905 cb:64:51:7d:2f:a1 (oui Unknown) > c4:00:00:00:72:3a (oui Unknown), ethertype Unknown (0x235c), length 14: 
	0x0000:  c400 0000 723a cb64 517d 2fa1 235c
07:37:25.845015 20:59:4d:63:71:3a (oui Unknown) > b4:00:14:01:48:45 (oui Unknown), ethertype Unknown (0xcb64), length 20: 
	0x0000:  b400 1401 4845 2059 4d63 713a cb64 39af
	0x0010:  5683 6db2
07:37:25.845517 20:59:4d:63:71:3a (oui Unknown) > b4:00:e0:00:48:45 (oui Unknown), ethertype Unknown (0xcb64), length 20: 
	0x0000:  b400 e000 4845 2059 4d63 713a cb64 39af
	0x0010:  6f89 4b1f
07:37:25.845895 20:59:4d:63:2c:ad (oui Unknown) > d4:00:04:00:48:45 (oui Unknown), ethertype Unknown (0x1110), length 14: 
	0x0000:  d400 0400 4845 2059 4d63 2cad 1110
07:37:25.845982 20:59:4d:63:2c:ad (oui Unknown) > d4:00:04:00:48:45 (oui Unknown), ethertype Unknown (0x1110), length 14: 
	0x0000:  d400 0400 4845 2059 4d63 2cad 1110
07:37:25.846197 20:59:4d:63:71:3a (oui Unknown) > b4:00:14:01:48:45 (oui Unknown), ethertype Unknown (0xcb64), length 20: 
	0x0000:  b400 1401 4845 2059 4d63 713a cb64 39af
	0x0010:  5683 6db2
07:37:25.846942 cb:64:51:7d:73:3a (oui Unknown) > b4:00:b0:00:72:3a (oui Unknown), ethertype Unknown (0xcb64), length 20: 
	0x0000:  b400 b000 723a cb64 517d 733a cb64 39ad
	0x0010:  71e8 cb04
07:37:25.847033 cb:64:39:ad:3e:0d (oui Unknown) > c4:00:74:00:72:3a (oui Unknown), ethertype Unknown (0xce5f), length 14: 
	0x0000:  c400 7400 723a cb64 39ad 3e0d ce5f
07:37:25.847252 20:59:4d:63:2c:ad (oui Unknown) > d4:00:04:00:48:45 (oui Unknown), ethertype Unknown (0x1110), length 14: 
	0x0000:  d400 0400 4845 2059 4d63 2cad 1110
07:37:25.847363 cb:64:39:ad:73:3a (oui Unknown) > b4:00:c4:00:72:3a (oui Unknown), ethertype Unknown (0xcb64), length 20: 
	0x0000:  b400 c400 723a cb64 39ad 733a cb64 517d
	0x0010:  1f5f 3274
07:37:25.847458 cb:64:51:7d:40:3f (oui Unknown) > c4:00:88:00:72:3a (oui Unknown), ethertype Unknown (0xfddc), length 14: 
	0x0000:  c400 8800 723a cb64 517d 403f fddc
07:37:25.847575 cb:64:51:7d:72:3a (oui Unknown) > 94:00:00:00:72:3a (oui Unknown), ethertype Unknown (0xcb64), length 32: 
	0x0000:  9400 0000 723a cb64 517d 723a cb64 39ad
	0x0010:  0400 00ea ffff ffff ffff ffff bceb a8c2
07:37:25.847673 cb:64:51:7d:2f:a1 (oui Unknown) > c4:00:00:00:72:3a (oui Unknown), ethertype Unknown (0x235c), length 14: 
	0x0000:  c400 0000 723a cb64 517d 2fa1 235c
07:37:25.848298 cb:64:39:ad:73:3a (oui Unknown) > b4:00:fc:00:72:3a (oui Unknown), ethertype Unknown (0xcb64), length 20: 
	0x0000:  b400 fc00 723a cb64 39ad 733a cb64 517d
	0x0010:  9d05 bdec
07:37:25.848388 cb:64:51:7d:18:e6 (oui Unknown) > c4:00:c0:00:72:3a (oui Unknown), ethertype Unknown (0x8526), length 14: 
	0x0000:  c400 c000 723a cb64 517d 18e6 8526
07:37:25.848499 cb:64:51:7d:72:3a (oui Unknown) > 94:00:00:00:72:3a (oui Unknown), ethertype Unknown (0xcb64), length 32: 
	0x0000:  9400 0000 723a cb64 517d 723a cb64 39ad
	0x0010:  0400 20ea ffff ffff ffff ffff 6ce8 f58d
07:37:25.848611 cb:64:51:7d:2f:a1 (oui Unknown) > c4:00:00:00:72:3a (oui Unknown), ethertype Unknown (0x235c), length 14: 
	0x0000:  c400 0000 723a cb64 517d 2fa1 235c
07:37:25.848723 cb:64:51:7d:73:3a (oui Unknown) > b4:00:b0:00:72:3a (oui Unknown), ethertype Unknown (0xcb64), length 20: 
	0x0000:  b400 b000 723a cb64 517d 733a cb64 39ad
	0x0010:  71e8 cb04
07:37:25.848813 cb:64:39:ad:3e:0d (oui Unknown) > c4:00:74:00:72:3a (oui Unknown), ethertype Unknown (0xce5f), length 14: 
	0x0000:  c400 7400 723a cb64 39ad 3e0d ce5f
07:37:25.848923 cb:64:39:ad:72:3a (oui Unknown) > 94:00:00:00:72:3a (oui Unknown), ethertype Unknown (0xcb64), length 32: 
	0x0000:  9400 0000 723a cb64 39ad 723a cb64 517d
	0x0010:  0400 b033 ffff ffff ffff ffff 433d 1a94
07:37:25.849102 a7:5f:3a:8d:0e:93 (oui Unknown) > d4:00:00:00:98:01 (oui Unknown), ethertype Unknown (0xd978), length 14: 
	0x0000:  d400 0000 9801 a75f 3a8d 0e93 d978
07:37:25.849425 20:59:4d:63:71:3a (oui Unknown) > b4:00:14:01:48:45 (oui Unknown), ethertype Unknown (0xcb64), length 20: 
	0x0000:  b400 1401 4845 2059 4d63 713a cb64 39af
	0x0010:  5683 6db2
07:37:25.849819 cb:64:52:59:73:3a (oui Unknown) > b4:00:f4:00:72:3a (oui Unknown), ethertype Unknown (0xcb64), length 20: 
	0x0000:  b400 f400 723a cb64 5259 733a cb64 517d
	0x0010:  8cb9 54c2
07:37:25.849916 cb:64:51:7d:3d:6c (oui Unknown) > c4:00:b8:00:72:3a (oui Unknown), ethertype Unknown (0x3059), length 14: 
	0x0000:  c400 b800 723a cb64 517d 3d6c 3059
07:37:25.850035 cb:64:51:7d:72:3a (oui Unknown) > 94:00:00:00:72:3a (oui Unknown), ethertype Unknown (0xcb64), length 32: 
	0x0000:  9400 0000 723a cb64 517d 723a cb64 5259
	0x0010:  0400 a026 ffff ffff ffff ffff f096 c12c
07:37:25.850156 cb:64:51:7d:73:3a (oui Unknown) > b4:00:b8:00:72:3a (oui Unknown), ethertype Unknown (0xcb64), length 20: 
	0x0000:  b400 b800 723a cb64 517d 733a cb64 5259
	0x0010:  2e72 4b0b
07:37:25.850246 cb:64:52:59:e2:92 (oui Unknown) > c4:00:7c:00:72:3a (oui Unknown), ethertype Unknown (0xf2b0), length 14: 
	0x0000:  c400 7c00 723a cb64 5259 e292 f2b0
07:37:25.850356 cb:64:52:59:72:3a (oui Unknown) > 94:00:00:00:72:3a (oui Unknown), ethertype Unknown (0xcb64), length 32: 
	0x0000:  9400 0000 723a cb64 5259 723a cb64 517d
	0x0010:  0400 1075 ffff ffff ffff ffff fe52 0b86
07:37:25.850753 20:59:4d:63:d6:a3 (oui Unknown) > d4:00:00:00:48:45 (oui Unknown), ethertype Unknown (0x5b94), length 14: 
	0x0000:  d400 0000 4845 2059 4d63 d6a3 5b94
07:37:25.851083 cb:64:52:59:98:01 (oui Unknown) > 94:00:00:00:70:3a (oui Unknown), ethertype Unknown (0xa75f), length 32: 
	0x0000:  9400 0000 703a cb64 5259 9801 a75f 3a8d
	0x0010:  0500 50f7 0100 0000 0000 0000 e81d 5618
07:37:25.851754 cb:64:51:7d:73:3a (oui Unknown) > b4:00:b0:00:72:3a (oui Unknown), ethertype Unknown (0xcb64), length 20: 
	0x0000:  b400 b000 723a cb64 517d 733a cb64 39ad
	0x0010:  71e8 cb04
07:37:25.851845 cb:64:39:ad:3e:0d (oui Unknown) > c4:00:74:00:72:3a (oui Unknown), ethertype Unknown (0xce5f), length 14: 
	0x0000:  c400 7400 723a cb64 39ad 3e0d ce5f
07:37:25.851955 cb:64:39:ad:72:3a (oui Unknown) > 94:00:00:00:72:3a (oui Unknown), ethertype Unknown (0xcb64), length 32: 
	0x0000:  9400 0000 723a cb64 39ad 723a cb64 517d
	0x0010:  0400 c033 ffff ffff ffff ffff dbb8 5362
07:37:25.854454 cb:64:52:59:a0:99 (oui Unknown) > 94:00:00:00:70:3a (oui Unknown), ethertype Unknown (0x9b08), length 32: 
	0x0000:  9400 0000 703a cb64 5259 a099 9b08 3c33
	0x0010:  0500 105d 0100 0000 0000 0000 28b7 8a3e
07:37:25.854586 cb:64:39:ad:73:3a (oui Unknown) > b4:00:30:01:72:3a (oui Unknown), ethertype Unknown (0xcb64), length 20: 
	0x0000:  b400 3001 723a cb64 39ad 733a cb64 517d
	0x0010:  2655 14d9
07:37:25.854678 [|llc]
	0x0000:  c400 f400 723a cb64 517d 9fbb 0227
07:37:25.854889 cb:64:51:7d:72:3a (oui Unknown) > 94:00:00:00:72:3a (oui Unknown), ethertype Unknown (0xcb64), length 32: 
	0x0000:  9400 0000 723a cb64 517d 723a cb64 39ad
	0x0010:  0400 50ea ffff ffff ffff ffff f46d bc7b
07:37:25.854986 cb:64:51:7d:2f:a1 (oui Unknown) > c4:00:00:00:72:3a (oui Unknown), ethertype Unknown (0x235c), length 14: 
	0x0000:  c400 0000 723a cb64 517d 2fa1 235c
07:37:25.855096 cb:64:52:59:a0:99 (oui Unknown) > 54:00:64:00:70:3a (oui Unknown), ethertype Unknown (0x9b08), length 23: 
	0x0000:  5400 6400 703a cb64 5259 a099 9b08 3c33
	0x0010:  0000 00b7 3d6b f5
07:37:25.855326 cb:64:52:59:a0:99 (oui Unknown) > 54:00:64:00:70:3a (oui Unknown), ethertype Unknown (0x9b08), length 23: 
	0x0000:  5400 6400 703a cb64 5259 a099 9b08 3c33
	0x0010:  0000 00b7 3d6b f5
07:37:25.855641 cb:64:52:59:a0:99 (oui Unknown) > b4:00:96:00:70:3a (oui Unknown), ethertype Unknown (0x9b08), length 20: 
	0x0000:  b400 9600 703a cb64 5259 a099 9b08 3c33
	0x0010:  cba3 062b
07:37:25.855814 9b:08:3c:33:a5:01 (oui Unknown) > c4:00:6a:00:a0:99 (oui Unknown), ethertype Unknown (0x8ebe), length 14: 
	0x0000:  c400 6a00 a099 9b08 3c33 a501 8ebe
07:37:25.855944 9b:08:3c:33:70:3a (oui Unknown) > 94:00:00:00:a0:99 (oui Unknown), ethertype Unknown (0xcb64), length 32: 
	0x0000:  9400 0000 a099 9b08 3c33 703a cb64 5259
	0x0010:  0400 3047 ffff ffff ffff ffff 395b bc66
07:37:25.856074 cb:64:39:ad:73:3a (oui Unknown) > b4:00:fc:00:72:3a (oui Unknown), ethertype Unknown (0xcb64), length 20: 
	0x0000:  b400 fc00 723a cb64 39ad 733a cb64 517d
	0x0010:  9d05 bdec
07:37:25.856166 cb:64:51:7d:18:e6 (oui Unknown) > c4:00:c0:00:72:3a (oui Unknown), ethertype Unknown (0x8526), length 14: 
	0x0000:  c400 c000 723a cb64 517d 18e6 8526
07:37:25.856276 cb:64:51:7d:72:3a (oui Unknown) > 94:00:00:00:72:3a (oui Unknown), ethertype Unknown (0xcb64), length 32: 
	0x0000:  9400 0000 723a cb64 517d 723a cb64 39ad
	0x0010:  0400 70ea ffff ffff ffff ffbf b42f 3d42
07:37:25.856372 cb:64:51:7d:2f:a1 (oui Unknown) > c4:00:00:00:72:3a (oui Unknown), ethertype Unknown (0x235c), length 14: 
	0x0000:  c400 0000 723a cb64 517d 2fa1 235c
07:37:25.856482 cb:64:51:7d:72:3a (oui Unknown) > 94:00:00:00:72:3a (oui Unknown), ethertype Unknown (0xcb64), length 32: 
	0x0000:  9400 0000 723a cb64 517d 723a cb64 39ad
	0x0010:  0400 80ea ffff ffff ffff ffff bde2 ad24
07:37:25.856578 cb:64:51:7d:2f:a1 (oui Unknown) > c4:00:00:00:72:3a (oui Unknown), ethertype Unknown (0x235c), length 14: 
	0x0000:  c400 0000 723a cb64 517d 2fa1 235c
07:37:25.856688 20:59:4d:63:71:3a (oui Unknown) > b4:00:30:01:48:45 (oui Unknown), ethertype Unknown (0xcb64), length 20: 
	0x0000:  b400 3001 4845 2059 4d63 713a cb64 39af
	0x0010:  9574 a566
07:37:25.857137 cb:64:52:59:73:3a (oui Unknown) > b4:00:ec:00:72:3a (oui Unknown), ethertype Unknown (0xcb64), length 20: 
	0x0000:  b400 ec00 723a cb64 5259 733a cb64 517d
	0x0010:  d69b bf97
07:37:25.857234 cb:64:51:7d:88:77 (oui Unknown) > c4:00:b0:00:72:3a (oui Unknown), ethertype Unknown (0xd58a), length 14: 
	0x0000:  c400 b000 723a cb64 517d 8877 d58a
07:37:25.857353 cb:64:51:7d:72:3a (oui Unknown) > 94:00:00:00:72:3a (oui Unknown), ethertype Unknown (0xcb64), length 32: 
	0x0000:  9400 0000 723a cb64 517d 723a cb64 5259
	0x0010:  0400 b026 ffff ffff ffff ffff 1817 6f0b
07:37:25.857475 20:59:4d:63:71:3a (oui Unknown) > b4:00:14:01:48:45 (oui Unknown), ethertype Unknown (0xcb64), length 20: 
	0x0000:  b400 1401 4845 2059 4d63 713a cb64 39af
	0x0010:  5683 6db2
07:37:25.857915 cb:64:39:ad:73:3a (oui Unknown) > b4:00:30:01:72:3a (oui Unknown), ethertype Unknown (0xcb64), length 20: 
	0x0000:  b400 3001 723a cb64 39ad 733a cb64 517d
	0x0010:  2655 14d9
07:37:25.858006 [|llc]
	0x0000:  c400 f400 723a cb64 517d 9fbb 0227
07:37:25.858217 cb:64:51:7d:72:3a (oui Unknown) > 94:00:00:00:72:3a (oui Unknown), ethertype Unknown (0xcb64), length 32: 
	0x0000:  9400 0000 723a cb64 517d 723a cb64 39ad
	0x0010:  0400 b0ea ffff ffff ffff ffdf 4d40 3077
07:37:25.858314 cb:64:51:7d:2f:a1 (oui Unknown) > c4:00:00:00:72:3a (oui Unknown), ethertype Unknown (0x235c), length 14: 
	0x0000:  c400 0000 723a cb64 517d 2fa1 235c
07:37:25.858424 cb:64:51:7d:72:3a (oui Unknown) > 94:00:00:00:72:3a (oui Unknown), ethertype Unknown (0xcb64), length 32: 
	0x0000:  9400 0000 723a cb64 517d 723a cb64 39ad
	0x0010:  0400 b0ea ffff ffff ffff ffff 8560 5e4c
07:37:25.858557 cb:64:51:7d:73:3a (oui Unknown) > b4:00:b8:00:72:3a (oui Unknown), ethertype Unknown (0xcb64), length 20: 
	0x0000:  b400 b800 723a cb64 517d 733a cb64 5259
	0x0010:  2e72 4b0b
07:37:25.858648 cb:64:52:59:e2:92 (oui Unknown) > c4:00:7c:00:72:3a (oui Unknown), ethertype Unknown (0xf2b0), length 14: 
	0x0000:  c400 7c00 723a cb64 5259 e292 f2b0
07:37:25.858759 cb:64:52:59:72:3a (oui Unknown) > 94:00:00:00:72:3a (oui Unknown), ethertype Unknown (0xcb64), length 32: 
	0x0000:  9400 0000 723a cb64 5259 723a cb64 517d
	0x0010:  0400 2075 ffff ffff ffff ffff c6d0 f8ee
07:37:25.858856 20:59:4d:63:d6:a3 (oui Unknown) > d4:00:00:00:48:45 (oui Unknown), ethertype Unknown (0x5b94), length 14: 
	0x0000:  d400 0000 4845 2059 4d63 d6a3 5b94
07:37:25.859024 20:59:4d:63:2c:ad (oui Unknown) > d4:00:04:00:48:45 (oui Unknown), ethertype Unknown (0x1110), length 14: 
	0x0000:  d400 0400 4845 2059 4d63 2cad 1110
07:37:25.859137 cb:64:39:ad:73:3a (oui Unknown) > b4:00:64:01:72:3a (oui Unknown), ethertype Unknown (0xcb64), length 20: 
	0x0000:  b400 6401 723a cb64 39ad 733a cb64 517d
	0x0010:  a011 b3e7
07:37:25.859233 cb:64:51:7d:78:d3 (oui Unknown) > c4:00:28:01:72:3a (oui Unknown), ethertype Unknown (0xc7d0), length 14: 
	0x0000:  c400 2801 723a cb64 517d 78d3 c7d0
07:37:25.859561 cb:64:51:7d:72:3a (oui Unknown) > 94:00:00:00:72:3a (oui Unknown), ethertype Unknown (0xcb64), length 32: 
	0x0000:  9400 0000 723a cb64 517d 723a cb64 39ad
	0x0010:  0400 f0ea ffff ffff ffff ffff 2567 e4d2
07:37:25.859658 cb:64:51:7d:2f:a1 (oui Unknown) > c4:00:00:00:72:3a (oui Unknown), ethertype Unknown (0x235c), length 14: 
	0x0000:  c400 0000 723a cb64 517d 2fa1 235c
07:37:25.859768 20:59:4d:63:71:3a (oui Unknown) > b4:00:30:01:48:45 (oui Unknown), ethertype Unknown (0xcb64), length 20: 
	0x0000:  b400 3001 4845 2059 4d63 713a cb64 39af
	0x0010:  9574 a566
07:37:25.860230 cb:64:52:59:98:01 (oui Unknown) > 94:00:00:00:70:3a (oui Unknown), ethertype Unknown (0xa75f), length 32: 
	0x0000:  9400 0000 703a cb64 5259 9801 a75f 3a8d
	0x0010:  0500 60f7 0100 0000 0000 0000 d09f a570
07:37:25.860352 cb:64:39:ad:73:3a (oui Unknown) > b4:00:fc:00:72:3a (oui Unknown), ethertype Unknown (0xcb64), length 20: 
	0x0000:  b400 fc00 723a cb64 39ad 733a cb64 517d
	0x0010:  9d05 bdec
07:37:25.860444 cb:64:51:7d:18:e6 (oui Unknown) > c4:00:c0:00:72:3a (oui Unknown), ethertype Unknown (0x8526), length 14: 
	0x0000:  c400 c000 723a cb64 517d 18e6 8526
07:37:25.860659 cb:64:51:7d:72:3a (oui Unknown) > 94:00:00:00:72:3a (oui Unknown), ethertype Unknown (0xcb64), length 32: 
	0x0000:  9400 0000 723a cb64 517d 723a cb64 39ad
	0x0010:  0400 10eb ffff ffff ffff ffff 177e 7df2
07:37:25.860756 cb:64:51:7d:2f:a1 (oui Unknown) > c4:00:00:00:72:3a (oui Unknown), ethertype Unknown (0x235c), length 14: 
	0x0000:  c400 0000 723a cb64 517d 2fa1 235c
07:37:25.860866 cb:64:51:7d:72:3a (oui Unknown) > 94:00:00:00:72:3a (oui Unknown), ethertype Unknown (0xcb64), length 32: 
	0x0000:  9400 0000 723a cb64 517d 723a cb64 39ad
	0x0010:  0400 20eb ffff ffff ffff ffff 2ffc 8e9a
07:37:25.860962 cb:64:51:7d:2f:a1 (oui Unknown) > c4:00:00:00:72:3a (oui Unknown), ethertype Unknown (0x235c), length 14: 
	0x0000:  c400 0000 723a cb64 517d 2fa1 235c
07:37:25.861047 20:59:4d:63:2c:ad (oui Unknown) > d4:00:04:00:48:45 (oui Unknown), ethertype Unknown (0x1110), length 14: 
	0x0000:  d400 0400 4845 2059 4d63 2cad 1110
07:37:25.861157 cb:64:51:7d:73:3a (oui Unknown) > b4:00:b0:00:72:3a (oui Unknown), ethertype Unknown (0xcb64), length 20: 
	0x0000:  b400 b000 723a cb64 517d 733a cb64 39ad
	0x0010:  71e8 cb04
07:37:25.861247 cb:64:39:ad:3e:0d (oui Unknown) > c4:00:74:00:72:3a (oui Unknown), ethertype Unknown (0xce5f), length 14: 
	0x0000:  c400 7400 723a cb64 39ad 3e0d ce5f
07:37:25.861357 cb:64:39:ad:72:3a (oui Unknown) > 94:00:00:00:72:3a (oui Unknown), ethertype Unknown (0xcb64), length 32: 
	0x0000:  9400 0000 723a cb64 39ad 723a cb64 517d
	0x0010:  0400 d033 ffff ffff ffff ffff 3339 fd45
07:37:25.861478 cb:64:39:ad:73:3a (oui Unknown) > b4:00:e0:00:72:3a (oui Unknown), ethertype Unknown (0xcb64), length 20: 
	0x0000:  b400 e000 723a cb64 39ad 733a cb64 517d
	0x0010:  dca8 faa0
07:37:25.861576 cb:64:51:7d:59:48 (oui Unknown) > c4:00:a4:00:72:3a (oui Unknown), ethertype Unknown (0x2472), length 14: 
	0x0000:  c400 a400 723a cb64 517d 5948 2472
07:37:25.861695 cb:64:51:7d:72:3a (oui Unknown) > 94:00:00:00:72:3a (oui Unknown), ethertype Unknown (0xcb64), length 32: 
	0x0000:  9400 0000 723a cb64 517d 723a cb64 39ad
	0x0010:  0400 30eb ffff ffff ffff ffff c77d 20bd
07:37:25.861793 cb:64:51:7d:2f:a1 (oui Unknown) > c4:00:00:00:72:3a (oui Unknown), ethertype Unknown (0x235c), length 14: 
	0x0000:  c400 0000 723a cb64 517d 2fa1 235c
07:37:25.861978 cb:64:51:7d:72:3a (oui Unknown) > 94:00:00:00:72:3a (oui Unknown), ethertype Unknown (0xcb64), length 32: 
	0x0000:  9400 0000 723a cb64 517d 723a cb64 39ad
	0x0010:  0400 40eb ffff ffff ffff ffff 5ff8 694b
07:37:25.862077 cb:64:51:7d:2f:a1 (oui Unknown) > c4:00:00:00:72:3a (oui Unknown), ethertype Unknown (0x235c), length 14: 
	0x0000:  c400 0000 723a cb64 517d 2fa1 235c
07:37:25.862187 20:59:4d:63:71:3a (oui Unknown) > b4:00:64:01:48:45 (oui Unknown), ethertype Unknown (0xcb64), length 20: 
	0x0000:  b400 6401 4845 2059 4d63 713a cb64 39af
	0x0010:  1330 0258
07:37:25.862716 cb:64:51:7d:73:3a (oui Unknown) > b4:00:b0:00:72:3a (oui Unknown), ethertype Unknown (0xcb64), length 20: 
	0x0000:  b400 b000 723a cb64 517d 733a cb64 39ad
	0x0010:  71e8 cb04
07:37:25.862807 cb:64:39:ad:3e:0d (oui Unknown) > c4:00:74:00:72:3a (oui Unknown), ethertype Unknown (0xce5f), length 14: 
	0x0000:  c400 7400 723a cb64 39ad 3e0d ce5f
07:37:25.862917 cb:64:39:ad:72:3a (oui Unknown) > 94:00:00:00:72:3a (oui Unknown), ethertype Unknown (0xcb64), length 32: 
	0x0000:  9400 0000 723a cb64 39ad 723a cb64 517d
	0x0010:  0400 e033 ffff ffff ffff ffff 0bbb 0e2d
07:37:25.863014 20:59:4d:63:2c:ad (oui Unknown) > d4:00:04:00:48:45 (oui Unknown), ethertype Unknown (0x1110), length 14: 
	0x0000:  d400 0400 4845 2059 4d63 2cad 1110
07:37:25.863230 20:59:4d:63:71:3a (oui Unknown) > b4:00:e0:00:48:45 (oui Unknown), ethertype Unknown (0xcb64), length 20: 
	0x0000:  b400 e000 4845 2059 4d63 713a cb64 39af
	0x0010:  6f89 4b1f
07:37:25.863770 20:59:4d:63:2c:ad (oui Unknown) > d4:00:04:00:48:45 (oui Unknown), ethertype Unknown (0x1110), length 14: 
	0x0000:  d400 0400 4845 2059 4d63 2cad 1110
07:37:25.863879 cb:64:39:ad:73:3a (oui Unknown) > b4:00:64:01:72:3a (oui Unknown), ethertype Unknown (0xcb64), length 20: 
	0x0000:  b400 6401 723a cb64 39ad 733a cb64 517d
	0x0010:  a011 b3e7
07:37:25.863970 cb:64:51:7d:78:d3 (oui Unknown) > c4:00:28:01:72:3a (oui Unknown), ethertype Unknown (0xc7d0), length 14: 
	0x0000:  c400 2801 723a cb64 517d 78d3 c7d0
07:37:25.864288 cb:64:51:7d:72:3a (oui Unknown) > 94:00:00:00:72:3a (oui Unknown), ethertype Unknown (0xcb64), length 32: 
	0x0000:  9400 0000 723a cb64 517d 723a cb64 39ad
	0x0010:  0400 80eb ffff ffff ffff ffbf 6eb7 0a45
07:37:25.864385 cb:64:51:7d:2f:a1 (oui Unknown) > c4:00:00:00:72:3a (oui Unknown), ethertype Unknown (0x235c), length 14: 
	0x0000:  c400 0000 723a cb64 517d 2fa1 235c
07:37:25.864495 cb:64:51:7d:72:3a (oui Unknown) > 94:00:00:00:72:3a (oui Unknown), ethertype Unknown (0xcb64), length 32: 
	0x0000:  9400 0000 723a cb64 517d 723a cb64 39ad
	0x0010:  0400 80eb ffff ffff ffff ffff fef6 d633
07:37:25.864592 cb:64:51:7d:2f:a1 (oui Unknown) > c4:00:00:00:72:3a (oui Unknown), ethertype Unknown (0x235c), length 14: 
	0x0000:  c400 0000 723a cb64 517d 2fa1 235c
07:37:25.864702 20:59:4d:63:71:3a (oui Unknown) > b4:00:30:01:48:45 (oui Unknown), ethertype Unknown (0xcb64), length 20: 
	0x0000:  b400 3001 4845 2059 4d63 713a cb64 39af
	0x0010:  9574 a566
07:37:25.865200 cb:64:39:ad:73:3a (oui Unknown) > b4:00:14:01:72:3a (oui Unknown), ethertype Unknown (0xcb64), length 20: 
	0x0000:  b400 1401 723a cb64 39ad 733a cb64 517d
	0x0010:  e5a2 dc0d
07:37:25.865291 cb:64:51:7d:86:cc (oui Unknown) > c4:00:d8:00:72:3a (oui Unknown), ethertype Unknown (0xdb89), length 14: 
	0x0000:  c400 d800 723a cb64 517d 86cc db89
07:37:25.865401 cb:64:51:7d:72:3a (oui Unknown) > 94:00:00:00:72:3a (oui Unknown), ethertype Unknown (0xcb64), length 32: 
	0x0000:  9400 0000 723a cb64 517d 723a cb64 39ad
	0x0010:  0400 a0eb ffff ffff ffff ffff 2ef5 8b7c
07:37:25.865497 cb:64:51:7d:2f:a1 (oui Unknown) > c4:00:00:00:72:3a (oui Unknown), ethertype Unknown (0x235c), length 14: 
	0x0000:  c400 0000 723a cb64 517d 2fa1 235c
07:37:25.865688 20:59:4d:63:2c:ad (oui Unknown) > d4:00:04:00:48:45 (oui Unknown), ethertype Unknown (0x1110), length 14: 
	0x0000:  d400 0400 4845 2059 4d63 2cad 1110
07:37:25.865798 cb:64:51:7d:73:3a (oui Unknown) > b4:00:b0:00:72:3a (oui Unknown), ethertype Unknown (0xcb64), length 20: 
	0x0000:  b400 b000 723a cb64 517d 733a cb64 39ad
	0x0010:  71e8 cb04
07:37:25.865960 cb:64:39:ad:3e:0d (oui Unknown) > c4:00:74:00:72:3a (oui Unknown), ethertype Unknown (0xce5f), length 14: 
	0x0000:  c400 7400 723a cb64 39ad 3e0d ce5f
07:37:25.866071 cb:64:39:ad:72:3a (oui Unknown) > 94:00:00:00:72:3a (oui Unknown), ethertype Unknown (0xcb64), length 32: 
	0x0000:  9400 0000 723a cb64 39ad 723a cb64 517d
	0x0010:  0400 f033 ffff ffff ffff ffff e33a a00a
07:37:25.866192 cb:64:39:ad:73:3a (oui Unknown) > b4:00:14:01:72:3a (oui Unknown), ethertype Unknown (0xcb64), length 20: 
	0x0000:  b400 1401 723a cb64 39ad 733a cb64 517d
	0x0010:  e5a2 dc0d
07:37:25.866282 cb:64:51:7d:86:cc (oui Unknown) > c4:00:d8:00:72:3a (oui Unknown), ethertype Unknown (0xdb89), length 14: 
	0x0000:  c400 d800 723a cb64 517d 86cc db89
07:37:25.866392 cb:64:51:7d:72:3a (oui Unknown) > 94:00:00:00:72:3a (oui Unknown), ethertype Unknown (0xcb64), length 32: 
	0x0000:  9400 0000 723a cb64 517d 723a cb64 39ad
	0x0010:  0400 c0eb ffff ffff ffff ffff 5ef1 6cad
07:37:25.866488 cb:64:51:7d:2f:a1 (oui Unknown) > c4:00:00:00:72:3a (oui Unknown), ethertype Unknown (0x235c), length 14: 
	0x0000:  c400 0000 723a cb64 517d 2fa1 235c
07:37:25.866835 cb:64:39:ad:73:3a (oui Unknown) > b4:00:c4:00:72:3a (oui Unknown), ethertype Unknown (0xcb64), length 20: 
	0x0000:  b400 c400 723a cb64 39ad 733a cb64 517d
	0x0010:  1f5f 3274
07:37:25.866927 cb:64:51:7d:40:3f (oui Unknown) > c4:00:88:00:72:3a (oui Unknown), ethertype Unknown (0xfddc), length 14: 
	0x0000:  c400 8800 723a cb64 517d 403f fddc
07:37:25.867038 cb:64:51:7d:72:3a (oui Unknown) > 94:00:00:00:72:3a (oui Unknown), ethertype Unknown (0xcb64), length 32: 
	0x0000:  9400 0000 723a cb64 517d 723a cb64 39ad
	0x0010:  0400 d0eb ffff ffff ffff ffff b670 c28a
07:37:25.867134 cb:64:51:7d:2f:a1 (oui Unknown) > c4:00:00:00:72:3a (oui Unknown), ethertype Unknown (0x235c), length 14: 
	0x0000:  c400 0000 723a cb64 517d 2fa1 235c
07:37:25.867348 20:59:4d:63:71:3a (oui Unknown) > b4:00:64:01:48:45 (oui Unknown), ethertype Unknown (0xcb64), length 20: 
	0x0000:  b400 6401 4845 2059 4d63 713a cb64 39af
	0x0010:  1330 0258
07:37:25.867828 cb:64:39:ad:73:3a (oui Unknown) > b4:00:e0:00:72:3a (oui Unknown), ethertype Unknown (0xcb64), length 20: 
	0x0000:  b400 e000 723a cb64 39ad 733a cb64 517d
	0x0010:  dca8 faa0
07:37:25.867918 cb:64:51:7d:59:48 (oui Unknown) > c4:00:a4:00:72:3a (oui Unknown), ethertype Unknown (0x2472), length 14: 
	0x0000:  c400 a400 723a cb64 517d 5948 2472
07:37:25.868028 cb:64:51:7d:72:3a (oui Unknown) > 94:00:00:00:72:3a (oui Unknown), ethertype Unknown (0xcb64), length 32: 
	0x0000:  9400 0000 723a cb64 517d 723a cb64 39ad
	0x0010:  0400 f0eb ffff ffff ffff ffff 6673 9fc5
07:37:25.868125 cb:64:51:7d:2f:a1 (oui Unknown) > c4:00:00:00:72:3a (oui Unknown), ethertype Unknown (0x235c), length 14: 
	0x0000:  c400 0000 723a cb64 517d 2fa1 235c
07:37:25.868234 cb:64:51:7d:73:3a (oui Unknown) > b4:00:b0:00:72:3a (oui Unknown), ethertype Unknown (0xcb64), length 20: 
	0x0000:  b400 b000 723a cb64 517d 733a cb64 39ad
	0x0010:  71e8 cb04
07:37:25.868324 cb:64:39:ad:3e:0d (oui Unknown) > c4:00:74:00:72:3a (oui Unknown), ethertype Unknown (0xce5f), length 14: 
	0x0000:  c400 7400 723a cb64 39ad 3e0d ce5f
07:37:25.868515 20:59:4d:63:2c:ad (oui Unknown) > d4:00:04:00:48:45 (oui Unknown), ethertype Unknown (0x1110), length 14: 
	0x0000:  d400 0400 4845 2059 4d63 2cad 1110
07:37:25.869424 cb:64:39:ad:73:3a (oui Unknown) > b4:00:14:01:72:3a (oui Unknown), ethertype Unknown (0xcb64), length 20: 
	0x0000:  b400 1401 723a cb64 39ad 733a cb64 517d
	0x0010:  e5a2 dc0d
07:37:25.869516 cb:64:51:7d:86:cc (oui Unknown) > c4:00:d8:00:72:3a (oui Unknown), ethertype Unknown (0xdb89), length 14: 
	0x0000:  c400 d800 723a cb64 517d 86cc db89
07:37:25.869625 cb:64:51:7d:72:3a (oui Unknown) > 94:00:00:00:72:3a (oui Unknown), ethertype Unknown (0xcb64), length 32: 
	0x0000:  9400 0000 723a cb64 517d 723a cb64 39ad
	0x0010:  0400 10ec ffff ffff ffff ffff de13 1c96
07:37:25.869722 cb:64:51:7d:2f:a1 (oui Unknown) > c4:00:00:00:72:3a (oui Unknown), ethertype Unknown (0x235c), length 14: 
	0x0000:  c400 0000 723a cb64 517d 2fa1 235c
07:37:25.869887 a7:5f:3a:8d:0e:93 (oui Unknown) > d4:00:00:00:98:01 (oui Unknown), ethertype Unknown (0xd978), length 14: 
	0x0000:  d400 0000 9801 a75f 3a8d 0e93 d978
07:37:25.870000 cb:64:51:7d:73:3a (oui Unknown) > b4:00:b0:00:72:3a (oui Unknown), ethertype Unknown (0xcb64), length 20: 
	0x0000:  b400 b000 723a cb64 517d 733a cb64 39ad
	0x0010:  71e8 cb04
07:37:25.870090 cb:64:39:ad:3e:0d (oui Unknown) > c4:00:74:00:72:3a (oui Unknown), ethertype Unknown (0xce5f), length 14: 
	0x0000:  c400 7400 723a cb64 39ad 3e0d ce5f
07:37:25.870200 cb:64:39:ad:72:3a (oui Unknown) > 94:00:00:00:72:3a (oui Unknown), ethertype Unknown (0xcb64), length 32: 
	0x0000:  9400 0000 723a cb64 39ad 723a cb64 517d
	0x0010:  0400 0034 ffff ffff ffff ffff b3db 8d7e
07:37:25.870426 20:59:4d:63:71:3a (oui Unknown) > b4:00:68:01:48:45 (oui Unknown), ethertype Unknown (0xcb64), length 20: 
	0x0000:  b400 6801 4845 2059 4d63 713a cb64 39af
	0x0010:  3ea1 f772
07:37:25.871017 20:59:4d:63:71:3a (oui Unknown) > b4:00:c4:00:48:45 (oui Unknown), ethertype Unknown (0xcb64), length 20: 
	0x0000:  b400 c400 4845 2059 4d63 713a cb64 39af
	0x0010:  ac7e 83cb
07:37:25.871371 20:59:4d:63:2c:ad (oui Unknown) > d4:00:04:00:48:45 (oui Unknown), ethertype Unknown (0x1110), length 14: 
	0x0000:  d400 0400 4845 2059 4d63 2cad 1110
07:37:25.871563 20:59:4d:63:2c:ad (oui Unknown) > d4:00:04:00:48:45 (oui Unknown), ethertype Unknown (0x1110), length 14: 
	0x0000:  d400 0400 4845 2059 4d63 2cad 1110
07:37:25.872052 cb:64:51:7d:73:3a (oui Unknown) > b4:00:b0:00:72:3a (oui Unknown), ethertype Unknown (0xcb64), length 20: 
	0x0000:  b400 b000 723a cb64 517d 733a cb64 39ad
	0x0010:  71e8 cb04
07:37:25.872142 cb:64:39:ad:3e:0d (oui Unknown) > c4:00:74:00:72:3a (oui Unknown), ethertype Unknown (0xce5f), length 14: 
	0x0000:  c400 7400 723a cb64 39ad 3e0d ce5f
07:37:25.872252 cb:64:39:ad:72:3a (oui Unknown) > 94:00:00:00:72:3a (oui Unknown), ethertype Unknown (0xcb64), length 32: 
	0x0000:  9400 0000 723a cb64 39ad 723a cb64 517d
	0x0010:  0400 1034 ffff ffff ffff ffff 5b5a 2359
07:37:25.872373 cb:64:51:7d:73:3a (oui Unknown) > b4:00:b8:00:72:3a (oui Unknown), ethertype Unknown (0xcb64), length 20: 
	0x0000:  b400 b800 723a cb64 517d 733a cb64 5259
	0x0010:  2e72 4b0b
07:37:25.872463 cb:64:52:59:e2:92 (oui Unknown) > c4:00:7c:00:72:3a (oui Unknown), ethertype Unknown (0xf2b0), length 14: 
	0x0000:  c400 7c00 723a cb64 5259 e292 f2b0
07:37:25.872573 cb:64:52:59:72:3a (oui Unknown) > 94:00:00:00:72:3a (oui Unknown), ethertype Unknown (0xcb64), length 32: 
	0x0000:  9400 0000 723a cb64 5259 723a cb64 517d
	0x0010:  0400 3075 ffff ffff ffff ffff 2e51 56c9
07:37:25.873421 20:59:4d:63:71:3a (oui Unknown) > b4:00:48:01:48:45 (oui Unknown), ethertype Unknown (0xcb64), length 20: 
	0x0000:  b400 4801 4845 2059 4d63 713a cb64 39af
	0x0010:  e6d9 93bf
07:37:25.874117 cb:64:52:59:73:3a (oui Unknown) > b4:00:bc:00:72:3a (oui Unknown), ethertype Unknown (0xcb64), length 20: 
	0x0000:  b400 bc00 723a cb64 5259 733a cb64 517d
	0x0010:  4b50 b4b0
07:37:25.874207 cb:64:51:7d:f5:24 (oui Unknown) > c4:00:80:00:72:3a (oui Unknown), ethertype Unknown (0x180f), length 14: 
	0x0000:  c400 8000 723a cb64 517d f524 180f
07:37:25.874317 cb:64:51:7d:72:3a (oui Unknown) > 94:00:00:00:72:3a (oui Unknown), ethertype Unknown (0xcb64), length 32: 
	0x0000:  9400 0000 723a cb64 517d 723a cb64 5259
	0x0010:  0400 c026 ffff ffff ffff ffff 8092 26fd
07:37:25.874439 cb:64:51:7d:73:3a (oui Unknown) > b4:00:b0:00:72:3a (oui Unknown), ethertype Unknown (0xcb64), length 20: 
	0x0000:  b400 b000 723a cb64 517d 733a cb64 39ad
	0x0010:  71e8 cb04
07:37:25.874529 cb:64:39:ad:3e:0d (oui Unknown) > c4:00:74:00:72:3a (oui Unknown), ethertype Unknown (0xce5f), length 14: 
	0x0000:  c400 7400 723a cb64 39ad 3e0d ce5f
07:37:25.874720 20:59:4d:63:2c:ad (oui Unknown) > d4:00:04:00:48:45 (oui Unknown), ethertype Unknown (0x1110), length 14: 
	0x0000:  d400 0400 4845 2059 4d63 2cad 1110
07:37:25.874830 cb:64:39:ad:73:3a (oui Unknown) > b4:00:4c:01:72:3a (oui Unknown), ethertype Unknown (0xcb64), length 20: 
	0x0000:  b400 4c01 723a cb64 39ad 733a cb64 517d
	0x0010:  4e77 8e19
07:37:25.875011 cb:64:51:7d:b0:9b (oui Unknown) > c4:00:10:01:72:3a (oui Unknown), ethertype Unknown (0xef86), length 14: 
	0x0000:  c400 1001 723a cb64 517d b09b ef86
07:37:25.875237 cb:64:51:7d:72:3a (oui Unknown) > 94:00:00:00:72:3a (oui Unknown), ethertype Unknown (0xcb64), length 32: 
	0x0000:  9400 0000 723a cb64 517d 723a cb64 39ad
	0x0010:  0400 40ec ffff ffff ffff ffdf 5eb5 6614
07:37:25.875335 cb:64:51:7d:2f:a1 (oui Unknown) > c4:00:00:00:72:3a (oui Unknown), ethertype Unknown (0x235c), length 14: 
	0x0000:  c400 0000 723a cb64 517d 2fa1 235c
07:37:25.875447 cb:64:51:7d:72:3a (oui Unknown) > 94:00:00:00:72:3a (oui Unknown), ethertype Unknown (0xcb64), length 32: 
	0x0000:  9400 0000 723a cb64 517d 723a cb64 39ad
	0x0010:  0400 50ec ffff ffff ffff ffef 1a04 1115
07:37:25.875900 cb:64:39:ad:73:3a (oui Unknown) > b4:00:e0:00:72:3a (oui Unknown), ethertype Unknown (0xcb64), length 20: 
	0x0000:  b400 e000 723a cb64 39ad 733a cb64 517d
	0x0010:  dca8 faa0
07:37:25.875991 cb:64:51:7d:59:48 (oui Unknown) > c4:00:a4:00:72:3a (oui Unknown), ethertype Unknown (0x2472), length 14: 
	0x0000:  c400 a400 723a cb64 517d 5948 2472
07:37:25.876101 cb:64:51:7d:72:3a (oui Unknown) > 94:00:00:00:72:3a (oui Unknown), ethertype Unknown (0xcb64), length 32: 
	0x0000:  9400 0000 723a cb64 517d 723a cb64 39ad
	0x0010:  0400 50ec ffff ffff ffff ffff 7e14 a608
07:37:25.876198 cb:64:51:7d:2f:a1 (oui Unknown) > c4:00:00:00:72:3a (oui Unknown), ethertype Unknown (0x235c), length 14: 
	0x0000:  c400 0000 723a cb64 517d 2fa1 235c
07:37:25.876412 cb:64:51:7d:73:3a (oui Unknown) > b4:00:b0:00:72:3a (oui Unknown), ethertype Unknown (0xcb64), length 20: 
	0x0000:  b400 b000 723a cb64 517d 733a cb64 39ad
	0x0010:  71e8 cb04
07:37:25.876504 cb:64:39:ad:3e:0d (oui Unknown) > c4:00:74:00:72:3a (oui Unknown), ethertype Unknown (0xce5f), length 14: 
	0x0000:  c400 7400 723a cb64 39ad 3e0d ce5f
07:37:25.876614 cb:64:39:ad:72:3a (oui Unknown) > 94:00:00:00:72:3a (oui Unknown), ethertype Unknown (0xcb64), length 32: 
	0x0000:  9400 0000 723a cb64 39ad 723a cb64 517d
	0x0010:  0400 3034 ffff ffff ffff ffff 8b59 7e16
07:37:25.876735 a7:5f:3a:8d:71:3a (oui Unknown) > b4:00:ab:00:98:01 (oui Unknown), ethertype Unknown (0xcb64), length 20: 
	0x0000:  b400 ab00 9801 a75f 3a8d 713a cb64 5259
	0x0010:  86d1 f97b
07:37:25.876834 cb:64:52:59:21:05 (oui Unknown) > c4:00:6f:00:70:3a (oui Unknown), ethertype Unknown (0x0e0f), length 14: 
	0x0000:  c400 6f00 703a cb64 5259 2105 0e0f
07:37:25.876960 cb:64:52:59:98:01 (oui Unknown) > 94:00:00:00:70:3a (oui Unknown), ethertype Unknown (0xa75f), length 32: 
	0x0000:  9400 0000 703a cb64 5259 9801 a75f 3a8d
	0x0010:  0500 70f7 0100 0000 0000 0000 381e 0b57
07:37:25.877082 cb:64:39:ad:73:3a (oui Unknown) > b4:00:14:01:72:3a (oui Unknown), ethertype Unknown (0xcb64), length 20: 
	0x0000:  b400 1401 723a cb64 39ad 733a cb64 517d
	0x0010:  e5a2 dc0d
07:37:25.877172 cb:64:51:7d:86:cc (oui Unknown) > c4:00:d8:00:72:3a (oui Unknown), ethertype Unknown (0xdb89), length 14: 
	0x0000:  c400 d800 723a cb64 517d 86cc db89
07:37:25.877282 cb:64:51:7d:72:3a (oui Unknown) > 94:00:00:00:72:3a (oui Unknown), ethertype Unknown (0xcb64), length 32: 
	0x0000:  9400 0000 723a cb64 517d 723a cb64 39ad
	0x0010:  0400 70ec ffff ffff ffff ffff ae17 fb47
07:37:25.877379 cb:64:51:7d:2f:a1 (oui Unknown) > c4:00:00:00:72:3a (oui Unknown), ethertype Unknown (0x235c), length 14: 
	0x0000:  c400 0000 723a cb64 517d 2fa1 235c
07:37:25.877489 20:59:4d:63:71:3a (oui Unknown) > b4:00:48:01:48:45 (oui Unknown), ethertype Unknown (0xcb64), length 20: 
	0x0000:  b400 4801 4845 2059 4d63 713a cb64 39af
	0x0010:  e6d9 93bf
07:37:25.878036 cb:64:39:ad:73:3a (oui Unknown) > b4:00:14:01:72:3a (oui Unknown), ethertype Unknown (0xcb64), length 20: 
	0x0000:  b400 1401 723a cb64 39ad 733a cb64 517d
	0x0010:  e5a2 dc0d
07:37:25.878128 cb:64:51:7d:86:cc (oui Unknown) > c4:00:d8:00:72:3a (oui Unknown), ethertype Unknown (0xdb89), length 14: 
	0x0000:  c400 d800 723a cb64 517d 86cc db89
07:37:25.878317 cb:64:51:7d:72:3a (oui Unknown) > 94:00:00:00:72:3a (oui Unknown), ethertype Unknown (0xcb64), length 32: 
	0x0000:  9400 0000 723a cb64 517d 723a cb64 39ad
	0x0010:  0400 90ec ffff ffff ffff ffff df1a 1970
07:37:25.878414 cb:64:51:7d:2f:a1 (oui Unknown) > c4:00:00:00:72:3a (oui Unknown), ethertype Unknown (0x235c), length 14: 
	0x0000:  c400 0000 723a cb64 517d 2fa1 235c
07:37:25.878541 20:59:4d:63:71:3a (oui Unknown) > b4:00:c4:00:48:45 (oui Unknown), ethertype Unknown (0xcb64), length 20: 
	0x0000:  b400 c400 4845 2059 4d63 713a cb64 39af
	0x0010:  ac7e 83cb
07:37:25.879148 20:59:4d:63:71:3a (oui Unknown) > b4:00:48:01:48:45 (oui Unknown), ethertype Unknown (0xcb64), length 20: 
	0x0000:  b400 4801 4845 2059 4d63 713a cb64 39af
	0x0010:  e6d9 93bf
07:37:25.879658 20:59:4d:63:71:3a (oui Unknown) > b4:00:98:01:48:45 (oui Unknown), ethertype Unknown (0xcb64), length 20: 
	0x0000:  b400 9801 4845 2059 4d63 713a cb64 39af
	0x0010:  99fd eb1b
07:37:25.880574 cb:64:39:ad:73:3a (oui Unknown) > b4:00:80:01:72:3a (oui Unknown), ethertype Unknown (0xcb64), length 20: 
	0x0000:  b400 8001 723a cb64 39ad 733a cb64 517d
	0x0010:  70fe b1f1
07:37:25.880672 cb:64:51:7d:8c:66 (oui Unknown) > c4:00:44:01:72:3a (oui Unknown), ethertype Unknown (0x8357), length 14: 
	0x0000:  c400 4401 723a cb64 517d 8c66 8357
07:37:25.880967 cb:64:51:7d:72:3a (oui Unknown) > 94:00:00:00:72:3a (oui Unknown), ethertype Unknown (0xcb64), length 32: 
	0x0000:  9400 0000 723a cb64 517d 723a cb64 39ad
	0x0010:  0400 d0ec ffff ffff ffff ffff 7f1d a3ee
07:37:25.881065 cb:64:51:7d:2f:a1 (oui Unknown) > c4:00:00:00:72:3a (oui Unknown), ethertype Unknown (0x235c), length 14: 
	0x0000:  c400 0000 723a cb64 517d 2fa1 235c
07:37:25.881175 20:59:4d:63:71:3a (oui Unknown) > b4:00:98:01:48:45 (oui Unknown), ethertype Unknown (0xcb64), length 20: 
	0x0000:  b400 9801 4845 2059 4d63 713a cb64 39af
	0x0010:  99fd eb1b
07:37:25.881371 20:59:4d:63:2c:ad (oui Unknown) > d4:00:04:00:48:45 (oui Unknown), ethertype Unknown (0x1110), length 14: 
	0x0000:  d400 0400 4845 2059 4d63 2cad 1110
07:37:25.881765 cb:64:52:59:73:3a (oui Unknown) > b4:00:f4:00:72:3a (oui Unknown), ethertype Unknown (0xcb64), length 20: 
	0x0000:  b400 f400 723a cb64 5259 733a cb64 517d
	0x0010:  8cb9 54c2
07:37:25.881858 cb:64:51:7d:3d:6c (oui Unknown) > c4:00:b8:00:72:3a (oui Unknown), ethertype Unknown (0x3059), length 14: 
	0x0000:  c400 b800 723a cb64 517d 3d6c 3059
07:37:25.881969 cb:64:51:7d:72:3a (oui Unknown) > 94:00:00:00:72:3a (oui Unknown), ethertype Unknown (0xcb64), length 32: 
	0x0000:  9400 0000 723a cb64 517d 723a cb64 5259
	0x0010:  0400 d026 ffff ffff ffff ffff 6813 88da
07:37:25.882315 20:59:4d:63:71:3a (oui Unknown) > b4:00:98:01:48:45 (oui Unknown), ethertype Unknown (0xcb64), length 20: 
	0x0000:  b400 9801 4845 2059 4d63 713a cb64 39af
	0x0010:  99fd eb1b
07:37:25.882937 cb:64:51:7d:73:3a (oui Unknown) > b4:00:b0:00:72:3a (oui Unknown), ethertype Unknown (0xcb64), length 20: 
	0x0000:  b400 b000 723a cb64 517d 733a cb64 39ad
	0x0010:  71e8 cb04
07:37:25.883030 cb:64:39:ad:3e:0d (oui Unknown) > c4:00:74:00:72:3a (oui Unknown), ethertype Unknown (0xce5f), length 14: 
	0x0000:  c400 7400 723a cb64 39ad 3e0d ce5f
07:37:25.883140 cb:64:39:ad:72:3a (oui Unknown) > 94:00:00:00:72:3a (oui Unknown), ethertype Unknown (0xcb64), length 32: 
	0x0000:  9400 0000 723a cb64 39ad 723a cb64 517d
	0x0010:  0400 4034 ffff ffff ffff ffff 13dc 37e0
07:37:25.883236 20:59:4d:63:2c:ad (oui Unknown) > d4:00:04:00:48:45 (oui Unknown), ethertype Unknown (0x1110), length 14: 
	0x0000:  d400 0400 4845 2059 4d63 2cad 1110
07:37:25.883451 20:59:4d:63:71:3a (oui Unknown) > b4:00:7c:01:48:45 (oui Unknown), ethertype Unknown (0xcb64), length 20: 
	0x0000:  b400 7c01 4845 2059 4d63 713a cb64 39af
	0x0010:  4912 e90d
07:37:25.884047 cb:64:52:59:98:01 (oui Unknown) > 94:00:00:00:70:3a (oui Unknown), ethertype Unknown (0xa75f), length 32: 
	0x0000:  9400 0000 703a cb64 5259 9801 a75f 3a8d
	0x0010:  0500 80f7 0100 0000 0000 0000 a192 4747
07:37:25.884344 20:59:4d:63:2c:ad (oui Unknown) > d4:00:04:00:48:45 (oui Unknown), ethertype Unknown (0x1110), length 14: 
	0x0000:  d400 0400 4845 2059 4d63 2cad 1110
07:37:25.884819 cb:64:51:7d:73:3a (oui Unknown) > b4:00:b0:00:72:3a (oui Unknown), ethertype Unknown (0xcb64), length 20: 
	0x0000:  b400 b000 723a cb64 517d 733a cb64 39ad
	0x0010:  71e8 cb04
07:37:25.884913 cb:64:39:ad:3e:0d (oui Unknown) > c4:00:74:00:72:3a (oui Unknown), ethertype Unknown (0xce5f), length 14: 
	0x0000:  c400 7400 723a cb64 39ad 3e0d ce5f
07:37:25.885023 cb:64:39:ad:72:3a (oui Unknown) > 94:00:00:00:72:3a (oui Unknown), ethertype Unknown (0xcb64), length 32: 
	0x0000:  9400 0000 723a cb64 39ad 723a cb64 517d
	0x0010:  0400 5034 ffff ffff ffff ffff fb5d 99c7
07:37:25.885143 cb:64:39:ad:73:3a (oui Unknown) > b4:00:64:01:72:3a (oui Unknown), ethertype Unknown (0xcb64), length 20: 
	0x0000:  b400 6401 723a cb64 39ad 733a cb64 517d
	0x0010:  a011 b3e7
07:37:25.885235 cb:64:51:7d:78:d3 (oui Unknown) > c4:00:28:01:72:3a (oui Unknown), ethertype Unknown (0xc7d0), length 14: 
	0x0000:  c400 2801 723a cb64 517d 78d3 c7d0
07:37:25.885449 cb:64:51:7d:72:3a (oui Unknown) > 94:00:00:00:72:3a (oui Unknown), ethertype Unknown (0xcb64), length 32: 
	0x0000:  9400 0000 723a cb64 517d 723a cb64 39ad
	0x0010:  0400 10ed ffff ffff ffff ffff 9d07 6781
07:37:25.885546 cb:64:51:7d:2f:a1 (oui Unknown) > c4:00:00:00:72:3a (oui Unknown), ethertype Unknown (0x235c), length 14: 
	0x0000:  c400 0000 723a cb64 517d 2fa1 235c
07:37:25.885898 cb:64:39:ad:73:3a (oui Unknown) > b4:00:fc:00:72:3a (oui Unknown), ethertype Unknown (0xcb64), length 20: 
	0x0000:  b400 fc00 723a cb64 39ad 733a cb64 517d
	0x0010:  9d05 bdec
07:37:25.885989 cb:64:51:7d:18:e6 (oui Unknown) > c4:00:c0:00:72:3a (oui Unknown), ethertype Unknown (0x8526), length 14: 
	0x0000:  c400 c000 723a cb64 517d 18e6 8526
07:37:25.886099 cb:64:51:7d:72:3a (oui Unknown) > 94:00:00:00:72:3a (oui Unknown), ethertype Unknown (0xcb64), length 32: 
	0x0000:  9400 0000 723a cb64 517d 723a cb64 39ad
	0x0010:  0400 30ed ffff ffff ffff ffff 4d04 3ace
07:37:25.886195 cb:64:51:7d:2f:a1 (oui Unknown) > c4:00:00:00:72:3a (oui Unknown), ethertype Unknown (0x235c), length 14: 
	0x0000:  c400 0000 723a cb64 517d 2fa1 235c
07:37:25.886591 cb:64:39:ad:73:3a (oui Unknown) > b4:00:c4:00:72:3a (oui Unknown), ethertype Unknown (0xcb64), length 20: 
	0x0000:  b400 c400 723a cb64 39ad 733a cb64 517d
	0x0010:  1f5f 3274
07:37:25.886682 cb:64:51:7d:40:3f (oui Unknown) > c4:00:88:00:72:3a (oui Unknown), ethertype Unknown (0xfddc), length 14: 
	0x0000:  c400 8800 723a cb64 517d 403f fddc
07:37:25.887045 cb:64:51:7d:72:3a (oui Unknown) > 94:00:00:00:72:3a (oui Unknown), ethertype Unknown (0xcb64), length 32: 
	0x0000:  9400 0000 723a cb64 517d 723a cb64 39ad
	0x0010:  0400 40ed ffff ffff ffff ffff d581 7338
07:37:25.887152 cb:64:51:7d:2f:a1 (oui Unknown) > c4:00:00:00:72:3a (oui Unknown), ethertype Unknown (0x235c), length 14: 
	0x0000:  c400 0000 723a cb64 517d 2fa1 235c
07:37:25.887264 cb:64:51:7d:72:3a (oui Unknown) > 94:00:00:00:72:3a (oui Unknown), ethertype Unknown (0xcb64), length 32: 
	0x0000:  9400 0000 723a cb64 517d 723a cb64 39ad
	0x0010:  0400 50ed ffff ffff ffff ffff 3d00 dd1f
07:37:25.887384 20:59:4d:63:71:3a (oui Unknown) > b4:00:b4:01:48:45 (oui Unknown), ethertype Unknown (0xcb64), length 20: 
	0x0000:  b400 b401 4845 2059 4d63 713a cb64 39af
	0x0010:  6c14 7afc
07:37:25.887612 cb:64:39:ad:73:3a (oui Unknown) > b4:00:c4:00:72:3a (oui Unknown), ethertype Unknown (0xcb64), length 20: 
	0x0000:  b400 c400 723a cb64 39ad 733a cb64 517d
	0x0010:  1f5f 3274
07:37:25.887704 cb:64:51:7d:40:3f (oui Unknown) > c4:00:88:00:72:3a (oui Unknown), ethertype Unknown (0xfddc), length 14: 
	0x0000:  c400 8800 723a cb64 517d 403f fddc
07:37:25.887814 cb:64:51:7d:72:3a (oui Unknown) > 94:00:00:00:72:3a (oui Unknown), ethertype Unknown (0xcb64), length 32: 
	0x0000:  9400 0000 723a cb64 517d 723a cb64 39ad
	0x0010:  0400 60ed ffff ffff ffff ffff 0582 2e77
07:37:25.887910 cb:64:51:7d:2f:a1 (oui Unknown) > c4:00:00:00:72:3a (oui Unknown), ethertype Unknown (0x235c), length 14: 
	0x0000:  c400 0000 723a cb64 517d 2fa1 235c
07:37:25.888101 cb:64:51:7d:72:3a (oui Unknown) > 94:00:00:00:72:3a (oui Unknown), ethertype Unknown (0xcb64), length 32: 
	0x0000:  9400 0000 723a cb64 517d 723a cb64 39ad
	0x0010:  0400 70ed ffff ffff ffff ffff ed03 8050
07:37:25.888309 20:59:4d:63:2c:ad (oui Unknown) > d4:00:04:00:48:45 (oui Unknown), ethertype Unknown (0x1110), length 14: 
	0x0000:  d400 0400 4845 2059 4d63 2cad 1110
07:37:25.889031 cb:64:39:ad:73:3a (oui Unknown) > b4:00:14:01:72:3a (oui Unknown), ethertype Unknown (0xcb64), length 20: 
	0x0000:  b400 1401 723a cb64 39ad 733a cb64 517d
	0x0010:  e5a2 dc0d
07:37:25.889123 cb:64:51:7d:86:cc (oui Unknown) > c4:00:d8:00:72:3a (oui Unknown), ethertype Unknown (0xdb89), length 14: 
	0x0000:  c400 d800 723a cb64 517d 86cc db89
07:37:25.889234 cb:64:51:7d:72:3a (oui Unknown) > 94:00:00:00:72:3a (oui Unknown), ethertype Unknown (0xcb64), length 32: 
	0x0000:  9400 0000 723a cb64 517d 723a cb64 39ad
	0x0010:  0400 90ed ffff ffff ffff ffbf 0c4f be11
07:37:25.889331 cb:64:51:7d:2f:a1 (oui Unknown) > c4:00:00:00:72:3a (oui Unknown), ethertype Unknown (0x235c), length 14: 
	0x0000:  c400 0000 723a cb64 517d 2fa1 235c
07:37:25.889545 cb:64:51:7d:72:3a (oui Unknown) > 94:00:00:00:72:3a (oui Unknown), ethertype Unknown (0xcb64), length 32: 
	0x0000:  9400 0000 723a cb64 517d 723a cb64 39ad
	0x0010:  0400 a0ed ffff ffff ffff ffff a48c 910f
07:37:25.889666 cb:64:51:7d:73:3a (oui Unknown) > b4:00:b0:00:72:3a (oui Unknown), ethertype Unknown (0xcb64), length 20: 
	0x0000:  b400 b000 723a cb64 517d 733a cb64 39ad
	0x0010:  71e8 cb04
07:37:25.889756 cb:64:39:ad:3e:0d (oui Unknown) > c4:00:74:00:72:3a (oui Unknown), ethertype Unknown (0xce5f), length 14: 
	0x0000:  c400 7400 723a cb64 39ad 3e0d ce5f
07:37:25.889866 cb:64:39:ad:72:3a (oui Unknown) > 94:00:00:00:72:3a (oui Unknown), ethertype Unknown (0xcb64), length 32: 
	0x0000:  9400 0000 723a cb64 39ad 723a cb64 517d
	0x0010:  0400 6034 ffff ffff ffff ffff c3df 6aaf
07:37:25.889962 20:59:4d:63:2c:ad (oui Unknown) > d4:00:04:00:48:45 (oui Unknown), ethertype Unknown (0x1110), length 14: 
	0x0000:  d400 0400 4845 2059 4d63 2cad 1110
07:37:25.890153 a7:5f:3a:8d:0e:93 (oui Unknown) > d4:00:00:00:98:01 (oui Unknown), ethertype Unknown (0xd978), length 14: 
	0x0000:  d400 0000 9801 a75f 3a8d 0e93 d978
07:37:25.890264 cb:64:52:59:73:3a (oui Unknown) > b4:00:e4:00:72:3a (oui Unknown), ethertype Unknown (0xcb64), length 20: 
	0x0000:  b400 e400 723a cb64 5259 733a cb64 517d
	0x0010:  e085 e6a4
07:37:25.890361 cb:64:51:7d:16:5d (oui Unknown) > c4:00:a8:00:72:3a (oui Unknown), ethertype Unknown (0x8b25), length 14: 
	0x0000:  c400 a800 723a cb64 517d 165d 8b25
07:37:25.890479 cb:64:51:7d:72:3a (oui Unknown) > 94:00:00:00:72:3a (oui Unknown), ethertype Unknown (0xcb64), length 32: 
	0x0000:  9400 0000 723a cb64 517d 723a cb64 5259
	0x0010:  0400 e026 ffff ffff ffff ffff 5091 7bb2
07:37:25.890707 cb:64:39:ad:73:3a (oui Unknown) > b4:00:fc:00:72:3a (oui Unknown), ethertype Unknown (0xcb64), length 20: 
	0x0000:  b400 fc00 723a cb64 39ad 733a cb64 517d
	0x0010:  9d05 bdec
07:37:25.890797 cb:64:51:7d:18:e6 (oui Unknown) > c4:00:c0:00:72:3a (oui Unknown), ethertype Unknown (0x8526), length 14: 
	0x0000:  c400 c000 723a cb64 517d 18e6 8526
07:37:25.891012 cb:64:51:7d:72:3a (oui Unknown) > 94:00:00:00:72:3a (oui Unknown), ethertype Unknown (0xcb64), length 32: 
	0x0000:  9400 0000 723a cb64 517d 723a cb64 39ad
	0x0010:  0400 c0ed ffff ffff ffff ffbf 44c9 aaa8
07:37:25.891108 cb:64:51:7d:2f:a1 (oui Unknown) > c4:00:00:00:72:3a (oui Unknown), ethertype Unknown (0x235c), length 14: 
	0x0000:  c400 0000 723a cb64 517d 2fa1 235c
07:37:25.891219 cb:64:51:7d:72:3a (oui Unknown) > 94:00:00:00:72:3a (oui Unknown), ethertype Unknown (0xcb64), length 32: 
	0x0000:  9400 0000 723a cb64 517d 723a cb64 39ad
	0x0010:  0400 c0ed ffff ffff ffff ffff d488 76de
07:37:25.891340 20:59:4d:63:71:3a (oui Unknown) > b4:00:7c:01:48:45 (oui Unknown), ethertype Unknown (0xcb64), length 20: 
	0x0000:  b400 7c01 4845 2059 4d63 713a cb64 39af
	0x0010:  4912 e90d
07:37:25.891983 20:59:4d:63:71:3a (oui Unknown) > b4:00:e0:00:48:45 (oui Unknown), ethertype Unknown (0xcb64), length 20: 
	0x0000:  b400 e000 4845 2059 4d63 713a cb64 39af
	0x0010:  6f89 4b1f
07:37:25.892390 cb:64:52:59:98:01 (oui Unknown) > 94:00:00:00:70:3a (oui Unknown), ethertype Unknown (0xa75f), length 32: 
	0x0000:  9400 0000 703a cb64 5259 9801 a75f 3a8d
	0x0010:  0500 90f7 0100 0000 0000 0000 4913 e960
07:37:25.892510 cb:64:51:7d:73:3a (oui Unknown) > b4:00:b0:00:72:3a (oui Unknown), ethertype Unknown (0xcb64), length 20: 
	0x0000:  b400 b000 723a cb64 517d 733a cb64 39ad
	0x0010:  71e8 cb04
07:37:25.892600 cb:64:39:ad:3e:0d (oui Unknown) > c4:00:74:00:72:3a (oui Unknown), ethertype Unknown (0xce5f), length 14: 
	0x0000:  c400 7400 723a cb64 39ad 3e0d ce5f
07:37:25.892815 cb:64:51:7d:73:3a (oui Unknown) > b4:00:b8:00:72:3a (oui Unknown), ethertype Unknown (0xcb64), length 20: 
	0x0000:  b400 b800 723a cb64 517d 733a cb64 5259
	0x0010:  2e72 4b0b
07:37:25.892906 cb:64:52:59:e2:92 (oui Unknown) > c4:00:7c:00:72:3a (oui Unknown), ethertype Unknown (0xf2b0), length 14: 
	0x0000:  c400 7c00 723a cb64 5259 e292 f2b0
07:37:25.893016 cb:64:52:59:72:3a (oui Unknown) > 94:00:00:00:72:3a (oui Unknown), ethertype Unknown (0xcb64), length 32: 
	0x0000:  9400 0000 723a cb64 5259 723a cb64 517d
	0x0010:  0400 4075 ffff ffff ffff ffff b6d4 1f3f
07:37:25.893113 20:59:4d:63:2c:ad (oui Unknown) > d4:00:04:00:48:45 (oui Unknown), ethertype Unknown (0x1110), length 14: 
	0x0000:  d400 0400 4845 2059 4d63 2cad 1110
07:37:25.893484 cb:64:39:ad:73:3a (oui Unknown) > b4:00:14:01:72:3a (oui Unknown), ethertype Unknown (0xcb64), length 20: 
	0x0000:  b400 1401 723a cb64 39ad 733a cb64 517d
	0x0010:  e5a2 dc0d
07:37:25.893574 cb:64:51:7d:86:cc (oui Unknown) > c4:00:d8:00:72:3a (oui Unknown), ethertype Unknown (0xdb89), length 14: 
	0x0000:  c400 d800 723a cb64 517d 86cc db89
07:37:25.893880 20:59:4d:63:71:3a (oui Unknown) > b4:00:f8:00:48:45 (oui Unknown), ethertype Unknown (0xcb64), length 20: 
	0x0000:  b400 f800 4845 2059 4d63 713a cb64 39af
	0x0010:  35ab a04a
07:37:25.894355 cb:64:39:ad:73:3a (oui Unknown) > b4:00:14:01:72:3a (oui Unknown), ethertype Unknown (0xcb64), length 20: 
	0x0000:  b400 1401 723a cb64 39ad 733a cb64 517d
	0x0010:  e5a2 dc0d
07:37:25.894445 cb:64:51:7d:86:cc (oui Unknown) > c4:00:d8:00:72:3a (oui Unknown), ethertype Unknown (0xdb89), length 14: 
	0x0000:  c400 d800 723a cb64 517d 86cc db89
07:37:25.894556 cb:64:51:7d:72:3a (oui Unknown) > 94:00:00:00:72:3a (oui Unknown), ethertype Unknown (0xcb64), length 32: 
	0x0000:  9400 0000 723a cb64 517d 723a cb64 39ad
	0x0010:  0400 e0ed ffff ffff ffff ffff 048b 2b91
07:37:25.894653 cb:64:51:7d:2f:a1 (oui Unknown) > c4:00:00:00:72:3a (oui Unknown), ethertype Unknown (0x235c), length 14: 
	0x0000:  c400 0000 723a cb64 517d 2fa1 235c
07:37:25.894762 cb:64:51:7d:73:3a (oui Unknown) > b4:00:b0:00:72:3a (oui Unknown), ethertype Unknown (0xcb64), length 20: 
	0x0000:  b400 b000 723a cb64 517d 733a cb64 39ad
	0x0010:  71e8 cb04
07:37:25.894852 cb:64:39:ad:3e:0d (oui Unknown) > c4:00:74:00:72:3a (oui Unknown), ethertype Unknown (0xce5f), length 14: 
	0x0000:  c400 7400 723a cb64 39ad 3e0d ce5f
07:37:25.894962 cb:64:39:ad:72:3a (oui Unknown) > 94:00:00:00:72:3a (oui Unknown), ethertype Unknown (0xcb64), length 32: 
	0x0000:  9400 0000 723a cb64 39ad 723a cb64 517d
	0x0010:  0400 8034 ffff ffff ffff ffff b2d2 8898
07:37:25.895083 cb:64:52:59:73:3a (oui Unknown) > b4:00:b0:00:72:3a (oui Unknown), ethertype Unknown (0xcb64), length 20: 
	0x0000:  b400 b000 723a cb64 5259 733a cb64 517d
	0x0010:  66c1 419a
07:37:25.895173 cb:64:51:7d:45:3e (oui Unknown) > c4:00:74:00:72:3a (oui Unknown), ethertype Unknown (0x3974), length 14: 
	0x0000:  c400 7400 723a cb64 517d 453e 3974
07:37:25.895369 20:59:4d:63:2c:ad (oui Unknown) > d4:00:04:00:48:45 (oui Unknown), ethertype Unknown (0x1110), length 14: 
	0x0000:  d400 0400 4845 2059 4d63 2cad 1110
07:37:25.895585 cb:64:52:59:73:3a (oui Unknown) > b4:00:bc:00:72:3a (oui Unknown), ethertype Unknown (0xcb64), length 20: 
	0x0000:  b400 bc00 723a cb64 5259 733a cb64 517d
	0x0010:  4b50 b4b0
07:37:25.895751 cb:64:51:7d:f5:24 (oui Unknown) > c4:00:80:00:72:3a (oui Unknown), ethertype Unknown (0x180f), length 14: 
	0x0000:  c400 8000 723a cb64 517d f524 180f
07:37:25.895863 cb:64:51:7d:72:3a (oui Unknown) > 94:00:00:00:72:3a (oui Unknown), ethertype Unknown (0xcb64), length 32: 
	0x0000:  9400 0000 723a cb64 517d 723a cb64 5259
	0x0010:  0400 f026 ffff ffff ffff ffff b810 d595
07:37:25.895984 20:59:4d:63:71:3a (oui Unknown) > b4:00:14:01:48:45 (oui Unknown), ethertype Unknown (0xcb64), length 20: 
	0x0000:  b400 1401 4845 2059 4d63 713a cb64 39af
	0x0010:  5683 6db2
07:37:25.896698 cb:64:51:7d:73:3a (oui Unknown) > b4:00:b0:00:72:3a (oui Unknown), ethertype Unknown (0xcb64), length 20: 
	0x0000:  b400 b000 723a cb64 517d 733a cb64 39ad
	0x0010:  71e8 cb04
07:37:25.896789 cb:64:39:ad:3e:0d (oui Unknown) > c4:00:74:00:72:3a (oui Unknown), ethertype Unknown (0xce5f), length 14: 
	0x0000:  c400 7400 723a cb64 39ad 3e0d ce5f
07:37:25.897009 20:59:4d:63:2c:ad (oui Unknown) > d4:00:04:00:48:45 (oui Unknown), ethertype Unknown (0x1110), length 14: 
	0x0000:  d400 0400 4845 2059 4d63 2cad 1110
07:37:25.897119 cb:64:39:ad:73:3a (oui Unknown) > b4:00:64:01:72:3a (oui Unknown), ethertype Unknown (0xcb64), length 20: 
	0x0000:  b400 6401 723a cb64 39ad 733a cb64 517d
	0x0010:  a011 b3e7
07:37:25.897508 cb:64:51:7d:72:3a (oui Unknown) > 94:00:00:00:72:3a (oui Unknown), ethertype Unknown (0xcb64), length 32: 
	0x0000:  9400 0000 723a cb64 517d 723a cb64 39ad
	0x0010:  0400 20ee ffff ffff ffff ffef 04a9 aecd
07:37:25.897605 cb:64:51:7d:2f:a1 (oui Unknown) > c4:00:00:00:72:3a (oui Unknown), ethertype Unknown (0x235c), length 14: 
	0x0000:  c400 0000 723a cb64 517d 2fa1 235c
07:37:25.897715 cb:64:51:7d:72:3a (oui Unknown) > 94:00:00:00:72:3a (oui Unknown), ethertype Unknown (0xcb64), length 32: 
	0x0000:  9400 0000 723a cb64 517d 723a cb64 39ad
	0x0010:  0400 20ee ffff ffff ffff ffff 60b9 19d0
07:37:25.897835 cb:64:52:59:98:01 (oui Unknown) > 94:00:00:00:70:3a (oui Unknown), ethertype Unknown (0xa75f), length 32: 
	0x0000:  9400 0000 703a cb64 5259 9801 a75f 3a8d
	0x0010:  0500 a0f7 0100 0000 0000 0000 7191 1a08
07:37:25.898242 cb:64:51:7d:73:3a (oui Unknown) > b4:00:b0:00:72:3a (oui Unknown), ethertype Unknown (0xcb64), length 20: 
	0x0000:  b400 b000 723a cb64 517d 733a cb64 39ad
	0x0010:  71e8 cb04
07:37:25.898333 cb:64:39:ad:3e:0d (oui Unknown) > c4:00:74:00:72:3a (oui Unknown), ethertype Unknown (0xce5f), length 14: 
	0x0000:  c400 7400 723a cb64 39ad 3e0d ce5f
07:37:25.898444 cb:64:39:ad:72:3a (oui Unknown) > 94:00:00:00:72:3a (oui Unknown), ethertype Unknown (0xcb64), length 32: 
	0x0000:  9400 0000 723a cb64 39ad 723a cb64 517d
	0x0010:  0400 a034 ffff ffff ffff ffff 62d1 d5d7
07:37:25.898577 cb:64:39:ad:73:3a (oui Unknown) > b4:00:14:01:72:3a (oui Unknown), ethertype Unknown (0xcb64), length 20: 
	0x0000:  b400 1401 723a cb64 39ad 733a cb64 517d
	0x0010:  e5a2 dc0d
07:37:25.898669 cb:64:51:7d:86:cc (oui Unknown) > c4:00:d8:00:72:3a (oui Unknown), ethertype Unknown (0xdb89), length 14: 
	0x0000:  c400 d800 723a cb64 517d 86cc db89
07:37:25.898778 cb:64:51:7d:72:3a (oui Unknown) > 94:00:00:00:72:3a (oui Unknown), ethertype Unknown (0xcb64), length 32: 
	0x0000:  9400 0000 723a cb64 517d 723a cb64 39ad
	0x0010:  0400 40ee ffff ffff ffff ffbf 80fc 2277
07:37:25.898874 cb:64:51:7d:2f:a1 (oui Unknown) > c4:00:00:00:72:3a (oui Unknown), ethertype Unknown (0x235c), length 14: 
	0x0000:  c400 0000 723a cb64 517d 2fa1 235c
07:37:25.898984 cb:64:51:7d:72:3a (oui Unknown) > 94:00:00:00:72:3a (oui Unknown), ethertype Unknown (0xcb64), length 32: 
	0x0000:  9400 0000 723a cb64 517d 723a cb64 39ad
	0x0010:  0400 40ee ffff ffff ffff ffff 10bd fe01
07:37:25.899080 cb:64:51:7d:2f:a1 (oui Unknown) > c4:00:00:00:72:3a (oui Unknown), ethertype Unknown (0x235c), length 14: 
	0x0000:  c400 0000 723a cb64 517d 2fa1 235c
07:37:25.899541 ff:ff:ff:ff:d8:0d (oui Unknown) > 80:00:00:00:ff:ff (oui Unknown), ethertype Unknown (0x1772), length 256: 
	0x0000:  8000 0000 ffff ffff ffff d80d 1772 583a
	0x0010:  d80d 1772 583a 400f 65d2 fdac 0200 0000
	0x0020:  6400 1110 000f 5450 2d4c 696e 6b5f 3538
	0x0030:  3343 5f35 4701 088c 1298 24b0 4860 6c05
	0x0040:  0400 0100 0030 1401 0000 0fac 0401 0000
	0x0050:  0fac 0401 0000 0fac 020c 0046 0532 0801
	0x0060:  0000 2d1a ad09 17ff ff00 0000 0000 0000
	0x0070:  0000 0000 0000 0000 0000 0000 0000 3d16
	0x0080:  9908 0000 0000 0000 0000 0000 0000 0000
	0x0090:  0000 0000 0000 7f08 0400 0000 0000 0040
	0x00a0:  bf0c b201 8003 faff 0000 faff 0000 c005
	0x00b0:  0099 0000 00c3 0200 0edd 1c00 50f2 0410
	0x00c0:  4a00 0110 1044 0001 0210 4900 0a00 372a
	0x00d0:  0001 2005 0226 88dd 0900 1018 0200 001c
	0x00e0:  0000 dd18 0050 f202 0101 8000 03a4 0000
	0x00f0:  27a4 0000 4243 5e00 6232 2f00 fc3c bdf1
07:37:25.900378 cb:64:39:ad:73:3a (oui Unknown) > b4:00:4c:01:72:3a (oui Unknown), ethertype Unknown (0xcb64), length 20: 
	0x0000:  b400 4c01 723a cb64 39ad 733a cb64 517d
	0x0010:  4e77 8e19
07:37:25.900471 cb:64:51:7d:b0:9b (oui Unknown) > c4:00:10:01:72:3a (oui Unknown), ethertype Unknown (0xef86), length 14: 
	0x0000:  c400 1001 723a cb64 517d b09b ef86
07:37:25.900714 cb:64:51:7d:72:3a (oui Unknown) > 94:00:00:00:72:3a (oui Unknown), ethertype Unknown (0xcb64), length 32: 
	0x0000:  9400 0000 723a cb64 517d 723a cb64 39ad
	0x0010:  0400 70ee ffff ffff ffff ffff 283f 0d69
07:37:25.900811 cb:64:51:7d:2f:a1 (oui Unknown) > c4:00:00:00:72:3a (oui Unknown), ethertype Unknown (0x235c), length 14: 
	0x0000:  c400 0000 723a cb64 517d 2fa1 235c
07:37:25.900896 20:59:4d:63:2c:ad (oui Unknown) > d4:00:04:00:48:45 (oui Unknown), ethertype Unknown (0x1110), length 14: 
	0x0000:  d400 0400 4845 2059 4d63 2cad 1110
07:37:25.901006 20:59:4d:63:71:3a (oui Unknown) > b4:00:14:01:48:45 (oui Unknown), ethertype Unknown (0xcb64), length 20: 
	0x0000:  b400 1401 4845 2059 4d63 713a cb64 39af
	0x0010:  5683 6db2
07:37:25.901472 cb:64:39:ad:73:3a (oui Unknown) > b4:00:fc:00:72:3a (oui Unknown), ethertype Unknown (0xcb64), length 20: 
	0x0000:  b400 fc00 723a cb64 39ad 733a cb64 517d
	0x0010:  9d05 bdec
07:37:25.901563 cb:64:51:7d:18:e6 (oui Unknown) > c4:00:c0:00:72:3a (oui Unknown), ethertype Unknown (0x8526), length 14: 
	0x0000:  c400 c000 723a cb64 517d 18e6 8526
07:37:25.901673 cb:64:51:7d:72:3a (oui Unknown) > 94:00:00:00:72:3a (oui Unknown), ethertype Unknown (0xcb64), length 32: 
	0x0000:  9400 0000 723a cb64 517d 723a cb64 39ad
	0x0010:  0400 80ee ffff ffff ffff ffff b1b3 4179
07:37:25.901770 cb:64:51:7d:2f:a1 (oui Unknown) > c4:00:00:00:72:3a (oui Unknown), ethertype Unknown (0x235c), length 14: 
	0x0000:  c400 0000 723a cb64 517d 2fa1 235c
07:37:25.901880 cb:64:51:7d:72:3a (oui Unknown) > 94:00:00:00:72:3a (oui Unknown), ethertype Unknown (0xcb64), length 32: 
	0x0000:  9400 0000 723a cb64 517d 723a cb64 39ad
	0x0010:  0400 a0ee ffff ffff ffff ffff 61b0 1c36
07:37:25.902222 20:59:4d:63:2c:ad (oui Unknown) > d4:00:04:00:48:45 (oui Unknown), ethertype Unknown (0x1110), length 14: 
	0x0000:  d400 0400 4845 2059 4d63 2cad 1110
07:37:25.902482 cb:64:51:7d:73:3a (oui Unknown) > b4:00:b0:00:72:3a (oui Unknown), ethertype Unknown (0xcb64), length 20: 
	0x0000:  b400 b000 723a cb64 517d 733a cb64 39ad
	0x0010:  71e8 cb04
07:37:25.902572 cb:64:39:ad:3e:0d (oui Unknown) > c4:00:74:00:72:3a (oui Unknown), ethertype Unknown (0xce5f), length 14: 
	0x0000:  c400 7400 723a cb64 39ad 3e0d ce5f
07:37:25.902682 cb:64:39:ad:72:3a (oui Unknown) > 94:00:00:00:72:3a (oui Unknown), ethertype Unknown (0xcb64), length 32: 
	0x0000:  9400 0000 723a cb64 39ad 723a cb64 517d
	0x0010:  0400 b034 ffff ffff ffff ffff 8a50 7bf0
07:37:25.902803 20:59:4d:63:71:3a (oui Unknown) > b4:00:b4:01:48:45 (oui Unknown), ethertype Unknown (0xcb64), length 20: 
	0x0000:  b400 b401 4845 2059 4d63 713a cb64 39af
	0x0010:  6c14 7afc
07:37:25.904099 cb:64:51:7d:72:3a (oui Unknown) > 94:00:00:00:72:3a (oui Unknown), ethertype Unknown (0xcb64), length 32: 
	0x0000:  9400 0000 723a cb64 517d 723a cb64 39ad
	0x0010:  0400 d0ee ffff ffff ffff ffff f935 55c0
07:37:25.904204 cb:64:51:7d:2f:a1 (oui Unknown) > c4:00:00:00:72:3a (oui Unknown), ethertype Unknown (0x235c), length 14: 
	0x0000:  c400 0000 723a cb64 517d 2fa1 235c
07:37:25.904367 20:59:4d:63:2c:ad (oui Unknown) > d4:00:04:00:48:45 (oui Unknown), ethertype Unknown (0x1110), length 14: 
	0x0000:  d400 0400 4845 2059 4d63 2cad 1110
07:37:25.904809 cb:64:39:ad:73:3a (oui Unknown) > b4:00:30:01:72:3a (oui Unknown), ethertype Unknown (0xcb64), length 20: 
	0x0000:  b400 3001 723a cb64 39ad 733a cb64 517d
	0x0010:  2655 14d9
07:37:25.904899 [|llc]
	0x0000:  c400 f400 723a cb64 517d 9fbb 0227
07:37:25.905111 cb:64:51:7d:72:3a (oui Unknown) > 94:00:00:00:72:3a (oui Unknown), ethertype Unknown (0xcb64), length 32: 
	0x0000:  9400 0000 723a cb64 517d 723a cb64 39ad
	0x0010:  0400 00ef ffff ffff ffff ffdf 3b8e 51b3
07:37:25.905208 cb:64:51:7d:2f:a1 (oui Unknown) > c4:00:00:00:72:3a (oui Unknown), ethertype Unknown (0x235c), length 14: 
	0x0000:  c400 0000 723a cb64 517d 2fa1 235c
07:37:25.905319 cb:64:51:7d:72:3a (oui Unknown) > 94:00:00:00:72:3a (oui Unknown), ethertype Unknown (0xcb64), length 32: 
	0x0000:  9400 0000 723a cb64 517d 723a cb64 39ad
	0x0010:  0400 10ef ffff ffff ffff ffff 1b2f 91af
07:37:25.905440 cb:64:51:7d:73:3a (oui Unknown) > b4:00:b0:00:72:3a (oui Unknown), ethertype Unknown (0xcb64), length 20: 
	0x0000:  b400 b000 723a cb64 517d 733a cb64 39ad
	0x0010:  71e8 cb04
07:37:25.905530 cb:64:39:ad:3e:0d (oui Unknown) > c4:00:74:00:72:3a (oui Unknown), ethertype Unknown (0xce5f), length 14: 
	0x0000:  c400 7400 723a cb64 39ad 3e0d ce5f
07:37:25.905907 20:59:4d:63:71:3a (oui Unknown) > b4:00:e0:00:48:45 (oui Unknown), ethertype Unknown (0xcb64), length 20: 
	0x0000:  b400 e000 4845 2059 4d63 713a cb64 39af
	0x0010:  6f89 4b1f
07:37:25.906346 cb:64:51:7d:73:3a (oui Unknown) > b4:00:b0:00:72:3a (oui Unknown), ethertype Unknown (0xcb64), length 20: 
	0x0000:  b400 b000 723a cb64 517d 733a cb64 39ad
	0x0010:  71e8 cb04
07:37:25.906437 cb:64:39:ad:3e:0d (oui Unknown) > c4:00:74:00:72:3a (oui Unknown), ethertype Unknown (0xce5f), length 14: 
	0x0000:  c400 7400 723a cb64 39ad 3e0d ce5f
07:37:25.906548 cb:64:39:ad:72:3a (oui Unknown) > 94:00:00:00:72:3a (oui Unknown), ethertype Unknown (0xcb64), length 32: 
	0x0000:  9400 0000 723a cb64 39ad 723a cb64 517d
	0x0010:  0400 d034 ffff ffff ffff ffff fa54 9c21
07:37:25.906644 20:59:4d:63:2c:ad (oui Unknown) > d4:00:04:00:48:45 (oui Unknown), ethertype Unknown (0x1110), length 14: 
	0x0000:  d400 0400 4845 2059 4d63 2cad 1110
07:37:25.907258 cb:64:39:ad:73:3a (oui Unknown) > b4:00:14:01:72:3a (oui Unknown), ethertype Unknown (0xcb64), length 20: 
	0x0000:  b400 1401 723a cb64 39ad 733a cb64 517d
	0x0010:  e5a2 dc0d
07:37:25.907349 cb:64:51:7d:86:cc (oui Unknown) > c4:00:d8:00:72:3a (oui Unknown), ethertype Unknown (0xdb89), length 14: 
	0x0000:  c400 d800 723a cb64 517d 86cc db89
07:37:25.907459 cb:64:51:7d:72:3a (oui Unknown) > 94:00:00:00:72:3a (oui Unknown), ethertype Unknown (0xcb64), length 32: 
	0x0000:  9400 0000 723a cb64 517d 723a cb64 39ad
	0x0010:  0400 30ef ffff ffff ffff ffff cb2c cce0
07:37:25.907557 cb:64:51:7d:2f:a1 (oui Unknown) > c4:00:00:00:72:3a (oui Unknown), ethertype Unknown (0x235c), length 14: 
	0x0000:  c400 0000 723a cb64 517d 2fa1 235c
07:37:25.907666 20:59:4d:63:71:3a (oui Unknown) > b4:00:cc:01:48:45 (oui Unknown), ethertype Unknown (0xcb64), length 20: 
	0x0000:  b400 cc01 4845 2059 4d63 713a cb64 39af
	0x0010:  1fb9 4c25
07:37:25.908396 cb:64:39:ad:73:3a (oui Unknown) > b4:00:e0:00:72:3a (oui Unknown), ethertype Unknown (0xcb64), length 20: 
	0x0000:  b400 e000 723a cb64 39ad 733a cb64 517d
	0x0010:  dca8 faa0
07:37:25.908488 cb:64:51:7d:59:48 (oui Unknown) > c4:00:a4:00:72:3a (oui Unknown), ethertype Unknown (0x2472), length 14: 
	0x0000:  c400 a400 723a cb64 517d 5948 2472
07:37:25.908613 cb:64:51:7d:72:3a (oui Unknown) > 94:00:00:00:72:3a (oui Unknown), ethertype Unknown (0xcb64), length 32: 
	0x0000:  9400 0000 723a cb64 517d 723a cb64 39ad
	0x0010:  0400 40ef ffff ffff ffff ffff 53a9 8516
07:37:25.908710 cb:64:51:7d:2f:a1 (oui Unknown) > c4:00:00:00:72:3a (oui Unknown), ethertype Unknown (0x235c), length 14: 
	0x0000:  c400 0000 723a cb64 517d 2fa1 235c
07:37:25.908903 cb:64:51:7d:72:3a (oui Unknown) > 94:00:00:00:72:3a (oui Unknown), ethertype Unknown (0xcb64), length 32: 
	0x0000:  9400 0000 723a cb64 517d 723a cb64 39ad
	0x0010:  0400 50ef ffff ffff ffff ffff bb28 2b31
07:37:25.909027 cb:64:51:7d:73:3a (oui Unknown) > b4:00:b0:00:72:3a (oui Unknown), ethertype Unknown (0xcb64), length 20: 
	0x0000:  b400 b000 723a cb64 517d 733a cb64 39ad
	0x0010:  71e8 cb04
07:37:25.909117 cb:64:39:ad:3e:0d (oui Unknown) > c4:00:74:00:72:3a (oui Unknown), ethertype Unknown (0xce5f), length 14: 
	0x0000:  c400 7400 723a cb64 39ad 3e0d ce5f
07:37:25.909227 cb:64:39:ad:72:3a (oui Unknown) > 94:00:00:00:72:3a (oui Unknown), ethertype Unknown (0xcb64), length 32: 
	0x0000:  9400 0000 723a cb64 39ad 723a cb64 517d
	0x0010:  0400 e034 ffff ffff ffff ffff c2d6 6f49
07:37:25.909323 a7:5f:3a:8d:0e:93 (oui Unknown) > d4:00:00:00:98:01 (oui Unknown), ethertype Unknown (0xd978), length 14: 
	0x0000:  d400 0000 9801 a75f 3a8d 0e93 d978
07:37:25.909433 20:59:4d:63:71:3a (oui Unknown) > b4:00:98:01:48:45 (oui Unknown), ethertype Unknown (0xcb64), length 20: 
	0x0000:  b400 9801 4845 2059 4d63 713a cb64 39af
	0x0010:  99fd eb1b
07:37:25.909523 20:59:4d:63:d6:a3 (oui Unknown) > d4:00:00:00:48:45 (oui Unknown), ethertype Unknown (0x5b94), length 14: 
	0x0000:  d400 0000 4845 2059 4d63 d6a3 5b94
07:37:25.909953 cb:64:39:ad:73:3a (oui Unknown) > b4:00:30:01:72:3a (oui Unknown), ethertype Unknown (0xcb64), length 20: 
	0x0000:  b400 3001 723a cb64 39ad 733a cb64 517d
	0x0010:  2655 14d9
07:37:25.910044 [|llc]
	0x0000:  c400 f400 723a cb64 517d 9fbb 0227
07:37:25.910253 cb:64:51:7d:72:3a (oui Unknown) > 94:00:00:00:72:3a (oui Unknown), ethertype Unknown (0xcb64), length 32: 
	0x0000:  9400 0000 723a cb64 517d 723a cb64 39ad
	0x0010:  0400 80ef ffff ffff ffff ffff f2a7 3a6e
07:37:25.910350 cb:64:51:7d:2f:a1 (oui Unknown) > c4:00:00:00:72:3a (oui Unknown), ethertype Unknown (0x235c), length 14: 
	0x0000:  c400 0000 723a cb64 517d 2fa1 235c
07:37:25.910460 cb:64:51:7d:72:3a (oui Unknown) > 94:00:00:00:72:3a (oui Unknown), ethertype Unknown (0xcb64), length 32: 
	0x0000:  9400 0000 723a cb64 517d 723a cb64 39ad
	0x0010:  0400 a0ef ffff ffff ffff ffff 22a4 6721
07:37:25.910581 20:59:4d:63:71:3a (oui Unknown) > b4:00:e8:01:48:45 (oui Unknown), ethertype Unknown (0xcb64), length 20: 
	0x0000:  b400 e801 4845 2059 4d63 713a cb64 39af
	0x0010:  dc4e 84f1
07:37:25.911265 cb:64:51:7d:73:3a (oui Unknown) > b4:00:b8:00:72:3a (oui Unknown), ethertype Unknown (0xcb64), length 20: 
	0x0000:  b400 b800 723a cb64 517d 733a cb64 5259
	0x0010:  2e72 4b0b
07:37:25.911357 cb:64:52:59:e2:92 (oui Unknown) > c4:00:7c:00:72:3a (oui Unknown), ethertype Unknown (0xf2b0), length 14: 
	0x0000:  c400 7c00 723a cb64 5259 e292 f2b0
07:37:25.911467 cb:64:52:59:72:3a (oui Unknown) > 94:00:00:00:72:3a (oui Unknown), ethertype Unknown (0xcb64), length 32: 
	0x0000:  9400 0000 723a cb64 5259 723a cb64 517d
	0x0010:  0400 5075 ffff ffff ffff ffff 5e55 b118
07:37:25.911563 20:59:4d:63:2c:ad (oui Unknown) > d4:00:04:00:48:45 (oui Unknown), ethertype Unknown (0x1110), length 14: 
	0x0000:  d400 0400 4845 2059 4d63 2cad 1110
07:37:25.911778 20:59:4d:63:71:3a (oui Unknown) > b4:00:f8:00:48:45 (oui Unknown), ethertype Unknown (0xcb64), length 20: 
	0x0000:  b400 f800 4845 2059 4d63 713a cb64 39af
	0x0010:  35ab a04a
07:37:25.912250 cb:64:51:7d:73:3a (oui Unknown) > b4:00:b0:00:72:3a (oui Unknown), ethertype Unknown (0xcb64), length 20: 
	0x0000:  b400 b000 723a cb64 517d 733a cb64 39ad
	0x0010:  71e8 cb04
07:37:25.912342 cb:64:39:ad:3e:0d (oui Unknown) > c4:00:74:00:72:3a (oui Unknown), ethertype Unknown (0xce5f), length 14: 
	0x0000:  c400 7400 723a cb64 39ad 3e0d ce5f
07:37:25.912452 cb:64:39:ad:72:3a (oui Unknown) > 94:00:00:00:72:3a (oui Unknown), ethertype Unknown (0xcb64), length 32: 
	0x0000:  9400 0000 723a cb64 39ad 723a cb64 517d
	0x0010:  0400 f034 ffff ffff ffff ffff 2a57 c16e
07:37:25.912548 20:59:4d:63:2c:ad (oui Unknown) > d4:00:04:00:48:45 (oui Unknown), ethertype Unknown (0x1110), length 14: 
	0x0000:  d400 0400 4845 2059 4d63 2cad 1110
07:37:25.912731 cb:64:39:ad:73:3a (oui Unknown) > b4:00:fc:00:72:3a (oui Unknown), ethertype Unknown (0xcb64), length 20: 
	0x0000:  b400 fc00 723a cb64 39ad 733a cb64 517d
	0x0010:  9d05 bdec
07:37:25.912823 cb:64:51:7d:18:e6 (oui Unknown) > c4:00:c0:00:72:3a (oui Unknown), ethertype Unknown (0x8526), length 14: 
	0x0000:  c400 c000 723a cb64 517d 18e6 8526
07:37:25.913425 20:59:4d:63:71:3a (oui Unknown) > b4:00:7c:01:48:45 (oui Unknown), ethertype Unknown (0xcb64), length 20: 
	0x0000:  b400 7c01 4845 2059 4d63 713a cb64 39af
	0x0010:  4912 e90d
07:37:25.913923 cb:64:39:ad:73:3a (oui Unknown) > b4:00:fc:00:72:3a (oui Unknown), ethertype Unknown (0xcb64), length 20: 
	0x0000:  b400 fc00 723a cb64 39ad 733a cb64 517d
	0x0010:  9d05 bdec
07:37:25.914014 cb:64:51:7d:18:e6 (oui Unknown) > c4:00:c0:00:72:3a (oui Unknown), ethertype Unknown (0x8526), length 14: 
	0x0000:  c400 c000 723a cb64 517d 18e6 8526
07:37:25.914124 cb:64:51:7d:72:3a (oui Unknown) > 94:00:00:00:72:3a (oui Unknown), ethertype Unknown (0xcb64), length 32: 
	0x0000:  9400 0000 723a cb64 517d 723a cb64 39ad
	0x0010:  0400 c0ef ffff ffff ffff ffff 52a0 80f0
07:37:25.914221 cb:64:51:7d:2f:a1 (oui Unknown) > c4:00:00:00:72:3a (oui Unknown), ethertype Unknown (0x235c), length 14: 
	0x0000:  c400 0000 723a cb64 517d 2fa1 235c
07:37:25.914307 20:59:4d:63:2c:ad (oui Unknown) > d4:00:04:00:48:45 (oui Unknown), ethertype Unknown (0x1110), length 14: 
	0x0000:  d400 0400 4845 2059 4d63 2cad 1110
07:37:25.914522 cb:64:52:59:73:3a (oui Unknown) > b4:00:24:01:72:3a (oui Unknown), ethertype Unknown (0xcb64), length 20: 
	0x0000:  b400 2401 723a cb64 5259 733a cb64 517d
	0x0010:  7644 babb
07:37:25.914612 cb:64:51:7d:fb:9f (oui Unknown) > c4:00:e8:00:72:3a (oui Unknown), ethertype Unknown (0x160c), length 14: 
	0x0000:  c400 e800 723a cb64 517d fb9f 160c
07:37:25.914983 20:59:4d:63:71:3a (oui Unknown) > b4:00:e0:00:48:45 (oui Unknown), ethertype Unknown (0xcb64), length 20: 
	0x0000:  b400 e000 4845 2059 4d63 713a cb64 39af
	0x0010:  6f89 4b1f
07:37:25.915409 cb:64:51:7d:73:3a (oui Unknown) > b4:00:b0:00:72:3a (oui Unknown), ethertype Unknown (0xcb64), length 20: 
	0x0000:  b400 b000 723a cb64 517d 733a cb64 39ad
	0x0010:  71e8 cb04
07:37:25.915500 cb:64:39:ad:3e:0d (oui Unknown) > c4:00:74:00:72:3a (oui Unknown), ethertype Unknown (0xce5f), length 14: 
	0x0000:  c400 7400 723a cb64 39ad 3e0d ce5f
07:37:25.915610 cb:64:39:ad:72:3a (oui Unknown) > 94:00:00:00:72:3a (oui Unknown), ethertype Unknown (0xcb64), length 32: 
	0x0000:  9400 0000 723a cb64 39ad 723a cb64 517d
	0x0010:  0400 0035 ffff ffff ffff ffff f0cf f669
07:37:25.915731 cb:64:39:ad:73:3a (oui Unknown) > b4:00:14:01:72:3a (oui Unknown), ethertype Unknown (0xcb64), length 20: 
	0x0000:  b400 1401 723a cb64 39ad 733a cb64 517d
	0x0010:  e5a2 dc0d
07:37:25.916060 20:59:4d:63:d6:a3 (oui Unknown) > d4:00:00:00:48:45 (oui Unknown), ethertype Unknown (0x5b94), length 14: 
	0x0000:  d400 0000 4845 2059 4d63 d6a3 5b94
07:37:25.916170 cb:64:52:59:73:3a (oui Unknown) > b4:00:24:01:72:3a (oui Unknown), ethertype Unknown (0xcb64), length 20: 
	0x0000:  b400 2401 723a cb64 5259 733a cb64 517d
	0x0010:  7644 babb
07:37:25.916260 cb:64:51:7d:fb:9f (oui Unknown) > c4:00:e8:00:72:3a (oui Unknown), ethertype Unknown (0x160c), length 14: 
	0x0000:  c400 e800 723a cb64 517d fb9f 160c
07:37:25.916474 cb:64:51:7d:72:3a (oui Unknown) > 94:00:00:00:72:3a (oui Unknown), ethertype Unknown (0xcb64), length 32: 
	0x0000:  9400 0000 723a cb64 517d 723a cb64 5259
	0x0010:  0400 1027 ffff ffff ffff ffff 8a09 4cb5
07:37:25.916700 cb:64:39:ad:73:3a (oui Unknown) > b4:00:64:01:72:3a (oui Unknown), ethertype Unknown (0xcb64), length 20: 
	0x0000:  b400 6401 723a cb64 39ad 733a cb64 517d
	0x0010:  a011 b3e7
07:37:25.916791 cb:64:51:7d:78:d3 (oui Unknown) > c4:00:28:01:72:3a (oui Unknown), ethertype Unknown (0xc7d0), length 14: 
	0x0000:  c400 2801 723a cb64 517d 78d3 c7d0
07:37:25.917075 cb:64:51:7d:72:3a (oui Unknown) > 94:00:00:00:72:3a (oui Unknown), ethertype Unknown (0xcb64), length 32: 
	0x0000:  9400 0000 723a cb64 517d 723a cb64 39ad
	0x0010:  0400 00f0 ffff ffff ffff ffff 5323 46fb
07:37:25.917247 cb:64:51:7d:2f:a1 (oui Unknown) > c4:00:00:00:72:3a (oui Unknown), ethertype Unknown (0x235c), length 14: 
	0x0000:  c400 0000 723a cb64 517d 2fa1 235c
07:37:25.917360 20:59:4d:63:71:3a (oui Unknown) > b4:00:f8:00:48:45 (oui Unknown), ethertype Unknown (0xcb64), length 20: 
	0x0000:  b400 f800 4845 2059 4d63 713a cb64 39af
	0x0010:  35ab a04a
07:37:25.917885 cb:64:52:59:98:01 (oui Unknown) > 94:00:00:00:70:3a (oui Unknown), ethertype Unknown (0xa75f), length 32: 
	0x0000:  9400 0000 703a cb64 5259 9801 a75f 3a8d
	0x0010:  0500 b0f7 0300 0000 0000 0000 e417 916d
07:37:25.918087 20:59:4d:63:2c:ad (oui Unknown) > d4:00:04:00:48:45 (oui Unknown), ethertype Unknown (0x1110), length 14: 
	0x0000:  d400 0400 4845 2059 4d63 2cad 1110
07:37:25.918197 cb:64:51:7d:73:3a (oui Unknown) > b4:00:b0:00:72:3a (oui Unknown), ethertype Unknown (0xcb64), length 20: 
	0x0000:  b400 b000 723a cb64 517d 733a cb64 39ad
	0x0010:  71e8 cb04
07:37:25.918287 cb:64:39:ad:3e:0d (oui Unknown) > c4:00:74:00:72:3a (oui Unknown), ethertype Unknown (0xce5f), length 14: 
	0x0000:  c400 7400 723a cb64 39ad 3e0d ce5f
07:37:25.919015 cb:64:39:ad:73:3a (oui Unknown) > b4:00:14:01:72:3a (oui Unknown), ethertype Unknown (0xcb64), length 20: 
	0x0000:  b400 1401 723a cb64 39ad 733a cb64 517d
	0x0010:  e5a2 dc0d
07:37:25.919107 cb:64:51:7d:86:cc (oui Unknown) > c4:00:d8:00:72:3a (oui Unknown), ethertype Unknown (0xdb89), length 14: 
	0x0000:  c400 d800 723a cb64 517d 86cc db89
07:37:25.919217 cb:64:51:7d:72:3a (oui Unknown) > 94:00:00:00:72:3a (oui Unknown), ethertype Unknown (0xcb64), length 32: 
	0x0000:  9400 0000 723a cb64 517d 723a cb64 39ad
	0x0010:  0400 20f0 ffff ffff ffff ffbf 1361 c7c2
07:37:25.919314 cb:64:51:7d:2f:a1 (oui Unknown) > c4:00:00:00:72:3a (oui Unknown), ethertype Unknown (0x235c), length 14: 
	0x0000:  c400 0000 723a cb64 517d 2fa1 235c
07:37:25.919779 cb:64:51:7d:72:3a (oui Unknown) > 94:00:00:00:72:3a (oui Unknown), ethertype Unknown (0xcb64), length 32: 
	0x0000:  9400 0000 723a cb64 517d 723a cb64 39ad
	0x0010:  0400 20f0 ffff ffff ffff ffff 8320 1bb4
07:37:25.919883 cb:64:51:7d:2f:a1 (oui Unknown) > c4:00:00:00:72:3a (oui Unknown), ethertype Unknown (0x235c), length 14: 
	0x0000:  c400 0000 723a cb64 517d 2fa1 235c
07:37:25.919993 cb:64:51:7d:73:3a (oui Unknown) > b4:00:b8:00:72:3a (oui Unknown), ethertype Unknown (0xcb64), length 20: 
	0x0000:  b400 b800 723a cb64 517d 733a cb64 39ad
	0x0010:  47f6 9237
07:37:25.920083 cb:64:39:ad:8b:16 (oui Unknown) > c4:00:7c:00:72:3a (oui Unknown), ethertype Unknown (0x2b8c), length 14: 
	0x0000:  c400 7c00 723a cb64 39ad 8b16 2b8c
07:37:25.920193 cb:64:51:7d:73:3a (oui Unknown) > b4:00:b8:00:72:3a (oui Unknown), ethertype Unknown (0xcb64), length 20: 
	0x0000:  b400 b800 723a cb64 517d 733a cb64 39ad
	0x0010:  47f6 9237
07:37:25.920283 cb:64:39:ad:8b:16 (oui Unknown) > c4:00:7c:00:72:3a (oui Unknown), ethertype Unknown (0x2b8c), length 14: 
	0x0000:  c400 7c00 723a cb64 39ad 8b16 2b8c
07:37:25.920392 cb:64:52:59:73:3a (oui Unknown) > b4:00:bc:00:72:3a (oui Unknown), ethertype Unknown (0xcb64), length 20: 
	0x0000:  b400 bc00 723a cb64 5259 733a cb64 517d
	0x0010:  4b50 b4b0
07:37:25.920482 cb:64:51:7d:f5:24 (oui Unknown) > c4:00:80:00:72:3a (oui Unknown), ethertype Unknown (0x180f), length 14: 
	0x0000:  c400 8000 723a cb64 517d f524 180f
07:37:25.920592 cb:64:51:7d:72:3a (oui Unknown) > 94:00:00:00:72:3a (oui Unknown), ethertype Unknown (0xcb64), length 32: 
	0x0000:  9400 0000 723a cb64 517d 723a cb64 5259
	0x0010:  0400 2027 ffff ffff ffff ffff b28b bfdd
07:37:25.920819 20:59:4d:63:71:3a (oui Unknown) > b4:00:64:01:48:45 (oui Unknown), ethertype Unknown (0xcb64), length 20: 
	0x0000:  b400 6401 4845 2059 4d63 713a cb64 39af
	0x0010:  1330 0258
07:37:25.921301 cb:64:39:ad:73:3a (oui Unknown) > b4:00:fc:00:72:3a (oui Unknown), ethertype Unknown (0xcb64), length 20: 
	0x0000:  b400 fc00 723a cb64 39ad 733a cb64 517d
	0x0010:  9d05 bdec
07:37:25.921394 cb:64:51:7d:18:e6 (oui Unknown) > c4:00:c0:00:72:3a (oui Unknown), ethertype Unknown (0x8526), length 14: 
	0x0000:  c400 c000 723a cb64 517d 18e6 8526
07:37:25.921719 20:59:4d:63:71:3a (oui Unknown) > b4:00:f0:00:48:45 (oui Unknown), ethertype Unknown (0xcb64), length 20: 
	0x0000:  b400 f000 4845 2059 4d63 713a cb64 39af
	0x0010:  03b5 f979
07:37:25.921820 20:59:4d:63:d6:a3 (oui Unknown) > d4:00:00:00:48:45 (oui Unknown), ethertype Unknown (0x5b94), length 14: 
	0x0000:  d400 0000 4845 2059 4d63 d6a3 5b94
07:37:25.922592 cb:64:51:7d:73:3a (oui Unknown) > b4:00:b0:00:72:3a (oui Unknown), ethertype Unknown (0xcb64), length 20: 
	0x0000:  b400 b000 723a cb64 517d 733a cb64 39ad
	0x0010:  71e8 cb04
07:37:25.922684 cb:64:39:ad:3e:0d (oui Unknown) > c4:00:74:00:72:3a (oui Unknown), ethertype Unknown (0xce5f), length 14: 
	0x0000:  c400 7400 723a cb64 39ad 3e0d ce5f
07:37:25.922794 cb:64:39:ad:72:3a (oui Unknown) > 94:00:00:00:72:3a (oui Unknown), ethertype Unknown (0xcb64), length 32: 
	0x0000:  9400 0000 723a cb64 39ad 723a cb64 517d
	0x0010:  0400 2035 ffff ffff ffff ffff 20cc ab26
07:37:25.922915 cb:64:52:59:98:01 (oui Unknown) > 94:00:00:00:70:3a (oui Unknown), ethertype Unknown (0xa75f), length 32: 
	0x0000:  9400 0000 703a cb64 5259 9801 a75f 3a8d
	0x0010:  0500 d0f7 0100 0000 0000 0000 e914 53fe
07:37:25.923418 cb:64:39:ad:73:3a (oui Unknown) > b4:00:64:01:72:3a (oui Unknown), ethertype Unknown (0xcb64), length 20: 
	0x0000:  b400 6401 723a cb64 39ad 733a cb64 517d
	0x0010:  a011 b3e7
07:37:25.923508 cb:64:51:7d:78:d3 (oui Unknown) > c4:00:28:01:72:3a (oui Unknown), ethertype Unknown (0xc7d0), length 14: 
	0x0000:  c400 2801 723a cb64 517d 78d3 c7d0
