06:09:48.941524 ff:ff:ff:ff:d8:0d (oui Unknown) > 80:00:00:00:ff:ff (oui Unknown), ethertype Unknown (0x1772), length 256: 
	0x0000:  8000 0000 ffff ffff ffff d80d 1772 583a
	0x0010:  d80d 1772 583a 5001 5400 1405 0000 0000
	0x0020:  6400 1110 000f 5450 2d4c 696e 6b5f 3538
	0x0030:  3343 5f35 4701 088c 1298 24b0 4860 6c05
	0x0040:  0400 0100 0030 1401 0000 0fac 0401 0000
	0x0050:  0fac 0401 0000 0fac 020c 0046 0532 0801
	0x0060:  0000 2d1a ad09 17ff ff00 0000 0000 0000
	0x0070:  0000 0000 0000 0000 0000 0000 0000 3d16
	0x0080:  a508 0400 0000 0000 0000 0000 0000 0000
	0x0090:  0000 0000 0000 7f08 0400 0000 0000 0040
	0x00a0:  bf0c b201 8003 faff 0000 faff 0000 c005
	0x00b0:  00a5 0000 00c3 0200 0edd 1c00 50f2 0410
	0x00c0:  4a00 0110 1044 0001 0210 4900 0a00 372a
	0x00d0:  0001 2005 0226 88dd 0900 1018 0201 001c
	0x00e0:  0000 dd18 0050 f202 0101 8800 03a4 0000
	0x00f0:  27a4 0000 4243 5e00 6232 2f00 ebd2 05f5
06:09:49.045902 17:72:58:3a:a0:99 (oui Unknown) > b4:00:9e:00:d8:0d (oui Unknown), ethertype Unknown (0x9b08), length 20: 
	0x0000:  b400 9e00 d80d 1772 583a a099 9b08 3c33
	0x0010:  083f 9dd6
06:09:49.045949 9b:08:3c:33:3b:2b (oui Unknown) > c4:00:72:00:a0:99 (oui Unknown), ethertype Unknown (0xd011), length 14: 
	0x0000:  c400 7200 a099 9b08 3c33 3b2b d011
06:09:49.046014 9b:08:3c:33:d8:0d (oui Unknown) > 94:00:00:00:a0:99 (oui Unknown), ethertype Unknown (0x1772), length 32: 
	0x0000:  9400 0000 a099 9b08 3c33 d80d 1772 583a
	0x0010:  0500 4005 0100 0000 0000 0000 3b4f f4ba
06:09:49.046086 ff:ff:ff:ff:d8:0d (oui Unknown) > 08:42:00:00:ff:ff (oui Unknown), ethertype Unknown (0x1772), length 130: 
	0x0000:  0842 0000 ffff ffff ffff d80d 1772 583a
	0x0010:  a099 9b08 3c33 6001 6400 0060 0000 0000
	0x0020:  6a4a f7ca 646b ce69 61ec 4e8a 43e9 97ec
	0x0030:  3ee9 a9a2 d5bf e36f 2d7c a164 d1ee bcb7
	0x0040:  cb59 883a 9d29 4c64 035f ee02 5c90 333e
	0x0050:  b733 0063 2c07 0178 392b 697d 28a2 110f
	0x0060:  be93 e940 38b6 156a 1b16 cd1c 6664 c6bc
	0x0070:  4e7d 2ea8 0908 ea88 7ee0 a72a a87e dd4f
	0x0080:  cf59
06:09:49.046156 ff:ff:ff:ff:d8:0d (oui Unknown) > 80:00:00:00:ff:ff (oui Unknown), ethertype Unknown (0x1772), length 256: 
	0x0000:  8000 0000 ffff ffff ffff d80d 1772 583a
	0x0010:  d80d 1772 583a 7001 4690 1505 0000 0000
	0x0020:  6400 1110 000f 5450 2d4c 696e 6b5f 3538
	0x0030:  3343 5f35 4701 088c 1298 24b0 4860 6c05
	0x0040:  0400 0100 0030 1401 0000 0fac 0401 0000
	0x0050:  0fac 0401 0000 0fac 020c 0046 0532 0801
	0x0060:  0000 2d1a ad09 17ff ff00 0000 0000 0000
	0x0070:  0000 0000 0000 0000 0000 0000 0000 3d16
	0x0080:  a508 0400 0000 0000 0000 0000 0000 0000
	0x0090:  0000 0000 0000 7f08 0400 0000 0000 0040
	0x00a0:  bf0c b201 8003 faff 0000 faff 0000 c005
	0x00b0:  00a5 0000 00c3 0200 0edd 1c00 50f2 0410
	0x00c0:  4a00 0110 1044 0001 0210 4900 0a00 372a
	0x00d0:  0001 2005 0226 88dd 0900 1018 0201 001c
	0x00e0:  0000 dd18 0050 f202 0101 8800 03a4 0000
	0x00f0:  27a4 0000 4243 5e00 6232 2f00 17a6 4287
06:09:49.062032 ff:ff:ff:ff:d8:0d (oui Unknown) > 08:42:00:00:ff:ff (oui Unknown), ethertype Unknown (0x1772), length 253: 
	0x0000:  0842 0000 ffff ffff ffff d80d 1772 583a
	0x0010:  d80d 1772 583c 8001 6500 0060 0000 0000
	0x0020:  e721 61e6 8719 fb4e 5801 8acf 6e36 36db
	0x0030:  ee8b 99dc cd19 69c2 ea8e a01c d6c8 9fc6
	0x0040:  29b3 6182 a649 748d be94 e224 f025 2453
	0x0050:  640b 11b8 15c2 3e15 a31b 8fe4 e748 706e
	0x0060:  c184 f08e 7f7d a87b 5412 06e4 12ac 72b2
	0x0070:  d3cb cf46 14cf b001 a799 03cc 4129 9d7f
	0x0080:  597b 0995 07a3 341b 86ee e891 0d8e 46d7
	0x0090:  f525 6d33 7033 f598 3216 b1d3 33c5 870c
	0x00a0:  a339 03b7 2946 03ab b88a 4e98 cff9 2da2
	0x00b0:  7564 fc8e 31cf 0366 20e5 2690 2543 9f35
	0x00c0:  9c55 f65c 95d3 7b0f ce72 c606 f822 b3f0
	0x00d0:  5142 3434 198f 9df9 9458 5351 79f1 c423
	0x00e0:  2734 aedd a657 16db e04d a181 82df 9960
	0x00f0:  d7c9 69ea 9d83 1ed3 cf88 7e3c cd
06:09:49.077405 17:72:58:3a:a0:99 (oui Unknown) > b4:00:9e:00:d8:0d (oui Unknown), ethertype Unknown (0x9b08), length 20: 
	0x0000:  b400 9e00 d80d 1772 583a a099 9b08 3c33
	0x0010:  083f 9dd6
06:09:49.077451 9b:08:3c:33:3b:2b (oui Unknown) > c4:00:72:00:a0:99 (oui Unknown), ethertype Unknown (0xd011), length 14: 
	0x0000:  c400 7200 a099 9b08 3c33 3b2b d011
06:09:49.077515 9b:08:3c:33:d8:0d (oui Unknown) > 94:00:00:00:a0:99 (oui Unknown), ethertype Unknown (0x1772), length 32: 
	0x0000:  9400 0000 a099 9b08 3c33 d80d 1772 583a
	0x0010:  0560 e009 0100 0000 0000 0000 c620 4ca5
06:09:49.078048 9b:08:3c:33:d8:0d (oui Unknown) > b4:00:9e:00:a0:99 (oui Unknown), ethertype Unknown (0x1772), length 20: 
	0x0000:  b400 9e00 a099 9b08 3c33 d80d 1772 583a
	0x0010:  fcfd cb80
06:09:49.078092 17:72:58:3a:45:d7 (oui Unknown) > c4:00:72:00:d8:0d (oui Unknown), ethertype Unknown (0x8354), length 14: 
	0x0000:  c400 7200 d80d 1772 583a 45d7 8354
06:09:49.078158 17:72:58:3a:a0:99 (oui Unknown) > 94:00:00:00:d8:0d (oui Unknown), ethertype Unknown (0x9b08), length 32: 
	0x0000:  9400 0000 d80d 1772 583a a099 9b08 3c33
	0x0010:  0560 c004 0100 0000 0000 0000 684a 5210
06:09:49.151343 ff:ff:ff:ff:d8:0d (oui Unknown) > 80:00:00:00:ff:ff (oui Unknown), ethertype Unknown (0x1772), length 256: 
	0x0000:  8000 0000 ffff ffff ffff d80d 1772 583a
	0x0010:  d80d 1772 583a 9001 3e20 1705 0000 0000
	0x0020:  6400 1110 000f 5450 2d4c 696e 6b5f 3538
	0x0030:  3343 5f35 4701 088c 1298 24b0 4860 6c05
	0x0040:  0400 0100 0030 1401 0000 0fac 0401 0000
	0x0050:  0fac 0401 0000 0fac 020c 0046 0532 0801
	0x0060:  0000 2d1a ad09 17ff ff00 0000 0000 0000
	0x0070:  0000 0000 0000 0000 0000 0000 0000 3d16
	0x0080:  a508 0400 0000 0000 0000 0000 0000 0000
	0x0090:  0000 0000 0000 7f08 0400 0000 0000 0040
	0x00a0:  bf0c b201 8003 faff 0000 faff 0000 c005
	0x00b0:  00a5 0000 00c3 0200 0edd 1c00 50f2 0410
	0x00c0:  4a00 0110 1044 0001 0210 4900 0a00 372a
	0x00d0:  0001 2005 0226 88dd 0900 1018 0201 001c
	0x00e0:  0000 dd18 0050 f202 0101 8800 03a4 0000
	0x00f0:  27a4 0000 4243 5e00 6232 2f00 dc1f 83aa
06:09:49.253738 ff:ff:ff:ff:d8:0d (oui Unknown) > 80:00:00:00:ff:ff (oui Unknown), ethertype Unknown (0x1772), length 256: 
	0x0000:  8000 0000 ffff ffff ffff d80d 1772 583a
	0x0010:  d80d 1772 583a a001 4eb0 1805 0000 0000
	0x0020:  6400 1110 000f 5450 2d4c 696e 6b5f 3538
	0x0030:  3343 5f35 4701 088c 1298 24b0 4860 6c05
	0x0040:  0400 0100 0030 1401 0000 0fac 0401 0000
	0x0050:  0fac 0401 0000 0fac 020c 0046 0532 0801
	0x0060:  0000 2d1a ad09 17ff ff00 0000 0000 0000
	0x0070:  0000 0000 0000 0000 0000 0000 0000 3d16
	0x0080:  a508 0400 0000 0000 0000 0000 0000 0000
	0x0090:  0000 0000 0000 7f08 0400 0000 0000 0040
	0x00a0:  bf0c b201 8003 faff 0000 faff 0000 c005
	0x00b0:  00a5 0000 00c3 0200 0edd 1c00 50f2 0410
	0x00c0:  4a00 0110 1044 0001 0210 4900 0a00 372a
	0x00d0:  0001 2005 0226 88dd 0900 1018 0201 001c
	0x00e0:  0000 dd18 0050 f202 0101 8800 03a4 0000
	0x00f0:  27a4 0000 4243 5e00 6232 2f00 583f c175
06:09:49.285944 17:72:58:3a:a0:99 (oui Unknown) > c8:11:2c:00:d8:0d (oui Unknown), ethertype Unknown (0x9b08), length 30: 
	0x0000:  c811 2c00 d80d 1772 583a a099 9b08 3c33
	0x0010:  d80d 1772 583a 50a0 0600 3786 63f4
06:09:49.285987 9b:08:3c:33:3e:3c (oui Unknown) > d4:00:00:00:a0:99 (oui Unknown), ethertype Unknown (0x0bd8), length 14: 
	0x0000:  d400 0000 a099 9b08 3c33 3e3c 0bd8
06:09:49.356107 ff:ff:ff:ff:d8:0d (oui Unknown) > 80:00:00:00:ff:ff (oui Unknown), ethertype Unknown (0x1772), length 256: 
	0x0000:  8000 0000 ffff ffff ffff d80d 1772 583a
	0x0010:  d80d 1772 583a b001 4540 1a05 0000 0000
	0x0020:  6400 1110 000f 5450 2d4c 696e 6b5f 3538
	0x0030:  3343 5f35 4701 088c 1298 24b0 4860 6c05
	0x0040:  0400 0100 0030 1401 0000 0fac 0401 0000
	0x0050:  0fac 0401 0000 0fac 020c 0046 0532 0801
	0x0060:  0000 2d1a ad09 17ff ff00 0000 0000 0000
	0x0070:  0000 0000 0000 0000 0000 0000 0000 3d16
	0x0080:  a508 0400 0000 0000 0000 0000 0000 0000
	0x0090:  0000 0000 0000 7f08 0400 0000 0000 0040
	0x00a0:  bf0c b201 8003 faff 0000 faff 0000 c005
	0x00b0:  00a5 0000 00c3 0200 0edd 1c00 50f2 0410
	0x00c0:  4a00 0110 1044 0001 0210 4900 0a00 372a
	0x00d0:  0001 2005 0226 88dd 0900 1018 0201 001c
	0x00e0:  0000 dd18 0050 f202 0101 8800 03a4 0000
	0x00f0:  27a4 0000 4243 5e00 6232 2f00 931d e0f2
06:09:49.458521 ff:ff:ff:ff:d8:0d (oui Unknown) > 80:00:00:00:ff:ff (oui Unknown), ethertype Unknown (0x1772), length 256: 
	0x0000:  8000 0000 ffff ffff ffff d80d 1772 583a
	0x0010:  d80d 1772 583a c001 43d0 1b05 0000 0000
	0x0020:  6400 1110 000f 5450 2d4c 696e 6b5f 3538
	0x0030:  3343 5f35 4701 088c 1298 24b0 4860 6c05
	0x0040:  0400 0100 0030 1401 0000 0fac 0401 0000
	0x0050:  0fac 0401 0000 0fac 020c 0046 0532 0801
	0x0060:  0000 2d1a ad09 17ff ff00 0000 0000 0000
	0x0070:  0000 0000 0000 0000 0000 0000 0000 3d16
	0x0080:  a508 0400 0000 0000 0000 0000 0000 0000
	0x0090:  0000 0000 0000 7f08 0400 0000 0000 0040
	0x00a0:  bf0c b201 8003 faff 0000 faff 0000 c005
	0x00b0:  00a5 0000 00c3 0200 0edd 1c00 50f2 0410
	0x00c0:  4a00 0110 1044 0001 0210 4900 0a00 372a
	0x00d0:  0001 2005 0226 88dd 0900 1018 0201 001c
	0x00e0:  0000 dd18 0050 f202 0101 8800 03a4 0000
	0x00f0:  27a4 0000 4243 5e00 6232 2f00 e7d4 c5f3
06:09:49.560946 ff:ff:ff:ff:d8:0d (oui Unknown) > 80:00:00:00:ff:ff (oui Unknown), ethertype Unknown (0x1772), length 256: 
	0x0000:  8000 0000 ffff ffff ffff d80d 1772 583a
	0x0010:  d80d 1772 583a d001 4860 1d05 0000 0000
	0x0020:  6400 1110 000f 5450 2d4c 696e 6b5f 3538
	0x0030:  3343 5f35 4701 088c 1298 24b0 4860 6c05
	0x0040:  0400 0100 0030 1401 0000 0fac 0401 0000
	0x0050:  0fac 0401 0000 0fac 020c 0046 0532 0801
	0x0060:  0000 2d1a ad09 17ff ff00 0000 0000 0000
	0x0070:  0000 0000 0000 0000 0000 0000 0000 3d16
	0x0080:  a508 0400 0000 0000 0000 0000 0000 0000
	0x0090:  0000 0000 0000 7f08 0400 0000 0000 0040
	0x00a0:  bf0c b201 8003 faff 0000 faff 0000 c005
	0x00b0:  00a5 0000 00c3 0200 0edd 1c00 50f2 0410
	0x00c0:  4a00 0110 1044 0001 0210 4900 0a00 372a
	0x00d0:  0001 2005 0226 88dd 0900 1018 0201 001c
	0x00e0:  0000 dd18 0050 f202 0101 8800 03a4 0000
	0x00f0:  27a4 0000 4243 5e00 6232 2f00 d673 4295
06:09:49.663318 ff:ff:ff:ff:d8:0d (oui Unknown) > 80:00:00:00:ff:ff (oui Unknown), ethertype Unknown (0x1772), length 256: 
	0x0000:  8000 0000 ffff ffff ffff d80d 1772 583a
	0x0010:  d80d 1772 583a e001 3ef0 1e05 0000 0000
	0x0020:  6400 1110 000f 5450 2d4c 696e 6b5f 3538
	0x0030:  3343 5f35 4701 088c 1298 24b0 4860 6c05
	0x0040:  0400 0100 0030 1401 0000 0fac 0401 0000
	0x0050:  0fac 0401 0000 0fac 020c 0046 0532 0801
	0x0060:  0000 2d1a ad09 17ff ff00 0000 0000 0000
	0x0070:  0000 0000 0000 0000 0000 0000 0000 3d16
	0x0080:  a508 0400 0000 0000 0000 0000 0000 0000
	0x0090:  0000 0000 0000 7f08 0400 0000 0000 0040
	0x00a0:  bf0c b201 8003 faff 0000 faff 0000 c005
	0x00b0:  00a5 0000 00c3 0200 0edd 1c00 50f2 0410
	0x00c0:  4a00 0110 1044 0001 0210 4900 0a00 372a
	0x00d0:  0001 2005 0226 88dd 0900 1018 0201 001c
	0x00e0:  0000 dd18 0050 f202 0101 8800 03a4 0000
	0x00f0:  27a4 0000 4243 5e00 6232 2f00 2fb7 6e7c
06:09:49.765718 ff:ff:ff:ff:d8:0d (oui Unknown) > 80:00:00:00:ff:ff (oui Unknown), ethertype Unknown (0x1772), length 256: 
	0x0000:  8000 0000 ffff ffff ffff d80d 1772 583a
	0x0010:  d80d 1772 583a f001 5080 2005 0000 0000
	0x0020:  6400 1110 000f 5450 2d4c 696e 6b5f 3538
	0x0030:  3343 5f35 4701 088c 1298 24b0 4860 6c05
	0x0040:  0400 0100 0030 1401 0000 0fac 0401 0000
	0x0050:  0fac 0401 0000 0fac 020c 0046 0532 0801
	0x0060:  0000 2d1a ad09 17ff ff00 0000 0000 0000
	0x0070:  0000 0000 0000 0000 0000 0000 0000 3d16
	0x0080:  a508 0400 0000 0000 0000 0000 0000 0000
	0x0090:  0000 0000 0000 7f08 0400 0000 0000 0040
	0x00a0:  bf0c b201 8003 faff 0000 faff 0000 c005
	0x00b0:  00a5 0000 00c3 0200 0edd 1c00 50f2 0410
	0x00c0:  4a00 0110 1044 0001 0210 4900 0a00 372a
	0x00d0:  0001 2005 0226 88dd 0900 1018 0201 001c
	0x00e0:  0000 dd18 0050 f202 0101 8800 03a4 0000
	0x00f0:  27a4 0000 4243 5e00 6232 2f00 b8c2 c354
06:09:49.796967 17:72:58:3a:a0:99 (oui Unknown) > b4:00:9e:00:d8:0d (oui Unknown), ethertype Unknown (0x9b08), length 20: 
	0x0000:  b400 9e00 d80d 1772 583a a099 9b08 3c33
	0x0010:  083f 9dd6
06:09:49.797010 9b:08:3c:33:3b:2b (oui Unknown) > c4:00:72:00:a0:99 (oui Unknown), ethertype Unknown (0xd011), length 14: 
	0x0000:  c400 7200 a099 9b08 3c33 3b2b d011
06:09:49.797028 9b:08:3c:33:d8:0d (oui Unknown) > 94:00:00:00:a0:99 (oui Unknown), ethertype Unknown (0x1772), length 32: 
	0x0000:  9400 0000 a099 9b08 3c33 d80d 1772 583a
	0x0010:  0560 f009 0100 0000 0000 0000 2ea1 e282
06:09:49.797042 17:72:58:3a:a0:99 (oui Unknown) > c8:01:2c:00:d8:0d (oui Unknown), ethertype Unknown (0x9b08), length 30: 
	0x0000:  c801 2c00 d80d 1772 583a a099 9b08 3c33
	0x0010:  d80d 1772 583a 60a0 0600 f859 5f5c
06:09:49.797056 9b:08:3c:33:3e:3c (oui Unknown) > d4:00:00:00:a0:99 (oui Unknown), ethertype Unknown (0x0bd8), length 14: 
	0x0000:  d400 0000 a099 9b08 3c33 3e3c 0bd8
06:09:49.868078 ff:ff:ff:ff:d8:0d (oui Unknown) > 80:00:00:00:ff:ff (oui Unknown), ethertype Unknown (0x1772), length 256: 
	0x0000:  8000 0000 ffff ffff ffff d80d 1772 583a
	0x0010:  d80d 1772 583a 0002 4a10 2205 0000 0000
	0x0020:  6400 1110 000f 5450 2d4c 696e 6b5f 3538
	0x0030:  3343 5f35 4701 088c 1298 24b0 4860 6c05
	0x0040:  0400 0100 0030 1401 0000 0fac 0401 0000
	0x0050:  0fac 0401 0000 0fac 020c 0046 0532 0801
	0x0060:  0000 2d1a ad09 17ff ff00 0000 0000 0000
	0x0070:  0000 0000 0000 0000 0000 0000 0000 3d16
	0x0080:  a508 0400 0000 0000 0000 0000 0000 0000
	0x0090:  0000 0000 0000 7f08 0400 0000 0000 0040
	0x00a0:  bf0c b201 8003 faff 0000 faff 0000 c005
	0x00b0:  00a5 0000 00c3 0200 0edd 1c00 50f2 0410
	0x00c0:  4a00 0110 1044 0001 0210 4900 0a00 372a
	0x00d0:  0001 2005 0226 88dd 0900 1018 0201 001c
	0x00e0:  0000 dd18 0050 f202 0101 8800 03a4 0000
	0x00f0:  27a4 0000 4243 5e00 6232 2f00 ebc4 8589
06:09:49.931897 17:72:58:3a:a0:99 (oui Unknown) > b4:00:9e:00:d8:0d (oui Unknown), ethertype Unknown (0x9b08), length 20: 
	0x0000:  b400 9e00 d80d 1772 583a a099 9b08 3c33
	0x0010:  083f 9dd6
06:09:49.931946 9b:08:3c:33:3b:2b (oui Unknown) > c4:00:72:00:a0:99 (oui Unknown), ethertype Unknown (0xd011), length 14: 
	0x0000:  c400 7200 a099 9b08 3c33 3b2b d011
06:09:49.931964 9b:08:3c:33:d8:0d (oui Unknown) > 94:00:00:00:a0:99 (oui Unknown), ethertype Unknown (0x1772), length 32: 
	0x0000:  9400 0000 a099 9b08 3c33 d80d 1772 583a
	0x0010:  0560 000a 0100 0000 0000 0000 7211 23ab
06:09:49.931979 9b:08:3c:33:d8:0d (oui Unknown) > b4:00:9e:00:a0:99 (oui Unknown), ethertype Unknown (0x1772), length 20: 
	0x0000:  b400 9e00 a099 9b08 3c33 d80d 1772 583a
	0x0010:  fcfd cb80
06:09:49.931993 17:72:58:3a:45:d7 (oui Unknown) > c4:00:72:00:d8:0d (oui Unknown), ethertype Unknown (0x8354), length 14: 
	0x0000:  c400 7200 d80d 1772 583a 45d7 8354
06:09:49.932007 17:72:58:3a:a0:99 (oui Unknown) > 94:00:00:00:d8:0d (oui Unknown), ethertype Unknown (0x9b08), length 32: 
	0x0000:  9400 0000 d80d 1772 583a a099 9b08 3c33
	0x0010:  0560 d004 0100 0000 0000 0000 80cb fc37
06:09:49.966117 ff:ff:ff:ff:d8:0d (oui Unknown) > 80:00:00:00:ff:ff (oui Unknown), ethertype Unknown (0x1772), length 256: 
	0x0000:  8000 0000 ffff ffff ffff d80d 1772 583a
	0x0010:  d80d 1772 583a 1002 48a0 2305 0000 0000
	0x0020:  6400 1110 000f 5450 2d4c 696e 6b5f 3538
	0x0030:  3343 5f35 4701 088c 1298 24b0 4860 6c05
	0x0040:  0400 0100 0030 1401 0000 0fac 0401 0000
	0x0050:  0fac 0401 0000 0fac 020c 0046 0532 0801
	0x0060:  0000 2d1a ad09 17ff ff00 0000 0000 0000
	0x0070:  0000 0000 0000 0000 0000 0000 0000 3d16
	0x0080:  a508 0400 0000 0000 0000 0000 0000 0000
	0x0090:  0000 0000 0000 7f08 0400 0000 0000 0040
	0x00a0:  bf0c b201 8003 faff 0000 faff 0000 c005
	0x00b0:  00a5 0000 00c3 0200 0edd 1c00 50f2 0410
	0x00c0:  4a00 0110 1044 0001 0210 4900 0a00 372a
	0x00d0:  0001 2005 0226 88dd 0900 1018 0201 001c
	0x00e0:  0000 dd18 0050 f202 0101 8800 03a4 0000
	0x00f0:  27a4 0000 4243 5e00 6232 2f00 14c4 2512
06:09:50.072929 ff:ff:ff:ff:d8:0d (oui Unknown) > 80:00:00:00:ff:ff (oui Unknown), ethertype Unknown (0x1772), length 256: 
	0x0000:  8000 0000 ffff ffff ffff d80d 1772 583a
	0x0010:  d80d 1772 583a 2002 4a30 2505 0000 0000
	0x0020:  6400 1110 000f 5450 2d4c 696e 6b5f 3538
	0x0030:  3343 5f35 4701 088c 1298 24b0 4860 6c05
	0x0040:  0400 0100 0030 1401 0000 0fac 0401 0000
	0x0050:  0fac 0401 0000 0fac 020c 0046 0532 0801
	0x0060:  0000 2d1a ad09 17ff ff00 0000 0000 0000
	0x0070:  0000 0000 0000 0000 0000 0000 0000 3d16
	0x0080:  a508 0400 0000 0000 0000 0000 0000 0000
	0x0090:  0000 0000 0000 7f08 0400 0000 0000 0040
	0x00a0:  bf0c b201 8003 faff 0000 faff 0000 c005
	0x00b0:  00a5 0000 00c3 0200 0edd 1c00 50f2 0410
	0x00c0:  4a00 0110 1044 0001 0210 4900 0a00 372a
	0x00d0:  0001 2005 0226 88dd 0900 1018 0201 001c
	0x00e0:  0000 dd18 0050 f202 0101 8800 03a4 0000
	0x00f0:  27a4 0000 4243 5e00 6232 2f00 bd3e 4fd4
06:09:50.138137 17:72:58:3a:a0:99 (oui Unknown) > c8:11:2c:00:d8:0d (oui Unknown), ethertype Unknown (0x9b08), length 30: 
	0x0000:  c811 2c00 d80d 1772 583a a099 9b08 3c33
	0x0010:  d80d 1772 583a 70a0 0600 0929 5154
06:09:50.138181 9b:08:3c:33:3e:3c (oui Unknown) > d4:00:00:00:a0:99 (oui Unknown), ethertype Unknown (0x0bd8), length 14: 
	0x0000:  d400 0000 a099 9b08 3c33 3e3c 0bd8
06:09:50.170903 ff:ff:ff:ff:d8:0d (oui Unknown) > 80:00:00:00:ff:ff (oui Unknown), ethertype Unknown (0x1772), length 256: 
	0x0000:  8000 0000 ffff ffff ffff d80d 1772 583a
	0x0010:  d80d 1772 583a 3002 41c0 2605 0000 0000
	0x0020:  6400 1110 000f 5450 2d4c 696e 6b5f 3538
	0x0030:  3343 5f35 4701 088c 1298 24b0 4860 6c05
	0x0040:  0400 0100 0030 1401 0000 0fac 0401 0000
	0x0050:  0fac 0401 0000 0fac 020c 0046 0532 0801
	0x0060:  0000 2d1a ad09 17ff ff00 0000 0000 0000
	0x0070:  0000 0000 0000 0000 0000 0000 0000 3d16
	0x0080:  a508 0400 0000 0000 0000 0000 0000 0000
	0x0090:  0000 0000 0000 7f08 0400 0000 0000 0040
	0x00a0:  bf0c b201 8003 faff 0000 faff 0000 c005
	0x00b0:  00a5 0000 00c3 0200 0edd 1c00 50f2 0410
	0x00c0:  4a00 0110 1044 0001 0210 4900 0a00 372a
	0x00d0:  0001 2005 0226 88dd 0900 1018 0201 001c
	0x00e0:  0000 dd18 0050 f202 0101 8800 03a4 0000
	0x00f0:  27a4 0000 4243 5e00 6232 2f00 a985 ea3d
06:09:50.277708 ff:ff:ff:ff:d8:0d (oui Unknown) > 80:00:00:00:ff:ff (oui Unknown), ethertype Unknown (0x1772), length 256: 
	0x0000:  8000 0000 ffff ffff ffff d80d 1772 583a
	0x0010:  d80d 1772 583a 4002 4e50 2805 0000 0000
	0x0020:  6400 1110 000f 5450 2d4c 696e 6b5f 3538
	0x0030:  3343 5f35 4701 088c 1298 24b0 4860 6c05
	0x0040:  0400 0100 0030 1401 0000 0fac 0401 0000
	0x0050:  0fac 0401 0000 0fac 020c 0046 0532 0801
	0x0060:  0000 2d1a ad09 17ff ff00 0000 0000 0000
	0x0070:  0000 0000 0000 0000 0000 0000 0000 3d16
	0x0080:  a508 0400 0000 0000 0000 0000 0000 0000
	0x0090:  0000 0000 0000 7f08 0400 0000 0000 0040
	0x00a0:  bf0c b201 8003 faff 0000 faff 0000 c005
	0x00b0:  00a5 0000 00c3 0200 0edd 1c00 50f2 0410
	0x00c0:  4a00 0110 1044 0001 0210 4900 0a00 372a
	0x00d0:  0001 2005 0226 88dd 0900 1018 0201 001c
	0x00e0:  0000 dd18 0050 f202 0101 8800 03a4 0000
	0x00f0:  27a4 0000 4243 5e00 6232 2f00 6929 2e03
06:09:50.380125 ff:ff:ff:ff:d8:0d (oui Unknown) > 80:00:00:00:ff:ff (oui Unknown), ethertype Unknown (0x1772), length 256: 
	0x0000:  8000 0000 ffff ffff ffff d80d 1772 583a
	0x0010:  d80d 1772 583a 5002 4fe0 2905 0000 0000
	0x0020:  6400 1110 000f 5450 2d4c 696e 6b5f 3538
	0x0030:  3343 5f35 4701 088c 1298 24b0 4860 6c05
	0x0040:  0400 0100 0030 1401 0000 0fac 0401 0000
	0x0050:  0fac 0401 0000 0fac 020c 0046 0532 0801
	0x0060:  0000 2d1a ad09 17ff ff00 0000 0000 0000
	0x0070:  0000 0000 0000 0000 0000 0000 0000 3d16
	0x0080:  a508 0400 0000 0000 0000 0000 0000 0000
	0x0090:  0000 0000 0000 7f08 0400 0000 0000 0040
	0x00a0:  bf0c b201 8003 faff 0000 faff 0000 c005
	0x00b0:  00a5 0000 00c3 0200 0edd 1c00 50f2 0410
	0x00c0:  4a00 0110 1044 0001 0210 4900 0a00 372a
	0x00d0:  0001 2005 0226 88dd 0900 1018 0201 001c
	0x00e0:  0000 dd18 0050 f202 0101 8800 03a4 0000
	0x00f0:  27a4 0000 4243 5e00 6232 2f00 0b8a 6bd2
06:09:50.482502 ff:ff:ff:ff:d8:0d (oui Unknown) > 80:00:00:00:ff:ff (oui Unknown), ethertype Unknown (0x1772), length 256: 
	0x0000:  8000 0000 ffff ffff ffff d80d 1772 583a
	0x0010:  d80d 1772 583a 6002 3e70 2b05 0000 0000
	0x0020:  6400 1110 000f 5450 2d4c 696e 6b5f 3538
	0x0030:  3343 5f35 4701 088c 1298 24b0 4860 6c05
	0x0040:  0400 0100 0030 1401 0000 0fac 0401 0000
	0x0050:  0fac 0401 0000 0fac 020c 0046 0532 0801
	0x0060:  0000 2d1a ad09 17ff ff00 0000 0000 0000
	0x0070:  0000 0000 0000 0000 0000 0000 0000 3d16
	0x0080:  a508 0400 0000 0000 0000 0000 0000 0000
	0x0090:  0000 0000 0000 7f08 0400 0000 0000 0040
	0x00a0:  bf0c b201 8003 faff 0000 faff 0000 c005
	0x00b0:  00a5 0000 00c3 0200 0edd 1c00 50f2 0410
	0x00c0:  4a00 0110 1044 0001 0210 4900 0a00 372a
	0x00d0:  0001 2005 0226 88dd 0900 1018 0201 001c
	0x00e0:  0000 dd18 0050 f202 0101 8800 03a4 0000
	0x00f0:  27a4 0000 4243 5e00 6232 2f00 a30c 7b4f
06:09:50.584901 ff:ff:ff:ff:d8:0d (oui Unknown) > 80:00:00:00:ff:ff (oui Unknown), ethertype Unknown (0x1772), length 256: 
	0x0000:  8000 0000 ffff ffff ffff d80d 1772 583a
	0x0010:  d80d 1772 583a 7002 5500 2d05 0000 0000
	0x0020:  6400 1110 000f 5450 2d4c 696e 6b5f 3538
	0x0030:  3343 5f35 4701 088c 1298 24b0 4860 6c05
	0x0040:  0400 0100 0030 1401 0000 0fac 0401 0000
	0x0050:  0fac 0401 0000 0fac 020c 0046 0532 0801
	0x0060:  0000 2d1a ad09 17ff ff00 0000 0000 0000
	0x0070:  0000 0000 0000 0000 0000 0000 0000 3d16
	0x0080:  a508 0400 0000 0000 0000 0000 0000 0000
	0x0090:  0000 0000 0000 7f08 0400 0000 0000 0040
	0x00a0:  bf0c b201 8003 faff 0000 faff 0000 c005
	0x00b0:  00a5 0000 00c3 0200 0edd 1c00 50f2 0410
	0x00c0:  4a00 0110 1044 0001 0210 4900 0a00 372a
	0x00d0:  0001 2005 0226 88dd 0900 1018 0201 001c
	0x00e0:  0000 dd18 0050 f202 0101 8800 03a4 0000
	0x00f0:  27a4 0000 4243 5e00 6232 2f00 36d8 3b99
06:09:50.687497 ff:ff:ff:ff:d8:0d (oui Unknown) > 80:00:00:00:ff:ff (oui Unknown), ethertype Unknown (0x1772), length 256: 
	0x0000:  8000 0000 ffff ffff ffff d80d 1772 583a
	0x0010:  d80d 1772 583a 8002 4b90 2e05 0000 0000
	0x0020:  6400 1110 000f 5450 2d4c 696e 6b5f 3538
	0x0030:  3343 5f35 4701 088c 1298 24b0 4860 6c05
	0x0040:  0400 0100 0030 1401 0000 0fac 0401 0000
	0x0050:  0fac 0401 0000 0fac 020c 0046 0532 0801
	0x0060:  0000 2d1a ad09 17ff ff00 0000 0000 0000
	0x0070:  0000 0000 0000 0000 0000 0000 0000 3d16
	0x0080:  a508 0400 0000 0000 0000 0000 0000 0000
	0x0090:  0000 0000 0000 7f08 0400 0000 0000 0040
	0x00a0:  bf0c b201 8003 faff 0000 faff 0000 c005
	0x00b0:  00a5 0000 00c3 0200 0edd 1c00 50f2 0410
	0x00c0:  4a00 0110 1044 0001 0210 4900 0a00 372a
	0x00d0:  0001 2005 0226 88dd 0900 1018 0201 001c
	0x00e0:  0000 dd18 0050 f202 0101 8800 03a4 0000
	0x00f0:  27a4 0000 4243 5e00 6232 2f00 f335 50f4
06:09:50.789738 ff:ff:ff:ff:d8:0d (oui Unknown) > 80:00:00:00:ff:ff (oui Unknown), ethertype Unknown (0x1772), length 256: 
	0x0000:  8000 0000 ffff ffff ffff d80d 1772 583a
	0x0010:  d80d 1772 583a 9002 5220 3005 0000 0000
	0x0020:  6400 1110 000f 5450 2d4c 696e 6b5f 3538
	0x0030:  3343 5f35 4701 088c 1298 24b0 4860 6c05
	0x0040:  0400 0100 0030 1401 0000 0fac 0401 0000
	0x0050:  0fac 0401 0000 0fac 020c 0046 0532 0801
	0x0060:  0000 2d1a ad09 17ff ff00 0000 0000 0000
	0x0070:  0000 0000 0000 0000 0000 0000 0000 3d16
	0x0080:  a508 0400 0000 0000 0000 0000 0000 0000
	0x0090:  0000 0000 0000 7f08 0400 0000 0000 0040
	0x00a0:  bf0c b201 8003 faff 0000 faff 0000 c005
	0x00b0:  00a5 0000 00c3 0200 0edd 1c00 50f2 0410
	0x00c0:  4a00 0110 1044 0001 0210 4900 0a00 372a
	0x00d0:  0001 2005 0226 88dd 0900 1018 0201 001c
	0x00e0:  0000 dd18 0050 f202 0101 8800 03a4 0000
	0x00f0:  27a4 0000 4243 5e00 6232 2f00 290b 7f51
06:09:50.884701 17:72:58:3a:a0:99 (oui Unknown) > b4:00:9e:00:d8:0d (oui Unknown), ethertype Unknown (0x9b08), length 20: 
	0x0000:  b400 9e00 d80d 1772 583a a099 9b08 3c33
	0x0010:  083f 9dd6
06:09:50.884744 9b:08:3c:33:3b:2b (oui Unknown) > c4:00:72:00:a0:99 (oui Unknown), ethertype Unknown (0xd011), length 14: 
	0x0000:  c400 7200 a099 9b08 3c33 3b2b d011
06:09:50.884763 9b:08:3c:33:d8:0d (oui Unknown) > 94:00:00:00:a0:99 (oui Unknown), ethertype Unknown (0x1772), length 32: 
	0x0000:  9400 0000 a099 9b08 3c33 d80d 1772 583a
	0x0010:  0560 100a 0100 0000 0000 0000 9a90 8d8c
06:09:50.884777 17:72:58:3a:a0:99 (oui Unknown) > c8:01:2c:00:d8:0d (oui Unknown), ethertype Unknown (0x9b08), length 30: 
	0x0000:  c801 2c00 d80d 1772 583a a099 9b08 3c33
	0x0010:  d80d 1772 583a 80a0 0600 c018 208a
06:09:50.884790 9b:08:3c:33:3e:3c (oui Unknown) > d4:00:00:00:a0:99 (oui Unknown), ethertype Unknown (0x0bd8), length 14: 
	0x0000:  d400 0000 a099 9b08 3c33 3e3c 0bd8
06:09:50.887548 ff:ff:ff:ff:d8:0d (oui Unknown) > 80:00:00:00:ff:ff (oui Unknown), ethertype Unknown (0x1772), length 256: 
	0x0000:  8000 0000 ffff ffff ffff d80d 1772 583a
	0x0010:  d80d 1772 583a a002 49b0 3105 0000 0000
	0x0020:  6400 1110 000f 5450 2d4c 696e 6b5f 3538
	0x0030:  3343 5f35 4701 088c 1298 24b0 4860 6c05
	0x0040:  0400 0100 0030 1401 0000 0fac 0401 0000
	0x0050:  0fac 0401 0000 0fac 020c 0046 0532 0801
	0x0060:  0000 2d1a ad09 17ff ff00 0000 0000 0000
	0x0070:  0000 0000 0000 0000 0000 0000 0000 3d16
	0x0080:  a508 0400 0000 0000 0000 0000 0000 0000
	0x0090:  0000 0000 0000 7f08 0400 0000 0000 0040
	0x00a0:  bf0c b201 8003 faff 0000 faff 0000 c005
	0x00b0:  00a5 0000 00c3 0200 0edd 1c00 50f2 0410
	0x00c0:  4a00 0110 1044 0001 0210 4900 0a00 372a
	0x00d0:  0001 2005 0226 88dd 0900 1018 0201 001c
	0x00e0:  0000 dd18 0050 f202 0101 8800 03a4 0000
	0x00f0:  27a4 0000 4243 5e00 6232 2f00 43b0 36f0
06:09:50.937982 17:72:58:3a:a0:99 (oui Unknown) > b4:00:9e:00:d8:0d (oui Unknown), ethertype Unknown (0x9b08), length 20: 
	0x0000:  b400 9e00 d80d 1772 583a a099 9b08 3c33
	0x0010:  083f 9dd6
06:09:50.938025 9b:08:3c:33:3b:2b (oui Unknown) > c4:00:72:00:a0:99 (oui Unknown), ethertype Unknown (0xd011), length 14: 
	0x0000:  c400 7200 a099 9b08 3c33 3b2b d011
06:09:50.938042 9b:08:3c:33:d8:0d (oui Unknown) > 94:00:00:00:a0:99 (oui Unknown), ethertype Unknown (0x1772), length 32: 
	0x0000:  9400 0000 a099 9b08 3c33 d80d 1772 583a
	0x0010:  0500 5005 0100 0000 0000 0000 d3ce 5a9d
06:09:50.938056 9b:08:3c:33:d8:0d (oui Unknown) > b4:00:9e:00:a0:99 (oui Unknown), ethertype Unknown (0x1772), length 20: 
	0x0000:  b400 9e00 a099 9b08 3c33 d80d 1772 583a
	0x0010:  fcfd cb80
06:09:50.938070 17:72:58:3a:45:d7 (oui Unknown) > c4:00:72:00:d8:0d (oui Unknown), ethertype Unknown (0x8354), length 14: 
	0x0000:  c400 7200 d80d 1772 583a 45d7 8354
06:09:50.938084 17:72:58:3a:a0:99 (oui Unknown) > 94:00:00:00:d8:0d (oui Unknown), ethertype Unknown (0x9b08), length 32: 
	0x0000:  9400 0000 d80d 1772 583a a099 9b08 3c33
	0x0010:  0560 e004 0100 0000 0000 0000 b849 0f5f
06:09:50.994239 ff:ff:ff:ff:d8:0d (oui Unknown) > 80:00:00:00:ff:ff (oui Unknown), ethertype Unknown (0x1772), length 256: 
	0x0000:  8000 0000 ffff ffff ffff d80d 1772 583a
	0x0010:  d80d 1772 583a b002 4b40 3305 0000 0000
	0x0020:  6400 1110 000f 5450 2d4c 696e 6b5f 3538
	0x0030:  3343 5f35 4701 088c 1298 24b0 4860 6c05
	0x0040:  0400 0100 0030 1401 0000 0fac 0401 0000
	0x0050:  0fac 0401 0000 0fac 020c 0046 0532 0801
	0x0060:  0000 2d1a ad09 17ff ff00 0000 0000 0000
	0x0070:  0000 0000 0000 0000 0000 0000 0000 3d16
	0x0080:  a508 0400 0000 0000 0000 0000 0000 0000
	0x0090:  0000 0000 0000 7f08 0400 0000 0000 0040
	0x00a0:  bf0c b201 8003 faff 0000 faff 0000 c005
	0x00b0:  00a5 0000 00c3 0200 0edd 1c00 50f2 0410
	0x00c0:  4a00 0110 1044 0001 0210 4900 0a00 372a
	0x00d0:  0001 2005 0226 88dd 0900 1018 0201 001c
	0x00e0:  0000 dd18 0050 f202 0101 8800 03a4 0000
	0x00f0:  27a4 0000 4243 5e00 6232 2f00 1afe de58
06:09:51.048716 17:72:58:3a:a0:99 (oui Unknown) > b4:00:9e:00:d8:0d (oui Unknown), ethertype Unknown (0x9b08), length 20: 
	0x0000:  b400 9e00 d80d 1772 583a a099 9b08 3c33
	0x0010:  083f 9dd6
06:09:51.048765 9b:08:3c:33:3b:2b (oui Unknown) > c4:00:72:00:a0:99 (oui Unknown), ethertype Unknown (0xd011), length 14: 
	0x0000:  c400 7200 a099 9b08 3c33 3b2b d011
06:09:51.048784 9b:08:3c:33:d8:0d (oui Unknown) > 94:00:00:00:a0:99 (oui Unknown), ethertype Unknown (0x1772), length 32: 
	0x0000:  9400 0000 a099 9b08 3c33 d80d 1772 583a
	0x0010:  0560 200a 0100 0000 0000 0000 a212 7ee4
06:09:51.048798 9b:08:3c:33:d8:0d (oui Unknown) > b4:00:9e:00:a0:99 (oui Unknown), ethertype Unknown (0x1772), length 20: 
	0x0000:  b400 9e00 a099 9b08 3c33 d80d 1772 583a
	0x0010:  fcfd cb80
06:09:51.048812 17:72:58:3a:45:d7 (oui Unknown) > c4:00:72:00:d8:0d (oui Unknown), ethertype Unknown (0x8354), length 14: 
	0x0000:  c400 7200 d80d 1772 583a 45d7 8354
06:09:51.048826 17:72:58:3a:a0:99 (oui Unknown) > 94:00:00:00:d8:0d (oui Unknown), ethertype Unknown (0x9b08), length 32: 
	0x0000:  9400 0000 d80d 1772 583a a099 9b08 3c33
	0x0010:  0560 f004 0100 0000 0000 0000 50c8 a178
06:09:51.076730 9b:08:3c:33:d8:0d (oui Unknown) > b4:00:9e:00:a0:99 (oui Unknown), ethertype Unknown (0x1772), length 20: 
	0x0000:  b400 9e00 a099 9b08 3c33 d80d 1772 583a
	0x0010:  fcfd cb80
06:09:51.076774 17:72:58:3a:45:d7 (oui Unknown) > c4:00:72:00:d8:0d (oui Unknown), ethertype Unknown (0x8354), length 14: 
	0x0000:  c400 7200 d80d 1772 583a 45d7 8354
06:09:51.076792 17:72:58:3a:a0:99 (oui Unknown) > 94:00:00:00:d8:0d (oui Unknown), ethertype Unknown (0x9b08), length 32: 
	0x0000:  9400 0000 d80d 1772 583a a099 9b08 3c33
	0x0010:  0500 b001 0100 0000 0000 0000 871c 58fc
06:09:51.076806 17:72:58:3a:a0:99 (oui Unknown) > b4:00:9e:00:d8:0d (oui Unknown), ethertype Unknown (0x9b08), length 20: 
	0x0000:  b400 9e00 d80d 1772 583a a099 9b08 3c33
	0x0010:  083f 9dd6
06:09:51.076820 9b:08:3c:33:3b:2b (oui Unknown) > c4:00:72:00:a0:99 (oui Unknown), ethertype Unknown (0xd011), length 14: 
	0x0000:  c400 7200 a099 9b08 3c33 3b2b d011
06:09:51.076834 9b:08:3c:33:d8:0d (oui Unknown) > 94:00:00:00:a0:99 (oui Unknown), ethertype Unknown (0x1772), length 32: 
	0x0000:  9400 0000 a099 9b08 3c33 d80d 1772 583a
	0x0010:  0560 300a 0100 0000 0000 0000 4a93 d0c3
06:09:51.092340 ff:ff:ff:ff:d8:0d (oui Unknown) > 80:00:00:00:ff:ff (oui Unknown), ethertype Unknown (0x1772), length 256: 
	0x0000:  8000 0000 ffff ffff ffff d80d 1772 583a
	0x0010:  d80d 1772 583a c002 3ed0 3405 0000 0000
	0x0020:  6400 1110 000f 5450 2d4c 696e 6b5f 3538
	0x0030:  3343 5f35 4701 088c 1298 24b0 4860 6c05
	0x0040:  0400 0100 0030 1401 0000 0fac 0401 0000
	0x0050:  0fac 0401 0000 0fac 020c 0046 0532 0801
	0x0060:  0000 2d1a ad09 17ff ff00 0000 0000 0000
	0x0070:  0000 0000 0000 0000 0000 0000 0000 3d16
	0x0080:  a508 0400 0000 0000 0000 0000 0000 0000
	0x0090:  0000 0000 0000 7f08 0400 0000 0000 0040
	0x00a0:  bf0c b201 8003 faff 0000 faff 0000 c005
	0x00b0:  00a5 0000 00c3 0200 0edd 1c00 50f2 0410
	0x00c0:  4a00 0110 1044 0001 0210 4900 0a00 372a
	0x00d0:  0001 2005 0226 88dd 0900 1018 0201 001c
	0x00e0:  0000 dd18 0050 f202 0101 8800 03a4 0000
	0x00f0:  27a4 0000 4243 5e00 6232 2f00 d178 88df
06:09:51.200724 ff:ff:ff:ff:d8:0d (oui Unknown) > 80:00:00:00:ff:ff (oui Unknown), ethertype Unknown (0x1772), length 256: 
	0x0000:  8000 0000 ffff ffff ffff d80d 1772 583a
	0x0010:  d80d 1772 583a d002 4260 3605 0000 0000
	0x0020:  6400 1110 000f 5450 2d4c 696e 6b5f 3538
	0x0030:  3343 5f35 4701 088c 1298 24b0 4860 6c05
	0x0040:  0400 0100 0030 1401 0000 0fac 0401 0000
	0x0050:  0fac 0401 0000 0fac 020c 0046 0532 0801
	0x0060:  0000 2d1a ad09 17ff ff00 0000 0000 0000
	0x0070:  0000 0000 0000 0000 0000 0000 0000 3d16
	0x0080:  a508 0400 0000 0000 0000 0000 0000 0000
	0x0090:  0000 0000 0000 7f08 0400 0000 0000 0040
	0x00a0:  bf0c b201 8003 faff 0000 faff 0000 c005
	0x00b0:  00a5 0000 00c3 0200 0edd 1c00 50f2 0410
	0x00c0:  4a00 0110 1044 0001 0210 4900 0a00 372a
	0x00d0:  0001 2005 0226 88dd 0900 1018 0201 001c
	0x00e0:  0000 dd18 0050 f202 0101 8800 03a4 0000
	0x00f0:  27a4 0000 4243 5e00 6232 2f00 f2db 28b2
06:09:51.287001 17:72:58:3a:a0:99 (oui Unknown) > c8:11:2c:00:d8:0d (oui Unknown), ethertype Unknown (0x9b08), length 30: 
	0x0000:  c811 2c00 d80d 1772 583a a099 9b08 3c33
	0x0010:  d80d 1772 583a 90a0 0600 3168 2e82
06:09:51.287044 9b:08:3c:33:3e:3c (oui Unknown) > d4:00:00:00:a0:99 (oui Unknown), ethertype Unknown (0x0bd8), length 14: 
	0x0000:  d400 0000 a099 9b08 3c33 3e3c 0bd8
06:09:51.297375 ff:ff:ff:ff:d8:0d (oui Unknown) > 80:00:00:00:ff:ff (oui Unknown), ethertype Unknown (0x1772), length 256: 
	0x0000:  8000 0000 ffff ffff ffff d80d 1772 583a
	0x0010:  d80d 1772 583a e002 4ff0 3705 0000 0000
	0x0020:  6400 1110 000f 5450 2d4c 696e 6b5f 3538
	0x0030:  3343 5f35 4701 088c 1298 24b0 4860 6c05
	0x0040:  0400 0100 0030 1401 0000 0fac 0401 0000
	0x0050:  0fac 0401 0000 0fac 020c 0046 0532 0801
	0x0060:  0000 2d1a ad09 17ff ff00 0000 0000 0000
	0x0070:  0000 0000 0000 0000 0000 0000 0000 3d16
	0x0080:  a508 0400 0000 0000 0000 0000 0000 0000
	0x0090:  0000 0000 0000 7f08 0400 0000 0000 0040
	0x00a0:  bf0c b201 8003 faff 0000 faff 0000 c005
	0x00b0:  00a5 0000 00c3 0200 0edd 1c00 50f2 0410
	0x00c0:  4a00 0110 1044 0001 0210 4900 0a00 372a
	0x00d0:  0001 2005 0226 88dd 0900 1018 0201 001c
	0x00e0:  0000 dd18 0050 f202 0101 8800 03a4 0000
	0x00f0:  27a4 0000 4243 5e00 6232 2f00 afc1 ae1c
06:09:51.404077 ff:ff:ff:ff:d8:0d (oui Unknown) > 80:00:00:00:ff:ff (oui Unknown), ethertype Unknown (0x1772), length 256: 
	0x0000:  8000 0000 ffff ffff ffff d80d 1772 583a
	0x0010:  d80d 1772 583a f002 3e80 3905 0000 0000
	0x0020:  6400 1110 000f 5450 2d4c 696e 6b5f 3538
	0x0030:  3343 5f35 4701 088c 1298 24b0 4860 6c05
	0x0040:  0400 0100 0030 1401 0000 0fac 0401 0000
	0x0050:  0fac 0401 0000 0fac 020c 0046 0532 0801
	0x0060:  0000 2d1a ad09 17ff ff00 0000 0000 0000
	0x0070:  0000 0000 0000 0000 0000 0000 0000 3d16
	0x0080:  a508 0400 0000 0000 0000 0000 0000 0000
	0x0090:  0000 0000 0000 7f08 0400 0000 0000 0040
	0x00a0:  bf0c b201 8003 faff 0000 faff 0000 c005
	0x00b0:  00a5 0000 00c3 0200 0edd 1c00 50f2 0410
	0x00c0:  4a00 0110 1044 0001 0210 4900 0a00 372a
	0x00d0:  0001 2005 0226 88dd 0900 1018 0201 001c
	0x00e0:  0000 dd18 0050 f202 0101 8800 03a4 0000
	0x00f0:  27a4 0000 4243 5e00 6232 2f00 42fe 00f7
06:09:51.443778 17:72:58:3a:a0:99 (oui Unknown) > c8:01:2c:00:d8:0d (oui Unknown), ethertype Unknown (0x9b08), length 30: 
	0x0000:  c801 2c00 d80d 1772 583a a099 9b08 3c33
	0x0010:  d80d 1772 583a a0a0 0600 feb7 122a
06:09:51.443822 9b:08:3c:33:3e:3c (oui Unknown) > d4:00:00:00:a0:99 (oui Unknown), ethertype Unknown (0x0bd8), length 14: 
	0x0000:  d400 0000 a099 9b08 3c33 3e3c 0bd8
06:09:51.443840 17:72:58:3a:a0:99 (oui Unknown) > b4:00:9e:00:d8:0d (oui Unknown), ethertype Unknown (0x9b08), length 20: 
	0x0000:  b400 9e00 d80d 1772 583a a099 9b08 3c33
	0x0010:  083f 9dd6
06:09:51.443854 9b:08:3c:33:3b:2b (oui Unknown) > c4:00:72:00:a0:99 (oui Unknown), ethertype Unknown (0xd011), length 14: 
	0x0000:  c400 7200 a099 9b08 3c33 3b2b d011
06:09:51.443868 9b:08:3c:33:d8:0d (oui Unknown) > 94:00:00:00:a0:99 (oui Unknown), ethertype Unknown (0x1772), length 32: 
	0x0000:  9400 0000 a099 9b08 3c33 d80d 1772 583a
	0x0010:  0500 6005 0100 0000 0000 0000 eb4c a9f5
06:09:51.443882 9b:08:3c:33:d8:0d (oui Unknown) > b4:00:9e:00:a0:99 (oui Unknown), ethertype Unknown (0x1772), length 20: 
	0x0000:  b400 9e00 a099 9b08 3c33 d80d 1772 583a
	0x0010:  fcfd cb80
06:09:51.443896 17:72:58:3a:45:d7 (oui Unknown) > c4:00:72:00:d8:0d (oui Unknown), ethertype Unknown (0x8354), length 14: 
	0x0000:  c400 7200 d80d 1772 583a 45d7 8354
06:09:51.443910 17:72:58:3a:a0:99 (oui Unknown) > 94:00:00:00:d8:0d (oui Unknown), ethertype Unknown (0x9b08), length 32: 
	0x0000:  9400 0000 d80d 1772 583a a099 9b08 3c33
	0x0010:  0560 0005 0100 0000 0000 0000 8a50 967f
06:09:51.506506 ff:ff:ff:ff:d8:0d (oui Unknown) > 80:00:00:00:ff:ff (oui Unknown), ethertype Unknown (0x1772), length 256: 
	0x0000:  8000 0000 ffff ffff ffff d80d 1772 583a
	0x0010:  d80d 1772 583a 0003 5610 3b05 0000 0000
	0x0020:  6400 1110 000f 5450 2d4c 696e 6b5f 3538
	0x0030:  3343 5f35 4701 088c 1298 24b0 4860 6c05
	0x0040:  0400 0100 0030 1401 0000 0fac 0401 0000
	0x0050:  0fac 0401 0000 0fac 020c 0046 0532 0801
	0x0060:  0000 2d1a ad09 17ff ff00 0000 0000 0000
	0x0070:  0000 0000 0000 0000 0000 0000 0000 3d16
	0x0080:  a508 0400 0000 0000 0000 0000 0000 0000
	0x0090:  0000 0000 0000 7f08 0400 0000 0000 0040
	0x00a0:  bf0c b201 8003 faff 0000 faff 0000 c005
	0x00b0:  00a5 0000 00c3 0200 0edd 1c00 50f2 0410
	0x00c0:  4a00 0110 1044 0001 0210 4900 0a00 372a
	0x00d0:  0001 2005 0226 88dd 0900 1018 0201 001c
	0x00e0:  0000 dd18 0050 f202 0101 8800 03a4 0000
	0x00f0:  27a4 0000 4243 5e00 6232 2f00 ca77 5bdd
06:09:51.610368 ff:ff:ff:ff:d8:0d (oui Unknown) > 80:00:00:00:ff:ff (oui Unknown), ethertype Unknown (0x1772), length 256: 
	0x0000:  8000 0000 ffff ffff ffff d80d 1772 583a
	0x0010:  d80d 1772 583a 1003 41a0 3c05 0000 0000
	0x0020:  6400 1110 000f 5450 2d4c 696e 6b5f 3538
	0x0030:  3343 5f35 4701 088c 1298 24b0 4860 6c05
	0x0040:  0400 0100 0030 1401 0000 0fac 0401 0000
	0x0050:  0fac 0401 0000 0fac 020c 0046 0532 0801
	0x0060:  0000 2d1a ad09 17ff ff00 0000 0000 0000
	0x0070:  0000 0000 0000 0000 0000 0000 0000 3d16
	0x0080:  a508 0400 0000 0000 0000 0000 0000 0000
	0x0090:  0000 0000 0000 7f08 0400 0000 0000 0040
	0x00a0:  bf0c b201 8003 faff 0000 faff 0000 c005
	0x00b0:  00a5 0000 00c3 0200 0edd 1c00 50f2 0410
	0x00c0:  4a00 0110 1044 0001 0210 4900 0a00 372a
	0x00d0:  0001 2005 0226 88dd 0900 1018 0201 001c
	0x00e0:  0000 dd18 0050 f202 0101 8800 03a4 0000
	0x00f0:  27a4 0000 4243 5e00 6232 2f00 1c27 bbbf
06:09:51.647228 17:72:58:3a:a0:99 (oui Unknown) > c8:11:2c:00:d8:0d (oui Unknown), ethertype Unknown (0x9b08), length 30: 
	0x0000:  c811 2c00 d80d 1772 583a a099 9b08 3c33
	0x0010:  d80d 1772 583a b0a0 0600 0fc7 1c22
06:09:51.647272 9b:08:3c:33:3e:3c (oui Unknown) > d4:00:00:00:a0:99 (oui Unknown), ethertype Unknown (0x0bd8), length 14: 
	0x0000:  d400 0000 a099 9b08 3c33 3e3c 0bd8
06:09:51.711327 ff:ff:ff:ff:d8:0d (oui Unknown) > 80:00:00:00:ff:ff (oui Unknown), ethertype Unknown (0x1772), length 256: 
	0x0000:  8000 0000 ffff ffff ffff d80d 1772 583a
	0x0010:  d80d 1772 583a 2003 3f30 3e05 0000 0000
	0x0020:  6400 1110 000f 5450 2d4c 696e 6b5f 3538
	0x0030:  3343 5f35 4701 088c 1298 24b0 4860 6c05
	0x0040:  0400 0100 0030 1401 0000 0fac 0401 0000
	0x0050:  0fac 0401 0000 0fac 020c 0046 0532 0801
	0x0060:  0000 2d1a ad09 17ff ff00 0000 0000 0000
	0x0070:  0000 0000 0000 0000 0000 0000 0000 3d16
	0x0080:  a508 0400 0000 0000 0000 0000 0000 0000
	0x0090:  0000 0000 0000 7f08 0400 0000 0000 0040
	0x00a0:  bf0c b201 8003 faff 0000 faff 0000 c005
	0x00b0:  00a5 0000 00c3 0200 0edd 1c00 50f2 0410
	0x00c0:  4a00 0110 1044 0001 0210 4900 0a00 372a
	0x00d0:  0001 2005 0226 88dd 0900 1018 0201 001c
	0x00e0:  0000 dd18 0050 f202 0101 8800 03a4 0000
	0x00f0:  27a4 0000 4243 5e00 6232 2f00 1c8a a998
06:09:51.813712 ff:ff:ff:ff:d8:0d (oui Unknown) > 80:00:00:00:ff:ff (oui Unknown), ethertype Unknown (0x1772), length 256: 
	0x0000:  8000 0000 ffff ffff ffff d80d 1772 583a
	0x0010:  d80d 1772 583a 3003 4ac0 3f05 0000 0000
	0x0020:  6400 1110 000f 5450 2d4c 696e 6b5f 3538
	0x0030:  3343 5f35 4701 088c 1298 24b0 4860 6c05
	0x0040:  0400 0100 0030 1401 0000 0fac 0401 0000
	0x0050:  0fac 0401 0000 0fac 020c 0046 0532 0801
	0x0060:  0000 2d1a ad09 17ff ff00 0000 0000 0000
	0x0070:  0000 0000 0000 0000 0000 0000 0000 3d16
	0x0080:  a508 0400 0000 0000 0000 0000 0000 0000
	0x0090:  0000 0000 0000 7f08 0400 0000 0000 0040
	0x00a0:  bf0c b201 8003 faff 0000 faff 0000 c005
	0x00b0:  00a5 0000 00c3 0200 0edd 1c00 50f2 0410
	0x00c0:  4a00 0110 1044 0001 0210 4900 0a00 372a
	0x00d0:  0001 2005 0226 88dd 0900 1018 0201 001c
	0x00e0:  0000 dd18 0050 f202 0101 8800 03a4 0000
	0x00f0:  27a4 0000 4243 5e00 6232 2f00 0b0b 88e9
06:09:51.916133 ff:ff:ff:ff:d8:0d (oui Unknown) > 80:00:00:00:ff:ff (oui Unknown), ethertype Unknown (0x1772), length 256: 
	0x0000:  8000 0000 ffff ffff ffff d80d 1772 583a
	0x0010:  d80d 1772 583a 4003 5750 4105 0000 0000
	0x0020:  6400 1110 000f 5450 2d4c 696e 6b5f 3538
	0x0030:  3343 5f35 4701 088c 1298 24b0 4860 6c05
	0x0040:  0400 0100 0030 1401 0000 0fac 0401 0000
	0x0050:  0fac 0401 0000 0fac 020c 0046 0532 0801
	0x0060:  0000 2d1a ad09 17ff ff00 0000 0000 0000
	0x0070:  0000 0000 0000 0000 0000 0000 0000 3d16
	0x0080:  a508 0400 0000 0000 0000 0000 0000 0000
	0x0090:  0000 0000 0000 7f08 0400 0000 0000 0040
	0x00a0:  bf0c b201 8003 faff 0000 faff 0000 c005
	0x00b0:  00a5 0000 00c3 0200 0edd 1c00 50f2 0410
	0x00c0:  4a00 0110 1044 0001 0210 4900 0a00 372a
	0x00d0:  0001 2005 0226 88dd 0900 1018 0201 001c
	0x00e0:  0000 dd18 0050 f202 0101 8800 03a4 0000
	0x00f0:  27a4 0000 4243 5e00 6232 2f00 a5f5 58cb
06:09:52.018486 ff:ff:ff:ff:d8:0d (oui Unknown) > 80:00:00:00:ff:ff (oui Unknown), ethertype Unknown (0x1772), length 256: 
	0x0000:  8000 0000 ffff ffff ffff d80d 1772 583a
	0x0010:  d80d 1772 583a 5003 40e0 4205 0000 0000
	0x0020:  6400 1110 000f 5450 2d4c 696e 6b5f 3538
	0x0030:  3343 5f35 4701 088c 1298 24b0 4860 6c05
	0x0040:  0400 0100 0030 1401 0000 0fac 0401 0000
	0x0050:  0fac 0401 0000 0fac 020c 0046 0532 0801
	0x0060:  0000 2d1a ad09 17ff ff00 0000 0000 0000
	0x0070:  0000 0000 0000 0000 0000 0000 0000 3d16
	0x0080:  a508 0400 0000 0000 0000 0000 0000 0000
	0x0090:  0000 0000 0000 7f08 0400 0000 0000 0040
	0x00a0:  bf0c b201 8003 faff 0000 faff 0000 c005
	0x00b0:  00a5 0000 00c3 0200 0edd 1c00 50f2 0410
	0x00c0:  4a00 0110 1044 0001 0210 4900 0a00 372a
	0x00d0:  0001 2005 0226 88dd 0900 1018 0201 001c
	0x00e0:  0000 dd18 0050 f202 0101 8800 03a4 0000
	0x00f0:  27a4 0000 4243 5e00 6232 2f00 4ec4 dbc8
06:09:52.052386 17:72:58:3a:a0:99 (oui Unknown) > b4:00:9e:00:d8:0d (oui Unknown), ethertype Unknown (0x9b08), length 20: 
	0x0000:  b400 9e00 d80d 1772 583a a099 9b08 3c33
	0x0010:  083f 9dd6
06:09:52.052430 9b:08:3c:33:3b:2b (oui Unknown) > c4:00:72:00:a0:99 (oui Unknown), ethertype Unknown (0xd011), length 14: 
	0x0000:  c400 7200 a099 9b08 3c33 3b2b d011
06:09:52.052448 9b:08:3c:33:d8:0d (oui Unknown) > 94:00:00:00:a0:99 (oui Unknown), ethertype Unknown (0x1772), length 32: 
	0x0000:  9400 0000 a099 9b08 3c33 d80d 1772 583a
	0x0010:  0560 400a 0100 0000 0000 0000 d216 9935
06:09:52.052462 17:72:58:3a:a0:99 (oui Unknown) > c8:01:2c:00:d8:0d (oui Unknown), ethertype Unknown (0x9b08), length 30: 
	0x0000:  c801 2c00 d80d 1772 583a a099 9b08 3c33
	0x0010:  d80d 1772 583a c0a0 0600 fd40 3411
06:09:52.052476 9b:08:3c:33:3e:3c (oui Unknown) > d4:00:00:00:a0:99 (oui Unknown), ethertype Unknown (0x0bd8), length 14: 
	0x0000:  d400 0000 a099 9b08 3c33 3e3c 0bd8
06:09:52.052490 9b:08:3c:33:d8:0d (oui Unknown) > b4:00:9e:00:a0:99 (oui Unknown), ethertype Unknown (0x1772), length 20: 
	0x0000:  b400 9e00 a099 9b08 3c33 d80d 1772 583a
	0x0010:  fcfd cb80
06:09:52.052504 17:72:58:3a:45:d7 (oui Unknown) > c4:00:72:00:d8:0d (oui Unknown), ethertype Unknown (0x8354), length 14: 
	0x0000:  c400 7200 d80d 1772 583a 45d7 8354
06:09:52.052518 17:72:58:3a:a0:99 (oui Unknown) > 94:00:00:00:d8:0d (oui Unknown), ethertype Unknown (0x9b08), length 32: 
	0x0000:  9400 0000 d80d 1772 583a a099 9b08 3c33
	0x0010:  0560 1005 0100 0000 0000 0000 62d1 3858
06:09:52.120914 ff:ff:ff:ff:d8:0d (oui Unknown) > 80:00:00:00:ff:ff (oui Unknown), ethertype Unknown (0x1772), length 256: 
	0x0000:  8000 0000 ffff ffff ffff d80d 1772 583a
	0x0010:  d80d 1772 583a 6003 4e70 4405 0000 0000
	0x0020:  6400 1110 000f 5450 2d4c 696e 6b5f 3538
	0x0030:  3343 5f35 4701 088c 1298 24b0 4860 6c05
	0x0040:  0400 0100 0030 1401 0000 0fac 0401 0000
	0x0050:  0fac 0401 0000 0fac 020c 0046 0532 0801
	0x0060:  0000 2d1a ad09 17ff ff00 0000 0000 0000
	0x0070:  0000 0000 0000 0000 0000 0000 0000 3d16
	0x0080:  a508 0400 0000 0000 0000 0000 0000 0000
	0x0090:  0000 0000 0000 7f08 0400 0000 0000 0040
	0x00a0:  bf0c b201 8003 faff 0000 faff 0000 c005
	0x00b0:  00a5 0000 00c3 0200 0edd 1c00 50f2 0410
	0x00c0:  4a00 0110 1044 0001 0210 4900 0a00 372a
	0x00d0:  0001 2005 0226 88dd 0900 1018 0201 001c
	0x00e0:  0000 dd18 0050 f202 0101 8800 03a4 0000
	0x00f0:  27a4 0000 4243 5e00 6232 2f00 d2b6 56fe
06:09:52.127521 ff:ff:ff:ff:d8:0d (oui Unknown) > 08:42:00:00:ff:ff (oui Unknown), ethertype Unknown (0x1772), length 253: 
	0x0000:  0842 0000 ffff ffff ffff d80d 1772 583a
	0x0010:  d80d 1772 583c 7003 6600 0060 0000 0000
	0x0020:  4f14 730d 8e85 ee30 3ac9 4e46 3142 8f45
	0x0030:  8066 c5a7 e7f1 2797 c5ed db07 c7ed 6131
	0x0040:  4d9c 122e eb5f 6b71 3908 35e2 52d7 1337
	0x0050:  f2de 2e1c 9b25 696f 380d 8634 5081 d133
	0x0060:  0264 5e69 03ac 6b9a c4ed 264f 6ebf da16
	0x0070:  9b6b a070 5821 6ac0 50cb 07ea f970 3862
	0x0080:  b233 e7e3 f3ca e26a ed4f 0a79 6f3d b330
	0x0090:  88f5 561a 856b c135 68a0 e581 ae3a 34d2
	0x00a0:  26a6 e85f bd22 524a f4e1 112a dddd 4cea
	0x00b0:  5212 b389 2157 558b e15a 4f51 ddab 361d
	0x00c0:  8f1a 5b9b 1910 f854 d680 be31 da0a 22ec
	0x00d0:  d50a f58e ae94 3cc5 58d7 0ac4 39c1 fa55
	0x00e0:  d432 eca0 2289 8b3b 2826 edfd bbd4 58bd
	0x00f0:  0d94 7c49 8b33 367f 7ad1 5130 4c
06:09:52.149063 17:72:58:3a:a0:99 (oui Unknown) > b4:00:9e:00:d8:0d (oui Unknown), ethertype Unknown (0x9b08), length 20: 
	0x0000:  b400 9e00 d80d 1772 583a a099 9b08 3c33
	0x0010:  083f 9dd6
06:09:52.149105 9b:08:3c:33:3b:2b (oui Unknown) > c4:00:72:00:a0:99 (oui Unknown), ethertype Unknown (0xd011), length 14: 
	0x0000:  c400 7200 a099 9b08 3c33 3b2b d011
06:09:52.149122 9b:08:3c:33:d8:0d (oui Unknown) > 94:00:00:00:a0:99 (oui Unknown), ethertype Unknown (0x1772), length 32: 
	0x0000:  9400 0000 a099 9b08 3c33 d80d 1772 583a
	0x0010:  0560 500a 0100 0000 0000 0000 3a97 3712
06:09:52.224313 ff:ff:ff:ff:d8:0d (oui Unknown) > 80:00:00:00:ff:ff (oui Unknown), ethertype Unknown (0x1772), length 256: 
	0x0000:  8000 0000 ffff ffff ffff d80d 1772 583a
	0x0010:  d80d 1772 583a 8003 3704 4605 0000 0000
	0x0020:  6400 1110 000f 5450 2d4c 696e 6b5f 3538
	0x0030:  3343 5f35 4701 088c 1298 24b0 4860 6c05
	0x0040:  0400 0100 0030 1401 0000 0fac 0401 0000
	0x0050:  0fac 0401 0000 0fac 020c 0046 0532 0801
	0x0060:  0000 2d1a ad09 17ff ff00 0000 0000 0000
	0x0070:  0000 0000 0000 0000 0000 0000 0000 3d16
	0x0080:  a508 0400 0000 0000 0000 0000 0000 0000
	0x0090:  0000 0000 0000 7f08 0400 0000 0000 0040
	0x00a0:  bf0c b201 8003 faff 0000 faff 0000 c005
	0x00b0:  00a5 0000 00c3 0200 0edd 1c00 50f2 0410
	0x00c0:  4a00 0110 1044 0001 0210 4900 0a00 372a
	0x00d0:  0001 2005 0226 88dd 0900 1018 0201 001c
	0x00e0:  0000 dd18 0050 f202 0101 8800 03a4 0000
	0x00f0:  27a4 0000 4243 5e00 6232 2f00 d597 d25e
06:09:52.325705 ff:ff:ff:ff:d8:0d (oui Unknown) > 80:00:00:00:ff:ff (oui Unknown), ethertype Unknown (0x1772), length 256: 
	0x0000:  8000 0000 ffff ffff ffff d80d 1772 583a
	0x0010:  d80d 1772 583a 9003 3e90 4705 0000 0000
	0x0020:  6400 1110 000f 5450 2d4c 696e 6b5f 3538
	0x0030:  3343 5f35 4701 088c 1298 24b0 4860 6c05
	0x0040:  0400 0100 0030 1401 0000 0fac 0401 0000
	0x0050:  0fac 0401 0000 0fac 020c 0046 0532 0801
	0x0060:  0000 2d1a ad09 17ff ff00 0000 0000 0000
	0x0070:  0000 0000 0000 0000 0000 0000 0000 3d16
	0x0080:  a508 0400 0000 0000 0000 0000 0000 0000
	0x0090:  0000 0000 0000 7f08 0400 0000 0000 0040
	0x00a0:  bf0c b201 8003 faff 0000 faff 0000 c005
	0x00b0:  00a5 0000 00c3 0200 0edd 1c00 50f2 0410
	0x00c0:  4a00 0110 1044 0001 0210 4900 0a00 372a
	0x00d0:  0001 2005 0226 88dd 0900 1018 0201 001c
	0x00e0:  0000 dd18 0050 f202 0101 8800 03a4 0000
	0x00f0:  27a4 0000 4243 5e00 6232 2f00 a29a feda
06:09:52.355311 17:72:58:3a:a0:99 (oui Unknown) > c8:11:2c:00:d8:0d (oui Unknown), ethertype Unknown (0x9b08), length 30: 
	0x0000:  c811 2c00 d80d 1772 583a a099 9b08 3c33
	0x0010:  d80d 1772 583a d0a0 0600 0c30 3a19
06:09:52.355354 9b:08:3c:33:3e:3c (oui Unknown) > d4:00:00:00:a0:99 (oui Unknown), ethertype Unknown (0x0bd8), length 14: 
	0x0000:  d400 0000 a099 9b08 3c33 3e3c 0bd8
06:09:52.427709 ff:ff:ff:ff:d8:0d (oui Unknown) > 80:00:00:00:ff:ff (oui Unknown), ethertype Unknown (0x1772), length 256: 
	0x0000:  8000 0000 ffff ffff ffff d80d 1772 583a
	0x0010:  d80d 1772 583a a003 4220 4905 0000 0000
	0x0020:  6400 1110 000f 5450 2d4c 696e 6b5f 3538
	0x0030:  3343 5f35 4701 088c 1298 24b0 4860 6c05
	0x0040:  0400 0100 0030 1401 0000 0fac 0401 0000
	0x0050:  0fac 0401 0000 0fac 020c 0046 0532 0801
	0x0060:  0000 2d1a ad09 17ff ff00 0000 0000 0000
	0x0070:  0000 0000 0000 0000 0000 0000 0000 3d16
	0x0080:  a508 0400 0000 0000 0000 0000 0000 0000
	0x0090:  0000 0000 0000 7f08 0400 0000 0000 0040
	0x00a0:  bf0c b201 8003 faff 0000 faff 0000 c005
	0x00b0:  00a5 0000 00c3 0200 0edd 1c00 50f2 0410
	0x00c0:  4a00 0110 1044 0001 0210 4900 0a00 372a
	0x00d0:  0001 2005 0226 88dd 0900 1018 0201 001c
	0x00e0:  0000 dd18 0050 f202 0101 8800 03a4 0000
	0x00f0:  27a4 0000 4243 5e00 6232 2f00 8fda 0536
06:09:52.530535 ff:ff:ff:ff:d8:0d (oui Unknown) > 80:00:00:00:ff:ff (oui Unknown), ethertype Unknown (0x1772), length 256: 
	0x0000:  8000 0000 ffff ffff ffff d80d 1772 583a
	0x0010:  d80d 1772 583a b003 58b0 4a05 0000 0000
	0x0020:  6400 1110 000f 5450 2d4c 696e 6b5f 3538
	0x0030:  3343 5f35 4701 088c 1298 24b0 4860 6c05
	0x0040:  0400 0100 0030 1401 0000 0fac 0401 0000
	0x0050:  0fac 0401 0000 0fac 020c 0046 0532 0801
	0x0060:  0000 2d1a ad09 17ff ff00 0000 0000 0000
	0x0070:  0000 0000 0000 0000 0000 0000 0000 3d16
	0x0080:  a508 0400 0000 0000 0000 0000 0000 0000
	0x0090:  0000 0000 0000 7f08 0400 0000 0000 0040
	0x00a0:  bf0c b201 8003 faff 0000 faff 0000 c005
	0x00b0:  00a5 0000 00c3 0200 0edd 1c00 50f2 0410
	0x00c0:  4a00 0110 1044 0001 0210 4900 0a00 372a
	0x00d0:  0001 2005 0226 88dd 0900 1018 0201 001c
	0x00e0:  0000 dd18 0050 f202 0101 8800 03a4 0000
	0x00f0:  27a4 0000 4243 5e00 6232 2f00 a68e c8e7
06:09:52.632920 ff:ff:ff:ff:d8:0d (oui Unknown) > 80:00:00:00:ff:ff (oui Unknown), ethertype Unknown (0x1772), length 256: 
	0x0000:  8000 0000 ffff ffff ffff d80d 1772 583a
	0x0010:  d80d 1772 583a c003 5240 4c05 0000 0000
	0x0020:  6400 1110 000f 5450 2d4c 696e 6b5f 3538
	0x0030:  3343 5f35 4701 088c 1298 24b0 4860 6c05
	0x0040:  0400 0100 0030 1401 0000 0fac 0401 0000
	0x0050:  0fac 0401 0000 0fac 020c 0046 0532 0801
	0x0060:  0000 2d1a ad09 17ff ff00 0000 0000 0000
	0x0070:  0000 0000 0000 0000 0000 0000 0000 3d16
	0x0080:  a508 0400 0000 0000 0000 0000 0000 0000
	0x0090:  0000 0000 0000 7f08 0400 0000 0000 0040
	0x00a0:  bf0c b201 8003 faff 0000 faff 0000 c005
	0x00b0:  00a5 0000 00c3 0200 0edd 1c00 50f2 0410
	0x00c0:  4a00 0110 1044 0001 0210 4900 0a00 372a
	0x00d0:  0001 2005 0226 88dd 0900 1018 0201 001c
	0x00e0:  0000 dd18 0050 f202 0101 8800 03a4 0000
	0x00f0:  27a4 0000 4243 5e00 6232 2f00 3f91 fbe9
06:09:52.735321 ff:ff:ff:ff:d8:0d (oui Unknown) > 80:00:00:00:ff:ff (oui Unknown), ethertype Unknown (0x1772), length 256: 
	0x0000:  8000 0000 ffff ffff ffff d80d 1772 583a
	0x0010:  d80d 1772 583a d003 51d0 4d05 0000 0000
	0x0020:  6400 1110 000f 5450 2d4c 696e 6b5f 3538
	0x0030:  3343 5f35 4701 088c 1298 24b0 4860 6c05
	0x0040:  0400 0100 0030 1401 0000 0fac 0401 0000
	0x0050:  0fac 0401 0000 0fac 020c 0046 0532 0801
	0x0060:  0000 2d1a ad09 17ff ff00 0000 0000 0000
	0x0070:  0000 0000 0000 0000 0000 0000 0000 3d16
	0x0080:  a508 0400 0000 0000 0000 0000 0000 0000
	0x0090:  0000 0000 0000 7f08 0400 0000 0000 0040
	0x00a0:  bf0c b201 8003 faff 0000 faff 0000 c005
	0x00b0:  00a5 0000 00c3 0200 0edd 1c00 50f2 0410
	0x00c0:  4a00 0110 1044 0001 0210 4900 0a00 372a
	0x00d0:  0001 2005 0226 88dd 0900 1018 0201 001c
	0x00e0:  0000 dd18 0050 f202 0101 8800 03a4 0000
	0x00f0:  27a4 0000 4243 5e00 6232 2f00 377c f250
06:09:52.837697 ff:ff:ff:ff:d8:0d (oui Unknown) > 80:00:00:00:ff:ff (oui Unknown), ethertype Unknown (0x1772), length 256: 
	0x0000:  8000 0000 ffff ffff ffff d80d 1772 583a
	0x0010:  d80d 1772 583a e003 3f60 4f05 0000 0000
	0x0020:  6400 1110 000f 5450 2d4c 696e 6b5f 3538
	0x0030:  3343 5f35 4701 088c 1298 24b0 4860 6c05
	0x0040:  0400 0100 0030 1401 0000 0fac 0401 0000
	0x0050:  0fac 0401 0000 0fac 020c 0046 0532 0801
	0x0060:  0000 2d1a ad09 17ff ff00 0000 0000 0000
	0x0070:  0000 0000 0000 0000 0000 0000 0000 3d16
	0x0080:  a508 0400 0000 0000 0000 0000 0000 0000
	0x0090:  0000 0000 0000 7f08 0400 0000 0000 0040
	0x00a0:  bf0c b201 8003 faff 0000 faff 0000 c005
	0x00b0:  00a5 0000 00c3 0200 0edd 1c00 50f2 0410
	0x00c0:  4a00 0110 1044 0001 0210 4900 0a00 372a
	0x00d0:  0001 2005 0226 88dd 0900 1018 0201 001c
	0x00e0:  0000 dd18 0050 f202 0101 8800 03a4 0000
	0x00f0:  27a4 0000 4243 5e00 6232 2f00 7946 3e40
06:09:52.940112 ff:ff:ff:ff:d8:0d (oui Unknown) > 80:00:00:00:ff:ff (oui Unknown), ethertype Unknown (0x1772), length 256: 
	0x0000:  8000 0000 ffff ffff ffff d80d 1772 583a
	0x0010:  d80d 1772 583a f003 45f0 5005 0000 0000
	0x0020:  6400 1110 000f 5450 2d4c 696e 6b5f 3538
	0x0030:  3343 5f35 4701 088c 1298 24b0 4860 6c05
	0x0040:  0400 0100 0030 1401 0000 0fac 0401 0000
	0x0050:  0fac 0401 0000 0fac 020c 0046 0532 0801
	0x0060:  0000 2d1a ad09 17ff ff00 0000 0000 0000
	0x0070:  0000 0000 0000 0000 0000 0000 0000 3d16
	0x0080:  a508 0400 0000 0000 0000 0000 0000 0000
	0x0090:  0000 0000 0000 7f08 0400 0000 0000 0040
	0x00a0:  bf0c b201 8003 faff 0000 faff 0000 c005
	0x00b0:  00a5 0000 00c3 0200 0edd 1c00 50f2 0410
	0x00c0:  4a00 0110 1044 0001 0210 4900 0a00 372a
	0x00d0:  0001 2005 0226 88dd 0900 1018 0201 001c
	0x00e0:  0000 dd18 0050 f202 0101 8800 03a4 0000
	0x00f0:  27a4 0000 4243 5e00 6232 2f00 0e6b 5286
06:09:53.042642 ff:ff:ff:ff:d8:0d (oui Unknown) > 80:00:00:00:ff:ff (oui Unknown), ethertype Unknown (0x1772), length 256: 
	0x0000:  8000 0000 ffff ffff ffff d80d 1772 583a
	0x0010:  d80d 1772 583a 0004 4780 5205 0000 0000
	0x0020:  6400 1110 000f 5450 2d4c 696e 6b5f 3538
	0x0030:  3343 5f35 4701 088c 1298 24b0 4860 6c05
	0x0040:  0400 0100 0030 1401 0000 0fac 0401 0000
	0x0050:  0fac 0401 0000 0fac 020c 0046 0532 0801
	0x0060:  0000 2d1a ad09 17ff ff00 0000 0000 0000
	0x0070:  0000 0000 0000 0000 0000 0000 0000 3d16
	0x0080:  a508 0400 0000 0000 0000 0000 0000 0000
	0x0090:  0000 0000 0000 7f08 0400 0000 0000 0040
	0x00a0:  bf0c b201 8003 faff 0000 faff 0000 c005
	0x00b0:  00a5 0000 00c3 0200 0edd 1c00 50f2 0410
	0x00c0:  4a00 0110 1044 0001 0210 4900 0a00 372a
	0x00d0:  0001 2005 0226 88dd 0900 1018 0201 001c
	0x00e0:  0000 dd18 0050 f202 0101 8800 03a4 0000
	0x00f0:  27a4 0000 4243 5e00 6232 2f00 9b3d a112
06:09:53.144906 ff:ff:ff:ff:d8:0d (oui Unknown) > 80:00:00:00:ff:ff (oui Unknown), ethertype Unknown (0x1772), length 256: 
	0x0000:  8000 0000 ffff ffff ffff d80d 1772 583a
	0x0010:  d80d 1772 583a 1004 4b10 5405 0000 0000
	0x0020:  6400 1110 000f 5450 2d4c 696e 6b5f 3538
	0x0030:  3343 5f35 4701 088c 1298 24b0 4860 6c05
	0x0040:  0400 0100 0030 1401 0000 0fac 0401 0000
	0x0050:  0fac 0401 0000 0fac 020c 0046 0532 0801
	0x0060:  0000 2d1a ad09 17ff ff00 0000 0000 0000
	0x0070:  0000 0000 0000 0000 0000 0000 0000 3d16
	0x0080:  a508 0400 0000 0000 0000 0000 0000 0000
	0x0090:  0000 0000 0000 7f08 0400 0000 0000 0040
	0x00a0:  bf0c b201 8003 faff 0000 faff 0000 c005
	0x00b0:  00a5 0000 00c3 0200 0edd 1c00 50f2 0410
	0x00c0:  4a00 0110 1044 0001 0210 4900 0a00 372a
	0x00d0:  0001 2005 0226 88dd 0900 1018 0201 001c
	0x00e0:  0000 dd18 0050 f202 0101 8800 03a4 0000
	0x00f0:  27a4 0000 4243 5e00 6232 2f00 6730 44c3
06:09:53.247324 ff:ff:ff:ff:d8:0d (oui Unknown) > 80:00:00:00:ff:ff (oui Unknown), ethertype Unknown (0x1772), length 256: 
	0x0000:  8000 0000 ffff ffff ffff d80d 1772 583a
	0x0010:  d80d 1772 583a 2004 47a0 5505 0000 0000
	0x0020:  6400 1110 000f 5450 2d4c 696e 6b5f 3538
	0x0030:  3343 5f35 4701 088c 1298 24b0 4860 6c05
	0x0040:  0400 0100 0030 1401 0000 0fac 0401 0000
	0x0050:  0fac 0401 0000 0fac 020c 0046 0532 0801
	0x0060:  0000 2d1a ad09 17ff ff00 0000 0000 0000
	0x0070:  0000 0000 0000 0000 0000 0000 0000 3d16
	0x0080:  a508 0400 0000 0000 0000 0000 0000 0000
	0x0090:  0000 0000 0000 7f08 0400 0000 0000 0040
	0x00a0:  bf0c b201 8003 faff 0000 faff 0000 c005
	0x00b0:  00a5 0000 00c3 0200 0edd 1c00 50f2 0410
	0x00c0:  4a00 0110 1044 0001 0210 4900 0a00 372a
	0x00d0:  0001 2005 0226 88dd 0900 1018 0201 001c
	0x00e0:  0000 dd18 0050 f202 0101 8800 03a4 0000
	0x00f0:  27a4 0000 4243 5e00 6232 2f00 cdc7 6b4f
06:09:53.350818 ff:ff:ff:ff:d8:0d (oui Unknown) > 80:00:00:00:ff:ff (oui Unknown), ethertype Unknown (0x1772), length 256: 
	0x0000:  8000 0000 ffff ffff ffff d80d 1772 583a
	0x0010:  d80d 1772 583a 3004 4f30 5705 0000 0000
	0x0020:  6400 1110 000f 5450 2d4c 696e 6b5f 3538
	0x0030:  3343 5f35 4701 088c 1298 24b0 4860 6c05
	0x0040:  0400 0100 0030 1401 0000 0fac 0401 0000
	0x0050:  0fac 0401 0000 0fac 020c 0046 0532 0801
	0x0060:  0000 2d1a ad09 17ff ff00 0000 0000 0000
	0x0070:  0000 0000 0000 0000 0000 0000 0000 3d16
	0x0080:  a508 0400 0000 0000 0000 0000 0000 0000
	0x0090:  0000 0000 0000 7f08 0400 0000 0000 0040
	0x00a0:  bf0c b201 8003 faff 0000 faff 0000 c005
	0x00b0:  00a5 0000 00c3 0200 0edd 1c00 50f2 0410
	0x00c0:  4a00 0110 1044 0001 0210 4900 0a00 372a
	0x00d0:  0001 2005 0226 88dd 0900 1018 0201 001c
	0x00e0:  0000 dd18 0050 f202 0101 8800 03a4 0000
	0x00f0:  27a4 0000 4243 5e00 6232 2f00 1fd3 b0af
06:09:53.452113 ff:ff:ff:ff:d8:0d (oui Unknown) > 80:00:00:00:ff:ff (oui Unknown), ethertype Unknown (0x1772), length 256: 
	0x0000:  8000 0000 ffff ffff ffff d80d 1772 583a
	0x0010:  d80d 1772 583a 4004 50c0 5805 0000 0000
	0x0020:  6400 1110 000f 5450 2d4c 696e 6b5f 3538
	0x0030:  3343 5f35 4701 088c 1298 24b0 4860 6c05
	0x0040:  0400 0100 0030 1401 0000 0fac 0401 0000
	0x0050:  0fac 0401 0000 0fac 020c 0046 0532 0801
	0x0060:  0000 2d1a ad09 17ff ff00 0000 0000 0000
	0x0070:  0000 0000 0000 0000 0000 0000 0000 3d16
	0x0080:  a508 0400 0000 0000 0000 0000 0000 0000
	0x0090:  0000 0000 0000 7f08 0400 0000 0000 0040
	0x00a0:  bf0c b201 8003 faff 0000 faff 0000 c005
	0x00b0:  00a5 0000 00c3 0200 0edd 1c00 50f2 0410
	0x00c0:  4a00 0110 1044 0001 0210 4900 0a00 372a
	0x00d0:  0001 2005 0226 88dd 0900 1018 0201 001c
	0x00e0:  0000 dd18 0050 f202 0101 8800 03a4 0000
	0x00f0:  27a4 0000 4243 5e00 6232 2f00 8995 eb48
06:09:53.538643 17:72:58:3a:a0:99 (oui Unknown) > c8:19:2c:00:d8:0d (oui Unknown), ethertype Unknown (0x9b08), length 30: 
	0x0000:  c819 2c00 d80d 1772 583a a099 9b08 3c33
	0x0010:  d80d 1772 583a e0a0 0000 9cfc 4093
06:09:53.538687 9b:08:3c:33:3e:3c (oui Unknown) > d4:00:00:00:a0:99 (oui Unknown), ethertype Unknown (0x0bd8), length 14: 
	0x0000:  d400 0000 a099 9b08 3c33 3e3c 0bd8
06:09:53.550098 ff:ff:ff:ff:d8:0d (oui Unknown) > 80:00:00:00:ff:ff (oui Unknown), ethertype Unknown (0x1772), length 256: 
	0x0000:  8000 0000 ffff ffff ffff d80d 1772 583a
	0x0010:  d80d 1772 583a 5004 3e50 5a05 0000 0000
	0x0020:  6400 1110 000f 5450 2d4c 696e 6b5f 3538
	0x0030:  3343 5f35 4701 088c 1298 24b0 4860 6c05
	0x0040:  0400 0100 0030 1401 0000 0fac 0401 0000
	0x0050:  0fac 0401 0000 0fac 020c 0046 0532 0801
	0x0060:  0000 2d1a ad09 17ff ff00 0000 0000 0000
	0x0070:  0000 0000 0000 0000 0000 0000 0000 3d16
	0x0080:  a508 0400 0000 0000 0000 0000 0000 0000
	0x0090:  0000 0000 0000 7f08 0400 0000 0000 0040
	0x00a0:  bf0c b201 8003 faff 0000 faff 0000 c005
	0x00b0:  00a5 0000 00c3 0200 0edd 1c00 50f2 0410
	0x00c0:  4a00 0110 1044 0001 0210 4900 0a00 372a
	0x00d0:  0001 2005 0226 88dd 0900 1018 0201 001c
	0x00e0:  0000 dd18 0050 f202 0101 8800 03a4 0000
	0x00f0:  27a4 0000 4243 5e00 6232 2f00 cd9e 03d7
06:09:53.656906 ff:ff:ff:ff:d8:0d (oui Unknown) > 80:00:00:00:ff:ff (oui Unknown), ethertype Unknown (0x1772), length 256: 
	0x0000:  8000 0000 ffff ffff ffff d80d 1772 583a
	0x0010:  d80d 1772 583a 6004 4ce0 5b05 0000 0000
	0x0020:  6400 1110 000f 5450 2d4c 696e 6b5f 3538
	0x0030:  3343 5f35 4701 088c 1298 24b0 4860 6c05
	0x0040:  0400 0100 0030 1401 0000 0fac 0401 0000
	0x0050:  0fac 0401 0000 0fac 020c 0046 0532 0801
	0x0060:  0000 2d1a ad09 17ff ff00 0000 0000 0000
	0x0070:  0000 0000 0000 0000 0000 0000 0000 3d16
	0x0080:  a508 0400 0000 0000 0000 0000 0000 0000
	0x0090:  0000 0000 0000 7f08 0400 0000 0000 0040
	0x00a0:  bf0c b201 8003 faff 0000 faff 0000 c005
	0x00b0:  00a5 0000 00c3 0200 0edd 1c00 50f2 0410
	0x00c0:  4a00 0110 1044 0001 0210 4900 0a00 372a
	0x00d0:  0001 2005 0226 88dd 0900 1018 0201 001c
	0x00e0:  0000 dd18 0050 f202 0101 8800 03a4 0000
	0x00f0:  27a4 0000 4243 5e00 6232 2f00 da60 a11e
06:09:53.760721 ff:ff:ff:ff:d8:0d (oui Unknown) > 80:00:00:00:ff:ff (oui Unknown), ethertype Unknown (0x1772), length 256: 
	0x0000:  8000 0000 ffff ffff ffff d80d 1772 583a
	0x0010:  d80d 1772 583a 7004 3e70 5d05 0000 0000
	0x0020:  6400 1110 000f 5450 2d4c 696e 6b5f 3538
	0x0030:  3343 5f35 4701 088c 1298 24b0 4860 6c05
	0x0040:  0400 0100 0030 1401 0000 0fac 0401 0000
	0x0050:  0fac 0401 0000 0fac 020c 0046 0532 0801
	0x0060:  0000 2d1a ad09 17ff ff00 0000 0000 0000
	0x0070:  0000 0000 0000 0000 0000 0000 0000 3d16
	0x0080:  a508 0400 0000 0000 0000 0000 0000 0000
	0x0090:  0000 0000 0000 7f08 0400 0000 0000 0040
	0x00a0:  bf0c b201 8003 faff 0000 faff 0000 c005
	0x00b0:  00a5 0000 00c3 0200 0edd 1c00 50f2 0410
	0x00c0:  4a00 0110 1044 0001 0210 4900 0a00 372a
	0x00d0:  0001 2005 0226 88dd 0900 1018 0201 001c
	0x00e0:  0000 dd18 0050 f202 0101 8800 03a4 0000
	0x00f0:  27a4 0000 4243 5e00 6232 2f00 9b64 c98a
06:09:53.802183 17:72:58:3a:a0:99 (oui Unknown) > b4:00:9e:00:d8:0d (oui Unknown), ethertype Unknown (0x9b08), length 20: 
	0x0000:  b400 9e00 d80d 1772 583a a099 9b08 3c33
	0x0010:  083f 9dd6
06:09:53.802231 9b:08:3c:33:3b:2b (oui Unknown) > c4:00:72:00:a0:99 (oui Unknown), ethertype Unknown (0xd011), length 14: 
	0x0000:  c400 7200 a099 9b08 3c33 3b2b d011
06:09:53.802250 9b:08:3c:33:d8:0d (oui Unknown) > 94:00:00:00:a0:99 (oui Unknown), ethertype Unknown (0x1772), length 32: 
	0x0000:  9400 0000 a099 9b08 3c33 d80d 1772 583a
	0x0010:  0560 600a 0100 0000 0000 0000 0215 c47a
06:09:53.802264 17:72:58:3a:a0:99 (oui Unknown) > c8:01:2c:00:d8:0d (oui Unknown), ethertype Unknown (0x9b08), length 30: 
	0x0000:  c801 2c00 d80d 1772 583a a099 9b08 3c33
	0x0010:  d80d 1772 583a f0a0 0600 5cb8 1fe1
06:09:53.805327 9b:08:3c:33:3e:3c (oui Unknown) > d4:00:00:00:a0:99 (oui Unknown), ethertype Unknown (0x0bd8), length 14: 
	0x0000:  d400 0000 a099 9b08 3c33 3e3c 0bd8
06:09:53.805370 9b:08:3c:33:d8:0d (oui Unknown) > b4:00:9e:00:a0:99 (oui Unknown), ethertype Unknown (0x1772), length 20: 
	0x0000:  b400 9e00 a099 9b08 3c33 d80d 1772 583a
	0x0010:  fcfd cb80
06:09:53.805386 17:72:58:3a:45:d7 (oui Unknown) > c4:00:72:00:d8:0d (oui Unknown), ethertype Unknown (0x8354), length 14: 
	0x0000:  c400 7200 d80d 1772 583a 45d7 8354
06:09:53.805401 17:72:58:3a:a0:99 (oui Unknown) > 94:00:00:00:d8:0d (oui Unknown), ethertype Unknown (0x9b08), length 32: 
	0x0000:  9400 0000 d80d 1772 583a a099 9b08 3c33
	0x0010:  0560 2005 0100 0000 0000 0000 5a53 cb30
06:09:53.857380 ff:ff:ff:ff:d8:0d (oui Unknown) > 80:00:00:00:ff:ff (oui Unknown), ethertype Unknown (0x1772), length 256: 
	0x0000:  8000 0000 ffff ffff ffff d80d 1772 583a
	0x0010:  d80d 1772 583a 8004 5800 5f05 0000 0000
	0x0020:  6400 1110 000f 5450 2d4c 696e 6b5f 3538
	0x0030:  3343 5f35 4701 088c 1298 24b0 4860 6c05
	0x0040:  0400 0100 0030 1401 0000 0fac 0401 0000
	0x0050:  0fac 0401 0000 0fac 020c 0046 0532 0801
	0x0060:  0000 2d1a ad09 17ff ff00 0000 0000 0000
	0x0070:  0000 0000 0000 0000 0000 0000 0000 3d16
	0x0080:  a508 0400 0000 0000 0000 0000 0000 0000
	0x0090:  0000 0000 0000 7f08 0400 0000 0000 0040
	0x00a0:  bf0c b201 8003 faff 0000 faff 0000 c005
	0x00b0:  00a5 0000 00c3 0200 0edd 1c00 50f2 0410
	0x00c0:  4a00 0110 1044 0001 0210 4900 0a00 372a
	0x00d0:  0001 2005 0226 88dd 0900 1018 0201 001c
	0x00e0:  0000 dd18 0050 f202 0101 8800 03a4 0000
	0x00f0:  27a4 0000 4243 5e00 6232 2f00 4d04 85ae
06:09:53.935451 17:72:58:3a:a0:99 (oui Unknown) > b4:00:9e:00:d8:0d (oui Unknown), ethertype Unknown (0x9b08), length 20: 
	0x0000:  b400 9e00 d80d 1772 583a a099 9b08 3c33
	0x0010:  083f 9dd6
06:09:53.935548 9b:08:3c:33:3b:2b (oui Unknown) > c4:00:72:00:a0:99 (oui Unknown), ethertype Unknown (0xd011), length 14: 
	0x0000:  c400 7200 a099 9b08 3c33 3b2b d011
06:09:53.935653 9b:08:3c:33:d8:0d (oui Unknown) > 94:00:00:00:a0:99 (oui Unknown), ethertype Unknown (0x1772), length 32: 
	0x0000:  9400 0000 a099 9b08 3c33 d80d 1772 583a
	0x0010:  0560 700a 0100 0000 0000 0000 ea94 6a5d
06:09:53.935767 9b:08:3c:33:d8:0d (oui Unknown) > b4:00:9e:00:a0:99 (oui Unknown), ethertype Unknown (0x1772), length 20: 
	0x0000:  b400 9e00 a099 9b08 3c33 d80d 1772 583a
	0x0010:  fcfd cb80
06:09:53.935851 17:72:58:3a:45:d7 (oui Unknown) > c4:00:72:00:d8:0d (oui Unknown), ethertype Unknown (0x8354), length 14: 
	0x0000:  c400 7200 d80d 1772 583a 45d7 8354
06:09:53.935952 17:72:58:3a:a0:99 (oui Unknown) > 94:00:00:00:d8:0d (oui Unknown), ethertype Unknown (0x9b08), length 32: 
	0x0000:  9400 0000 d80d 1772 583a a099 9b08 3c33
	0x0010:  0560 3005 0100 0000 0000 0000 b2d2 6517
06:09:53.959019 ff:ff:ff:ff:d8:0d (oui Unknown) > 80:00:00:00:ff:ff (oui Unknown), ethertype Unknown (0x1772), length 256: 
	0x0000:  8000 0000 ffff ffff ffff d80d 1772 583a
	0x0010:  d80d 1772 583a 9004 4390 6005 0000 0000
	0x0020:  6400 1110 000f 5450 2d4c 696e 6b5f 3538
	0x0030:  3343 5f35 4701 088c 1298 24b0 4860 6c05
	0x0040:  0400 0100 0030 1401 0000 0fac 0401 0000
	0x0050:  0fac 0401 0000 0fac 020c 0046 0532 0801
	0x0060:  0000 2d1a ad09 17ff ff00 0000 0000 0000
	0x0070:  0000 0000 0000 0000 0000 0000 0000 3d16
	0x0080:  a508 0400 0000 0000 0000 0000 0000 0000
	0x0090:  0000 0000 0000 7f08 0400 0000 0000 0040
	0x00a0:  bf0c b201 8003 faff 0000 faff 0000 c005
	0x00b0:  00a5 0000 00c3 0200 0edd 1c00 50f2 0410
	0x00c0:  4a00 0110 1044 0001 0210 4900 0a00 372a
	0x00d0:  0001 2005 0226 88dd 0900 1018 0201 001c
	0x00e0:  0000 dd18 0050 f202 0101 8800 03a4 0000
	0x00f0:  27a4 0000 4243 5e00 6232 2f00 48e8 9bb0
06:09:54.057824 17:72:58:3a:a0:99 (oui Unknown) > b4:00:9e:00:d8:0d (oui Unknown), ethertype Unknown (0x9b08), length 20: 
	0x0000:  b400 9e00 d80d 1772 583a a099 9b08 3c33
	0x0010:  083f 9dd6
06:09:54.057919 9b:08:3c:33:3b:2b (oui Unknown) > c4:00:72:00:a0:99 (oui Unknown), ethertype Unknown (0xd011), length 14: 
	0x0000:  c400 7200 a099 9b08 3c33 3b2b d011
06:09:54.058022 9b:08:3c:33:d8:0d (oui Unknown) > 94:00:00:00:a0:99 (oui Unknown), ethertype Unknown (0x1772), length 32: 
	0x0000:  9400 0000 a099 9b08 3c33 d80d 1772 583a
	0x0010:  0560 800a 0100 0000 0000 0000 7318 264d
06:09:54.061412 ff:ff:ff:ff:d8:0d (oui Unknown) > 80:00:00:00:ff:ff (oui Unknown), ethertype Unknown (0x1772), length 256: 
	0x0000:  8000 0000 ffff ffff ffff d80d 1772 583a
	0x0010:  d80d 1772 583a a004 3f20 6205 0000 0000
	0x0020:  6400 1110 000f 5450 2d4c 696e 6b5f 3538
	0x0030:  3343 5f35 4701 088c 1298 24b0 4860 6c05
	0x0040:  0400 0100 0030 1401 0000 0fac 0401 0000
	0x0050:  0fac 0401 0000 0fac 020c 0046 0532 0801
	0x0060:  0000 2d1a ad09 17ff ff00 0000 0000 0000
	0x0070:  0000 0000 0000 0000 0000 0000 0000 3d16
	0x0080:  a508 0400 0000 0000 0000 0000 0000 0000
	0x0090:  0000 0000 0000 7f08 0400 0000 0000 0040
	0x00a0:  bf0c b201 8003 faff 0000 faff 0000 c005
	0x00b0:  00a5 0000 00c3 0200 0edd 1c00 50f2 0410
	0x00c0:  4a00 0110 1044 0001 0210 4900 0a00 372a
	0x00d0:  0001 2005 0226 88dd 0900 1018 0201 001c
	0x00e0:  0000 dd18 0050 f202 0101 8800 03a4 0000
	0x00f0:  27a4 0000 4243 5e00 6232 2f00 220b c5ff
06:09:54.168680 ff:ff:ff:ff:d8:0d (oui Unknown) > 80:00:00:00:ff:ff (oui Unknown), ethertype Unknown (0x1772), length 256: 
	0x0000:  8000 0000 ffff ffff ffff d80d 1772 583a
	0x0010:  d80d 1772 583a b004 52b0 6305 0000 0000
	0x0020:  6400 1110 000f 5450 2d4c 696e 6b5f 3538
	0x0030:  3343 5f35 4701 088c 1298 24b0 4860 6c05
	0x0040:  0400 0100 0030 1401 0000 0fac 0401 0000
	0x0050:  0fac 0401 0000 0fac 020c 0046 0532 0801
	0x0060:  0000 2d1a ad09 17ff ff00 0000 0000 0000
	0x0070:  0000 0000 0000 0000 0000 0000 0000 3d16
	0x0080:  a508 0400 0000 0000 0000 0000 0000 0000
	0x0090:  0000 0000 0000 7f08 0400 0000 0000 0040
	0x00a0:  bf0c b201 8003 faff 0000 faff 0000 c005
	0x00b0:  00a5 0000 00c3 0200 0edd 1c00 50f2 0410
	0x00c0:  4a00 0110 1044 0001 0210 4900 0a00 372a
	0x00d0:  0001 2005 0226 88dd 0900 1018 0201 001c
	0x00e0:  0000 dd18 0050 f202 0101 8800 03a4 0000
	0x00f0:  27a4 0000 4243 5e00 6232 2f00 9a09 4599
06:09:54.188172 17:72:58:3a:a0:99 (oui Unknown) > c8:11:2c:00:d8:0d (oui Unknown), ethertype Unknown (0x9b08), length 30: 
	0x0000:  c811 2c00 d80d 1772 583a a099 9b08 3c33
	0x0010:  d80d 1772 583a 00a1 0600 a2e3 ac3e
06:09:54.188216 9b:08:3c:33:3e:3c (oui Unknown) > d4:00:00:00:a0:99 (oui Unknown), ethertype Unknown (0x0bd8), length 14: 
	0x0000:  d400 0000 a099 9b08 3c33 3e3c 0bd8
06:09:54.271429 ff:ff:ff:ff:d8:0d (oui Unknown) > 80:00:00:00:ff:ff (oui Unknown), ethertype Unknown (0x1772), length 256: 
	0x0000:  8000 0000 ffff ffff ffff d80d 1772 583a
	0x0010:  d80d 1772 583a c004 5040 6505 0000 0000
	0x0020:  6400 1110 000f 5450 2d4c 696e 6b5f 3538
	0x0030:  3343 5f35 4701 088c 1298 24b0 4860 6c05
	0x0040:  0400 0100 0030 1401 0000 0fac 0401 0000
	0x0050:  0fac 0401 0000 0fac 020c 0046 0532 0801
	0x0060:  0000 2d1a ad09 17ff ff00 0000 0000 0000
	0x0070:  0000 0000 0000 0000 0000 0000 0000 3d16
	0x0080:  a508 0400 0000 0000 0000 0000 0000 0000
	0x0090:  0000 0000 0000 7f08 0400 0000 0000 0040
	0x00a0:  bf0c b201 8003 faff 0000 faff 0000 c005
	0x00b0:  00a5 0000 00c3 0200 0edd 1c00 50f2 0410
	0x00c0:  4a00 0110 1044 0001 0210 4900 0a00 372a
	0x00d0:  0001 2005 0226 88dd 0900 1018 0201 001c
	0x00e0:  0000 dd18 0050 f202 0101 8800 03a4 0000
	0x00f0:  27a4 0000 4243 5e00 6232 2f00 25e6 cc37
06:09:54.373745 ff:ff:ff:ff:d8:0d (oui Unknown) > 80:00:00:00:ff:ff (oui Unknown), ethertype Unknown (0x1772), length 256: 
	0x0000:  8000 0000 ffff ffff ffff d80d 1772 583a
	0x0010:  d80d 1772 583a d004 55d0 6605 0000 0000
	0x0020:  6400 1110 000f 5450 2d4c 696e 6b5f 3538
	0x0030:  3343 5f35 4701 088c 1298 24b0 4860 6c05
	0x0040:  0400 0100 0030 1401 0000 0fac 0401 0000
	0x0050:  0fac 0401 0000 0fac 020c 0046 0532 0801
	0x0060:  0000 2d1a ad09 17ff ff00 0000 0000 0000
	0x0070:  0000 0000 0000 0000 0000 0000 0000 3d16
	0x0080:  a508 0400 0000 0000 0000 0000 0000 0000
	0x0090:  0000 0000 0000 7f08 0400 0000 0000 0040
	0x00a0:  bf0c b201 8003 faff 0000 faff 0000 c005
	0x00b0:  00a5 0000 00c3 0200 0edd 1c00 50f2 0410
	0x00c0:  4a00 0110 1044 0001 0210 4900 0a00 372a
	0x00d0:  0001 2005 0226 88dd 0900 1018 0201 001c
	0x00e0:  0000 dd18 0050 f202 0101 8800 03a4 0000
	0x00f0:  27a4 0000 4243 5e00 6232 2f00 a97f 07c6
06:09:54.476144 ff:ff:ff:ff:d8:0d (oui Unknown) > 80:00:00:00:ff:ff (oui Unknown), ethertype Unknown (0x1772), length 256: 
	0x0000:  8000 0000 ffff ffff ffff d80d 1772 583a
	0x0010:  d80d 1772 583a e004 4560 6805 0000 0000
	0x0020:  6400 1110 000f 5450 2d4c 696e 6b5f 3538
	0x0030:  3343 5f35 4701 088c 1298 24b0 4860 6c05
	0x0040:  0400 0100 0030 1401 0000 0fac 0401 0000
	0x0050:  0fac 0401 0000 0fac 020c 0046 0532 0801
	0x0060:  0000 2d1a ad09 17ff ff00 0000 0000 0000
	0x0070:  0000 0000 0000 0000 0000 0000 0000 3d16
	0x0080:  a508 0400 0000 0000 0000 0000 0000 0000
	0x0090:  0000 0000 0000 7f08 0400 0000 0000 0040
	0x00a0:  bf0c b201 8003 faff 0000 faff 0000 c005
	0x00b0:  00a5 0000 00c3 0200 0edd 1c00 50f2 0410
	0x00c0:  4a00 0110 1044 0001 0210 4900 0a00 372a
	0x00d0:  0001 2005 0226 88dd 0900 1018 0201 001c
	0x00e0:  0000 dd18 0050 f202 0101 8800 03a4 0000
	0x00f0:  27a4 0000 4243 5e00 6232 2f00 1def e330
06:09:54.578298 ff:ff:ff:ff:d8:0d (oui Unknown) > 80:00:00:00:ff:ff (oui Unknown), ethertype Unknown (0x1772), length 256: 
	0x0000:  8000 0000 ffff ffff ffff d80d 1772 583a
	0x0010:  d80d 1772 583a f004 41f0 6905 0000 0000
	0x0020:  6400 1110 000f 5450 2d4c 696e 6b5f 3538
	0x0030:  3343 5f35 4701 088c 1298 24b0 4860 6c05
	0x0040:  0400 0100 0030 1401 0000 0fac 0401 0000
	0x0050:  0fac 0401 0000 0fac 020c 0046 0532 0801
	0x0060:  0000 2d1a ad09 17ff ff00 0000 0000 0000
	0x0070:  0000 0000 0000 0000 0000 0000 0000 3d16
	0x0080:  a508 0400 0000 0000 0000 0000 0000 0000
	0x0090:  0000 0000 0000 7f08 0400 0000 0000 0040
	0x00a0:  bf0c b201 8003 faff 0000 faff 0000 c005
	0x00b0:  00a5 0000 00c3 0200 0edd 1c00 50f2 0410
	0x00c0:  4a00 0110 1044 0001 0210 4900 0a00 372a
	0x00d0:  0001 2005 0226 88dd 0900 1018 0201 001c
	0x00e0:  0000 dd18 0050 f202 0101 8800 03a4 0000
	0x00f0:  27a4 0000 4243 5e00 6232 2f00 9bd9 5293
06:09:54.680909 ff:ff:ff:ff:d8:0d (oui Unknown) > 80:00:00:00:ff:ff (oui Unknown), ethertype Unknown (0x1772), length 256: 
	0x0000:  8000 0000 ffff ffff ffff d80d 1772 583a
	0x0010:  d80d 1772 583a 0005 4b80 6b05 0000 0000
	0x0020:  6400 1110 000f 5450 2d4c 696e 6b5f 3538
	0x0030:  3343 5f35 4701 088c 1298 24b0 4860 6c05
	0x0040:  0400 0100 0030 1401 0000 0fac 0401 0000
	0x0050:  0fac 0401 0000 0fac 020c 0046 0532 0801
	0x0060:  0000 2d1a ad09 17ff ff00 0000 0000 0000
	0x0070:  0000 0000 0000 0000 0000 0000 0000 3d16
	0x0080:  a508 0400 0000 0000 0000 0000 0000 0000
	0x0090:  0000 0000 0000 7f08 0400 0000 0000 0040
	0x00a0:  bf0c b201 8003 faff 0000 faff 0000 c005
	0x00b0:  00a5 0000 00c3 0200 0edd 1c00 50f2 0410
	0x00c0:  4a00 0110 1044 0001 0210 4900 0a00 372a
	0x00d0:  0001 2005 0226 88dd 0900 1018 0201 001c
	0x00e0:  0000 dd18 0050 f202 0101 8800 03a4 0000
	0x00f0:  27a4 0000 4243 5e00 6232 2f00 dd6d 8261
06:09:54.734049 17:72:58:3a:a0:99 (oui Unknown) > b4:00:9e:00:d8:0d (oui Unknown), ethertype Unknown (0x9b08), length 20: 
	0x0000:  b400 9e00 d80d 1772 583a a099 9b08 3c33
	0x0010:  083f 9dd6
06:09:54.734093 9b:08:3c:33:3b:2b (oui Unknown) > c4:00:72:00:a0:99 (oui Unknown), ethertype Unknown (0xd011), length 14: 
	0x0000:  c400 7200 a099 9b08 3c33 3b2b d011
06:09:54.734110 9b:08:3c:33:d8:0d (oui Unknown) > 94:00:00:00:a0:99 (oui Unknown), ethertype Unknown (0x1772), length 32: 
	0x0000:  9400 0000 a099 9b08 3c33 d80d 1772 583a
	0x0010:  0500 7005 0100 0000 0000 0000 03cd 07d2
06:09:54.734125 17:72:58:3a:a0:99 (oui Unknown) > c8:01:2c:00:d8:0d (oui Unknown), ethertype Unknown (0x9b08), length 30: 
	0x0000:  c801 2c00 d80d 1772 583a a099 9b08 3c33
	0x0010:  d80d 1772 583a 10a1 0600 5393 a236
06:09:54.734138 9b:08:3c:33:3e:3c (oui Unknown) > d4:00:00:00:a0:99 (oui Unknown), ethertype Unknown (0x0bd8), length 14: 
	0x0000:  d400 0000 a099 9b08 3c33 3e3c 0bd8
06:09:54.734152 ff:ff:ff:ff:d8:0d (oui Unknown) > 08:42:00:00:ff:ff (oui Unknown), ethertype Unknown (0x1772), length 130: 
	0x0000:  0842 0000 ffff ffff ffff d80d 1772 583a
	0x0010:  a099 9b08 3c33 1005 6700 0060 0000 0000
	0x0020:  63bc 4a19 643f 0551 ac44 b862 d9ce 64be
	0x0030:  3972 b144 0f77 0429 6491 7a8f 6a7b c724
	0x0040:  3171 ad9d 9e89 49f6 191d 991b fe5f 27ca
	0x0050:  12a1 d7c2 21b1 6f0f aa26 57e5 cca8 5cdf
	0x0060:  e17b 2e8c 7610 8fac 2749 cb73 b5c2 d318
	0x0070:  1f10 e312 4332 0757 dbf0 3167 364e 7872
	0x0080:  f002
06:09:54.778996 ff:ff:ff:ff:d8:0d (oui Unknown) > 80:00:00:00:ff:ff (oui Unknown), ethertype Unknown (0x1772), length 256: 
	0x0000:  8000 0000 ffff ffff ffff d80d 1772 583a
	0x0010:  d80d 1772 583a 2005 5310 6d05 0000 0000
	0x0020:  6400 1110 000f 5450 2d4c 696e 6b5f 3538
	0x0030:  3343 5f35 4701 088c 1298 24b0 4860 6c05
	0x0040:  0400 0100 0030 1401 0000 0fac 0401 0000
	0x0050:  0fac 0401 0000 0fac 020c 0046 0532 0801
	0x0060:  0000 2d1a ad09 17ff ff00 0000 0000 0000
	0x0070:  0000 0000 0000 0000 0000 0000 0000 3d16
	0x0080:  a508 0400 0000 0000 0000 0000 0000 0000
	0x0090:  0000 0000 0000 7f08 0400 0000 0000 0040
	0x00a0:  bf0c b201 8003 faff 0000 faff 0000 c005
	0x00b0:  00a5 0000 00c3 0200 0edd 1c00 50f2 0410
	0x00c0:  4a00 0110 1044 0001 0210 4900 0a00 372a
	0x00d0:  0001 2005 0226 88dd 0900 1018 0201 001c
	0x00e0:  0000 dd18 0050 f202 0101 8800 03a4 0000
	0x00f0:  27a4 0000 4243 5e00 6232 2f00 721d 07a4
06:09:54.885729 ff:ff:ff:ff:d8:0d (oui Unknown) > 80:00:00:00:ff:ff (oui Unknown), ethertype Unknown (0x1772), length 256: 
	0x0000:  8000 0000 ffff ffff ffff d80d 1772 583a
	0x0010:  d80d 1772 583a 3005 56a0 6e05 0000 0000
	0x0020:  6400 1110 000f 5450 2d4c 696e 6b5f 3538
	0x0030:  3343 5f35 4701 088c 1298 24b0 4860 6c05
	0x0040:  0400 0100 0030 1401 0000 0fac 0401 0000
	0x0050:  0fac 0401 0000 0fac 020c 0046 0532 0801
	0x0060:  0000 2d1a ad09 17ff ff00 0000 0000 0000
	0x0070:  0000 0000 0000 0000 0000 0000 0000 3d16
	0x0080:  a508 0400 0000 0000 0000 0000 0000 0000
	0x0090:  0000 0000 0000 7f08 0400 0000 0000 0040
	0x00a0:  bf0c b201 8003 faff 0000 faff 0000 c005
	0x00b0:  00a5 0000 00c3 0200 0edd 1c00 50f2 0410
	0x00c0:  4a00 0110 1044 0001 0210 4900 0a00 372a
	0x00d0:  0001 2005 0226 88dd 0900 1018 0201 001c
	0x00e0:  0000 dd18 0050 f202 0101 8800 03a4 0000
	0x00f0:  27a4 0000 4243 5e00 6232 2f00 bdf5 16f8
06:09:54.937852 17:72:58:3a:a0:99 (oui Unknown) > c8:11:2c:00:d8:0d (oui Unknown), ethertype Unknown (0x9b08), length 30: 
	0x0000:  c811 2c00 d80d 1772 583a a099 9b08 3c33
	0x0010:  d80d 1772 583a 20a1 0600 9c4c 9e9e
06:09:54.937895 9b:08:3c:33:3e:3c (oui Unknown) > d4:00:00:00:a0:99 (oui Unknown), ethertype Unknown (0x0bd8), length 14: 
	0x0000:  d400 0000 a099 9b08 3c33 3e3c 0bd8
06:09:54.983727 ff:ff:ff:ff:d8:0d (oui Unknown) > 80:00:00:00:ff:ff (oui Unknown), ethertype Unknown (0x1772), length 256: 
	0x0000:  8000 0000 ffff ffff ffff d80d 1772 583a
	0x0010:  d80d 1772 583a 4005 5730 7005 0000 0000
	0x0020:  6400 1110 000f 5450 2d4c 696e 6b5f 3538
	0x0030:  3343 5f35 4701 088c 1298 24b0 4860 6c05
	0x0040:  0400 0100 0030 1401 0000 0fac 0401 0000
	0x0050:  0fac 0401 0000 0fac 020c 0046 0532 0801
	0x0060:  0000 2d1a ad09 17ff ff00 0000 0000 0000
	0x0070:  0000 0000 0000 0000 0000 0000 0000 3d16
	0x0080:  a508 0400 0000 0000 0000 0000 0000 0000
	0x0090:  0000 0000 0000 7f08 0400 0000 0000 0040
	0x00a0:  bf0c b201 8003 faff 0000 faff 0000 c005
	0x00b0:  00a5 0000 00c3 0200 0edd 1c00 50f2 0410
	0x00c0:  4a00 0110 1044 0001 0210 4900 0a00 372a
	0x00d0:  0001 2005 0226 88dd 0900 1018 0201 001c
	0x00e0:  0000 dd18 0050 f202 0101 8800 03a4 0000
	0x00f0:  27a4 0000 4243 5e00 6232 2f00 d46c 5fad
06:09:55.090510 ff:ff:ff:ff:d8:0d (oui Unknown) > 80:00:00:00:ff:ff (oui Unknown), ethertype Unknown (0x1772), length 256: 
	0x0000:  8000 0000 ffff ffff ffff d80d 1772 583a
	0x0010:  d80d 1772 583a 5005 40c0 7105 0000 0000
	0x0020:  6400 1110 000f 5450 2d4c 696e 6b5f 3538
	0x0030:  3343 5f35 4701 088c 1298 24b0 4860 6c05
	0x0040:  0400 0100 0030 1401 0000 0fac 0401 0000
	0x0050:  0fac 0401 0000 0fac 020c 0046 0532 0801
	0x0060:  0000 2d1a ad09 17ff ff00 0000 0000 0000
	0x0070:  0000 0000 0000 0000 0000 0000 0000 3d16
	0x0080:  a508 0400 0000 0000 0000 0000 0000 0000
	0x0090:  0000 0000 0000 7f08 0400 0000 0000 0040
	0x00a0:  bf0c b201 8003 faff 0000 faff 0000 c005
	0x00b0:  00a5 0000 00c3 0200 0edd 1c00 50f2 0410
	0x00c0:  4a00 0110 1044 0001 0210 4900 0a00 372a
	0x00d0:  0001 2005 0226 88dd 0900 1018 0201 001c
	0x00e0:  0000 dd18 0050 f202 0101 8800 03a4 0000
	0x00f0:  27a4 0000 4243 5e00 6232 2f00 468a 10f3
06:09:55.192876 ff:ff:ff:ff:d8:0d (oui Unknown) > 80:00:00:00:ff:ff (oui Unknown), ethertype Unknown (0x1772), length 256: 
	0x0000:  8000 0000 ffff ffff ffff d80d 1772 583a
	0x0010:  d80d 1772 583a 6005 3f50 7305 0000 0000
	0x0020:  6400 1110 000f 5450 2d4c 696e 6b5f 3538
	0x0030:  3343 5f35 4701 088c 1298 24b0 4860 6c05
	0x0040:  0400 0100 0030 1401 0000 0fac 0401 0000
	0x0050:  0fac 0401 0000 0fac 020c 0046 0532 0801
	0x0060:  0000 2d1a ad09 17ff ff00 0000 0000 0000
	0x0070:  0000 0000 0000 0000 0000 0000 0000 3d16
	0x0080:  a508 0400 0000 0000 0000 0000 0000 0000
	0x0090:  0000 0000 0000 7f08 0400 0000 0000 0040
	0x00a0:  bf0c b201 8003 faff 0000 faff 0000 c005
	0x00b0:  00a5 0000 00c3 0200 0edd 1c00 50f2 0410
	0x00c0:  4a00 0110 1044 0001 0210 4900 0a00 372a
	0x00d0:  0001 2005 0226 88dd 0900 1018 0201 001c
	0x00e0:  0000 dd18 0050 f202 0101 8800 03a4 0000
	0x00f0:  27a4 0000 4243 5e00 6232 2f00 f2bb 715b
06:09:55.295580 ff:ff:ff:ff:d8:0d (oui Unknown) > 80:00:00:00:ff:ff (oui Unknown), ethertype Unknown (0x1772), length 256: 
	0x0000:  8000 0000 ffff ffff ffff d80d 1772 583a
	0x0010:  d80d 1772 583a 7005 57e0 7405 0000 0000
	0x0020:  6400 1110 000f 5450 2d4c 696e 6b5f 3538
	0x0030:  3343 5f35 4701 088c 1298 24b0 4860 6c05
	0x0040:  0400 0101 0030 1401 0000 0fac 0401 0000
	0x0050:  0fac 0401 0000 0fac 020c 0046 0532 0801
	0x0060:  0000 2d1a ad09 17ff ff00 0000 0000 0000
	0x0070:  0000 0000 0000 0000 0000 0000 0000 3d16
	0x0080:  a508 0400 0000 0000 0000 0000 0000 0000
	0x0090:  0000 0000 0000 7f08 0400 0000 0000 0040
	0x00a0:  bf0c b201 8003 faff 0000 faff 0000 c005
	0x00b0:  00a5 0000 00c3 0200 0edd 1c00 50f2 0410
	0x00c0:  4a00 0110 1044 0001 0210 4900 0a00 372a
	0x00d0:  0001 2005 0226 88dd 0900 1018 0201 001c
	0x00e0:  0000 dd18 0050 f202 0101 8800 03a4 0000
	0x00f0:  27a4 0000 4243 5e00 6232 2f00 0eed 486e
06:09:55.295623 ff:ff:ff:ff:d8:0d (oui Unknown) > 08:42:00:00:ff:ff (oui Unknown), ethertype Unknown (0x1772), length 253: 
	0x0000:  0842 0000 ffff ffff ffff d80d 1772 583a
	0x0010:  d80d 1772 583c 8005 6800 0060 0000 0000
	0x0020:  3448 d4a3 879a c49b f015 e6f0 656f 866f
	0x0030:  6e4a 54ec 74a4 2007 44fe fef9 d814 e2a2
	0x0040:  658f e21e e44e fc5f c8ff 36f4 04f5 1ae6
	0x0050:  6c59 dec9 7c90 7f1d 7ee1 0f3d 702b df78
	0x0060:  b398 15ea 7b27 d19b fc97 6284 d733 bf6b
	0x0070:  d83b a3d5 6f8f c8bc 8193 4eeb 091d 7e72
	0x0080:  a7a1 9531 c13f 9c54 5c60 c6f6 2f7c 2090
	0x0090:  ee98 a2f2 dd56 78e6 3663 15a2 a151 cbc7
	0x00a0:  53b7 25f2 8779 ad3d 8662 53d5 7d22 587e
	0x00b0:  365d 9f9a 0487 188b 26c2 b6bc e738 406d
	0x00c0:  1306 8aeb e7d1 5ed7 4a1e 1c8c ead3 b1a1
	0x00d0:  5f72 363d fbad a6b0 ebe8 4a12 c8ff 2c0d
	0x00e0:  dbf1 1093 f01f 6758 fd1a f6e6 3132 d5be
	0x00f0:  0e70 994c e857 d262 dd32 c3a7 e7
06:09:55.397688 ff:ff:ff:ff:d8:0d (oui Unknown) > 80:00:00:00:ff:ff (oui Unknown), ethertype Unknown (0x1772), length 256: 
	0x0000:  8000 0000 ffff ffff ffff d80d 1772 583a
	0x0010:  d80d 1772 583a 9005 3e70 7605 0000 0000
	0x0020:  6400 1110 000f 5450 2d4c 696e 6b5f 3538
	0x0030:  3343 5f35 4701 088c 1298 24b0 4860 6c05
	0x0040:  0400 0100 0030 1401 0000 0fac 0401 0000
	0x0050:  0fac 0401 0000 0fac 020c 0046 0532 0801
	0x0060:  0000 2d1a ad09 17ff ff00 0000 0000 0000
	0x0070:  0000 0000 0000 0000 0000 0000 0000 3d16
	0x0080:  a508 0400 0000 0000 0000 0000 0000 0000
	0x0090:  0000 0000 0000 7f08 0400 0000 0000 0040
	0x00a0:  bf0c b201 8003 faff 0000 faff 0000 c005
	0x00b0:  00a5 0000 00c3 0200 0edd 1c00 50f2 0410
	0x00c0:  4a00 0110 1044 0001 0210 4900 0a00 372a
	0x00d0:  0001 2005 0226 88dd 0900 1018 0201 001c
	0x00e0:  0000 dd18 0050 f202 0101 8800 03a4 0000
	0x00f0:  27a4 0000 4243 5e00 6232 2f00 1ccc 0366
06:09:55.499811 ff:ff:ff:ff:d8:0d (oui Unknown) > 80:00:00:00:ff:ff (oui Unknown), ethertype Unknown (0x1772), length 256: 
	0x0000:  8000 0000 ffff ffff ffff d80d 1772 583a
	0x0010:  d80d 1772 583a a005 3e00 7805 0000 0000
	0x0020:  6400 1110 000f 5450 2d4c 696e 6b5f 3538
	0x0030:  3343 5f35 4701 088c 1298 24b0 4860 6c05
	0x0040:  0400 0100 0030 1401 0000 0fac 0401 0000
	0x0050:  0fac 0401 0000 0fac 020c 0046 0532 0801
	0x0060:  0000 2d1a ad09 17ff ff00 0000 0000 0000
	0x0070:  0000 0000 0000 0000 0000 0000 0000 3d16
	0x0080:  a508 0400 0000 0000 0000 0000 0000 0000
	0x0090:  0000 0000 0000 7f08 0400 0000 0000 0040
	0x00a0:  bf0c b201 8003 faff 0000 faff 0000 c005
	0x00b0:  00a5 0000 00c3 0200 0edd 1c00 50f2 0410
	0x00c0:  4a00 0110 1044 0001 0210 4900 0a00 372a
	0x00d0:  0001 2005 0226 88dd 0900 1018 0201 001c
	0x00e0:  0000 dd18 0050 f202 0101 8800 03a4 0000
	0x00f0:  27a4 0000 4243 5e00 6232 2f00 ad91 dc50
06:09:55.602499 ff:ff:ff:ff:d8:0d (oui Unknown) > 80:00:00:00:ff:ff (oui Unknown), ethertype Unknown (0x1772), length 256: 
	0x0000:  8000 0000 ffff ffff ffff d80d 1772 583a
	0x0010:  d80d 1772 583a b005 3e90 7905 0000 0000
	0x0020:  6400 1110 000f 5450 2d4c 696e 6b5f 3538
	0x0030:  3343 5f35 4701 088c 1298 24b0 4860 6c05
	0x0040:  0400 0100 0030 1401 0000 0fac 0401 0000
	0x0050:  0fac 0401 0000 0fac 020c 0046 0532 0801
	0x0060:  0000 2d1a ad09 17ff ff00 0000 0000 0000
	0x0070:  0000 0000 0000 0000 0000 0000 0000 3d16
	0x0080:  a508 0400 0000 0000 0000 0000 0000 0000
	0x0090:  0000 0000 0000 7f08 0400 0000 0000 0040
	0x00a0:  bf0c b201 8003 faff 0000 faff 0000 c005
	0x00b0:  00a5 0000 00c3 0200 0edd 1c00 50f2 0410
	0x00c0:  4a00 0110 1044 0001 0210 4900 0a00 372a
	0x00d0:  0001 2005 0226 88dd 0900 1018 0201 001c
	0x00e0:  0000 dd18 0050 f202 0101 8800 03a4 0000
	0x00f0:  27a4 0000 4243 5e00 6232 2f00 38df 30a3
06:09:55.704920 ff:ff:ff:ff:d8:0d (oui Unknown) > 80:00:00:00:ff:ff (oui Unknown), ethertype Unknown (0x1772), length 256: 
	0x0000:  8000 0000 ffff ffff ffff d80d 1772 583a
	0x0010:  d80d 1772 583a c005 5420 7b05 0000 0000
	0x0020:  6400 1110 000f 5450 2d4c 696e 6b5f 3538
	0x0030:  3343 5f35 4701 088c 1298 24b0 4860 6c05
	0x0040:  0400 0100 0030 1401 0000 0fac 0401 0000
	0x0050:  0fac 0401 0000 0fac 020c 0046 0532 0801
	0x0060:  0000 2d1a ad09 17ff ff00 0000 0000 0000
	0x0070:  0000 0000 0000 0000 0000 0000 0000 3d16
	0x0080:  a508 0400 0000 0000 0000 0000 0000 0000
	0x0090:  0000 0000 0000 7f08 0400 0000 0000 0040
	0x00a0:  bf0c b201 8003 faff 0000 faff 0000 c005
	0x00b0:  00a5 0000 00c3 0200 0edd 1c00 50f2 0410
	0x00c0:  4a00 0110 1044 0001 0210 4900 0a00 372a
	0x00d0:  0001 2005 0226 88dd 0900 1018 0201 001c
	0x00e0:  0000 dd18 0050 f202 0101 8800 03a4 0000
	0x00f0:  27a4 0000 4243 5e00 6232 2f00 f71d 5da6
06:09:55.807297 ff:ff:ff:ff:d8:0d (oui Unknown) > 80:00:00:00:ff:ff (oui Unknown), ethertype Unknown (0x1772), length 256: 
	0x0000:  8000 0000 ffff ffff ffff d80d 1772 583a
	0x0010:  d80d 1772 583a d005 3eb0 7c05 0000 0000
	0x0020:  6400 1110 000f 5450 2d4c 696e 6b5f 3538
	0x0030:  3343 5f35 4701 088c 1298 24b0 4860 6c05
	0x0040:  0400 0100 0030 1401 0000 0fac 0401 0000
	0x0050:  0fac 0401 0000 0fac 020c 0046 0532 0801
	0x0060:  0000 2d1a ad09 17ff ff00 0000 0000 0000
	0x0070:  0000 0000 0000 0000 0000 0000 0000 3d16
	0x0080:  a508 0400 0000 0000 0000 0000 0000 0000
	0x0090:  0000 0000 0000 7f08 0400 0000 0000 0040
	0x00a0:  bf0c b201 8003 faff 0000 faff 0000 c005
	0x00b0:  00a5 0000 00c3 0200 0edd 1c00 50f2 0410
	0x00c0:  4a00 0110 1044 0001 0210 4900 0a00 372a
	0x00d0:  0001 2005 0226 88dd 0900 1018 0201 001c
	0x00e0:  0000 dd18 0050 f202 0101 8800 03a4 0000
	0x00f0:  27a4 0000 4243 5e00 6232 2f00 4296 0f66
06:09:55.909714 ff:ff:ff:ff:d8:0d (oui Unknown) > 80:00:00:00:ff:ff (oui Unknown), ethertype Unknown (0x1772), length 256: 
	0x0000:  8000 0000 ffff ffff ffff d80d 1772 583a
	0x0010:  d80d 1772 583a e005 4240 7e05 0000 0000
	0x0020:  6400 1110 000f 5450 2d4c 696e 6b5f 3538
	0x0030:  3343 5f35 4701 088c 1298 24b0 4860 6c05
	0x0040:  0400 0100 0030 1401 0000 0fac 0401 0000
	0x0050:  0fac 0401 0000 0fac 020c 0046 0532 0801
	0x0060:  0000 2d1a ad09 17ff ff00 0000 0000 0000
	0x0070:  0000 0000 0000 0000 0000 0000 0000 3d16
	0x0080:  a508 0400 0000 0000 0000 0000 0000 0000
	0x0090:  0000 0000 0000 7f08 0400 0000 0000 0040
	0x00a0:  bf0c b201 8003 faff 0000 faff 0000 c005
	0x00b0:  00a5 0000 00c3 0200 0edd 1c00 50f2 0410
	0x00c0:  4a00 0110 1044 0001 0210 4900 0a00 372a
	0x00d0:  0001 2005 0226 88dd 0900 1018 0201 001c
	0x00e0:  0000 dd18 0050 f202 0101 8800 03a4 0000
	0x00f0:  27a4 0000 4243 5e00 6232 2f00 ef91 94a9
06:09:56.012110 ff:ff:ff:ff:d8:0d (oui Unknown) > 80:00:00:00:ff:ff (oui Unknown), ethertype Unknown (0x1772), length 256: 
	0x0000:  8000 0000 ffff ffff ffff d80d 1772 583a
	0x0010:  d80d 1772 583a f005 47d0 7f05 0000 0000
	0x0020:  6400 1110 000f 5450 2d4c 696e 6b5f 3538
	0x0030:  3343 5f35 4701 088c 1298 24b0 4860 6c05
	0x0040:  0400 0100 0030 1401 0000 0fac 0401 0000
	0x0050:  0fac 0401 0000 0fac 020c 0046 0532 0801
	0x0060:  0000 2d1a ad09 17ff ff00 0000 0000 0000
	0x0070:  0000 0000 0000 0000 0000 0000 0000 3d16
	0x0080:  a508 0400 0000 0000 0000 0000 0000 0000
	0x0090:  0000 0000 0000 7f08 0400 0000 0000 0040
	0x00a0:  bf0c b201 8003 faff 0000 faff 0000 c005
	0x00b0:  00a5 0000 00c3 0200 0edd 1c00 50f2 0410
	0x00c0:  4a00 0110 1044 0001 0210 4900 0a00 372a
	0x00d0:  0001 2005 0226 88dd 0900 1018 0201 001c
	0x00e0:  0000 dd18 0050 f202 0101 8800 03a4 0000
	0x00f0:  27a4 0000 4243 5e00 6232 2f00 dd3b 5685
06:09:56.114488 ff:ff:ff:ff:d8:0d (oui Unknown) > 80:00:00:00:ff:ff (oui Unknown), ethertype Unknown (0x1772), length 256: 
	0x0000:  8000 0000 ffff ffff ffff d80d 1772 583a
	0x0010:  d80d 1772 583a 0006 5460 8105 0000 0000
	0x0020:  6400 1110 000f 5450 2d4c 696e 6b5f 3538
	0x0030:  3343 5f35 4701 088c 1298 24b0 4860 6c05
	0x0040:  0400 0100 0030 1401 0000 0fac 0401 0000
	0x0050:  0fac 0401 0000 0fac 020c 0046 0532 0801
	0x0060:  0000 2d1a ad09 17ff ff00 0000 0000 0000
	0x0070:  0000 0000 0000 0000 0000 0000 0000 3d16
	0x0080:  a508 0400 0000 0000 0000 0000 0000 0000
	0x0090:  0000 0000 0000 7f08 0400 0000 0000 0040
	0x00a0:  bf0c b201 8003 faff 0000 faff 0000 c005
	0x00b0:  00a5 0000 00c3 0200 0edd 1c00 50f2 0410
	0x00c0:  4a00 0110 1044 0001 0210 4900 0a00 372a
	0x00d0:  0001 2005 0226 88dd 0900 1018 0201 001c
	0x00e0:  0000 dd18 0050 f202 0101 8800 03a4 0000
	0x00f0:  27a4 0000 4243 5e00 6232 2f00 3917 57a0
06:09:56.207313 17:72:58:3a:a0:99 (oui Unknown) > b4:00:9e:00:d8:0d (oui Unknown), ethertype Unknown (0x9b08), length 20: 
	0x0000:  b400 9e00 d80d 1772 583a a099 9b08 3c33
	0x0010:  083f 9dd6
06:09:56.207357 9b:08:3c:33:3b:2b (oui Unknown) > c4:00:72:00:a0:99 (oui Unknown), ethertype Unknown (0xd011), length 14: 
	0x0000:  c400 7200 a099 9b08 3c33 3b2b d011
06:09:56.207375 9b:08:3c:33:d8:0d (oui Unknown) > 94:00:00:00:a0:99 (oui Unknown), ethertype Unknown (0x1772), length 32: 
	0x0000:  9400 0000 a099 9b08 3c33 d80d 1772 583a
	0x0010:  0500 8005 0100 0000 0000 0000 9a41 4bc2
06:09:56.207390 17:72:58:3a:a0:99 (oui Unknown) > c8:01:2c:00:d8:0d (oui Unknown), ethertype Unknown (0x9b08), length 30: 
	0x0000:  c801 2c00 d80d 1772 583a a099 9b08 3c33
	0x0010:  d80d 1772 583a 30a1 0600 6d3c 9096
06:09:56.207404 9b:08:3c:33:3e:3c (oui Unknown) > d4:00:00:00:a0:99 (oui Unknown), ethertype Unknown (0x0bd8), length 14: 
	0x0000:  d400 0000 a099 9b08 3c33 3e3c 0bd8
06:09:56.207417 ff:ff:ff:ff:d8:0d (oui Unknown) > 08:42:00:00:ff:ff (oui Unknown), ethertype Unknown (0x1772), length 130: 
	0x0000:  0842 0000 ffff ffff ffff d80d 1772 583a
	0x0010:  a099 9b08 3c33 1006 6900 0060 0000 0000
	0x0020:  9fe6 0166 92c4 d815 e5ec b6db 50f1 de1e
	0x0030:  2fa6 a236 54d1 a53b 082c 59e5 233f cbf7
	0x0040:  3a39 c84f 789c 47f4 b998 3a27 db64 4b41
	0x0050:  0328 3b8a 2930 53c3 9e2b f93b c80b 7542
	0x0060:  5c6e eb22 9c9d 4ce7 5108 871f d523 390f
	0x0070:  92f5 7973 31e7 0e52 210d bf9e 3b95 c630
	0x0080:  1db2
06:09:56.212331 ff:ff:ff:ff:d8:0d (oui Unknown) > 80:00:00:00:ff:ff (oui Unknown), ethertype Unknown (0x1772), length 256: 
	0x0000:  8000 0000 ffff ffff ffff d80d 1772 583a
	0x0010:  d80d 1772 583a 2006 3ef0 8205 0000 0000
	0x0020:  6400 1110 000f 5450 2d4c 696e 6b5f 3538
	0x0030:  3343 5f35 4701 088c 1298 24b0 4860 6c05
	0x0040:  0400 0100 0030 1401 0000 0fac 0401 0000
	0x0050:  0fac 0401 0000 0fac 020c 0046 0532 0801
	0x0060:  0000 2d1a ad09 17ff ff00 0000 0000 0000
	0x0070:  0000 0000 0000 0000 0000 0000 0000 3d16
	0x0080:  a508 0400 0000 0000 0000 0000 0000 0000
	0x0090:  0000 0000 0000 7f08 0400 0000 0000 0040
	0x00a0:  bf0c b201 8003 faff 0000 faff 0000 c005
	0x00b0:  00a5 0000 00c3 0200 0edd 1c00 50f2 0410
	0x00c0:  4a00 0110 1044 0001 0210 4900 0a00 372a
	0x00d0:  0001 2005 0226 88dd 0900 1018 0201 001c
	0x00e0:  0000 dd18 0050 f202 0101 8800 03a4 0000
	0x00f0:  27a4 0000 4243 5e00 6232 2f00 fc1e 5fdf
06:09:56.320177 ff:ff:ff:ff:d8:0d (oui Unknown) > 80:00:00:00:ff:ff (oui Unknown), ethertype Unknown (0x1772), length 256: 
	0x0000:  8000 0000 ffff ffff ffff d80d 1772 583a
	0x0010:  d80d 1772 583a 3006 4e80 8405 0000 0000
	0x0020:  6400 1110 000f 5450 2d4c 696e 6b5f 3538
	0x0030:  3343 5f35 4701 088c 1298 24b0 4860 6c05
	0x0040:  0400 0100 0030 1401 0000 0fac 0401 0000
	0x0050:  0fac 0401 0000 0fac 020c 0046 0532 0801
	0x0060:  0000 2d1a ad09 17ff ff00 0000 0000 0000
	0x0070:  0000 0000 0000 0000 0000 0000 0000 3d16
	0x0080:  a508 0400 0000 0000 0000 0000 0000 0000
	0x0090:  0000 0000 0000 7f08 0400 0000 0000 0040
	0x00a0:  bf0c b201 8003 faff 0000 faff 0000 c005
	0x00b0:  00a5 0000 00c3 0200 0edd 1c00 50f2 0410
	0x00c0:  4a00 0110 1044 0001 0210 4900 0a00 372a
	0x00d0:  0001 2005 0226 88dd 0900 1018 0201 001c
	0x00e0:  0000 dd18 0050 f202 0101 8800 03a4 0000
	0x00f0:  27a4 0000 4243 5e00 6232 2f00 df7f 4479
06:09:56.413929 17:72:58:3a:a0:99 (oui Unknown) > c8:11:2c:00:d8:0d (oui Unknown), ethertype Unknown (0x9b08), length 30: 
	0x0000:  c811 2c00 d80d 1772 583a a099 9b08 3c33
	0x0010:  d80d 1772 583a 40a1 0600 9fbb b8a5
06:09:56.413973 9b:08:3c:33:3e:3c (oui Unknown) > d4:00:00:00:a0:99 (oui Unknown), ethertype Unknown (0x0bd8), length 14: 
	0x0000:  d400 0000 a099 9b08 3c33 3e3c 0bd8
06:09:56.417299 ff:ff:ff:ff:d8:0d (oui Unknown) > 80:00:00:00:ff:ff (oui Unknown), ethertype Unknown (0x1772), length 256: 
	0x0000:  8000 0000 ffff ffff ffff d80d 1772 583a
	0x0010:  d80d 1772 583a 4006 5910 8605 0000 0000
	0x0020:  6400 1110 000f 5450 2d4c 696e 6b5f 3538
	0x0030:  3343 5f35 4701 088c 1298 24b0 4860 6c05
	0x0040:  0400 0100 0030 1401 0000 0fac 0401 0000
	0x0050:  0fac 0401 0000 0fac 020c 0046 0532 0801
	0x0060:  0000 2d1a ad09 17ff ff00 0000 0000 0000
	0x0070:  0000 0000 0000 0000 0000 0000 0000 3d16
	0x0080:  a508 0400 0000 0000 0000 0000 0000 0000
	0x0090:  0000 0000 0000 7f08 0400 0000 0000 0040
	0x00a0:  bf0c b201 8003 faff 0000 faff 0000 c005
	0x00b0:  00a5 0000 00c3 0200 0edd 1c00 50f2 0410
	0x00c0:  4a00 0110 1044 0001 0210 4900 0a00 372a
	0x00d0:  0001 2005 0226 88dd 0900 1018 0201 001c
	0x00e0:  0000 dd18 0050 f202 0101 8800 03a4 0000
	0x00f0:  27a4 0000 4243 5e00 6232 2f00 7366 9bde
06:09:56.524121 ff:ff:ff:ff:d8:0d (oui Unknown) > 80:00:00:00:ff:ff (oui Unknown), ethertype Unknown (0x1772), length 256: 
	0x0000:  8000 0000 ffff ffff ffff d80d 1772 583a
	0x0010:  d80d 1772 583a 5006 55a0 8705 0000 0000
	0x0020:  6400 1110 000f 5450 2d4c 696e 6b5f 3538
	0x0030:  3343 5f35 4701 088c 1298 24b0 4860 6c05
	0x0040:  0400 0100 0030 1401 0000 0fac 0401 0000
	0x0050:  0fac 0401 0000 0fac 020c 0046 0532 0801
	0x0060:  0000 2d1a ad09 17ff ff00 0000 0000 0000
	0x0070:  0000 0000 0000 0000 0000 0000 0000 3d16
	0x0080:  a508 0400 0000 0000 0000 0000 0000 0000
	0x0090:  0000 0000 0000 7f08 0400 0000 0000 0040
	0x00a0:  bf0c b201 8003 faff 0000 faff 0000 c005
	0x00b0:  00a5 0000 00c3 0200 0edd 1c00 50f2 0410
	0x00c0:  4a00 0110 1044 0001 0210 4900 0a00 372a
	0x00d0:  0001 2005 0226 88dd 0900 1018 0201 001c
	0x00e0:  0000 dd18 0050 f202 0101 8800 03a4 0000
	0x00f0:  27a4 0000 4243 5e00 6232 2f00 90d1 4a70
06:09:56.626503 ff:ff:ff:ff:d8:0d (oui Unknown) > 80:00:00:00:ff:ff (oui Unknown), ethertype Unknown (0x1772), length 256: 
	0x0000:  8000 0000 ffff ffff ffff d80d 1772 583a
	0x0010:  d80d 1772 583a 6006 3f30 8905 0000 0000
	0x0020:  6400 1110 000f 5450 2d4c 696e 6b5f 3538
	0x0030:  3343 5f35 4701 088c 1298 24b0 4860 6c05
	0x0040:  0400 0100 0030 1401 0000 0fac 0401 0000
	0x0050:  0fac 0401 0000 0fac 020c 0046 0532 0801
	0x0060:  0000 2d1a ad09 17ff ff00 0000 0000 0000
	0x0070:  0000 0000 0000 0000 0000 0000 0000 3d16
	0x0080:  a508 0400 0000 0000 0000 0000 0000 0000
	0x0090:  0000 0000 0000 7f08 0400 0000 0000 0040
	0x00a0:  bf0c b201 8003 faff 0000 faff 0000 c005
	0x00b0:  00a5 0000 00c3 0200 0edd 1c00 50f2 0410
	0x00c0:  4a00 0110 1044 0001 0210 4900 0a00 372a
	0x00d0:  0001 2005 0226 88dd 0900 1018 0201 001c
	0x00e0:  0000 dd18 0050 f202 0101 8800 03a4 0000
	0x00f0:  27a4 0000 4243 5e00 6232 2f00 c941 a43e
06:09:56.730311 ff:ff:ff:ff:d8:0d (oui Unknown) > 80:00:00:00:ff:ff (oui Unknown), ethertype Unknown (0x1772), length 256: 
	0x0000:  8000 0000 ffff ffff ffff d80d 1772 583a
	0x0010:  d80d 1772 583a 7006 3ec0 8a05 0000 0000
	0x0020:  6400 1110 000f 5450 2d4c 696e 6b5f 3538
	0x0030:  3343 5f35 4701 088c 1298 24b0 4860 6c05
	0x0040:  0400 0100 0030 1401 0000 0fac 0401 0000
	0x0050:  0fac 0401 0000 0fac 020c 0046 0532 0801
	0x0060:  0000 2d1a ad09 17ff ff00 0000 0000 0000
	0x0070:  0000 0000 0000 0000 0000 0000 0000 3d16
	0x0080:  a508 0400 0000 0000 0000 0000 0000 0000
	0x0090:  0000 0000 0000 7f08 0400 0000 0000 0040
	0x00a0:  bf0c b201 8003 faff 0000 faff 0000 c005
	0x00b0:  00a5 0000 00c3 0200 0edd 1c00 50f2 0410
	0x00c0:  4a00 0110 1044 0001 0210 4900 0a00 372a
	0x00d0:  0001 2005 0226 88dd 0900 1018 0201 001c
	0x00e0:  0000 dd18 0050 f202 0101 8800 03a4 0000
	0x00f0:  27a4 0000 4243 5e00 6232 2f00 d235 2db2
06:09:56.831312 ff:ff:ff:ff:d8:0d (oui Unknown) > 80:00:00:00:ff:ff (oui Unknown), ethertype Unknown (0x1772), length 256: 
	0x0000:  8000 0000 ffff ffff ffff d80d 1772 583a
	0x0010:  d80d 1772 583a 8006 4d50 8c05 0000 0000
	0x0020:  6400 1110 000f 5450 2d4c 696e 6b5f 3538
	0x0030:  3343 5f35 4701 088c 1298 24b0 4860 6c05
	0x0040:  0400 0100 0030 1401 0000 0fac 0401 0000
	0x0050:  0fac 0401 0000 0fac 020c 0046 0532 0801
	0x0060:  0000 2d1a ad09 17ff ff00 0000 0000 0000
	0x0070:  0000 0000 0000 0000 0000 0000 0000 3d16
	0x0080:  a508 0400 0000 0000 0000 0000 0000 0000
	0x0090:  0000 0000 0000 7f08 0400 0000 0000 0040
	0x00a0:  bf0c b201 8003 faff 0000 faff 0000 c005
	0x00b0:  00a5 0000 00c3 0200 0edd 1c00 50f2 0410
	0x00c0:  4a00 0110 1044 0001 0210 4900 0a00 372a
	0x00d0:  0001 2005 0226 88dd 0900 1018 0201 001c
	0x00e0:  0000 dd18 0050 f202 0101 8800 03a4 0000
	0x00f0:  27a4 0000 4243 5e00 6232 2f00 d86c cd45
06:09:56.933739 ff:ff:ff:ff:d8:0d (oui Unknown) > 80:00:00:00:ff:ff (oui Unknown), ethertype Unknown (0x1772), length 256: 
	0x0000:  8000 0000 ffff ffff ffff d80d 1772 583a
	0x0010:  d80d 1772 583a 9006 3ee0 8d05 0000 0000
	0x0020:  6400 1110 000f 5450 2d4c 696e 6b5f 3538
	0x0030:  3343 5f35 4701 088c 1298 24b0 4860 6c05
	0x0040:  0400 0100 0030 1401 0000 0fac 0401 0000
	0x0050:  0fac 0401 0000 0fac 020c 0046 0532 0801
	0x0060:  0000 2d1a ad09 17ff ff00 0000 0000 0000
	0x0070:  0000 0000 0000 0000 0000 0000 0000 3d16
	0x0080:  a508 0400 0000 0000 0000 0000 0000 0000
	0x0090:  0000 0000 0000 7f08 0400 0000 0000 0040
	0x00a0:  bf0c b201 8003 faff 0000 faff 0000 c005
	0x00b0:  00a5 0000 00c3 0200 0edd 1c00 50f2 0410
	0x00c0:  4a00 0110 1044 0001 0210 4900 0a00 372a
	0x00d0:  0001 2005 0226 88dd 0900 1018 0201 001c
	0x00e0:  0000 dd18 0050 f202 0101 8800 03a4 0000
	0x00f0:  27a4 0000 4243 5e00 6232 2f00 324e e221
06:09:57.036203 ff:ff:ff:ff:d8:0d (oui Unknown) > 80:00:00:00:ff:ff (oui Unknown), ethertype Unknown (0x1772), length 256: 
	0x0000:  8000 0000 ffff ffff ffff d80d 1772 583a
	0x0010:  d80d 1772 583a a006 3e70 8f05 0000 0000
	0x0020:  6400 1110 000f 5450 2d4c 696e 6b5f 3538
	0x0030:  3343 5f35 4701 088c 1298 24b0 4860 6c05
	0x0040:  0400 0100 0030 1401 0000 0fac 0401 0000
	0x0050:  0fac 0401 0000 0fac 020c 0046 0532 0801
	0x0060:  0000 2d1a ad09 17ff ff00 0000 0000 0000
	0x0070:  0000 0000 0000 0000 0000 0000 0000 3d16
	0x0080:  a508 0400 0000 0000 0000 0000 0000 0000
	0x0090:  0000 0000 0000 7f08 0400 0000 0000 0040
	0x00a0:  bf0c b201 8003 faff 0000 faff 0000 c005
	0x00b0:  00a5 0000 00c3 0200 0edd 1c00 50f2 0410
	0x00c0:  4a00 0110 1044 0001 0210 4900 0a00 372a
	0x00d0:  0001 2005 0226 88dd 0900 1018 0201 001c
	0x00e0:  0000 dd18 0050 f202 0101 8800 03a4 0000
	0x00f0:  27a4 0000 4243 5e00 6232 2f00 8fea 7d43
06:09:57.139984 ff:ff:ff:ff:d8:0d (oui Unknown) > 80:00:00:00:ff:ff (oui Unknown), ethertype Unknown (0x1772), length 256: 
	0x0000:  8000 0000 ffff ffff ffff d80d 1772 583a
	0x0010:  d80d 1772 583a b006 5500 9105 0000 0000
	0x0020:  6400 1110 000f 5450 2d4c 696e 6b5f 3538
	0x0030:  3343 5f35 4701 088c 1298 24b0 4860 6c05
	0x0040:  0400 0100 0030 1401 0000 0fac 0401 0000
	0x0050:  0fac 0401 0000 0fac 020c 0046 0532 0801
	0x0060:  0000 2d1a ad09 17ff ff00 0000 0000 0000
	0x0070:  0000 0000 0000 0000 0000 0000 0000 3d16
	0x0080:  a508 0400 0000 0000 0000 0000 0000 0000
	0x0090:  0000 0000 0000 7f08 0400 0000 0000 0040
	0x00a0:  bf0c b201 8003 faff 0000 faff 0000 c005
	0x00b0:  00a5 0000 00c3 0200 0edd 1c00 50f2 0410
	0x00c0:  4a00 0110 1044 0001 0210 4900 0a00 372a
	0x00d0:  0001 2005 0226 88dd 0900 1018 0201 001c
	0x00e0:  0000 dd18 0050 f202 0101 8800 03a4 0000
	0x00f0:  27a4 0000 4243 5e00 6232 2f00 d57e 0709
