04:36:56.722452 cf:25:09:02:e0:ac (oui Unknown) > b4:00:c2:00:9c:3d (oui Unknown), ethertype Unknown (0xcbb0), length 20: 
	0x0000:  b400 c200 9c3d cf25 0902 e0ac cbb0 93a1
	0x0010:  9a96 dec9
04:36:56.740628 cb:64:52:59:73:3a (oui Unknown) > b4:00:ae:00:72:3a (oui Unknown), ethertype Unknown (0xcb64), length 20: 
	0x0000:  b400 ae00 723a cb64 5259 733a cb64 517d
	0x0010:  8aa8 6837
04:36:56.740678 cb:64:51:7d:c2:37 (oui Unknown) > c4:00:72:00:72:3a (oui Unknown), ethertype Unknown (0x56b2), length 14: 
	0x0000:  c400 7200 723a cb64 517d c237 56b2
04:36:56.740746 cb:64:51:7d:72:3a (oui Unknown) > 94:00:00:00:72:3a (oui Unknown), ethertype Unknown (0xcb64), length 32: 
	0x0000:  9400 0000 723a cb64 517d 723a cb64 5259
	0x0010:  0400 b06e ffff 0100 0000 0000 0129 6255
04:36:56.748833 cb:64:52:59:40:98 (oui Unknown) > 94:00:00:00:70:3a (oui Unknown), ethertype Unknown (0xad1c), length 32: 
	0x0000:  9400 0000 703a cb64 5259 4098 ad1c 0b60
	0x0010:  0500 206d 0100 0000 0000 0000 b073 82a0
04:36:56.752484 cb:64:52:59:40:98 (oui Unknown) > b4:00:9a:00:70:3a (oui Unknown), ethertype Unknown (0xad1c), length 20: 
	0x0000:  b400 9a00 703a cb64 5259 4098 ad1c 0b60
	0x0010:  7f0c dd86
04:36:56.752531 ad:1c:0b:60:c6:31 (oui Unknown) > c4:00:6e:00:40:98 (oui Unknown), ethertype Unknown (0xeabd), length 14: 
	0x0000:  c400 6e00 4098 ad1c 0b60 c631 eabd
04:36:56.752598 ad:1c:0b:60:70:3a (oui Unknown) > 94:00:00:00:40:98 (oui Unknown), ethertype Unknown (0xcb64), length 32: 
	0x0000:  9400 0000 4098 ad1c 0b60 703a cb64 5259
	0x0010:  0410 d043 0300 0000 0000 0000 0b47 8b8a
04:36:56.754630 cb:64:51:7d:73:3a (oui Unknown) > b4:00:b0:00:72:3a (oui Unknown), ethertype Unknown (0xcb64), length 20: 
	0x0000:  b400 b000 723a cb64 517d 733a cb64 5259
	0x0010:  186c 1238
04:36:56.754676 cb:64:52:59:57:89 (oui Unknown) > c4:00:74:00:72:3a (oui Unknown), ethertype Unknown (0x1763), length 14: 
	0x0000:  c400 7400 723a cb64 5259 5789 1763
04:36:56.754743 cb:64:52:59:72:3a (oui Unknown) > 94:00:00:00:72:3a (oui Unknown), ethertype Unknown (0xcb64), length 32: 
	0x0000:  9400 0000 723a cb64 5259 723a cb64 517d
	0x0010:  0400 50d1 ffff ffff ffff ffff be86 f9a1
04:36:56.802236 ff:ff:ff:ff:9c:3d (oui Unknown) > 80:00:00:00:ff:ff (oui Unknown), ethertype Unknown (0xcf25), length 347: 
	0x0000:  8000 0000 ffff ffff ffff 9c3d cf25 0902
	0x0010:  9c3d cf25 0902 1086 41e0 5727 6400 0000
	0x0020:  c800 1110 000b 5375 6544 6f64 6765 2035
	0x0030:  4701 088c 1298 24b0 4860 6c05 0401 0200
	0x0040:  0007 4655 5320 2401 1e28 011e 2c01 1e30
	0x0050:  011e 3401 1e38 011e 3c01 1e40 011e 6401
	0x0060:  1e68 011e 6c01 1e70 011e 7401 1e84 011e
	0x0070:  8801 1e8c 011e 9001 1e95 011e 9901 1e9d
	0x0080:  011e a101 1ea5 011e 0030 1401 0000 0fac
	0x0090:  0401 0000 0fac 0401 0000 0fac 020c 002d
	0x00a0:  1aef 0917 ffff ff00 0000 0000 0000 0000
	0x00b0:  0000 0000 0000 0000 0000 003d 1699 0f04
	0x00c0:  0000 0000 0000 0000 0000 0000 0000 0000
	0x00d0:  0000 007f 0804 0000 0000 0000 40bf 0cb2
	0x00e0:  5982 0fea ff00 00ea ff00 00c0 0501 9b00
	0x00f0:  0000 c304 0202 0202 dd31 0050 f204 104a
	0x0100:  0001 1010 4400 0102 1047 0010 1536 ee4f
	0x0110:  33ad 11be 2003 7826 26fe dff6 103c 0001
	0x0120:  0310 4900 0600 372a 0001 20dd 0900 1018
	0x0130:  0207 001c 0000 dd18 0050 f202 0101 8800
	0x0140:  03a4 0000 27a4 0000 4243 bc00 6232 6600
	0x0150:  4605 7208 0100 004c e694 1f
04:36:56.812956 ff:ff:ff:ff:d8:0d (oui Unknown) > 80:00:00:00:ff:ff (oui Unknown), ethertype Unknown (0x1772), length 256: 
	0x0000:  8000 0000 ffff ffff ffff d80d 1772 583a
	0x0010:  d80d 1772 583a 80f2 3ec0 8627 0000 0000
	0x0020:  6400 1110 000f 5450 2d4c 696e 6b5f 3538
	0x0030:  3343 5f35 4701 088c 1298 24b0 4860 6c05
	0x0040:  0400 0100 0030 1401 0000 0fac 0401 0000
	0x0050:  0fac 0401 0000 0fac 020c 0046 0532 0801
	0x0060:  0000 2d1a ad09 17ff ff00 0000 0000 0000
	0x0070:  0000 0000 0000 0000 0000 0000 0000 3d16
	0x0080:  9908 1100 0000 0000 0000 0000 0000 0000
	0x0090:  0000 0000 0000 7f08 0400 0000 0000 0040
	0x00a0:  bf0c b201 8003 faff 0000 faff 0000 c005
	0x00b0:  0099 0000 00c3 0200 0edd 1c00 50f2 0410
	0x00c0:  4a00 0110 1044 0001 0210 4900 0a00 372a
	0x00d0:  0001 2005 0226 88dd 0900 1018 0200 001c
	0x00e0:  0000 dd18 0050 f202 0101 8000 03a4 0000
	0x00f0:  27a4 0000 4243 5e00 6232 2f00 8af2 1343
04:36:56.919476 ff:ff:ff:ff:d8:0d (oui Unknown) > 80:00:00:00:ff:ff (oui Unknown), ethertype Unknown (0x1772), length 256: 
	0x0000:  8000 0000 ffff ffff ffff d80d 1772 583a
	0x0010:  d80d 1772 583a 90f2 5650 8827 0000 0000
	0x0020:  6400 1110 000f 5450 2d4c 696e 6b5f 3538
	0x0030:  3343 5f35 4701 088c 1298 24b0 4860 6c05
	0x0040:  0400 0100 0030 1401 0000 0fac 0401 0000
	0x0050:  0fac 0401 0000 0fac 020c 0046 0532 0801
	0x0060:  0000 2d1a ad09 17ff ff00 0000 0000 0000
	0x0070:  0000 0000 0000 0000 0000 0000 0000 3d16
	0x0080:  9908 1100 0000 0000 0000 0000 0000 0000
	0x0090:  0000 0000 0000 7f08 0400 0000 0000 0040
	0x00a0:  bf0c b201 8003 faff 0000 faff 0000 c005
	0x00b0:  0099 0000 00c3 0200 0edd 1c00 50f2 0410
	0x00c0:  4a00 0110 1044 0001 0210 4900 0a00 372a
	0x00d0:  0001 2005 0226 88dd 0900 1018 0200 001c
	0x00e0:  0000 dd18 0050 f202 0101 8000 03a4 0000
	0x00f0:  27a4 0000 4243 5e00 6232 2f00 b31d 95ea
04:36:56.987429 cb:64:52:59:73:3a (oui Unknown) > b4:00:ab:00:72:3a (oui Unknown), ethertype Unknown (0xcb64), length 20: 
	0x0000:  b400 ab00 723a cb64 5259 733a cb64 517d
	0x0010:  e7c6 cbb3
04:36:56.987490 cb:64:51:7d:38:13 (oui Unknown) > c4:00:6f:00:72:3a (oui Unknown), ethertype Unknown (0xe855), length 14: 
	0x0000:  c400 6f00 723a cb64 517d 3813 e855
04:36:56.987521 cb:64:51:7d:72:3a (oui Unknown) > 94:00:00:00:72:3a (oui Unknown), ethertype Unknown (0xcb64), length 32: 
	0x0000:  9400 0000 723a cb64 517d 723a cb64 5259
	0x0010:  0400 b06e ffff 0300 0000 0000 0a88 aa18
04:36:57.008114 5e:00:00:01:9c:3d (oui Unknown) > 08:62:00:00:01:00 (oui Unknown), ethertype Unknown (0xcf25), length 84: 
	0x0000:  0862 0000 0100 5e00 0001 9c3d cf25 0902
	0x0010:  9c3d cf25 0903 3086 092b 0060 0400 0000
	0x0020:  a733 71d9 5a4b e9ad d1b2 ae24 98b5 0425
	0x0030:  fe3e 4d45 81ac f7ba 729e 2ec2 657d 300b
	0x0040:  671e 6ff6 413d dfb9 1774 0618 feb4 7acb
	0x0050:  7868 d6d3
04:36:57.008172 00:00:00:00:9c:3d (oui Ethernet) > 08:42:00:00:33:33 (oui Unknown), ethertype Unknown (0xcf25), length 124: 
	0x0000:  0842 0000 3333 0000 0000 9c3d cf25 0902
	0x0010:  9c3d cf25 0903 4086 0a2b 0060 0400 0000
	0x0020:  8dad 3d19 2681 fa72 f796 09b8 9837 5435
	0x0030:  83eb 2bd9 3d90 34ac e473 c280 98b1 9b95
	0x0040:  af4d afcd a786 859d 3ad0 a471 c934 3018
	0x0050:  93b6 bba5 e175 57da d4b2 c19d 6a63 864e
	0x0060:  15b0 1f16 0fe9 df74 ea7a 758b af84 5181
	0x0070:  7288 793f 9f71 6ee9 9d19 d384
04:36:57.018423 ff:ff:ff:ff:d8:0d (oui Unknown) > 80:00:00:00:ff:ff (oui Unknown), ethertype Unknown (0x1772), length 256: 
	0x0000:  8000 0000 ffff ffff ffff d80d 1772 583a
	0x0010:  d80d 1772 583a a0f2 3ee0 8927 0000 0000
	0x0020:  6400 1110 000f 5450 2d4c 696e 6b5f 3538
	0x0030:  3343 5f35 4701 088c 1298 24b0 4860 6c05
	0x0040:  0400 0100 0030 1401 0000 0fac 0401 0000
	0x0050:  0fac 0401 0000 0fac 020c 0046 0532 0801
	0x0060:  0000 2d1a ad09 17ff ff00 0000 0000 0000
	0x0070:  0000 0000 0000 0000 0000 0000 0000 3d16
	0x0080:  9908 1100 0000 0000 0000 0000 0000 0000
	0x0090:  0000 0000 0000 7f08 0400 0000 0000 0040
	0x00a0:  bf0c b201 8003 faff 0000 faff 0000 c005
	0x00b0:  0099 0000 00c3 0200 0edd 1c00 50f2 0410
	0x00c0:  4a00 0110 1044 0001 0210 4900 0a00 372a
	0x00d0:  0001 2005 0226 88dd 0900 1018 0200 001c
	0x00e0:  0000 dd18 0050 f202 0101 8000 03a4 0000
	0x00f0:  27a4 0000 4243 5e00 6232 2f00 a6ca 1fdc
04:36:57.098701 cb:64:52:59:73:3a (oui Unknown) > b4:00:a8:00:72:3a (oui Unknown), ethertype Unknown (0xcb64), length 20: 
	0x0000:  b400 a800 723a cb64 5259 733a cb64 517d
	0x0010:  3ce3 aacf
04:36:57.098767 cb:64:51:7d:db:14 (oui Unknown) > c4:00:6c:00:72:3a (oui Unknown), ethertype Unknown (0x67db), length 14: 
	0x0000:  c400 6c00 723a cb64 517d db14 67db
04:36:57.098798 cb:64:52:59:73:3a (oui Unknown) > b4:00:ab:00:72:3a (oui Unknown), ethertype Unknown (0xcb64), length 20: 
	0x0000:  b400 ab00 723a cb64 5259 733a cb64 517d
	0x0010:  e7c6 cbb3
04:36:57.098826 cb:64:51:7d:38:13 (oui Unknown) > c4:00:6f:00:72:3a (oui Unknown), ethertype Unknown (0xe855), length 14: 
	0x0000:  c400 6f00 723a cb64 517d 3813 e855
04:36:57.100490 cb:64:51:7d:72:3a (oui Unknown) > 94:00:00:00:72:3a (oui Unknown), ethertype Unknown (0xcb64), length 32: 
	0x0000:  9400 0000 723a cb64 517d 723a cb64 5259
	0x0010:  0400 b06e ffff 0700 0000 0000 1cca 3b83
04:36:57.120844 ff:ff:ff:ff:d8:0d (oui Unknown) > 80:00:00:00:ff:ff (oui Unknown), ethertype Unknown (0x1772), length 256: 
	0x0000:  8000 0000 ffff ffff ffff d80d 1772 583a
	0x0010:  d80d 1772 583a b0f2 4670 8b27 0000 0000
	0x0020:  6400 1110 000f 5450 2d4c 696e 6b5f 3538
	0x0030:  3343 5f35 4701 088c 1298 24b0 4860 6c05
	0x0040:  0400 0100 0030 1401 0000 0fac 0401 0000
	0x0050:  0fac 0401 0000 0fac 020c 0046 0532 0801
	0x0060:  0000 2d1a ad09 17ff ff00 0000 0000 0000
	0x0070:  0000 0000 0000 0000 0000 0000 0000 3d16
	0x0080:  9908 1100 0000 0000 0000 0000 0000 0000
	0x0090:  0000 0000 0000 7f08 0400 0000 0000 0040
	0x00a0:  bf0c b201 8003 faff 0000 faff 0000 c005
	0x00b0:  0099 0000 00c3 0200 0edd 1c00 50f2 0410
	0x00c0:  4a00 0110 1044 0001 0210 4900 0a00 372a
	0x00d0:  0001 2005 0226 88dd 0900 1018 0200 001c
	0x00e0:  0000 dd18 0050 f202 0101 8000 03a4 0000
	0x00f0:  27a4 0000 4243 5e00 6232 2f00 d560 384c
04:36:57.227616 ff:ff:ff:ff:d8:0d (oui Unknown) > 80:00:00:00:ff:ff (oui Unknown), ethertype Unknown (0x1772), length 256: 
	0x0000:  8000 0000 ffff ffff ffff d80d 1772 583a
	0x0010:  d80d 1772 583a c0f2 3e00 8d27 0000 0000
	0x0020:  6400 1110 000f 5450 2d4c 696e 6b5f 3538
	0x0030:  3343 5f35 4701 088c 1298 24b0 4860 6c05
	0x0040:  0400 0100 0030 1401 0000 0fac 0401 0000
	0x0050:  0fac 0401 0000 0fac 020c 0046 0532 0801
	0x0060:  0000 2d1a ad09 17ff ff00 0000 0000 0000
	0x0070:  0000 0000 0000 0000 0000 0000 0000 3d16
	0x0080:  9908 1100 0000 0000 0000 0000 0000 0000
	0x0090:  0000 0000 0000 7f08 0400 0000 0000 0040
	0x00a0:  bf0c b201 8003 faff 0000 faff 0000 c005
	0x00b0:  0099 0000 00c3 0200 0edd 1c00 50f2 0410
	0x00c0:  4a00 0110 1044 0001 0210 4900 0a00 372a
	0x00d0:  0001 2005 0226 88dd 0900 1018 0200 001c
	0x00e0:  0000 dd18 0050 f202 0101 8000 03a4 0000
	0x00f0:  27a4 0000 4243 5e00 6232 2f00 0b31 9b2d
04:36:57.330040 ff:ff:ff:ff:d8:0d (oui Unknown) > 80:00:00:00:ff:ff (oui Unknown), ethertype Unknown (0x1772), length 256: 
	0x0000:  8000 0000 ffff ffff ffff d80d 1772 583a
	0x0010:  d80d 1772 583a d0f2 3e90 8e27 0000 0000
	0x0020:  6400 1110 000f 5450 2d4c 696e 6b5f 3538
	0x0030:  3343 5f35 4701 088c 1298 24b0 4860 6c05
	0x0040:  0400 0100 0030 1401 0000 0fac 0401 0000
	0x0050:  0fac 0401 0000 0fac 020c 0046 0532 0801
	0x0060:  0000 2d1a ad09 17ff ff00 0000 0000 0000
	0x0070:  0000 0000 0000 0000 0000 0000 0000 3d16
	0x0080:  9908 1100 0000 0000 0000 0000 0000 0000
	0x0090:  0000 0000 0000 7f08 0400 0000 0000 0040
	0x00a0:  bf0c b201 8003 faff 0000 faff 0000 c005
	0x00b0:  0099 0000 00c3 0200 0edd 1c00 50f2 0410
	0x00c0:  4a00 0110 1044 0001 0210 4900 0a00 372a
	0x00d0:  0001 2005 0226 88dd 0900 1018 0200 001c
	0x00e0:  0000 dd18 0050 f202 0101 8000 03a4 0000
	0x00f0:  27a4 0000 4243 5e00 6232 2f00 204c 7e03
04:36:57.404190 cb:64:52:59:73:3a (oui Unknown) > b4:00:c0:00:72:3a (oui Unknown), ethertype Unknown (0xcb64), length 20: 
	0x0000:  b400 c000 723a cb64 5259 733a cb64 517d
	0x0010:  2372 2e70
04:36:57.404249 cb:64:51:7d:0f:2a (oui Unknown) > c4:00:84:00:72:3a (oui Unknown), ethertype Unknown (0x528b), length 14: 
	0x0000:  c400 8400 723a cb64 517d 0f2a 528b
04:36:57.404279 cb:64:51:7d:72:3a (oui Unknown) > 94:00:00:00:72:3a (oui Unknown), ethertype Unknown (0xcb64), length 32: 
	0x0000:  9400 0000 723a cb64 517d 723a cb64 5259
	0x0010:  0400 b06e ffff 0f00 0000 0000 7148 686f
04:36:57.404307 cb:64:51:7d:73:3a (oui Unknown) > b4:00:b0:00:72:3a (oui Unknown), ethertype Unknown (0xcb64), length 20: 
	0x0000:  b400 b000 723a cb64 517d 733a cb64 5259
	0x0010:  186c 1238
04:36:57.404333 cb:64:52:59:57:89 (oui Unknown) > c4:00:74:00:72:3a (oui Unknown), ethertype Unknown (0x1763), length 14: 
	0x0000:  c400 7400 723a cb64 5259 5789 1763
04:36:57.404360 cb:64:52:59:72:3a (oui Unknown) > 94:00:00:00:72:3a (oui Unknown), ethertype Unknown (0xcb64), length 32: 
	0x0000:  9400 0000 723a cb64 5259 723a cb64 517d
	0x0010:  0400 60d1 ffff ffff ffff ffff 8604 0ac9
04:36:57.428041 ff:ff:ff:ff:d8:0d (oui Unknown) > 80:00:00:00:ff:ff (oui Unknown), ethertype Unknown (0x1772), length 256: 
	0x0000:  8000 0000 ffff ffff ffff d80d 1772 583a
	0x0010:  d80d 1772 583a e0f2 4c20 9027 0000 0000
	0x0020:  6400 1110 000f 5450 2d4c 696e 6b5f 3538
	0x0030:  3343 5f35 4701 088c 1298 24b0 4860 6c05
	0x0040:  0400 0100 0030 1401 0000 0fac 0401 0000
	0x0050:  0fac 0401 0000 0fac 020c 0046 0532 0801
	0x0060:  0000 2d1a ad09 17ff ff00 0000 0000 0000
	0x0070:  0000 0000 0000 0000 0000 0000 0000 3d16
	0x0080:  9908 1100 0000 0000 0000 0000 0000 0000
	0x0090:  0000 0000 0000 7f08 0400 0000 0000 0040
	0x00a0:  bf0c b201 8003 faff 0000 faff 0000 c005
	0x00b0:  0099 0000 00c3 0200 0edd 1c00 50f2 0410
	0x00c0:  4a00 0110 1044 0001 0210 4900 0a00 372a
	0x00d0:  0001 2005 0226 88dd 0900 1018 0200 001c
	0x00e0:  0000 dd18 0050 f202 0101 8000 03a4 0000
	0x00f0:  27a4 0000 4243 5e00 6232 2f00 a439 0884
04:36:57.534845 ff:ff:ff:ff:d8:0d (oui Unknown) > 80:00:00:00:ff:ff (oui Unknown), ethertype Unknown (0x1772), length 256: 
	0x0000:  8000 0000 ffff ffff ffff d80d 1772 583a
	0x0010:  d80d 1772 583a f0f2 51b0 9127 0000 0000
	0x0020:  6400 1110 000f 5450 2d4c 696e 6b5f 3538
	0x0030:  3343 5f35 4701 088c 1298 24b0 4860 6c05
	0x0040:  0400 0100 0030 1401 0000 0fac 0401 0000
	0x0050:  0fac 0401 0000 0fac 020c 0046 0532 0801
	0x0060:  0000 2d1a ad09 17ff ff00 0000 0000 0000
	0x0070:  0000 0000 0000 0000 0000 0000 0000 3d16
	0x0080:  9908 1100 0000 0000 0000 0000 0000 0000
	0x0090:  0000 0000 0000 7f08 0400 0000 0000 0040
	0x00a0:  bf0c b201 8003 faff 0000 faff 0000 c005
	0x00b0:  0099 0000 00c3 0200 0edd 1c00 50f2 0410
	0x00c0:  4a00 0110 1044 0001 0210 4900 0a00 372a
	0x00d0:  0001 2005 0226 88dd 0900 1018 0200 001c
	0x00e0:  0000 dd18 0050 f202 0101 8000 03a4 0000
	0x00f0:  27a4 0000 4243 5e00 6232 2f00 bd85 7492
04:36:57.584987 cb:64:51:7d:73:3a (oui Unknown) > b4:00:b8:00:72:3a (oui Unknown), ethertype Unknown (0xcb64), length 20: 
	0x0000:  b400 b800 723a cb64 517d 733a cb64 39ad
	0x0010:  47f6 9237
04:36:57.585044 cb:64:39:ad:8b:16 (oui Unknown) > c4:00:7c:00:72:3a (oui Unknown), ethertype Unknown (0x2b8c), length 14: 
	0x0000:  c400 7c00 723a cb64 39ad 8b16 2b8c
04:36:57.585075 cb:64:51:7d:73:3a (oui Unknown) > b4:00:b8:00:72:3a (oui Unknown), ethertype Unknown (0xcb64), length 20: 
	0x0000:  b400 b800 723a cb64 517d 733a cb64 39ad
	0x0010:  47f6 9237
04:36:57.585102 cb:64:39:ad:8b:16 (oui Unknown) > c4:00:7c:00:72:3a (oui Unknown), ethertype Unknown (0x2b8c), length 14: 
	0x0000:  c400 7c00 723a cb64 39ad 8b16 2b8c
04:36:57.585128 cb:64:39:ad:72:3a (oui Unknown) > 94:00:00:00:72:3a (oui Unknown), ethertype Unknown (0xcb64), length 32: 
	0x0000:  9400 0000 723a cb64 39ad 723a cb64 517d
	0x0010:  0400 50e2 ffff ffff ffff ffff 4865 84a0
04:36:57.586423 cb:64:39:ad:73:3a (oui Unknown) > b4:00:b0:00:72:3a (oui Unknown), ethertype Unknown (0xcb64), length 20: 
	0x0000:  b400 b000 723a cb64 39ad 733a cb64 517d
	0x0010:  4163 f187
04:36:57.586459 cb:64:51:7d:45:3e (oui Unknown) > c4:00:74:00:72:3a (oui Unknown), ethertype Unknown (0x3974), length 14: 
	0x0000:  c400 7400 723a cb64 517d 453e 3974
04:36:57.586486 cb:64:51:7d:72:3a (oui Unknown) > 94:00:00:00:72:3a (oui Unknown), ethertype Unknown (0xcb64), length 32: 
	0x0000:  9400 0000 723a cb64 517d 723a cb64 39ad
	0x0010:  0400 a090 ffff ffff ffff ffff 26a8 7d0e
04:36:57.632853 ff:ff:ff:ff:d8:0d (oui Unknown) > 80:00:00:00:ff:ff (oui Unknown), ethertype Unknown (0x1772), length 256: 
	0x0000:  8000 0000 ffff ffff ffff d80d 1772 583a
	0x0010:  d80d 1772 583a 00f3 4b40 9327 0000 0000
	0x0020:  6400 1110 000f 5450 2d4c 696e 6b5f 3538
	0x0030:  3343 5f35 4701 088c 1298 24b0 4860 6c05
	0x0040:  0400 0100 0030 1401 0000 0fac 0401 0000
	0x0050:  0fac 0401 0000 0fac 020c 0046 0532 0801
	0x0060:  0000 2d1a ad09 17ff ff00 0000 0000 0000
	0x0070:  0000 0000 0000 0000 0000 0000 0000 3d16
	0x0080:  9908 1100 0000 0000 0000 0000 0000 0000
	0x0090:  0000 0000 0000 7f08 0400 0000 0000 0040
	0x00a0:  bf0c b201 8003 faff 0000 faff 0000 c005
	0x00b0:  0099 0000 00c3 0200 0edd 1c00 50f2 0410
	0x00c0:  4a00 0110 1044 0001 0210 4900 0a00 372a
	0x00d0:  0001 2005 0226 88dd 0900 1018 0200 001c
	0x00e0:  0000 dd18 0050 f202 0101 8000 03a4 0000
	0x00f0:  27a4 0000 4243 5e00 6232 2f00 3918 5a20
04:36:57.635578 cb:64:39:ad:73:3a (oui Unknown) > b4:00:b0:00:72:3a (oui Unknown), ethertype Unknown (0xcb64), length 20: 
	0x0000:  b400 b000 723a cb64 39ad 733a cb64 517d
	0x0010:  4163 f187
04:36:57.635616 cb:64:51:7d:45:3e (oui Unknown) > c4:00:74:00:72:3a (oui Unknown), ethertype Unknown (0x3974), length 14: 
	0x0000:  c400 7400 723a cb64 517d 453e 3974
04:36:57.635644 cb:64:51:7d:72:3a (oui Unknown) > 94:00:00:00:72:3a (oui Unknown), ethertype Unknown (0xcb64), length 32: 
	0x0000:  9400 0000 723a cb64 517d 723a cb64 39ad
	0x0010:  0400 b090 ffff ffff ffff ffff ce29 d329
04:36:57.639982 cb:64:52:59:73:3a (oui Unknown) > b4:00:ab:00:72:3a (oui Unknown), ethertype Unknown (0xcb64), length 20: 
	0x0000:  b400 ab00 723a cb64 5259 733a cb64 517d
	0x0010:  e7c6 cbb3
04:36:57.640023 cb:64:51:7d:38:13 (oui Unknown) > c4:00:6f:00:72:3a (oui Unknown), ethertype Unknown (0xe855), length 14: 
	0x0000:  c400 6f00 723a cb64 517d 3813 e855
04:36:57.640053 cb:64:51:7d:72:3a (oui Unknown) > 94:00:00:00:72:3a (oui Unknown), ethertype Unknown (0xcb64), length 32: 
	0x0000:  9400 0000 723a cb64 517d 723a cb64 5259
	0x0010:  0400 b06e ffff 1f00 0000 0000 ea4a be6c
04:36:57.640082 cb:64:51:7d:73:3a (oui Unknown) > b4:00:b8:00:72:3a (oui Unknown), ethertype Unknown (0xcb64), length 20: 
	0x0000:  b400 b800 723a cb64 517d 733a cb64 39ad
	0x0010:  47f6 9237
04:36:57.640111 cb:64:39:ad:8b:16 (oui Unknown) > c4:00:7c:00:72:3a (oui Unknown), ethertype Unknown (0x2b8c), length 14: 
	0x0000:  c400 7c00 723a cb64 39ad 8b16 2b8c
04:36:57.640139 cb:64:39:ad:72:3a (oui Unknown) > 94:00:00:00:72:3a (oui Unknown), ethertype Unknown (0xcb64), length 32: 
	0x0000:  9400 0000 723a cb64 39ad 723a cb64 517d
	0x0010:  0400 60e2 ffff ffff ffff ffff 70e7 77c8
04:36:57.640167 cb:64:51:7d:73:3a (oui Unknown) > b4:00:b0:00:72:3a (oui Unknown), ethertype Unknown (0xcb64), length 20: 
	0x0000:  b400 b000 723a cb64 517d 733a cb64 5259
	0x0010:  186c 1238
04:36:57.640196 cb:64:52:59:57:89 (oui Unknown) > c4:00:74:00:72:3a (oui Unknown), ethertype Unknown (0x1763), length 14: 
	0x0000:  c400 7400 723a cb64 5259 5789 1763
04:36:57.640227 cb:64:52:59:72:3a (oui Unknown) > 94:00:00:00:72:3a (oui Unknown), ethertype Unknown (0xcb64), length 32: 
	0x0000:  9400 0000 723a cb64 5259 723a cb64 517d
	0x0010:  0400 70d1 ffff ffff ffff ffff 6e85 a4ee
04:36:57.640644 cb:64:39:ad:73:3a (oui Unknown) > b4:00:b0:00:72:3a (oui Unknown), ethertype Unknown (0xcb64), length 20: 
	0x0000:  b400 b000 723a cb64 39ad 733a cb64 517d
	0x0010:  4163 f187
04:36:57.640858 cb:64:51:7d:45:3e (oui Unknown) > c4:00:74:00:72:3a (oui Unknown), ethertype Unknown (0x3974), length 14: 
	0x0000:  c400 7400 723a cb64 517d 453e 3974
04:36:57.641166 cb:64:39:ad:73:3a (oui Unknown) > b4:00:b0:00:72:3a (oui Unknown), ethertype Unknown (0xcb64), length 20: 
	0x0000:  b400 b000 723a cb64 39ad 733a cb64 517d
	0x0010:  4163 f187
04:36:57.641379 cb:64:51:7d:45:3e (oui Unknown) > c4:00:74:00:72:3a (oui Unknown), ethertype Unknown (0x3974), length 14: 
	0x0000:  c400 7400 723a cb64 517d 453e 3974
04:36:57.641682 cb:64:51:7d:72:3a (oui Unknown) > 94:00:00:00:72:3a (oui Unknown), ethertype Unknown (0xcb64), length 32: 
	0x0000:  9400 0000 723a cb64 517d 723a cb64 39ad
	0x0010:  0400 c090 ffff ffff ffff ffff 56ac 9adf
04:36:57.641985 cb:64:51:7d:73:3a (oui Unknown) > b4:00:b8:00:72:3a (oui Unknown), ethertype Unknown (0xcb64), length 20: 
	0x0000:  b400 b800 723a cb64 517d 733a cb64 39ad
	0x0010:  47f6 9237
04:36:57.642197 cb:64:39:ad:8b:16 (oui Unknown) > c4:00:7c:00:72:3a (oui Unknown), ethertype Unknown (0x2b8c), length 14: 
	0x0000:  c400 7c00 723a cb64 39ad 8b16 2b8c
04:36:57.642505 cb:64:39:ad:72:3a (oui Unknown) > 94:00:00:00:72:3a (oui Unknown), ethertype Unknown (0xcb64), length 32: 
	0x0000:  9400 0000 723a cb64 39ad 723a cb64 517d
	0x0010:  0400 70e2 ffff ffff ffff ffff 9866 d9ef
04:36:57.642808 cb:64:52:59:73:3a (oui Unknown) > b4:00:b2:00:72:3a (oui Unknown), ethertype Unknown (0xcb64), length 20: 
	0x0000:  b400 b200 723a cb64 5259 733a cb64 517d
	0x0010:  cb05 2f7b
04:36:57.643031 cb:64:51:7d:38:39 (oui Unknown) > c4:00:76:00:72:3a (oui Unknown), ethertype Unknown (0x1c36), length 14: 
	0x0000:  c400 7600 723a cb64 517d 3839 1c36
04:36:57.643342 cb:64:51:7d:72:3a (oui Unknown) > 94:00:00:00:72:3a (oui Unknown), ethertype Unknown (0xcb64), length 32: 
	0x0000:  9400 0000 723a cb64 517d 723a cb64 5259
	0x0010:  0400 b06e ffff 3f00 0000 0000 dc4f 126b
04:36:57.649059 cb:64:39:ad:73:3a (oui Unknown) > b4:00:b0:00:72:3a (oui Unknown), ethertype Unknown (0xcb64), length 20: 
	0x0000:  b400 b000 723a cb64 39ad 733a cb64 517d
	0x0010:  4163 f187
04:36:57.649280 cb:64:51:7d:45:3e (oui Unknown) > c4:00:74:00:72:3a (oui Unknown), ethertype Unknown (0x3974), length 14: 
	0x0000:  c400 7400 723a cb64 517d 453e 3974
04:36:57.649584 cb:64:51:7d:72:3a (oui Unknown) > 94:00:00:00:72:3a (oui Unknown), ethertype Unknown (0xcb64), length 32: 
	0x0000:  9400 0000 723a cb64 517d 723a cb64 39ad
	0x0010:  0400 d090 ffff ffff ffff ffff be2d 34f8
04:36:57.649886 cb:64:51:7d:73:3a (oui Unknown) > b4:00:b0:00:72:3a (oui Unknown), ethertype Unknown (0xcb64), length 20: 
	0x0000:  b400 b000 723a cb64 517d 733a cb64 5259
	0x0010:  186c 1238
04:36:57.650097 cb:64:52:59:57:89 (oui Unknown) > c4:00:74:00:72:3a (oui Unknown), ethertype Unknown (0x1763), length 14: 
	0x0000:  c400 7400 723a cb64 5259 5789 1763
04:36:57.650400 cb:64:52:59:72:3a (oui Unknown) > 94:00:00:00:72:3a (oui Unknown), ethertype Unknown (0xcb64), length 32: 
	0x0000:  9400 0000 723a cb64 5259 723a cb64 517d
	0x0010:  0400 80d1 ffff ffff ffff ffff f709 e8fe
04:36:57.650701 cb:64:52:59:73:3a (oui Unknown) > b4:00:a8:00:72:3a (oui Unknown), ethertype Unknown (0xcb64), length 20: 
	0x0000:  b400 a800 723a cb64 5259 733a cb64 517d
	0x0010:  3ce3 aacf
04:36:57.650912 cb:64:51:7d:db:14 (oui Unknown) > c4:00:6c:00:72:3a (oui Unknown), ethertype Unknown (0x67db), length 14: 
	0x0000:  c400 6c00 723a cb64 517d db14 67db
04:36:57.651215 cb:64:51:7d:73:3a (oui Unknown) > b4:00:b8:00:72:3a (oui Unknown), ethertype Unknown (0xcb64), length 20: 
	0x0000:  b400 b800 723a cb64 517d 733a cb64 39ad
	0x0010:  47f6 9237
04:36:57.651433 cb:64:39:ad:8b:16 (oui Unknown) > c4:00:7c:00:72:3a (oui Unknown), ethertype Unknown (0x2b8c), length 14: 
	0x0000:  c400 7c00 723a cb64 39ad 8b16 2b8c
04:36:57.651736 cb:64:39:ad:72:3a (oui Unknown) > 94:00:00:00:72:3a (oui Unknown), ethertype Unknown (0xcb64), length 32: 
	0x0000:  9400 0000 723a cb64 39ad 723a cb64 517d
	0x0010:  0400 80e2 ffff ffff ffff ffff 01ea 95ff
04:36:57.652038 cb:64:52:59:73:3a (oui Unknown) > b4:00:ae:00:72:3a (oui Unknown), ethertype Unknown (0xcb64), length 20: 
	0x0000:  b400 ae00 723a cb64 5259 733a cb64 517d
	0x0010:  8aa8 6837
04:36:57.652250 cb:64:51:7d:c2:37 (oui Unknown) > c4:00:72:00:72:3a (oui Unknown), ethertype Unknown (0x56b2), length 14: 
	0x0000:  c400 7200 723a cb64 517d c237 56b2
04:36:57.652557 cb:64:51:7d:72:3a (oui Unknown) > 94:00:00:00:72:3a (oui Unknown), ethertype Unknown (0xcb64), length 32: 
	0x0000:  9400 0000 723a cb64 517d 723a cb64 5259
	0x0010:  0400 b06e ffff 7f00 0000 0000 b045 4a64
04:36:57.652858 cb:64:51:7d:73:3a (oui Unknown) > b4:00:ac:00:72:3a (oui Unknown), ethertype Unknown (0xcb64), length 20: 
	0x0000:  b400 ac00 723a cb64 517d 733a cb64 5259
	0x0010:  59c1 5574
04:36:57.653070 cb:64:52:59:ad:87 (oui Unknown) > c4:00:70:00:72:3a (oui Unknown), ethertype Unknown (0x5de7), length 14: 
	0x0000:  c400 7000 723a cb64 5259 ad87 5de7
04:36:57.653373 cb:64:52:59:72:3a (oui Unknown) > 94:00:00:00:72:3a (oui Unknown), ethertype Unknown (0xcb64), length 32: 
	0x0000:  9400 0000 723a cb64 5259 723a cb64 517d
	0x0010:  0400 90d1 ffff ffff ffff ffff 1f88 46d9
04:36:57.654146 cb:64:51:7d:73:3a (oui Unknown) > b4:00:b0:00:72:3a (oui Unknown), ethertype Unknown (0xcb64), length 20: 
	0x0000:  b400 b000 723a cb64 517d 733a cb64 5259
	0x0010:  186c 1238
04:36:57.654356 cb:64:52:59:57:89 (oui Unknown) > c4:00:74:00:72:3a (oui Unknown), ethertype Unknown (0x1763), length 14: 
	0x0000:  c400 7400 723a cb64 5259 5789 1763
04:36:57.654660 cb:64:52:59:72:3a (oui Unknown) > 94:00:00:00:72:3a (oui Unknown), ethertype Unknown (0xcb64), length 32: 
	0x0000:  9400 0000 723a cb64 5259 723a cb64 517d
	0x0010:  0400 a0d1 ffff ffff ffff ffff 270a b5b1
04:36:57.654961 cb:64:51:7d:73:3a (oui Unknown) > b4:00:b0:00:72:3a (oui Unknown), ethertype Unknown (0xcb64), length 20: 
	0x0000:  b400 b000 723a cb64 517d 733a cb64 39ad
	0x0010:  71e8 cb04
04:36:57.660957 cb:64:39:ad:3e:0d (oui Unknown) > c4:00:74:00:72:3a (oui Unknown), ethertype Unknown (0xce5f), length 14: 
	0x0000:  c400 7400 723a cb64 39ad 3e0d ce5f
04:36:57.661270 cb:64:51:7d:73:3a (oui Unknown) > b4:00:bc:00:72:3a (oui Unknown), ethertype Unknown (0xcb64), length 20: 
	0x0000:  b400 bc00 723a cb64 517d 733a cb64 39ad
	0x0010:  5c79 3e2e
04:36:57.661484 cb:64:39:ad:8e:17 (oui Unknown) > c4:00:80:00:72:3a (oui Unknown), ethertype Unknown (0xef24), length 14: 
	0x0000:  c400 8000 723a cb64 39ad 8e17 ef24
04:36:57.661787 cb:64:39:ad:72:3a (oui Unknown) > 94:00:00:00:72:3a (oui Unknown), ethertype Unknown (0xcb64), length 32: 
	0x0000:  9400 0000 723a cb64 39ad 723a cb64 517d
	0x0010:  0400 90e2 ffff ffff ffff ffff e96b 3bd8
04:36:57.662090 cb:64:52:59:73:3a (oui Unknown) > b4:00:ab:00:72:3a (oui Unknown), ethertype Unknown (0xcb64), length 20: 
	0x0000:  b400 ab00 723a cb64 5259 733a cb64 517d
	0x0010:  e7c6 cbb3
04:36:57.662301 cb:64:51:7d:38:13 (oui Unknown) > c4:00:6f:00:72:3a (oui Unknown), ethertype Unknown (0xe855), length 14: 
	0x0000:  c400 6f00 723a cb64 517d 3813 e855
04:36:57.662604 cb:64:51:7d:72:3a (oui Unknown) > 94:00:00:00:72:3a (oui Unknown), ethertype Unknown (0xcb64), length 32: 
	0x0000:  9400 0000 723a cb64 517d 723a cb64 5259
	0x0010:  0400 b06e ffff ff00 0000 0000 6851 fa7a
04:36:57.662907 cb:64:39:ad:73:3a (oui Unknown) > b4:00:b0:00:72:3a (oui Unknown), ethertype Unknown (0xcb64), length 20: 
	0x0000:  b400 b000 723a cb64 39ad 733a cb64 517d
	0x0010:  4163 f187
04:36:57.663119 cb:64:51:7d:45:3e (oui Unknown) > c4:00:74:00:72:3a (oui Unknown), ethertype Unknown (0x3974), length 14: 
	0x0000:  c400 7400 723a cb64 517d 453e 3974
04:36:57.663426 cb:64:51:7d:72:3a (oui Unknown) > 94:00:00:00:72:3a (oui Unknown), ethertype Unknown (0xcb64), length 32: 
	0x0000:  9400 0000 723a cb64 517d 723a cb64 39ad
	0x0010:  0400 e090 ffff ffff ffff ffff 86af c790
04:36:57.663736 cb:64:39:ad:73:3a (oui Unknown) > b4:00:b0:00:72:3a (oui Unknown), ethertype Unknown (0xcb64), length 20: 
	0x0000:  b400 b000 723a cb64 39ad 733a cb64 517d
	0x0010:  4163 f187
04:36:57.663948 cb:64:51:7d:45:3e (oui Unknown) > c4:00:74:00:72:3a (oui Unknown), ethertype Unknown (0x3974), length 14: 
	0x0000:  c400 7400 723a cb64 517d 453e 3974
04:36:57.664252 cb:64:51:7d:72:3a (oui Unknown) > 94:00:00:00:72:3a (oui Unknown), ethertype Unknown (0xcb64), length 32: 
	0x0000:  9400 0000 723a cb64 517d 723a cb64 39ad
	0x0010:  0400 f090 ffff ffff ffff ffff 6e2e 69b7
04:36:57.664555 cb:64:52:59:73:3a (oui Unknown) > b4:00:ab:00:72:3a (oui Unknown), ethertype Unknown (0xcb64), length 20: 
	0x0000:  b400 ab00 723a cb64 5259 733a cb64 517d
	0x0010:  e7c6 cbb3
04:36:57.664768 cb:64:51:7d:38:13 (oui Unknown) > c4:00:6f:00:72:3a (oui Unknown), ethertype Unknown (0xe855), length 14: 
	0x0000:  c400 6f00 723a cb64 517d 3813 e855
04:36:57.665080 cb:64:51:7d:72:3a (oui Unknown) > 94:00:00:00:72:3a (oui Unknown), ethertype Unknown (0xcb64), length 32: 
	0x0000:  9400 0000 723a cb64 517d 723a cb64 5259
	0x0010:  0400 b06e ffff ff01 0000 0000 d878 9a47
04:36:57.665392 cb:64:51:7d:73:3a (oui Unknown) > b4:00:b8:00:72:3a (oui Unknown), ethertype Unknown (0xcb64), length 20: 
	0x0000:  b400 b800 723a cb64 517d 733a cb64 39ad
	0x0010:  47f6 9237
04:36:57.665611 cb:64:39:ad:8b:16 (oui Unknown) > c4:00:7c:00:72:3a (oui Unknown), ethertype Unknown (0x2b8c), length 14: 
	0x0000:  c400 7c00 723a cb64 39ad 8b16 2b8c
04:36:57.665914 cb:64:39:ad:72:3a (oui Unknown) > 94:00:00:00:72:3a (oui Unknown), ethertype Unknown (0xcb64), length 32: 
	0x0000:  9400 0000 723a cb64 39ad 723a cb64 517d
	0x0010:  0400 a0e2 ffff ffff ffff ffff d1e9 c8b0
04:36:57.666216 cb:64:51:7d:73:3a (oui Unknown) > b4:00:b0:00:72:3a (oui Unknown), ethertype Unknown (0xcb64), length 20: 
	0x0000:  b400 b000 723a cb64 517d 733a cb64 5259
	0x0010:  186c 1238
04:36:57.666428 cb:64:52:59:57:89 (oui Unknown) > c4:00:74:00:72:3a (oui Unknown), ethertype Unknown (0x1763), length 14: 
	0x0000:  c400 7400 723a cb64 5259 5789 1763
04:36:57.666731 cb:64:52:59:72:3a (oui Unknown) > 94:00:00:00:72:3a (oui Unknown), ethertype Unknown (0xcb64), length 32: 
	0x0000:  9400 0000 723a cb64 5259 723a cb64 517d
	0x0010:  0400 b0d1 ffff ffff ffff ffff cf8b 1b96
04:36:57.667033 cb:64:39:ad:73:3a (oui Unknown) > b4:00:b0:00:72:3a (oui Unknown), ethertype Unknown (0xcb64), length 20: 
	0x0000:  b400 b000 723a cb64 39ad 733a cb64 517d
	0x0010:  4163 f187
04:36:57.667245 cb:64:51:7d:45:3e (oui Unknown) > c4:00:74:00:72:3a (oui Unknown), ethertype Unknown (0x3974), length 14: 
	0x0000:  c400 7400 723a cb64 517d 453e 3974
04:36:57.667548 cb:64:51:7d:72:3a (oui Unknown) > 94:00:00:00:72:3a (oui Unknown), ethertype Unknown (0xcb64), length 32: 
	0x0000:  9400 0000 723a cb64 517d 723a cb64 39ad
	0x0010:  0400 0091 ffff ffff ffff ffff b4b6 5eb0
04:36:57.667864 cb:64:52:59:73:3a (oui Unknown) > b4:00:ab:00:72:3a (oui Unknown), ethertype Unknown (0xcb64), length 20: 
	0x0000:  b400 ab00 723a cb64 5259 733a cb64 517d
	0x0010:  e7c6 cbb3
04:36:57.673846 cb:64:51:7d:38:13 (oui Unknown) > c4:00:6f:00:72:3a (oui Unknown), ethertype Unknown (0xe855), length 14: 
	0x0000:  c400 6f00 723a cb64 517d 3813 e855
04:36:57.674161 cb:64:51:7d:72:3a (oui Unknown) > 94:00:00:00:72:3a (oui Unknown), ethertype Unknown (0xcb64), length 32: 
	0x0000:  9400 0000 723a cb64 517d 723a cb64 5259
	0x0010:  0400 b06e ffff ff03 0000 0000 b82b 5a3d
04:36:57.739638 ff:ff:ff:ff:d8:0d (oui Unknown) > 80:00:00:00:ff:ff (oui Unknown), ethertype Unknown (0x1772), length 256: 
	0x0000:  8000 0000 ffff ffff ffff d80d 1772 583a
	0x0010:  d80d 1772 583a 10f3 4cd0 9427 0000 0000
	0x0020:  6400 1110 000f 5450 2d4c 696e 6b5f 3538
	0x0030:  3343 5f35 4701 088c 1298 24b0 4860 6c05
	0x0040:  0400 0100 0030 1401 0000 0fac 0401 0000
	0x0050:  0fac 0401 0000 0fac 020c 0046 0532 0801
	0x0060:  0000 2d1a ad09 17ff ff00 0000 0000 0000
	0x0070:  0000 0000 0000 0000 0000 0000 0000 3d16
	0x0080:  9908 1100 0000 0000 0000 0000 0000 0000
	0x0090:  0000 0000 0000 7f08 0400 0000 0000 0040
	0x00a0:  bf0c b201 8003 faff 0000 faff 0000 c005
	0x00b0:  0099 0000 00c3 0200 0edd 1c00 50f2 0410
	0x00c0:  4a00 0110 1044 0001 0210 4900 0a00 372a
	0x00d0:  0001 2005 0226 88dd 0900 1018 0200 001c
	0x00e0:  0000 dd18 0050 f202 0101 8000 03a4 0000
	0x00f0:  27a4 0000 4243 5e00 6232 2f00 a1df 6475
04:36:57.842057 ff:ff:ff:ff:d8:0d (oui Unknown) > 80:00:00:00:ff:ff (oui Unknown), ethertype Unknown (0x1772), length 256: 
	0x0000:  8000 0000 ffff ffff ffff d80d 1772 583a
	0x0010:  d80d 1772 583a 20f3 4660 9627 0000 0000
	0x0020:  6400 1110 000f 5450 2d4c 696e 6b5f 3538
	0x0030:  3343 5f35 4701 088c 1298 24b0 4860 6c05
	0x0040:  0400 0100 0030 1401 0000 0fac 0401 0000
	0x0050:  0fac 0401 0000 0fac 020c 0046 0532 0801
	0x0060:  0000 2d1a ad09 17ff ff00 0000 0000 0000
	0x0070:  0000 0000 0000 0000 0000 0000 0000 3d16
	0x0080:  9908 1100 0000 0000 0000 0000 0000 0000
	0x0090:  0000 0000 0000 7f08 0400 0000 0000 0040
	0x00a0:  bf0c b201 8003 faff 0000 faff 0000 c005
	0x00b0:  0099 0000 00c3 0200 0edd 1c00 50f2 0410
	0x00c0:  4a00 0110 1044 0001 0210 4900 0a00 372a
	0x00d0:  0001 2005 0226 88dd 0900 1018 0200 001c
	0x00e0:  0000 dd18 0050 f202 0101 8000 03a4 0000
	0x00f0:  27a4 0000 4243 5e00 6232 2f00 50c5 0ddf
04:36:57.944440 ff:ff:ff:ff:d8:0d (oui Unknown) > 80:00:00:00:ff:ff (oui Unknown), ethertype Unknown (0x1772), length 256: 
	0x0000:  8000 0000 ffff ffff ffff d80d 1772 583a
	0x0010:  d80d 1772 583a 30f3 4ef0 9727 0000 0000
	0x0020:  6400 1110 000f 5450 2d4c 696e 6b5f 3538
	0x0030:  3343 5f35 4701 088c 1298 24b0 4860 6c05
	0x0040:  0400 0100 0030 1401 0000 0fac 0401 0000
	0x0050:  0fac 0401 0000 0fac 020c 0046 0532 0801
	0x0060:  0000 2d1a ad09 17ff ff00 0000 0000 0000
	0x0070:  0000 0000 0000 0000 0000 0000 0000 3d16
	0x0080:  9908 1100 0000 0000 0000 0000 0000 0000
	0x0090:  0000 0000 0000 7f08 0400 0000 0000 0040
	0x00a0:  bf0c b201 8003 faff 0000 faff 0000 c005
	0x00b0:  0099 0000 00c3 0200 0edd 1c00 50f2 0410
	0x00c0:  4a00 0110 1044 0001 0210 4900 0a00 372a
	0x00d0:  0001 2005 0226 88dd 0900 1018 0200 001c
	0x00e0:  0000 dd18 0050 f202 0101 8000 03a4 0000
	0x00f0:  27a4 0000 4243 5e00 6232 2f00 e37b 5b8c
04:36:58.046831 ff:ff:ff:ff:d8:0d (oui Unknown) > 80:00:00:00:ff:ff (oui Unknown), ethertype Unknown (0x1772), length 256: 
	0x0000:  8000 0000 ffff ffff ffff d80d 1772 583a
	0x0010:  d80d 1772 583a 40f3 4b80 9927 0000 0000
	0x0020:  6400 1110 000f 5450 2d4c 696e 6b5f 3538
	0x0030:  3343 5f35 4701 088c 1298 24b0 4860 6c05
	0x0040:  0400 0100 0030 1401 0000 0fac 0401 0000
	0x0050:  0fac 0401 0000 0fac 020c 0046 0532 0801
	0x0060:  0000 2d1a ad09 17ff ff00 0000 0000 0000
	0x0070:  0000 0000 0000 0000 0000 0000 0000 3d16
	0x0080:  9908 1100 0000 0000 0000 0000 0000 0000
	0x0090:  0000 0000 0000 7f08 0400 0000 0000 0040
	0x00a0:  bf0c b201 8003 faff 0000 faff 0000 c005
	0x00b0:  0099 0000 00c3 0200 0edd 1c00 50f2 0410
	0x00c0:  4a00 0110 1044 0001 0210 4900 0a00 372a
	0x00d0:  0001 2005 0226 88dd 0900 1018 0200 001c
	0x00e0:  0000 dd18 0050 f202 0101 8000 03a4 0000
	0x00f0:  27a4 0000 4243 5e00 6232 2f00 6742 5620
04:36:58.078104 9b:08:3c:33:d8:0d (oui Unknown) > d0:00:3c:00:a0:99 (oui Unknown), ethertype Unknown (0x1772), length 37: 
	0x0000:  d000 3c00 a099 9b08 3c33 d80d 1772 583a
	0x0010:  d80d 1772 583a 50f3 0300 4f03 1000 0090
	0x0020:  0042 e57f 4e
04:36:58.078162 9b:08:3c:33:d8:0d (oui Unknown) > d0:08:3c:00:a0:99 (oui Unknown), ethertype Unknown (0x1772), length 37: 
	0x0000:  d008 3c00 a099 9b08 3c33 d80d 1772 583a
	0x0010:  d80d 1772 583a 50f3 0300 4f03 1000 0090
	0x0020:  0016 d16b ad
04:36:58.078193 9b:08:3c:33:d8:0d (oui Unknown) > d0:08:3c:00:a0:99 (oui Unknown), ethertype Unknown (0x1772), length 37: 
	0x0000:  d008 3c00 a099 9b08 3c33 d80d 1772 583a
	0x0010:  d80d 1772 583a 50f3 0300 4f03 1000 0090
	0x0020:  0016 d16b ad
04:36:58.078220 9b:08:3c:33:d8:0d (oui Unknown) > d0:08:3c:00:a0:99 (oui Unknown), ethertype Unknown (0x1772), length 37: 
	0x0000:  d008 3c00 a099 9b08 3c33 d80d 1772 583a
	0x0010:  d80d 1772 583a 50f3 0300 4f03 1000 0090
	0x0020:  0016 d16b ad
04:36:58.078999 9b:08:3c:33:d8:0d (oui Unknown) > d0:08:3c:00:a0:99 (oui Unknown), ethertype Unknown (0x1772), length 37: 
	0x0000:  d008 3c00 a099 9b08 3c33 d80d 1772 583a
	0x0010:  d80d 1772 583a 50f3 0300 4f03 1000 0090
	0x0020:  0016 d16b ad
04:36:58.079308 9b:08:3c:33:d8:0d (oui Unknown) > d0:08:3c:00:a0:99 (oui Unknown), ethertype Unknown (0x1772), length 37: 
	0x0000:  d008 3c00 a099 9b08 3c33 d80d 1772 583a
	0x0010:  d80d 1772 583a 50f3 0300 4f03 1000 0090
	0x0020:  0016 d16b ad
04:36:58.079615 9b:08:3c:33:d8:0d (oui Unknown) > d0:08:3c:00:a0:99 (oui Unknown), ethertype Unknown (0x1772), length 37: 
	0x0000:  d008 3c00 a099 9b08 3c33 d80d 1772 583a
	0x0010:  d80d 1772 583a 50f3 0300 4f03 1000 0090
	0x0020:  0016 d16b ad
04:36:58.150589 ff:ff:ff:ff:d8:0d (oui Unknown) > 80:00:00:00:ff:ff (oui Unknown), ethertype Unknown (0x1772), length 256: 
	0x0000:  8000 0000 ffff ffff ffff d80d 1772 583a
	0x0010:  d80d 1772 583a 60f3 3f10 9b27 0000 0000
	0x0020:  6400 1110 000f 5450 2d4c 696e 6b5f 3538
	0x0030:  3343 5f35 4701 088c 1298 24b0 4860 6c05
	0x0040:  0400 0100 0030 1401 0000 0fac 0401 0000
	0x0050:  0fac 0401 0000 0fac 020c 0046 0532 0801
	0x0060:  0000 2d1a ad09 17ff ff00 0000 0000 0000
	0x0070:  0000 0000 0000 0000 0000 0000 0000 3d16
	0x0080:  9908 1100 0000 0000 0000 0000 0000 0000
	0x0090:  0000 0000 0000 7f08 0400 0000 0000 0040
	0x00a0:  bf0c b201 8003 faff 0000 faff 0000 c005
	0x00b0:  0099 0000 00c3 0200 0edd 1c00 50f2 0410
	0x00c0:  4a00 0110 1044 0001 0210 4900 0a00 372a
	0x00d0:  0001 2005 0226 88dd 0900 1018 0200 001c
	0x00e0:  0000 dd18 0050 f202 0101 8000 03a4 0000
	0x00f0:  27a4 0000 4243 5e00 6232 2f00 6c83 af9e
04:36:58.240924 ff:ff:ff:ff:9c:3d (oui Unknown) > 80:00:00:00:ff:ff (oui Unknown), ethertype Unknown (0xcf25), length 347: 
	0x0000:  8000 0000 ffff ffff ffff 9c3d cf25 0902
	0x0010:  9c3d cf25 0902 a086 4dc0 6d27 6400 0000
	0x0020:  c800 1110 000b 5375 6544 6f64 6765 2035
	0x0030:  4701 088c 1298 24b0 4860 6c05 0400 0200
	0x0040:  0007 4655 5320 2401 1e28 011e 2c01 1e30
	0x0050:  011e 3401 1e38 011e 3c01 1e40 011e 6401
	0x0060:  1e68 011e 6c01 1e70 011e 7401 1e84 011e
	0x0070:  8801 1e8c 011e 9001 1e95 011e 9901 1e9d
	0x0080:  011e a101 1ea5 011e 0030 1401 0000 0fac
	0x0090:  0401 0000 0fac 0401 0000 0fac 020c 002d
	0x00a0:  1aef 0917 ffff ff00 0000 0000 0000 0000
	0x00b0:  0000 0000 0000 0000 0000 003d 1699 0f04
	0x00c0:  0000 0000 0000 0000 0000 0000 0000 0000
	0x00d0:  0000 007f 0804 0000 0000 0000 40bf 0cb2
	0x00e0:  5982 0fea ff00 00ea ff00 00c0 0501 9b00
	0x00f0:  0000 c304 0202 0202 dd31 0050 f204 104a
	0x0100:  0001 1010 4400 0102 1047 0010 1536 ee4f
	0x0110:  33ad 11be 2003 7826 26fe dff6 103c 0001
	0x0120:  0310 4900 0600 372a 0001 20dd 0900 1018
	0x0130:  0207 001c 0000 dd18 0050 f202 0101 8800
	0x0140:  03a4 0000 27a4 0000 4243 bc00 6232 6600
	0x0150:  4605 7208 0100 00c2 a02f b2
04:36:58.247348 ff:ff:ff:ff:d8:0d (oui Unknown) > 80:00:00:00:ff:ff (oui Unknown), ethertype Unknown (0x1772), length 256: 
	0x0000:  8000 0000 ffff ffff ffff d80d 1772 583a
	0x0010:  d80d 1772 583a 70f3 caa0 9c27 0000 0000
	0x0020:  6400 1110 000f 5450 2d4c 696e 6b5f 3538
	0x0030:  3343 5f35 4701 088c 1298 24b0 4860 6c05
	0x0040:  0400 0100 0030 1401 0000 0fac 0401 0000
	0x0050:  0fac 0401 0000 0fac 020c 0046 0532 0801
	0x0060:  0000 2d1a ad09 17ff ff00 0000 0000 0000
	0x0070:  0000 0000 0000 0000 0000 0000 0000 3d16
	0x0080:  9908 1100 0000 0000 0000 0000 0000 0000
	0x0090:  0000 0000 0000 7f08 0400 0000 0000 0040
	0x00a0:  bf0c b201 8003 faff 0000 faff 0000 c005
	0x00b0:  0099 0000 00c3 0200 0edd 1c00 50f2 0410
	0x00c0:  4a00 0110 1044 0001 0210 4900 0a00 372a
	0x00d0:  0001 2005 0226 88dd 0900 1018 0200 001c
	0x00e0:  0000 dd18 0050 f202 0101 8000 03a4 0000
	0x00f0:  27a4 0000 4243 5e00 6232 2f00 d191 20d8
04:36:58.328627 57:39:3f:61:71:3a (oui Unknown) > b4:00:ab:00:12:85 (oui Unknown), ethertype Unknown (0xcb64), length 20: 
	0x0000:  b400 ab00 1285 5739 3f61 713a cb64 517d
	0x0010:  b811 ca92
04:36:58.328684 cb:64:51:7d:33:b2 (oui Unknown) > c4:00:6f:00:70:3a (oui Unknown), ethertype Unknown (0x2018), length 14: 
	0x0000:  c400 6f00 703a cb64 517d 33b2 2018
04:36:58.328715 cb:64:51:7d:12:85 (oui Unknown) > b4:00:a0:00:70:3a (oui Unknown), ethertype Unknown (0x5739), length 20: 
	0x0000:  b400 a000 703a cb64 517d 1285 5739 3f61
	0x0010:  5ac3 0788
04:36:58.328742 57:39:3f:61:43:57 (oui Unknown) > c4:00:74:00:12:85 (oui Unknown), ethertype Unknown (0xd792), length 14: 
	0x0000:  c400 7400 1285 5739 3f61 4357 d792
04:36:58.328769 57:39:3f:61:3b:47 (oui Unknown) > d4:00:04:00:12:85 (oui Unknown), ethertype Unknown (0x2919), length 14: 
	0x0000:  d400 0400 1285 5739 3f61 3b47 2919
04:36:58.340895 cb:64:51:7d:12:85 (oui Unknown) > b4:00:a0:00:70:3a (oui Unknown), ethertype Unknown (0x5739), length 20: 
	0x0000:  b400 a000 703a cb64 517d 1285 5739 3f61
	0x0010:  5ac3 0788
04:36:58.340952 57:39:3f:61:43:57 (oui Unknown) > c4:00:74:00:12:85 (oui Unknown), ethertype Unknown (0xd792), length 14: 
	0x0000:  c400 7400 1285 5739 3f61 4357 d792
04:36:58.340980 57:39:3f:61:3b:47 (oui Unknown) > d4:00:04:00:12:85 (oui Unknown), ethertype Unknown (0x2919), length 14: 
	0x0000:  d400 0400 1285 5739 3f61 3b47 2919
04:36:58.350824 ff:ff:ff:ff:d8:0d (oui Unknown) > 80:00:00:00:ff:ff (oui Unknown), ethertype Unknown (0x1772), length 256: 
	0x0000:  8000 0000 ffff ffff ffff d80d 1772 583a
	0x0010:  d80d 1772 583a 80f3 3f30 9e27 0000 0000
	0x0020:  6400 1110 000f 5450 2d4c 696e 6b5f 3538
	0x0030:  3343 5f35 4701 088c 1298 24b0 4860 6c05
	0x0040:  0400 0100 0030 1401 0000 0fac 0401 0000
	0x0050:  0fac 0401 0000 0fac 020c 0046 0532 0801
	0x0060:  0000 2d1a ad09 17ff ff00 0000 0000 0000
	0x0070:  0000 0000 0000 0000 0000 0000 0000 3d16
	0x0080:  9908 1100 0000 0000 0000 0000 0000 0000
	0x0090:  0000 0000 0000 7f08 0400 0000 0000 0040
	0x00a0:  bf0c b201 8003 faff 0000 faff 0000 c005
	0x00b0:  0099 0000 00c3 0200 0edd 1c00 50f2 0410
	0x00c0:  4a00 0110 1044 0001 0210 4900 0a00 372a
	0x00d0:  0001 2005 0226 88dd 0900 1018 0200 001c
	0x00e0:  0000 dd18 0050 f202 0101 8000 03a4 0000
	0x00f0:  27a4 0000 4243 5e00 6232 2f00 32cb 69d0
04:36:58.357348 57:39:3f:61:71:3a (oui Unknown) > b4:00:ab:00:12:85 (oui Unknown), ethertype Unknown (0xcb64), length 20: 
	0x0000:  b400 ab00 1285 5739 3f61 713a cb64 517d
	0x0010:  b811 ca92
04:36:58.357406 cb:64:51:7d:33:b2 (oui Unknown) > c4:00:6f:00:70:3a (oui Unknown), ethertype Unknown (0x2018), length 14: 
	0x0000:  c400 6f00 703a cb64 517d 33b2 2018
04:36:58.445724 ff:ff:ff:ff:9c:3d (oui Unknown) > 80:00:00:00:ff:ff (oui Unknown), ethertype Unknown (0xcf25), length 347: 
	0x0000:  8000 0000 ffff ffff ffff 9c3d cf25 0902
	0x0010:  9c3d cf25 0902 b086 54e0 7027 6400 0000
	0x0020:  c800 1110 000b 5375 6544 6f64 6765 2035
	0x0030:  4701 088c 1298 24b0 4860 6c05 0401 0200
	0x0040:  0007 4655 5320 2401 1e28 011e 2c01 1e30
	0x0050:  011e 3401 1e38 011e 3c01 1e40 011e 6401
	0x0060:  1e68 011e 6c01 1e70 011e 7401 1e84 011e
	0x0070:  8801 1e8c 011e 9001 1e95 011e 9901 1e9d
	0x0080:  011e a101 1ea5 011e 0030 1401 0000 0fac
	0x0090:  0401 0000 0fac 0401 0000 0fac 020c 002d
	0x00a0:  1aef 0917 ffff ff00 0000 0000 0000 0000
	0x00b0:  0000 0000 0000 0000 0000 003d 1699 0f04
	0x00c0:  0000 0000 0000 0000 0000 0000 0000 0000
	0x00d0:  0000 007f 0804 0000 0000 0000 40bf 0cb2
	0x00e0:  5982 0fea ff00 00ea ff00 00c0 0501 9b00
	0x00f0:  0000 c304 0202 0202 dd31 0050 f204 104a
	0x0100:  0001 1010 4400 0102 1047 0010 1536 ee4f
	0x0110:  33ad 11be 2003 7826 26fe dff6 103c 0001
	0x0120:  0310 4900 0600 372a 0001 20dd 0900 1018
	0x0130:  0207 001c 0000 dd18 0050 f202 0101 8800
	0x0140:  03a4 0000 27a4 0000 4243 bc00 6232 6600
	0x0150:  4605 7208 0100 002e de83 44
04:36:58.452338 ff:ff:ff:ff:d8:0d (oui Unknown) > 80:00:00:00:ff:ff (oui Unknown), ethertype Unknown (0x1772), length 256: 
	0x0000:  8000 0000 ffff ffff ffff d80d 1772 583a
	0x0010:  d80d 1772 583a 90f3 71c1 9f27 0000 0000
	0x0020:  6400 1110 000f 5450 2d4c 696e 6b5f 3538
	0x0030:  3343 5f35 4701 088c 1298 24b0 4860 6c05
	0x0040:  0400 0100 0030 1401 0000 0fac 0401 0000
	0x0050:  0fac 0401 0000 0fac 020c 0046 0532 0801
	0x0060:  0000 2d1a ad09 17ff ff00 0000 0000 0000
	0x0070:  0000 0000 0000 0000 0000 0000 0000 3d16
	0x0080:  9908 1100 0000 0000 0000 0000 0000 0000
	0x0090:  0000 0000 0000 7f08 0400 0000 0000 0040
	0x00a0:  bf0c b201 8003 faff 0000 faff 0000 c005
	0x00b0:  0099 0000 00c3 0200 0edd 1c00 50f2 0410
	0x00c0:  4a00 0110 1044 0001 0210 4900 0a00 372a
	0x00d0:  0001 2005 0226 88dd 0900 1018 0200 001c
	0x00e0:  0000 dd18 0050 f202 0101 8000 03a4 0000
	0x00f0:  27a4 0000 4243 5e00 6232 2f00 147e 6928
04:36:58.548696 cb:64:51:7d:12:85 (oui Unknown) > b4:00:a0:00:70:3a (oui Unknown), ethertype Unknown (0x5739), length 20: 
	0x0000:  b400 a000 703a cb64 517d 1285 5739 3f61
	0x0010:  5ac3 0788
04:36:58.548760 57:39:3f:61:43:57 (oui Unknown) > c4:00:74:00:12:85 (oui Unknown), ethertype Unknown (0xd792), length 14: 
	0x0000:  c400 7400 1285 5739 3f61 4357 d792
04:36:58.550245 57:39:3f:61:3b:47 (oui Unknown) > d4:00:04:00:12:85 (oui Unknown), ethertype Unknown (0x2919), length 14: 
	0x0000:  d400 0400 1285 5739 3f61 3b47 2919
04:36:58.554445 ff:ff:ff:ff:d8:0d (oui Unknown) > 80:00:00:00:ff:ff (oui Unknown), ethertype Unknown (0x1772), length 256: 
	0x0000:  8000 0000 ffff ffff ffff d80d 1772 583a
	0x0010:  d80d 1772 583a a0f3 5350 a127 0000 0000
	0x0020:  6400 1110 000f 5450 2d4c 696e 6b5f 3538
	0x0030:  3343 5f35 4701 088c 1298 24b0 4860 6c05
	0x0040:  0400 0100 0030 1401 0000 0fac 0401 0000
	0x0050:  0fac 0401 0000 0fac 020c 0046 0532 0801
	0x0060:  0000 2d1a ad09 17ff ff00 0000 0000 0000
	0x0070:  0000 0000 0000 0000 0000 0000 0000 3d16
	0x0080:  9908 1100 0000 0000 0000 0000 0000 0000
	0x0090:  0000 0000 0000 7f08 0400 0000 0000 0040
	0x00a0:  bf0c b201 8003 faff 0000 faff 0000 c005
	0x00b0:  0099 0000 00c3 0200 0edd 1c00 50f2 0410
	0x00c0:  4a00 0110 1044 0001 0210 4900 0a00 372a
	0x00d0:  0001 2005 0226 88dd 0900 1018 0200 001c
	0x00e0:  0000 dd18 0050 f202 0101 8000 03a4 0000
	0x00f0:  27a4 0000 4243 5e00 6232 2f00 9f40 ba36
04:36:58.661231 ff:ff:ff:ff:d8:0d (oui Unknown) > 80:00:00:00:ff:ff (oui Unknown), ethertype Unknown (0x1772), length 256: 
	0x0000:  8000 0000 ffff ffff ffff d80d 1772 583a
	0x0010:  d80d 1772 583a b0f3 3ee0 a227 0000 0000
	0x0020:  6400 1110 000f 5450 2d4c 696e 6b5f 3538
	0x0030:  3343 5f35 4701 088c 1298 24b0 4860 6c05
	0x0040:  0400 0100 0030 1401 0000 0fac 0401 0000
	0x0050:  0fac 0401 0000 0fac 020c 0046 0532 0801
	0x0060:  0000 2d1a ad09 17ff ff00 0000 0000 0000
	0x0070:  0000 0000 0000 0000 0000 0000 0000 3d16
	0x0080:  9908 1100 0000 0000 0000 0000 0000 0000
	0x0090:  0000 0000 0000 7f08 0400 0000 0000 0040
	0x00a0:  bf0c b201 8003 faff 0000 faff 0000 c005
	0x00b0:  0099 0000 00c3 0200 0edd 1c00 50f2 0410
	0x00c0:  4a00 0110 1044 0001 0210 4900 0a00 372a
	0x00d0:  0001 2005 0226 88dd 0900 1018 0200 001c
	0x00e0:  0000 dd18 0050 f202 0101 8000 03a4 0000
	0x00f0:  27a4 0000 4243 5e00 6232 2f00 da00 e920
04:36:58.763637 ff:ff:ff:ff:d8:0d (oui Unknown) > 80:00:00:00:ff:ff (oui Unknown), ethertype Unknown (0x1772), length 256: 
	0x0000:  8000 0000 ffff ffff ffff d80d 1772 583a
	0x0010:  d80d 1772 583a c0f3 4870 a427 0000 0000
	0x0020:  6400 1110 000f 5450 2d4c 696e 6b5f 3538
	0x0030:  3343 5f35 4701 088c 1298 24b0 4860 6c05
	0x0040:  0400 0100 0030 1401 0000 0fac 0401 0000
	0x0050:  0fac 0401 0000 0fac 020c 0046 0532 0801
	0x0060:  0000 2d1a ad09 17ff ff00 0000 0000 0000
	0x0070:  0000 0000 0000 0000 0000 0000 0000 3d16
	0x0080:  9908 1100 0000 0000 0000 0000 0000 0000
	0x0090:  0000 0000 0000 7f08 0400 0000 0000 0040
	0x00a0:  bf0c b201 8003 faff 0000 faff 0000 c005
	0x00b0:  0099 0000 00c3 0200 0edd 1c00 50f2 0410
	0x00c0:  4a00 0110 1044 0001 0210 4900 0a00 372a
	0x00d0:  0001 2005 0226 88dd 0900 1018 0200 001c
	0x00e0:  0000 dd18 0050 f202 0101 8000 03a4 0000
	0x00f0:  27a4 0000 4243 5e00 6232 2f00 53bc de83
04:36:58.866043 ff:ff:ff:ff:d8:0d (oui Unknown) > 80:00:00:00:ff:ff (oui Unknown), ethertype Unknown (0x1772), length 256: 
	0x0000:  8000 0000 ffff ffff ffff d80d 1772 583a
	0x0010:  d80d 1772 583a d0f3 5300 a627 0000 0000
	0x0020:  6400 1110 000f 5450 2d4c 696e 6b5f 3538
	0x0030:  3343 5f35 4701 088c 1298 24b0 4860 6c05
	0x0040:  0400 0100 0030 1401 0000 0fac 0401 0000
	0x0050:  0fac 0401 0000 0fac 020c 0046 0532 0801
	0x0060:  0000 2d1a ad09 17ff ff00 0000 0000 0000
	0x0070:  0000 0000 0000 0000 0000 0000 0000 3d16
	0x0080:  9908 1100 0000 0000 0000 0000 0000 0000
	0x0090:  0000 0000 0000 7f08 0400 0000 0000 0040
	0x00a0:  bf0c b201 8003 faff 0000 faff 0000 c005
	0x00b0:  0099 0000 00c3 0200 0edd 1c00 50f2 0410
	0x00c0:  4a00 0110 1044 0001 0210 4900 0a00 372a
	0x00d0:  0001 2005 0226 88dd 0900 1018 0200 001c
	0x00e0:  0000 dd18 0050 f202 0101 8000 03a4 0000
	0x00f0:  27a4 0000 4243 5e00 6232 2f00 5ab7 0144
04:36:58.968446 ff:ff:ff:ff:d8:0d (oui Unknown) > 80:00:00:00:ff:ff (oui Unknown), ethertype Unknown (0x1772), length 256: 
	0x0000:  8000 0000 ffff ffff ffff d80d 1772 583a
	0x0010:  d80d 1772 583a e0f3 5990 a727 0000 0000
	0x0020:  6400 1110 000f 5450 2d4c 696e 6b5f 3538
	0x0030:  3343 5f35 4701 088c 1298 24b0 4860 6c05
	0x0040:  0400 0100 0030 1401 0000 0fac 0401 0000
	0x0050:  0fac 0401 0000 0fac 020c 0046 0532 0801
	0x0060:  0000 2d1a ad09 17ff ff00 0000 0000 0000
	0x0070:  0000 0000 0000 0000 0000 0000 0000 3d16
	0x0080:  9908 1100 0000 0000 0000 0000 0000 0000
	0x0090:  0000 0000 0000 7f08 0400 0000 0000 0040
	0x00a0:  bf0c b201 8003 faff 0000 faff 0000 c005
	0x00b0:  0099 0000 00c3 0200 0edd 1c00 50f2 0410
	0x00c0:  4a00 0110 1044 0001 0210 4900 0a00 372a
	0x00d0:  0001 2005 0226 88dd 0900 1018 0200 001c
	0x00e0:  0000 dd18 0050 f202 0101 8000 03a4 0000
	0x00f0:  27a4 0000 4243 5e00 6232 2f00 8976 3ff0
04:36:59.033856 cb:64:52:59:73:3a (oui Unknown) > b4:00:b8:00:72:3a (oui Unknown), ethertype Unknown (0xcb64), length 20: 
	0x0000:  b400 b800 723a cb64 5259 733a cb64 517d
	0x0010:  50df 18a9
04:36:59.033916 cb:64:51:7d:f0:25 (oui Unknown) > c4:00:7c:00:72:3a (oui Unknown), ethertype Unknown (0xdca7), length 14: 
	0x0000:  c400 7c00 723a cb64 517d f025 dca7
04:36:59.033947 cb:64:52:59:73:3a (oui Unknown) > b4:00:ab:00:72:3a (oui Unknown), ethertype Unknown (0xcb64), length 20: 
	0x0000:  b400 ab00 723a cb64 5259 733a cb64 517d
	0x0010:  e7c6 cbb3
04:36:59.033975 cb:64:51:7d:38:13 (oui Unknown) > c4:00:6f:00:72:3a (oui Unknown), ethertype Unknown (0xe855), length 14: 
	0x0000:  c400 6f00 723a cb64 517d 3813 e855
04:36:59.034001 cb:64:52:59:73:3a (oui Unknown) > b4:00:ab:00:72:3a (oui Unknown), ethertype Unknown (0xcb64), length 20: 
	0x0000:  b400 ab00 723a cb64 5259 733a cb64 517d
	0x0010:  e7c6 cbb3
04:36:59.034028 cb:64:51:7d:38:13 (oui Unknown) > c4:00:6f:00:72:3a (oui Unknown), ethertype Unknown (0xe855), length 14: 
	0x0000:  c400 6f00 723a cb64 517d 3813 e855
04:36:59.034055 cb:64:51:7d:72:3a (oui Unknown) > 94:00:00:00:72:3a (oui Unknown), ethertype Unknown (0xcb64), length 32: 
	0x0000:  9400 0000 723a cb64 517d 723a cb64 5259
	0x0010:  0400 b06e ffff ff07 0000 0000 788d dac8
04:36:59.046958 cb:64:52:59:73:3a (oui Unknown) > b4:00:ab:00:72:3a (oui Unknown), ethertype Unknown (0xcb64), length 20: 
	0x0000:  b400 ab00 723a cb64 5259 733a cb64 517d
	0x0010:  e7c6 cbb3
04:36:59.047016 cb:64:51:7d:38:13 (oui Unknown) > c4:00:6f:00:72:3a (oui Unknown), ethertype Unknown (0xe855), length 14: 
	0x0000:  c400 6f00 723a cb64 517d 3813 e855
04:36:59.047045 cb:64:51:7d:72:3a (oui Unknown) > 94:00:00:00:72:3a (oui Unknown), ethertype Unknown (0xcb64), length 32: 
	0x0000:  9400 0000 723a cb64 517d 723a cb64 5259
	0x0010:  0400 b06e ffff ff0f 0000 0000 b9c6 aaf8
04:36:59.066442 ff:ff:ff:ff:d8:0d (oui Unknown) > 80:00:00:00:ff:ff (oui Unknown), ethertype Unknown (0x1772), length 256: 
	0x0000:  8000 0000 ffff ffff ffff d80d 1772 583a
	0x0010:  d80d 1772 583a f0f3 4f20 a927 0000 0000
	0x0020:  6400 1110 000f 5450 2d4c 696e 6b5f 3538
	0x0030:  3343 5f35 4701 088c 1298 24b0 4860 6c05
	0x0040:  0400 0100 0030 1401 0000 0fac 0401 0000
	0x0050:  0fac 0401 0000 0fac 020c 0046 0532 0801
	0x0060:  0000 2d1a ad09 17ff ff00 0000 0000 0000
	0x0070:  0000 0000 0000 0000 0000 0000 0000 3d16
	0x0080:  9908 1100 0000 0000 0000 0000 0000 0000
	0x0090:  0000 0000 0000 7f08 0400 0000 0000 0040
	0x00a0:  bf0c b201 8003 faff 0000 faff 0000 c005
	0x00b0:  0099 0000 00c3 0200 0edd 1c00 50f2 0410
	0x00c0:  4a00 0110 1044 0001 0210 4900 0a00 372a
	0x00d0:  0001 2005 0226 88dd 0900 1018 0200 001c
	0x00e0:  0000 dd18 0050 f202 0101 8000 03a4 0000
	0x00f0:  27a4 0000 4243 5e00 6232 2f00 4ee1 eeb1
04:36:59.173259 ff:ff:ff:ff:d8:0d (oui Unknown) > 80:00:00:00:ff:ff (oui Unknown), ethertype Unknown (0x1772), length 256: 
	0x0000:  8000 0000 ffff ffff ffff d80d 1772 583a
	0x0010:  d80d 1772 583a 00f4 50b0 aa27 0000 0000
	0x0020:  6400 1110 000f 5450 2d4c 696e 6b5f 3538
	0x0030:  3343 5f35 4701 088c 1298 24b0 4860 6c05
	0x0040:  0400 0100 0030 1401 0000 0fac 0401 0000
	0x0050:  0fac 0401 0000 0fac 020c 0046 0532 0801
	0x0060:  0000 2d1a ad09 17ff ff00 0000 0000 0000
	0x0070:  0000 0000 0000 0000 0000 0000 0000 3d16
	0x0080:  9908 1100 0000 0000 0000 0000 0000 0000
	0x0090:  0000 0000 0000 7f08 0400 0000 0000 0040
	0x00a0:  bf0c b201 8003 faff 0000 faff 0000 c005
	0x00b0:  0099 0000 00c3 0200 0edd 1c00 50f2 0410
	0x00c0:  4a00 0110 1044 0001 0210 4900 0a00 372a
	0x00d0:  0001 2005 0226 88dd 0900 1018 0200 001c
	0x00e0:  0000 dd18 0050 f202 0101 8000 03a4 0000
	0x00f0:  27a4 0000 4243 5e00 6232 2f00 c386 ec59
04:36:59.209539 ff:ff:ff:ff:d8:0d (oui Unknown) > 08:42:00:00:ff:ff (oui Unknown), ethertype Unknown (0x1772), length 253: 
	0x0000:  0842 0000 ffff ffff ffff d80d 1772 583a
	0x0010:  d80d 1772 583c 10f4 e900 0060 0000 0000
	0x0020:  f493 48d7 875b 8109 754b e389 d25a a682
	0x0030:  f561 1b8b a2d7 6ba9 ea0b 36a8 6d16 5cc2
	0x0040:  0e23 cb6e 0f2e 2e82 95ae df38 e98f b85a
	0x0050:  b713 4e79 f795 09a2 d6cb 9a1f 0d29 5d88
	0x0060:  5312 d098 70e9 3a70 44f5 a0e8 d52f ae7a
	0x0070:  e4de 418e 48f8 4a04 ee97 94ff c73f ddca
	0x0080:  6429 937c 2960 7e7c 50cf eaf0 388e 8020
	0x0090:  1582 3f27 e87d a8c3 02bd 3b00 c049 982c
	0x00a0:  7fc5 a19e 71f2 fcd5 1ba5 13b7 f341 c73d
	0x00b0:  5183 1c8e f31e 8f9d efc2 d99b de7a bde1
	0x00c0:  9072 4f0f bb82 504f 24dd 2262 fe3b 7bc2
	0x00d0:  0630 d08a c41c 1e66 c729 f48d 8f30 22cd
	0x00e0:  2516 e1b6 08c0 44d7 c5e2 7483 377c 81ae
	0x00f0:  4725 0edc 5c58 dae2 2ce1 8f70 fa
04:36:59.275608 ff:ff:ff:ff:d8:0d (oui Unknown) > 80:00:00:00:ff:ff (oui Unknown), ethertype Unknown (0x1772), length 256: 
	0x0000:  8000 0000 ffff ffff ffff d80d 1772 583a
	0x0010:  d80d 1772 583a 20f4 4440 ac27 0000 0000
	0x0020:  6400 1110 000f 5450 2d4c 696e 6b5f 3538
	0x0030:  3343 5f35 4701 088c 1298 24b0 4860 6c05
	0x0040:  0400 0100 0030 1401 0000 0fac 0401 0000
	0x0050:  0fac 0401 0000 0fac 020c 0046 0532 0801
	0x0060:  0000 2d1a ad09 17ff ff00 0000 0000 0000
	0x0070:  0000 0000 0000 0000 0000 0000 0000 3d16
	0x0080:  9908 1100 0000 0000 0000 0000 0000 0000
	0x0090:  0000 0000 0000 7f08 0400 0000 0000 0040
	0x00a0:  bf0c b201 8003 faff 0000 faff 0000 c005
	0x00b0:  0099 0000 00c3 0200 0edd 1c00 50f2 0410
	0x00c0:  4a00 0110 1044 0001 0210 4900 0a00 372a
	0x00d0:  0001 2005 0226 88dd 0900 1018 0200 001c
	0x00e0:  0000 dd18 0050 f202 0101 8000 03a4 0000
	0x00f0:  27a4 0000 4243 5e00 6232 2f00 ddeb 9141
04:36:59.378025 ff:ff:ff:ff:d8:0d (oui Unknown) > 80:00:00:00:ff:ff (oui Unknown), ethertype Unknown (0x1772), length 256: 
	0x0000:  8000 0000 ffff ffff ffff d80d 1772 583a
	0x0010:  d80d 1772 583a 30f4 3ed0 ad27 0000 0000
	0x0020:  6400 1110 000f 5450 2d4c 696e 6b5f 3538
	0x0030:  3343 5f35 4701 088c 1298 24b0 4860 6c05
	0x0040:  0400 0100 0030 1401 0000 0fac 0401 0000
	0x0050:  0fac 0401 0000 0fac 020c 0046 0532 0801
	0x0060:  0000 2d1a ad09 17ff ff00 0000 0000 0000
	0x0070:  0000 0000 0000 0000 0000 0000 0000 3d16
	0x0080:  9908 1100 0000 0000 0000 0000 0000 0000
	0x0090:  0000 0000 0000 7f08 0400 0000 0000 0040
	0x00a0:  bf0c b201 8003 faff 0000 faff 0000 c005
	0x00b0:  0099 0000 00c3 0200 0edd 1c00 50f2 0410
	0x00c0:  4a00 0110 1044 0001 0210 4900 0a00 372a
	0x00d0:  0001 2005 0226 88dd 0900 1018 0200 001c
	0x00e0:  0000 dd18 0050 f202 0101 8000 03a4 0000
	0x00f0:  27a4 0000 4243 5e00 6232 2f00 e6d4 ada7
04:36:59.469524 cb:64:51:7d:73:3a (oui Unknown) > b4:00:ac:00:72:3a (oui Unknown), ethertype Unknown (0xcb64), length 20: 
	0x0000:  b400 ac00 723a cb64 517d 733a cb64 5259
	0x0010:  59c1 5574
04:36:59.469583 cb:64:52:59:ad:87 (oui Unknown) > c4:00:70:00:72:3a (oui Unknown), ethertype Unknown (0x5de7), length 14: 
	0x0000:  c400 7000 723a cb64 5259 ad87 5de7
04:36:59.469614 cb:64:51:7d:73:3a (oui Unknown) > b4:00:ac:00:72:3a (oui Unknown), ethertype Unknown (0xcb64), length 20: 
	0x0000:  b400 ac00 723a cb64 517d 733a cb64 5259
	0x0010:  59c1 5574
04:36:59.469642 cb:64:52:59:ad:87 (oui Unknown) > c4:00:70:00:72:3a (oui Unknown), ethertype Unknown (0x5de7), length 14: 
	0x0000:  c400 7000 723a cb64 5259 ad87 5de7
04:36:59.469669 cb:64:52:59:72:3a (oui Unknown) > 94:00:00:00:72:3a (oui Unknown), ethertype Unknown (0xcb64), length 32: 
	0x0000:  9400 0000 723a cb64 5259 723a cb64 517d
	0x0010:  0400 c0d1 ffff ffff ffff ffff 570e 5260
04:36:59.469695 cb:64:52:59:73:3a (oui Unknown) > b4:00:ae:00:72:3a (oui Unknown), ethertype Unknown (0xcb64), length 20: 
	0x0000:  b400 ae00 723a cb64 5259 733a cb64 517d
	0x0010:  8aa8 6837
04:36:59.469722 cb:64:51:7d:c2:37 (oui Unknown) > c4:00:72:00:72:3a (oui Unknown), ethertype Unknown (0x56b2), length 14: 
	0x0000:  c400 7200 723a cb64 517d c237 56b2
04:36:59.469748 cb:64:51:7d:72:3a (oui Unknown) > 94:00:00:00:72:3a (oui Unknown), ethertype Unknown (0xcb64), length 32: 
	0x0000:  9400 0000 723a cb64 517d 723a cb64 5259
	0x0010:  0400 b06e ffff ff1f 0000 0000 3b51 4a98
04:36:59.476024 ff:ff:ff:ff:d8:0d (oui Unknown) > 80:00:00:00:ff:ff (oui Unknown), ethertype Unknown (0x1772), length 256: 
	0x0000:  8000 0000 ffff ffff ffff d80d 1772 583a
	0x0010:  d80d 1772 583a 40f4 4260 af27 0000 0000
	0x0020:  6400 1110 000f 5450 2d4c 696e 6b5f 3538
	0x0030:  3343 5f35 4701 088c 1298 24b0 4860 6c05
	0x0040:  0400 0100 0030 1401 0000 0fac 0401 0000
	0x0050:  0fac 0401 0000 0fac 020c 0046 0532 0801
	0x0060:  0000 2d1a ad09 17ff ff00 0000 0000 0000
	0x0070:  0000 0000 0000 0000 0000 0000 0000 3d16
	0x0080:  9908 1100 0000 0000 0000 0000 0000 0000
	0x0090:  0000 0000 0000 7f08 0400 0000 0000 0040
	0x00a0:  bf0c b201 8003 faff 0000 faff 0000 c005
	0x00b0:  0099 0000 00c3 0200 0edd 1c00 50f2 0410
	0x00c0:  4a00 0110 1044 0001 0210 4900 0a00 372a
	0x00d0:  0001 2005 0226 88dd 0900 1018 0200 001c
	0x00e0:  0000 dd18 0050 f202 0101 8000 03a4 0000
	0x00f0:  27a4 0000 4243 5e00 6232 2f00 1eb7 0fad
04:36:59.582836 ff:ff:ff:ff:d8:0d (oui Unknown) > 80:00:00:00:ff:ff (oui Unknown), ethertype Unknown (0x1772), length 256: 
	0x0000:  8000 0000 ffff ffff ffff d80d 1772 583a
	0x0010:  d80d 1772 583a 50f4 3ef0 b027 0000 0000
	0x0020:  6400 1110 000f 5450 2d4c 696e 6b5f 3538
	0x0030:  3343 5f35 4701 088c 1298 24b0 4860 6c05
	0x0040:  0400 0100 0030 1401 0000 0fac 0401 0000
	0x0050:  0fac 0401 0000 0fac 020c 0046 0532 0801
	0x0060:  0000 2d1a ad09 17ff ff00 0000 0000 0000
	0x0070:  0000 0000 0000 0000 0000 0000 0000 3d16
	0x0080:  9908 1100 0000 0000 0000 0000 0000 0000
	0x0090:  0000 0000 0000 7f08 0400 0000 0000 0040
	0x00a0:  bf0c b201 8003 faff 0000 faff 0000 c005
	0x00b0:  0099 0000 00c3 0200 0edd 1c00 50f2 0410
	0x00c0:  4a00 0110 1044 0001 0210 4900 0a00 372a
	0x00d0:  0001 2005 0226 88dd 0900 1018 0200 001c
	0x00e0:  0000 dd18 0050 f202 0101 8000 03a4 0000
	0x00f0:  27a4 0000 4243 5e00 6232 2f00 53dd a8fe
04:36:59.685235 ff:ff:ff:ff:d8:0d (oui Unknown) > 80:00:00:00:ff:ff (oui Unknown), ethertype Unknown (0x1772), length 256: 
	0x0000:  8000 0000 ffff ffff ffff d80d 1772 583a
	0x0010:  d80d 1772 583a 60f4 3e80 b227 0000 0000
	0x0020:  6400 1110 000f 5450 2d4c 696e 6b5f 3538
	0x0030:  3343 5f35 4701 088c 1298 24b0 4860 6c05
	0x0040:  0400 0100 0030 1401 0000 0fac 0401 0000
	0x0050:  0fac 0401 0000 0fac 020c 0046 0532 0801
	0x0060:  0000 2d1a ad09 17ff ff00 0000 0000 0000
	0x0070:  0000 0000 0000 0000 0000 0000 0000 3d16
	0x0080:  9908 1100 0000 0000 0000 0000 0000 0000
	0x0090:  0000 0000 0000 7f08 0400 0000 0000 0040
	0x00a0:  bf0c b201 8003 faff 0000 faff 0000 c005
	0x00b0:  0099 0000 00c3 0200 0edd 1c00 50f2 0410
	0x00c0:  4a00 0110 1044 0001 0210 4900 0a00 372a
	0x00d0:  0001 2005 0226 88dd 0900 1018 0200 001c
	0x00e0:  0000 dd18 0050 f202 0101 8000 03a4 0000
	0x00f0:  27a4 0000 4243 5e00 6232 2f00 a523 d26b
04:36:59.787630 ff:ff:ff:ff:d8:0d (oui Unknown) > 80:00:00:00:ff:ff (oui Unknown), ethertype Unknown (0x1772), length 256: 
	0x0000:  8000 0000 ffff ffff ffff d80d 1772 583a
	0x0010:  d80d 1772 583a 70f4 4910 b427 0000 0000
	0x0020:  6400 1110 000f 5450 2d4c 696e 6b5f 3538
	0x0030:  3343 5f35 4701 088c 1298 24b0 4860 6c05
	0x0040:  0400 0100 0030 1401 0000 0fac 0401 0000
	0x0050:  0fac 0401 0000 0fac 020c 0046 0532 0801
	0x0060:  0000 2d1a ad09 17ff ff00 0000 0000 0000
	0x0070:  0000 0000 0000 0000 0000 0000 0000 3d16
	0x0080:  9908 1100 0000 0000 0000 0000 0000 0000
	0x0090:  0000 0000 0000 7f08 0400 0000 0000 0040
	0x00a0:  bf0c b201 8003 faff 0000 faff 0000 c005
	0x00b0:  0099 0000 00c3 0200 0edd 1c00 50f2 0410
	0x00c0:  4a00 0110 1044 0001 0210 4900 0a00 372a
	0x00d0:  0001 2005 0226 88dd 0900 1018 0200 001c
	0x00e0:  0000 dd18 0050 f202 0101 8000 03a4 0000
	0x00f0:  27a4 0000 4243 5e00 6232 2f00 43c3 9420
04:36:59.890444 ff:ff:ff:ff:d8:0d (oui Unknown) > 80:00:00:00:ff:ff (oui Unknown), ethertype Unknown (0x1772), length 256: 
	0x0000:  8000 0000 ffff ffff ffff d80d 1772 583a
	0x0010:  d80d 1772 583a 80f4 dea1 b527 0000 0000
	0x0020:  6400 1110 000f 5450 2d4c 696e 6b5f 3538
	0x0030:  3343 5f35 4701 088c 1298 24b0 4860 6c05
	0x0040:  0400 0100 0030 1401 0000 0fac 0401 0000
	0x0050:  0fac 0401 0000 0fac 020c 0046 0532 0801
	0x0060:  0000 2d1a ad09 17ff ff00 0000 0000 0000
	0x0070:  0000 0000 0000 0000 0000 0000 0000 3d16
	0x0080:  9908 1100 0000 0000 0000 0000 0000 0000
	0x0090:  0000 0000 0000 7f08 0400 0000 0000 0040
	0x00a0:  bf0c b201 8003 faff 0000 faff 0000 c005
	0x00b0:  0099 0000 00c3 0200 0edd 1c00 50f2 0410
	0x00c0:  4a00 0110 1044 0001 0210 4900 0a00 372a
	0x00d0:  0001 2005 0226 88dd 0900 1018 0200 001c
	0x00e0:  0000 dd18 0050 f202 0101 8000 03a4 0000
	0x00f0:  27a4 0000 4243 5e00 6232 2f00 db6e e60f
04:36:59.970886 57:39:3f:61:3b:47 (oui Unknown) > d4:00:04:00:12:85 (oui Unknown), ethertype Unknown (0x2919), length 14: 
	0x0000:  d400 0400 1285 5739 3f61 3b47 2919
04:36:59.970946 57:39:3f:61:71:3a (oui Unknown) > b4:00:ab:00:12:85 (oui Unknown), ethertype Unknown (0xcb64), length 20: 
	0x0000:  b400 ab00 1285 5739 3f61 713a cb64 517d
	0x0010:  b811 ca92
04:36:59.970977 cb:64:51:7d:33:b2 (oui Unknown) > c4:00:6f:00:70:3a (oui Unknown), ethertype Unknown (0x2018), length 14: 
	0x0000:  c400 6f00 703a cb64 517d 33b2 2018
04:36:59.988019 ff:ff:ff:ff:d8:0d (oui Unknown) > 80:00:00:00:ff:ff (oui Unknown), ethertype Unknown (0x1772), length 256: 
	0x0000:  8000 0000 ffff ffff ffff d80d 1772 583a
	0x0010:  d80d 1772 583a 90f4 3e30 b727 0000 0000
	0x0020:  6400 1110 000f 5450 2d4c 696e 6b5f 3538
	0x0030:  3343 5f35 4701 088c 1298 24b0 4860 6c05
	0x0040:  0400 0100 0030 1401 0000 0fac 0401 0000
	0x0050:  0fac 0401 0000 0fac 020c 0046 0532 0801
	0x0060:  0000 2d1a ad09 17ff ff00 0000 0000 0000
	0x0070:  0000 0000 0000 0000 0000 0000 0000 3d16
	0x0080:  9908 1100 0000 0000 0000 0000 0000 0000
	0x0090:  0000 0000 0000 7f08 0400 0000 0000 0040
	0x00a0:  bf0c b201 8003 faff 0000 faff 0000 c005
	0x00b0:  0099 0000 00c3 0200 0edd 1c00 50f2 0410
	0x00c0:  4a00 0110 1044 0001 0210 4900 0a00 372a
	0x00d0:  0001 2005 0226 88dd 0900 1018 0200 001c
	0x00e0:  0000 dd18 0050 f202 0101 8000 03a4 0000
	0x00f0:  27a4 0000 4243 5e00 6232 2f00 b1bc 7cb8
04:37:00.094814 ff:ff:ff:ff:d8:0d (oui Unknown) > 80:00:00:00:ff:ff (oui Unknown), ethertype Unknown (0x1772), length 256: 
	0x0000:  8000 0000 ffff ffff ffff d80d 1772 583a
	0x0010:  d80d 1772 583a a0f4 3fc0 b827 0000 0000
	0x0020:  6400 1110 000f 5450 2d4c 696e 6b5f 3538
	0x0030:  3343 5f35 4701 088c 1298 24b0 4860 6c05
	0x0040:  0400 0100 0030 1401 0000 0fac 0401 0000
	0x0050:  0fac 0401 0000 0fac 020c 0046 0532 0801
	0x0060:  0000 2d1a ad09 17ff ff00 0000 0000 0000
	0x0070:  0000 0000 0000 0000 0000 0000 0000 3d16
	0x0080:  9908 1100 0000 0000 0000 0000 0000 0000
	0x0090:  0000 0000 0000 7f08 0400 0000 0000 0040
	0x00a0:  bf0c b201 8003 faff 0000 faff 0000 c005
	0x00b0:  0099 0000 00c3 0200 0edd 1c00 50f2 0410
	0x00c0:  4a00 0110 1044 0001 0210 4900 0a00 372a
	0x00d0:  0001 2005 0226 88dd 0900 1018 0200 001c
	0x00e0:  0000 dd18 0050 f202 0101 8000 03a4 0000
	0x00f0:  27a4 0000 4243 5e00 6232 2f00 a42b aeb5
04:37:00.103517 9b:08:3c:33:d8:0d (oui Unknown) > d0:00:3c:00:a0:99 (oui Unknown), ethertype Unknown (0x1772), length 37: 
	0x0000:  d000 3c00 a099 9b08 3c33 d80d 1772 583a
	0x0010:  d80d 1772 583a b0f4 0300 5103 1000 0090
	0x0020:  000f ba77 bc
04:37:00.103576 9b:08:3c:33:d8:0d (oui Unknown) > d0:08:3c:00:a0:99 (oui Unknown), ethertype Unknown (0x1772), length 37: 
	0x0000:  d008 3c00 a099 9b08 3c33 d80d 1772 583a
	0x0010:  d80d 1772 583a b0f4 0300 5103 1000 0090
	0x0020:  005b 8e63 5f
04:37:00.103606 9b:08:3c:33:d8:0d (oui Unknown) > d0:08:3c:00:a0:99 (oui Unknown), ethertype Unknown (0x1772), length 37: 
	0x0000:  d008 3c00 a099 9b08 3c33 d80d 1772 583a
	0x0010:  d80d 1772 583a b0f4 0300 5103 1000 0090
	0x0020:  005b 8e63 5f
04:37:00.103634 9b:08:3c:33:d8:0d (oui Unknown) > d0:08:3c:00:a0:99 (oui Unknown), ethertype Unknown (0x1772), length 37: 
	0x0000:  d008 3c00 a099 9b08 3c33 d80d 1772 583a
	0x0010:  d80d 1772 583a b0f4 0300 5103 1000 0090
	0x0020:  005b 8e63 5f
04:37:00.103660 9b:08:3c:33:d8:0d (oui Unknown) > d0:08:3c:00:a0:99 (oui Unknown), ethertype Unknown (0x1772), length 37: 
	0x0000:  d008 3c00 a099 9b08 3c33 d80d 1772 583a
	0x0010:  d80d 1772 583a b0f4 0300 5103 1000 0090
	0x0020:  005b 8e63 5f
04:37:00.103687 9b:08:3c:33:d8:0d (oui Unknown) > d0:08:3c:00:a0:99 (oui Unknown), ethertype Unknown (0x1772), length 37: 
	0x0000:  d008 3c00 a099 9b08 3c33 d80d 1772 583a
	0x0010:  d80d 1772 583a b0f4 0300 5103 1000 0090
	0x0020:  005b 8e63 5f
04:37:00.103714 9b:08:3c:33:d8:0d (oui Unknown) > d0:08:3c:00:a0:99 (oui Unknown), ethertype Unknown (0x1772), length 37: 
	0x0000:  d008 3c00 a099 9b08 3c33 d80d 1772 583a
	0x0010:  d80d 1772 583a b0f4 0300 5103 1000 0090
	0x0020:  005b 8e63 5f
04:37:00.197228 ff:ff:ff:ff:d8:0d (oui Unknown) > 80:00:00:00:ff:ff (oui Unknown), ethertype Unknown (0x1772), length 256: 
	0x0000:  8000 0000 ffff ffff ffff d80d 1772 583a
	0x0010:  d80d 1772 583a c0f4 4350 ba27 0000 0000
	0x0020:  6400 1110 000f 5450 2d4c 696e 6b5f 3538
	0x0030:  3343 5f35 4701 088c 1298 24b0 4860 6c05
	0x0040:  0400 0100 0030 1401 0000 0fac 0401 0000
	0x0050:  0fac 0401 0000 0fac 020c 0046 0532 0801
	0x0060:  0000 2d1a ad09 17ff ff00 0000 0000 0000
	0x0070:  0000 0000 0000 0000 0000 0000 0000 3d16
	0x0080:  9908 0000 0000 0000 0000 0000 0000 0000
	0x0090:  0000 0000 0000 7f08 0400 0000 0000 0040
	0x00a0:  bf0c b201 8003 faff 0000 faff 0000 c005
	0x00b0:  0099 0000 00c3 0200 0edd 1c00 50f2 0410
	0x00c0:  4a00 0110 1044 0001 0210 4900 0a00 372a
	0x00d0:  0001 2005 0226 88dd 0900 1018 0200 001c
	0x00e0:  0000 dd18 0050 f202 0101 8000 03a4 0000
	0x00f0:  27a4 0000 4243 5e00 6232 2f00 898e 3598
04:37:00.299736 ff:ff:ff:ff:d8:0d (oui Unknown) > 80:00:00:00:ff:ff (oui Unknown), ethertype Unknown (0x1772), length 256: 
	0x0000:  8000 0000 ffff ffff ffff d80d 1772 583a
	0x0010:  d80d 1772 583a d0f4 a5e0 bb27 0000 0000
	0x0020:  6400 1110 000f 5450 2d4c 696e 6b5f 3538
	0x0030:  3343 5f35 4701 088c 1298 24b0 4860 6c05
	0x0040:  0400 0100 0030 1401 0000 0fac 0401 0000
	0x0050:  0fac 0401 0000 0fac 020c 0046 0532 0801
	0x0060:  0000 2d1a ad09 17ff ff00 0000 0000 0000
	0x0070:  0000 0000 0000 0000 0000 0000 0000 3d16
	0x0080:  9908 0000 0000 0000 0000 0000 0000 0000
	0x0090:  0000 0000 0000 7f08 0400 0000 0000 0040
	0x00a0:  bf0c b201 8003 faff 0000 faff 0000 c005
	0x00b0:  0099 0000 00c3 0200 0edd 1c00 50f2 0410
	0x00c0:  4a00 0110 1044 0001 0210 4900 0a00 372a
	0x00d0:  0001 2005 0226 88dd 0900 1018 0200 001c
	0x00e0:  0000 dd18 0050 f202 0101 8000 03a4 0000
	0x00f0:  27a4 0000 4243 5e00 6232 2f00 278b 31b2
04:37:00.402044 ff:ff:ff:ff:d8:0d (oui Unknown) > 80:00:00:00:ff:ff (oui Unknown), ethertype Unknown (0x1772), length 256: 
	0x0000:  8000 0000 ffff ffff ffff d80d 1772 583a
	0x0010:  d80d 1772 583a e0f4 5270 bd27 0000 0000
	0x0020:  6400 1110 000f 5450 2d4c 696e 6b5f 3538
	0x0030:  3343 5f35 4701 088c 1298 24b0 4860 6c05
	0x0040:  0400 0100 0030 1401 0000 0fac 0401 0000
	0x0050:  0fac 0401 0000 0fac 020c 0046 0532 0801
	0x0060:  0000 2d1a ad09 17ff ff00 0000 0000 0000
	0x0070:  0000 0000 0000 0000 0000 0000 0000 3d16
	0x0080:  9908 0000 0000 0000 0000 0000 0000 0000
	0x0090:  0000 0000 0000 7f08 0400 0000 0000 0040
	0x00a0:  bf0c b201 8003 faff 0000 faff 0000 c005
	0x00b0:  0099 0000 00c3 0200 0edd 1c00 50f2 0410
	0x00c0:  4a00 0110 1044 0001 0210 4900 0a00 372a
	0x00d0:  0001 2005 0226 88dd 0900 1018 0200 001c
	0x00e0:  0000 dd18 0050 f202 0101 8000 03a4 0000
	0x00f0:  27a4 0000 4243 5e00 6232 2f00 660e 88d0
04:37:00.504425 ff:ff:ff:ff:d8:0d (oui Unknown) > 80:00:00:00:ff:ff (oui Unknown), ethertype Unknown (0x1772), length 256: 
	0x0000:  8000 0000 ffff ffff ffff d80d 1772 583a
	0x0010:  d80d 1772 583a f0f4 3e00 bf27 0000 0000
	0x0020:  6400 1110 000f 5450 2d4c 696e 6b5f 3538
	0x0030:  3343 5f35 4701 088c 1298 24b0 4860 6c05
	0x0040:  0400 0100 0030 1401 0000 0fac 0401 0000
	0x0050:  0fac 0401 0000 0fac 020c 0046 0532 0801
	0x0060:  0000 2d1a ad09 17ff ff00 0000 0000 0000
	0x0070:  0000 0000 0000 0000 0000 0000 0000 3d16
	0x0080:  9908 0000 0000 0000 0000 0000 0000 0000
	0x0090:  0000 0000 0000 7f08 0400 0000 0000 0040
	0x00a0:  bf0c b201 8003 faff 0000 faff 0000 c005
	0x00b0:  0099 0000 00c3 0200 0edd 1c00 50f2 0410
	0x00c0:  4a00 0110 1044 0001 0210 4900 0a00 372a
	0x00d0:  0001 2005 0226 88dd 0900 1018 0200 001c
	0x00e0:  0000 dd18 0050 f202 0101 8000 03a4 0000
	0x00f0:  27a4 0000 4243 5e00 6232 2f00 4060 137d
04:37:00.606820 ff:ff:ff:ff:d8:0d (oui Unknown) > 80:00:00:00:ff:ff (oui Unknown), ethertype Unknown (0x1772), length 256: 
	0x0000:  8000 0000 ffff ffff ffff d80d 1772 583a
	0x0010:  d80d 1772 583a 00f5 3f90 c027 0000 0000
	0x0020:  6400 1110 000f 5450 2d4c 696e 6b5f 3538
	0x0030:  3343 5f35 4701 088c 1298 24b0 4860 6c05
	0x0040:  0400 0100 0030 1401 0000 0fac 0401 0000
	0x0050:  0fac 0401 0000 0fac 020c 0046 0532 0801
	0x0060:  0000 2d1a ad09 17ff ff00 0000 0000 0000
	0x0070:  0000 0000 0000 0000 0000 0000 0000 3d16
	0x0080:  9908 0000 0000 0000 0000 0000 0000 0000
	0x0090:  0000 0000 0000 7f08 0400 0000 0000 0040
	0x00a0:  bf0c b201 8003 faff 0000 faff 0000 c005
	0x00b0:  0099 0000 00c3 0200 0edd 1c00 50f2 0410
	0x00c0:  4a00 0110 1044 0001 0210 4900 0a00 372a
	0x00d0:  0001 2005 0226 88dd 0900 1018 0200 001c
	0x00e0:  0000 dd18 0050 f202 0101 8000 03a4 0000
	0x00f0:  27a4 0000 4243 5e00 6232 2f00 246c de1c
04:37:00.709460 ff:ff:ff:ff:d8:0d (oui Unknown) > 80:00:00:00:ff:ff (oui Unknown), ethertype Unknown (0x1772), length 256: 
	0x0000:  8000 0000 ffff ffff ffff d80d 1772 583a
	0x0010:  d80d 1772 583a 10f5 5320 c227 0000 0000
	0x0020:  6400 1110 000f 5450 2d4c 696e 6b5f 3538
	0x0030:  3343 5f35 4701 088c 1298 24b0 4860 6c05
	0x0040:  0400 0100 0030 1401 0000 0fac 0401 0000
	0x0050:  0fac 0401 0000 0fac 020c 0046 0532 0801
	0x0060:  0000 2d1a ad09 17ff ff00 0000 0000 0000
	0x0070:  0000 0000 0000 0000 0000 0000 0000 3d16
	0x0080:  9908 0000 0000 0000 0000 0000 0000 0000
	0x0090:  0000 0000 0000 7f08 0400 0000 0000 0040
	0x00a0:  bf0c b201 8003 faff 0000 faff 0000 c005
	0x00b0:  0099 0000 00c3 0200 0edd 1c00 50f2 0410
	0x00c0:  4a00 0110 1044 0001 0210 4900 0a00 372a
	0x00d0:  0001 2005 0226 88dd 0900 1018 0200 001c
	0x00e0:  0000 dd18 0050 f202 0101 8000 03a4 0000
	0x00f0:  27a4 0000 4243 5e00 6232 2f00 0a29 7aeb
04:37:00.811630 ff:ff:ff:ff:d8:0d (oui Unknown) > 80:00:00:00:ff:ff (oui Unknown), ethertype Unknown (0x1772), length 256: 
	0x0000:  8000 0000 ffff ffff ffff d80d 1772 583a
	0x0010:  d80d 1772 583a 20f5 3eb0 c327 0000 0000
	0x0020:  6400 1110 000f 5450 2d4c 696e 6b5f 3538
	0x0030:  3343 5f35 4701 088c 1298 24b0 4860 6c05
	0x0040:  0400 0100 0030 1401 0000 0fac 0401 0000
	0x0050:  0fac 0401 0000 0fac 020c 0046 0532 0801
	0x0060:  0000 2d1a ad09 17ff ff00 0000 0000 0000
	0x0070:  0000 0000 0000 0000 0000 0000 0000 3d16
	0x0080:  9908 0000 0000 0000 0000 0000 0000 0000
	0x0090:  0000 0000 0000 7f08 0400 0000 0000 0040
	0x00a0:  bf0c b201 8003 faff 0000 faff 0000 c005
	0x00b0:  0099 0000 00c3 0200 0edd 1c00 50f2 0410
	0x00c0:  4a00 0110 1044 0001 0210 4900 0a00 372a
	0x00d0:  0001 2005 0226 88dd 0900 1018 0200 001c
	0x00e0:  0000 dd18 0050 f202 0101 8000 03a4 0000
	0x00f0:  27a4 0000 4243 5e00 6232 2f00 fb6b 04af
04:37:00.914014 ff:ff:ff:ff:d8:0d (oui Unknown) > 80:00:00:00:ff:ff (oui Unknown), ethertype Unknown (0x1772), length 256: 
	0x0000:  8000 0000 ffff ffff ffff d80d 1772 583a
	0x0010:  d80d 1772 583a 30f5 3e40 c527 0000 0000
	0x0020:  6400 1110 000f 5450 2d4c 696e 6b5f 3538
	0x0030:  3343 5f35 4701 088c 1298 24b0 4860 6c05
	0x0040:  0400 0100 0030 1401 0000 0fac 0401 0000
	0x0050:  0fac 0401 0000 0fac 020c 0046 0532 0801
	0x0060:  0000 2d1a ad09 17ff ff00 0000 0000 0000
	0x0070:  0000 0000 0000 0000 0000 0000 0000 3d16
	0x0080:  9908 0000 0000 0000 0000 0000 0000 0000
	0x0090:  0000 0000 0000 7f08 0400 0000 0000 0040
	0x00a0:  bf0c b201 8003 faff 0000 faff 0000 c005
	0x00b0:  0099 0000 00c3 0200 0edd 1c00 50f2 0410
	0x00c0:  4a00 0110 1044 0001 0210 4900 0a00 372a
	0x00d0:  0001 2005 0226 88dd 0900 1018 0200 001c
	0x00e0:  0000 dd18 0050 f202 0101 8000 03a4 0000
	0x00f0:  27a4 0000 4243 5e00 6232 2f00 b67b 19a3
04:37:01.016427 ff:ff:ff:ff:d8:0d (oui Unknown) > 80:00:00:00:ff:ff (oui Unknown), ethertype Unknown (0x1772), length 256: 
	0x0000:  8000 0000 ffff ffff ffff d80d 1772 583a
	0x0010:  d80d 1772 583a 40f5 3ed0 c627 0000 0000
	0x0020:  6400 1110 000f 5450 2d4c 696e 6b5f 3538
	0x0030:  3343 5f35 4701 088c 1298 24b0 4860 6c05
	0x0040:  0400 0100 0030 1401 0000 0fac 0401 0000
	0x0050:  0fac 0401 0000 0fac 020c 0046 0532 0801
	0x0060:  0000 2d1a ad09 17ff ff00 0000 0000 0000
	0x0070:  0000 0000 0000 0000 0000 0000 0000 3d16
	0x0080:  9908 0000 0000 0000 0000 0000 0000 0000
	0x0090:  0000 0000 0000 7f08 0400 0000 0000 0040
	0x00a0:  bf0c b201 8003 faff 0000 faff 0000 c005
	0x00b0:  0099 0000 00c3 0200 0edd 1c00 50f2 0410
	0x00c0:  4a00 0110 1044 0001 0210 4900 0a00 372a
	0x00d0:  0001 2005 0226 88dd 0900 1018 0200 001c
	0x00e0:  0000 dd18 0050 f202 0101 8000 03a4 0000
	0x00f0:  27a4 0000 4243 5e00 6232 2f00 46c6 feea
04:37:01.221260 ff:ff:ff:ff:d8:0d (oui Unknown) > 80:00:00:00:ff:ff (oui Unknown), ethertype Unknown (0x1772), length 256: 
	0x0000:  8000 0000 ffff ffff ffff d80d 1772 583a
	0x0010:  d80d 1772 583a 50f5 56f0 c927 0000 0000
	0x0020:  6400 1110 000f 5450 2d4c 696e 6b5f 3538
	0x0030:  3343 5f35 4701 088c 1298 24b0 4860 6c05
	0x0040:  0400 0100 0030 1401 0000 0fac 0401 0000
	0x0050:  0fac 0401 0000 0fac 020c 0046 0532 0801
	0x0060:  0000 2d1a ad09 17ff ff00 0000 0000 0000
	0x0070:  0000 0000 0000 0000 0000 0000 0000 3d16
	0x0080:  9908 0000 0000 0000 0000 0000 0000 0000
	0x0090:  0000 0000 0000 7f08 0400 0000 0000 0040
	0x00a0:  bf0c b201 8003 faff 0000 faff 0000 c005
	0x00b0:  0099 0000 00c3 0200 0edd 1c00 50f2 0410
	0x00c0:  4a00 0110 1044 0001 0210 4900 0a00 372a
	0x00d0:  0001 2005 0226 88dd 0900 1018 0200 001c
	0x00e0:  0000 dd18 0050 f202 0101 8000 03a4 0000
	0x00f0:  27a4 0000 4243 5e00 6232 2f00 adb5 89e1
04:37:01.323641 ff:ff:ff:ff:d8:0d (oui Unknown) > 80:00:00:00:ff:ff (oui Unknown), ethertype Unknown (0x1772), length 256: 
	0x0000:  8000 0000 ffff ffff ffff d80d 1772 583a
	0x0010:  d80d 1772 583a 60f5 4680 cb27 0000 0000
	0x0020:  6400 1110 000f 5450 2d4c 696e 6b5f 3538
	0x0030:  3343 5f35 4701 088c 1298 24b0 4860 6c05
	0x0040:  0400 0100 0030 1401 0000 0fac 0401 0000
	0x0050:  0fac 0401 0000 0fac 020c 0046 0532 0801
	0x0060:  0000 2d1a ad09 17ff ff00 0000 0000 0000
	0x0070:  0000 0000 0000 0000 0000 0000 0000 3d16
	0x0080:  9908 0000 0000 0000 0000 0000 0000 0000
	0x0090:  0000 0000 0000 7f08 0400 0000 0000 0040
	0x00a0:  bf0c b201 8003 faff 0000 faff 0000 c005
	0x00b0:  0099 0000 00c3 0200 0edd 1c00 50f2 0410
	0x00c0:  4a00 0110 1044 0001 0210 4900 0a00 372a
	0x00d0:  0001 2005 0226 88dd 0900 1018 0200 001c
	0x00e0:  0000 dd18 0050 f202 0101 8000 03a4 0000
	0x00f0:  27a4 0000 4243 5e00 6232 2f00 56ad f7ee
04:37:01.426028 ff:ff:ff:ff:d8:0d (oui Unknown) > 80:00:00:00:ff:ff (oui Unknown), ethertype Unknown (0x1772), length 256: 
	0x0000:  8000 0000 ffff ffff ffff d80d 1772 583a
	0x0010:  d80d 1772 583a 70f5 4b10 cd27 0000 0000
	0x0020:  6400 1110 000f 5450 2d4c 696e 6b5f 3538
	0x0030:  3343 5f35 4701 088c 1298 24b0 4860 6c05
	0x0040:  0400 0100 0030 1401 0000 0fac 0401 0000
	0x0050:  0fac 0401 0000 0fac 020c 0046 0532 0801
	0x0060:  0000 2d1a ad09 17ff ff00 0000 0000 0000
	0x0070:  0000 0000 0000 0000 0000 0000 0000 3d16
	0x0080:  9908 0000 0000 0000 0000 0000 0000 0000
	0x0090:  0000 0000 0000 7f08 0400 0000 0000 0040
	0x00a0:  bf0c b201 8003 faff 0000 faff 0000 c005
	0x00b0:  0099 0000 00c3 0200 0edd 1c00 50f2 0410
	0x00c0:  4a00 0110 1044 0001 0210 4900 0a00 372a
	0x00d0:  0001 2005 0226 88dd 0900 1018 0200 001c
	0x00e0:  0000 dd18 0050 f202 0101 8000 03a4 0000
	0x00f0:  27a4 0000 4243 5e00 6232 2f00 1e3c 61b0
04:37:01.470131 cb:64:52:59:40:98 (oui Unknown) > b4:00:9a:00:70:3a (oui Unknown), ethertype Unknown (0xad1c), length 20: 
	0x0000:  b400 9a00 703a cb64 5259 4098 ad1c 0b60
	0x0010:  7f0c dd86
04:37:01.470189 ad:1c:0b:60:c6:31 (oui Unknown) > c4:00:6e:00:40:98 (oui Unknown), ethertype Unknown (0xeabd), length 14: 
	0x0000:  c400 6e00 4098 ad1c 0b60 c631 eabd
04:37:01.470221 ad:1c:0b:60:70:3a (oui Unknown) > 94:00:00:00:40:98 (oui Unknown), ethertype Unknown (0xcb64), length 32: 
	0x0000:  9400 0000 4098 ad1c 0b60 703a cb64 5259
	0x0010:  0400 f02c ff00 0000 0000 0000 60cf 3e40
04:37:01.472569 cb:64:51:7d:73:3a (oui Unknown) > b4:00:b4:00:72:3a (oui Unknown), ethertype Unknown (0xcb64), length 20: 
	0x0000:  b400 b400 723a cb64 517d 733a cb64 5259
	0x0010:  03e3 be21
04:37:01.472605 cb:64:52:59:18:9c (oui Unknown) > c4:00:78:00:72:3a (oui Unknown), ethertype Unknown (0xb834), length 14: 
	0x0000:  c400 7800 723a cb64 5259 189c b834
04:37:01.472634 cb:64:51:7d:73:3a (oui Unknown) > b4:00:b4:00:72:3a (oui Unknown), ethertype Unknown (0xcb64), length 20: 
	0x0000:  b400 b400 723a cb64 517d 733a cb64 5259
	0x0010:  03e3 be21
04:37:01.472825 cb:64:52:59:18:9c (oui Unknown) > c4:00:78:00:72:3a (oui Unknown), ethertype Unknown (0xb834), length 14: 
	0x0000:  c400 7800 723a cb64 5259 189c b834
04:37:01.473806 cb:64:51:7d:73:3a (oui Unknown) > b4:00:b4:00:72:3a (oui Unknown), ethertype Unknown (0xcb64), length 20: 
	0x0000:  b400 b400 723a cb64 517d 733a cb64 5259
	0x0010:  03e3 be21
04:37:01.473840 cb:64:52:59:18:9c (oui Unknown) > c4:00:78:00:72:3a (oui Unknown), ethertype Unknown (0xb834), length 14: 
	0x0000:  c400 7800 723a cb64 5259 189c b834
04:37:01.473867 cb:64:52:59:72:3a (oui Unknown) > 94:00:00:00:72:3a (oui Unknown), ethertype Unknown (0xcb64), length 32: 
	0x0000:  9400 0000 723a cb64 5259 723a cb64 517d
	0x0010:  0400 d0d1 ffff ffff ffff ffff bf8f fc47
04:37:01.508419 cb:64:52:59:73:3a (oui Unknown) > b4:00:b6:00:72:3a (oui Unknown), ethertype Unknown (0xcb64), length 20: 
	0x0000:  b400 b600 723a cb64 5259 733a cb64 517d
	0x0010:  d08a 8362
04:37:01.508478 cb:64:51:7d:77:2c (oui Unknown) > c4:00:7a:00:72:3a (oui Unknown), ethertype Unknown (0xb361), length 14: 
	0x0000:  c400 7a00 723a cb64 517d 772c b361
04:37:01.509732 cb:64:52:59:73:3a (oui Unknown) > b4:00:b6:00:72:3a (oui Unknown), ethertype Unknown (0xcb64), length 20: 
	0x0000:  b400 b600 723a cb64 5259 733a cb64 517d
	0x0010:  d08a 8362
04:37:01.509767 cb:64:51:7d:77:2c (oui Unknown) > c4:00:7a:00:72:3a (oui Unknown), ethertype Unknown (0xb361), length 14: 
	0x0000:  c400 7a00 723a cb64 517d 772c b361
04:37:01.509795 cb:64:51:7d:72:3a (oui Unknown) > 94:00:00:00:72:3a (oui Unknown), ethertype Unknown (0xcb64), length 32: 
	0x0000:  9400 0000 723a cb64 517d 723a cb64 5259
	0x0010:  0400 b06e ffff ff3f 0000 0000 3f7e 8b59
04:37:01.511741 cb:64:52:59:40:98 (oui Unknown) > 94:00:00:00:70:3a (oui Unknown), ethertype Unknown (0xad1c), length 32: 
	0x0000:  9400 0000 703a cb64 5259 4098 ad1c 0b60
	0x0010:  0500 306d 0100 0000 0000 0000 58f2 2c87
04:37:01.514255 cb:64:52:59:40:98 (oui Unknown) > b4:00:92:00:70:3a (oui Unknown), ethertype Unknown (0xad1c), length 20: 
	0x0000:  b400 9200 703a cb64 5259 4098 ad1c 0b60
	0x0010:  4912 84b5
04:37:01.514312 ad:1c:0b:60:73:2a (oui Unknown) > c4:00:66:00:40:98 (oui Unknown), ethertype Unknown (0x0f6e), length 14: 
	0x0000:  c400 6600 4098 ad1c 0b60 732a 0f6e
04:37:01.514341 ad:1c:0b:60:70:3a (oui Unknown) > 94:00:00:00:40:98 (oui Unknown), ethertype Unknown (0xcb64), length 32: 
	0x0000:  9400 0000 4098 ad1c 0b60 703a cb64 5259
	0x0010:  0400 f02c ff01 0000 0000 0000 d4c4 49e6
04:37:01.515342 cb:64:51:7d:73:3a (oui Unknown) > b4:00:ac:00:72:3a (oui Unknown), ethertype Unknown (0xcb64), length 20: 
	0x0000:  b400 ac00 723a cb64 517d 733a cb64 5259
	0x0010:  59c1 5574
04:37:01.515558 cb:64:52:59:ad:87 (oui Unknown) > c4:00:70:00:72:3a (oui Unknown), ethertype Unknown (0x5de7), length 14: 
	0x0000:  c400 7000 723a cb64 5259 ad87 5de7
04:37:01.515863 cb:64:51:7d:73:3a (oui Unknown) > b4:00:b0:00:72:3a (oui Unknown), ethertype Unknown (0xcb64), length 20: 
	0x0000:  b400 b000 723a cb64 517d 733a cb64 5259
	0x0010:  186c 1238
04:37:01.516076 cb:64:52:59:57:89 (oui Unknown) > c4:00:74:00:72:3a (oui Unknown), ethertype Unknown (0x1763), length 14: 
	0x0000:  c400 7400 723a cb64 5259 5789 1763
04:37:01.523871 ff:ff:ff:ff:d8:0d (oui Unknown) > 80:00:00:00:ff:ff (oui Unknown), ethertype Unknown (0x1772), length 256: 
	0x0000:  8000 0000 ffff ffff ffff d80d 1772 583a
	0x0010:  d80d 1772 583a 80f5 43a0 ce27 0000 0000
	0x0020:  6400 1110 000f 5450 2d4c 696e 6b5f 3538
	0x0030:  3343 5f35 4701 088c 1298 24b0 4860 6c05
	0x0040:  0400 0100 0030 1401 0000 0fac 0401 0000
	0x0050:  0fac 0401 0000 0fac 020c 0046 0532 0801
	0x0060:  0000 2d1a ad09 17ff ff00 0000 0000 0000
	0x0070:  0000 0000 0000 0000 0000 0000 0000 3d16
	0x0080:  9908 0000 0000 0000 0000 0000 0000 0000
	0x0090:  0000 0000 0000 7f08 0400 0000 0000 0040
	0x00a0:  bf0c b201 8003 faff 0000 faff 0000 c005
	0x00b0:  0099 0000 00c3 0200 0edd 1c00 50f2 0410
	0x00c0:  4a00 0110 1044 0001 0210 4900 0a00 372a
	0x00d0:  0001 2005 0226 88dd 0900 1018 0200 001c
	0x00e0:  0000 dd18 0050 f202 0101 8000 03a4 0000
	0x00f0:  27a4 0000 4243 5e00 6232 2f00 af01 1f7f
04:37:01.546470 cb:64:52:59:40:98 (oui Unknown) > b4:00:a2:00:70:3a (oui Unknown), ethertype Unknown (0xad1c), length 20: 
	0x0000:  b400 a200 703a cb64 5259 4098 ad1c 0b60
	0x0010:  fd56 521e
04:37:01.546693 ad:1c:0b:60:58:1b (oui Unknown) > c4:00:76:00:40:98 (oui Unknown), ethertype Unknown (0xb412), length 14: 
	0x0000:  c400 7600 4098 ad1c 0b60 581b b412
04:37:01.546724 ad:1c:0b:60:70:3a (oui Unknown) > 94:00:00:00:40:98 (oui Unknown), ethertype Unknown (0xcb64), length 32: 
	0x0000:  9400 0000 4098 ad1c 0b60 703a cb64 5259
	0x0010:  0400 f02c ff07 0000 0000 0000 eef1 9985
04:37:01.547214 cb:64:51:7d:73:3a (oui Unknown) > b4:00:b8:00:72:3a (oui Unknown), ethertype Unknown (0xcb64), length 20: 
	0x0000:  b400 b800 723a cb64 517d 733a cb64 5259
	0x0010:  2e72 4b0b
04:37:01.547425 cb:64:52:59:e2:92 (oui Unknown) > c4:00:7c:00:72:3a (oui Unknown), ethertype Unknown (0xf2b0), length 14: 
	0x0000:  c400 7c00 723a cb64 5259 e292 f2b0
04:37:01.547730 cb:64:52:59:72:3a (oui Unknown) > 94:00:00:00:72:3a (oui Unknown), ethertype Unknown (0xcb64), length 32: 
	0x0000:  9400 0000 723a cb64 5259 723a cb64 517d
	0x0010:  0400 f0d1 ffff ffff ffff ffff 6f8c a108
04:37:01.563747 cb:64:52:59:73:3a (oui Unknown) > b4:00:ac:00:72:3a (oui Unknown), ethertype Unknown (0xcb64), length 20: 
	0x0000:  b400 ac00 723a cb64 5259 733a cb64 517d
	0x0010:  276c 06d6
04:37:01.563805 cb:64:51:7d:bf:30 (oui Unknown) > c4:00:70:00:72:3a (oui Unknown), ethertype Unknown (0x73f0), length 14: 
	0x0000:  c400 7000 723a cb64 517d bf30 73f0
04:37:01.563834 cb:64:52:59:73:3a (oui Unknown) > b4:00:ae:00:72:3a (oui Unknown), ethertype Unknown (0xcb64), length 20: 
	0x0000:  b400 ae00 723a cb64 5259 733a cb64 517d
	0x0010:  8aa8 6837
04:37:01.563862 cb:64:51:7d:c2:37 (oui Unknown) > c4:00:72:00:72:3a (oui Unknown), ethertype Unknown (0x56b2), length 14: 
	0x0000:  c400 7200 723a cb64 517d c237 56b2
04:37:01.563888 cb:64:51:7d:72:3a (oui Unknown) > 94:00:00:00:72:3a (oui Unknown), ethertype Unknown (0xcb64), length 32: 
	0x0000:  9400 0000 723a cb64 517d 723a cb64 5259
	0x0010:  0400 b06e ffff ff7f 0000 0000 7626 7801
04:37:01.564697 cb:64:52:59:40:98 (oui Unknown) > 94:00:00:00:70:3a (oui Unknown), ethertype Unknown (0xad1c), length 32: 
	0x0000:  9400 0000 703a cb64 5259 4098 ad1c 0b60
	0x0010:  0500 406d 0100 0000 0000 0000 c077 6571
04:37:01.630683 ff:ff:ff:ff:d8:0d (oui Unknown) > 80:00:00:00:ff:ff (oui Unknown), ethertype Unknown (0x1772), length 256: 
	0x0000:  8000 0000 ffff ffff ffff d80d 1772 583a
	0x0010:  d80d 1772 583a 90f5 5430 d027 0000 0000
	0x0020:  6400 1110 000f 5450 2d4c 696e 6b5f 3538
	0x0030:  3343 5f35 4701 088c 1298 24b0 4860 6c05
	0x0040:  0400 0100 0030 1401 0000 0fac 0401 0000
	0x0050:  0fac 0401 0000 0fac 020c 0046 0532 0801
	0x0060:  0000 2d1a ad09 17ff ff00 0000 0000 0000
	0x0070:  0000 0000 0000 0000 0000 0000 0000 3d16
	0x0080:  9908 0000 0000 0000 0000 0000 0000 0000
	0x0090:  0000 0000 0000 7f08 0400 0000 0000 0040
	0x00a0:  bf0c b201 8003 faff 0000 faff 0000 c005
	0x00b0:  0099 0000 00c3 0200 0edd 1c00 50f2 0410
	0x00c0:  4a00 0110 1044 0001 0210 4900 0a00 372a
	0x00d0:  0001 2005 0226 88dd 0900 1018 0200 001c
	0x00e0:  0000 dd18 0050 f202 0101 8000 03a4 0000
	0x00f0:  27a4 0000 4243 5e00 6232 2f00 2af9 9b42
04:37:01.649287 cb:64:52:59:73:3a (oui Unknown) > b4:00:c4:00:72:3a (oui Unknown), ethertype Unknown (0xcb64), length 20: 
	0x0000:  b400 c400 723a cb64 5259 733a cb64 517d
	0x0010:  38fd 8269
04:37:01.649525 cb:64:51:7d:40:3f (oui Unknown) > c4:00:88:00:72:3a (oui Unknown), ethertype Unknown (0xfddc), length 14: 
	0x0000:  c400 8800 723a cb64 517d 403f fddc
04:37:01.649835 cb:64:51:7d:72:3a (oui Unknown) > 94:00:00:00:72:3a (oui Unknown), ethertype Unknown (0xcb64), length 32: 
	0x0000:  9400 0000 723a cb64 517d 723a cb64 5259
	0x0010:  0400 b06e ffff ffff 0000 0000 e496 9eb0
04:37:01.663909 cb:64:52:59:40:98 (oui Unknown) > 94:00:00:00:70:3a (oui Unknown), ethertype Unknown (0xad1c), length 32: 
	0x0000:  9400 0000 703a cb64 5259 4098 ad1c 0b60
	0x0010:  0500 506d 0100 0000 0000 0000 28f6 cb56
04:37:01.666583 cb:64:52:59:40:98 (oui Unknown) > b4:00:9a:00:70:3a (oui Unknown), ethertype Unknown (0xad1c), length 20: 
	0x0000:  b400 9a00 703a cb64 5259 4098 ad1c 0b60
	0x0010:  7f0c dd86
04:37:01.666817 ad:1c:0b:60:c6:31 (oui Unknown) > c4:00:6e:00:40:98 (oui Unknown), ethertype Unknown (0xeabd), length 14: 
	0x0000:  c400 6e00 4098 ad1c 0b60 c631 eabd
04:37:01.667123 ad:1c:0b:60:70:3a (oui Unknown) > 94:00:00:00:40:98 (oui Unknown), ethertype Unknown (0xcb64), length 32: 
	0x0000:  9400 0000 4098 ad1c 0b60 703a cb64 5259
	0x0010:  0400 f02c ff1f 0000 0000 0000 4723 a8d1
04:37:01.668054 cb:64:51:7d:73:3a (oui Unknown) > b4:00:b0:00:72:3a (oui Unknown), ethertype Unknown (0xcb64), length 20: 
	0x0000:  b400 b000 723a cb64 517d 733a cb64 5259
	0x0010:  186c 1238
04:37:01.668265 cb:64:52:59:57:89 (oui Unknown) > c4:00:74:00:72:3a (oui Unknown), ethertype Unknown (0x1763), length 14: 
	0x0000:  c400 7400 723a cb64 5259 5789 1763
04:37:01.670319 cb:64:52:59:72:3a (oui Unknown) > 94:00:00:00:72:3a (oui Unknown), ethertype Unknown (0xcb64), length 32: 
	0x0000:  9400 0000 723a cb64 5259 723a cb64 517d
	0x0010:  0400 00d2 ffff ffff ffff ffff 333c 6021
04:37:01.685506 cb:64:52:59:a0:99 (oui Unknown) > b4:00:96:00:70:3a (oui Unknown), ethertype Unknown (0x9b08), length 20: 
	0x0000:  b400 9600 703a cb64 5259 a099 9b08 3c33
	0x0010:  cba3 062b
04:37:01.688248 9b:08:3c:33:a5:01 (oui Unknown) > c4:00:6a:00:a0:99 (oui Unknown), ethertype Unknown (0x8ebe), length 14: 
	0x0000:  c400 6a00 a099 9b08 3c33 a501 8ebe
04:37:01.691539 9b:08:3c:33:70:3a (oui Unknown) > 94:00:00:00:a0:99 (oui Unknown), ethertype Unknown (0xcb64), length 32: 
	0x0000:  9400 0000 a099 9b08 3c33 703a cb64 5259
	0x0010:  0400 c0fd 0100 0000 0000 0000 489d 7623
04:37:01.691850 cb:64:51:7d:73:3a (oui Unknown) > b4:00:b0:00:72:3a (oui Unknown), ethertype Unknown (0xcb64), length 20: 
	0x0000:  b400 b000 723a cb64 517d 733a cb64 5259
	0x0010:  186c 1238
04:37:01.692065 cb:64:52:59:57:89 (oui Unknown) > c4:00:74:00:72:3a (oui Unknown), ethertype Unknown (0x1763), length 14: 
	0x0000:  c400 7400 723a cb64 5259 5789 1763
04:37:01.692369 cb:64:52:59:72:3a (oui Unknown) > 94:00:00:00:72:3a (oui Unknown), ethertype Unknown (0xcb64), length 32: 
	0x0000:  9400 0000 723a cb64 5259 723a cb64 517d
	0x0010:  0400 10d2 ffff ffff ffff ffff dbbd ce06
04:37:01.698824 cb:64:52:59:73:3a (oui Unknown) > b4:00:ab:00:72:3a (oui Unknown), ethertype Unknown (0xcb64), length 20: 
	0x0000:  b400 ab00 723a cb64 5259 733a cb64 517d
	0x0010:  e7c6 cbb3
04:37:01.699151 cb:64:52:59:73:3a (oui Unknown) > b4:00:ab:00:72:3a (oui Unknown), ethertype Unknown (0xcb64), length 20: 
	0x0000:  b400 ab00 723a cb64 5259 733a cb64 517d
	0x0010:  e7c6 cbb3
04:37:01.699367 cb:64:51:7d:38:13 (oui Unknown) > c4:00:6f:00:72:3a (oui Unknown), ethertype Unknown (0xe855), length 14: 
	0x0000:  c400 6f00 723a cb64 517d 3813 e855
04:37:01.699672 cb:64:51:7d:72:3a (oui Unknown) > 94:00:00:00:72:3a (oui Unknown), ethertype Unknown (0xcb64), length 32: 
	0x0000:  9400 0000 723a cb64 517d 723a cb64 5259
	0x0010:  0400 b06e ffff ffff 0100 0000 81f1 2208
04:37:01.702019 cb:64:52:59:a0:99 (oui Unknown) > 94:00:00:00:70:3a (oui Unknown), ethertype Unknown (0x9b08), length 32: 
	0x0000:  9400 0000 703a cb64 5259 a099 9b08 3c33
	0x0010:  0500 60c2 0100 0000 0000 0000 5fbf efdd
04:37:01.728939 ff:ff:ff:ff:d8:0d (oui Unknown) > 80:00:00:00:ff:ff (oui Unknown), ethertype Unknown (0x1772), length 256: 
	0x0000:  8000 0000 ffff ffff ffff d80d 1772 583a
	0x0010:  d80d 1772 583a a0f5 3ec0 d127 0000 0000
	0x0020:  6400 1110 000f 5450 2d4c 696e 6b5f 3538
	0x0030:  3343 5f35 4701 088c 1298 24b0 4860 6c05
	0x0040:  0400 0100 0030 1401 0000 0fac 0401 0000
	0x0050:  0fac 0401 0000 0fac 020c 0046 0532 0801
	0x0060:  0000 2d1a ad09 17ff ff00 0000 0000 0000
	0x0070:  0000 0000 0000 0000 0000 0000 0000 3d16
	0x0080:  9908 0000 0000 0000 0000 0000 0000 0000
	0x0090:  0000 0000 0000 7f08 0400 0000 0000 0040
	0x00a0:  bf0c b201 8003 faff 0000 faff 0000 c005
	0x00b0:  0099 0000 00c3 0200 0edd 1c00 50f2 0410
	0x00c0:  4a00 0110 1044 0001 0210 4900 0a00 372a
	0x00d0:  0001 2005 0226 88dd 0900 1018 0200 001c
	0x00e0:  0000 dd18 0050 f202 0101 8000 03a4 0000
	0x00f0:  27a4 0000 4243 5e00 6232 2f00 d1f5 4231
04:37:01.760147 cb:64:52:59:73:3a (oui Unknown) > b4:00:ae:00:72:3a (oui Unknown), ethertype Unknown (0xcb64), length 20: 
	0x0000:  b400 ae00 723a cb64 5259 733a cb64 517d
	0x0010:  8aa8 6837
04:37:01.760192 cb:64:51:7d:c2:37 (oui Unknown) > c4:00:72:00:72:3a (oui Unknown), ethertype Unknown (0x56b2), length 14: 
	0x0000:  c400 7200 723a cb64 517d c237 56b2
04:37:01.760256 cb:64:51:7d:72:3a (oui Unknown) > 94:00:00:00:72:3a (oui Unknown), ethertype Unknown (0xcb64), length 32: 
	0x0000:  9400 0000 723a cb64 517d 723a cb64 5259
	0x0010:  0400 b06e ffff ffff 0300 0000 0a39 2ba2
04:37:01.761410 cb:64:52:59:a0:99 (oui Unknown) > 94:00:00:00:70:3a (oui Unknown), ethertype Unknown (0x9b08), length 32: 
	0x0000:  9400 0000 703a cb64 5259 a099 9b08 3c33
	0x0010:  0500 70c2 0100 0000 0000 0000 b73e 41fa
04:37:01.762191 cb:64:52:59:a0:99 (oui Unknown) > 54:00:64:00:70:3a (oui Unknown), ethertype Unknown (0x9b08), length 23: 
	0x0000:  5400 6400 703a cb64 5259 a099 9b08 3c33
	0x0010:  0000 00b7 3d6b f5
04:37:01.762309 cb:64:52:59:a0:99 (oui Unknown) > 54:00:64:00:70:3a (oui Unknown), ethertype Unknown (0x9b08), length 23: 
	0x0000:  5400 6400 703a cb64 5259 a099 9b08 3c33
	0x0010:  0000 00b7 3d6b f5
04:37:01.762627 cb:64:52:59:a0:99 (oui Unknown) > b4:00:96:00:70:3a (oui Unknown), ethertype Unknown (0x9b08), length 20: 
	0x0000:  b400 9600 703a cb64 5259 a099 9b08 3c33
	0x0010:  cba3 062b
04:37:01.762714 9b:08:3c:33:a5:01 (oui Unknown) > c4:00:6a:00:a0:99 (oui Unknown), ethertype Unknown (0x8ebe), length 14: 
	0x0000:  c400 6a00 a099 9b08 3c33 a501 8ebe
04:37:01.762819 9b:08:3c:33:70:3a (oui Unknown) > 94:00:00:00:a0:99 (oui Unknown), ethertype Unknown (0xcb64), length 32: 
	0x0000:  9400 0000 a099 9b08 3c33 703a cb64 5259
	0x0010:  0400 c0fd 0300 0000 0000 0000 359a 5361
04:37:01.764660 cb:64:51:7d:73:3a (oui Unknown) > b4:00:ac:00:72:3a (oui Unknown), ethertype Unknown (0xcb64), length 20: 
	0x0000:  b400 ac00 723a cb64 517d 733a cb64 5259
	0x0010:  59c1 5574
04:37:01.764750 cb:64:52:59:ad:87 (oui Unknown) > c4:00:70:00:72:3a (oui Unknown), ethertype Unknown (0x5de7), length 14: 
	0x0000:  c400 7000 723a cb64 5259 ad87 5de7
04:37:01.764857 cb:64:52:59:72:3a (oui Unknown) > 94:00:00:00:72:3a (oui Unknown), ethertype Unknown (0xcb64), length 32: 
	0x0000:  9400 0000 723a cb64 5259 723a cb64 517d
	0x0010:  0400 20d2 ffff ffff ffff ffff e33f 3d6e
04:37:01.834639 ff:ff:ff:ff:d8:0d (oui Unknown) > 80:00:00:00:ff:ff (oui Unknown), ethertype Unknown (0x1772), length 256: 
	0x0000:  8000 0000 ffff ffff ffff d80d 1772 583a
	0x0010:  d80d 1772 583a b0f5 3e50 d327 0000 0000
	0x0020:  6400 1110 000f 5450 2d4c 696e 6b5f 3538
	0x0030:  3343 5f35 4701 088c 1298 24b0 4860 6c05
	0x0040:  0400 0100 0030 1401 0000 0fac 0401 0000
	0x0050:  0fac 0401 0000 0fac 020c 0046 0532 0801
	0x0060:  0000 2d1a ad09 17ff ff00 0000 0000 0000
	0x0070:  0000 0000 0000 0000 0000 0000 0000 3d16
	0x0080:  9908 0000 0000 0000 0000 0000 0000 0000
	0x0090:  0000 0000 0000 7f08 0400 0000 0000 0040
	0x00a0:  bf0c b201 8003 faff 0000 faff 0000 c005
	0x00b0:  0099 0000 00c3 0200 0edd 1c00 50f2 0410
	0x00c0:  4a00 0110 1044 0001 0210 4900 0a00 372a
	0x00d0:  0001 2005 0226 88dd 0900 1018 0200 001c
	0x00e0:  0000 dd18 0050 f202 0101 8000 03a4 0000
	0x00f0:  27a4 0000 4243 5e00 6232 2f00 2511 2371
04:37:01.937036 ff:ff:ff:ff:d8:0d (oui Unknown) > 80:00:00:00:ff:ff (oui Unknown), ethertype Unknown (0x1772), length 256: 
	0x0000:  8000 0000 ffff ffff ffff d80d 1772 583a
	0x0010:  d80d 1772 583a c0f5 40e0 d427 0000 0000
	0x0020:  6400 1110 000f 5450 2d4c 696e 6b5f 3538
	0x0030:  3343 5f35 4701 088c 1298 24b0 4860 6c05
	0x0040:  0400 0100 0030 1401 0000 0fac 0401 0000
	0x0050:  0fac 0401 0000 0fac 020c 0046 0532 0801
	0x0060:  0000 2d1a ad09 17ff ff00 0000 0000 0000
	0x0070:  0000 0000 0000 0000 0000 0000 0000 3d16
	0x0080:  9908 0000 0000 0000 0000 0000 0000 0000
	0x0090:  0000 0000 0000 7f08 0400 0000 0000 0040
	0x00a0:  bf0c b201 8003 faff 0000 faff 0000 c005
	0x00b0:  0099 0000 00c3 0200 0edd 1c00 50f2 0410
	0x00c0:  4a00 0110 1044 0001 0210 4900 0a00 372a
	0x00d0:  0001 2005 0226 88dd 0900 1018 0200 001c
	0x00e0:  0000 dd18 0050 f202 0101 8000 03a4 0000
	0x00f0:  27a4 0000 4243 5e00 6232 2f00 16b5 f0b1
04:37:01.980583 cb:64:51:7d:41:4e (oui Unknown) > b4:00:c8:00:70:3a (oui Unknown), ethertype Unknown (0x36d4), length 20: 
	0x0000:  b400 c800 703a cb64 517d 414e 36d4 81e8
	0x0010:  f19a deef
04:37:01.981027 36:d4:81:e8:ad:43 (oui Unknown) > c4:00:8c:00:40:4e (oui Unknown), ethertype Unknown (0x58ad), length 14: 
	0x0000:  c400 8c00 404e 36d4 81e8 ad43 58ad
04:37:01.981485 cb:64:51:7d:41:4e (oui Unknown) > b4:00:c8:00:70:3a (oui Unknown), ethertype Unknown (0x36d4), length 20: 
	0x0000:  b400 c800 703a cb64 517d 414e 36d4 81e8
	0x0010:  f19a deef
04:37:01.981859 36:d4:81:e8:ad:43 (oui Unknown) > c4:00:8c:00:40:4e (oui Unknown), ethertype Unknown (0x58ad), length 14: 
	0x0000:  c400 8c00 404e 36d4 81e8 ad43 58ad
04:37:01.996839 cb:64:51:7d:41:4e (oui Unknown) > b4:00:b0:00:70:3a (oui Unknown), ethertype Unknown (0x36d4), length 20: 
	0x0000:  b400 b000 703a cb64 517d 414e 36d4 81e8
	0x0010:  8237 e836
04:37:01.997249 36:d4:81:e8:52:4c (oui Unknown) > c4:00:74:00:40:4e (oui Unknown), ethertype Unknown (0xd681), length 14: 
	0x0000:  c400 7400 404e 36d4 81e8 524c d681
04:37:01.997705 36:d4:81:e8:70:3a (oui Unknown) > 94:00:00:00:40:4e (oui Unknown), ethertype Unknown (0xcb64), length 32: 
	0x0000:  9400 0000 404e 36d4 81e8 703a cb64 517d
	0x0010:  0400 308c ffff ffff ffff ffff 4de2 9d79
04:37:02.035880 ff:ff:ff:ff:d8:0d (oui Unknown) > 80:00:00:00:ff:ff (oui Unknown), ethertype Unknown (0x1772), length 256: 
	0x0000:  8000 0000 ffff ffff ffff d80d 1772 583a
	0x0010:  d80d 1772 583a d0f5 4c70 d627 0000 0000
	0x0020:  6400 1110 000f 5450 2d4c 696e 6b5f 3538
	0x0030:  3343 5f35 4701 088c 1298 24b0 4860 6c05
	0x0040:  0400 0100 0030 1401 0000 0fac 0401 0000
	0x0050:  0fac 0401 0000 0fac 020c 0046 0532 0801
	0x0060:  0000 2d1a ad09 17ff ff00 0000 0000 0000
	0x0070:  0000 0000 0000 0000 0000 0000 0000 3d16
	0x0080:  9908 0000 0000 0000 0000 0000 0000 0000
	0x0090:  0000 0000 0000 7f08 0400 0000 0000 0040
	0x00a0:  bf0c b201 8003 faff 0000 faff 0000 c005
	0x00b0:  0099 0000 00c3 0200 0edd 1c00 50f2 0410
	0x00c0:  4a00 0110 1044 0001 0210 4900 0a00 372a
	0x00d0:  0001 2005 0226 88dd 0900 1018 0200 001c
	0x00e0:  0000 dd18 0050 f202 0101 8000 03a4 0000
	0x00f0:  27a4 0000 4243 5e00 6232 2f00 d7d9 7601
04:37:02.087534 36:d4:81:e8:71:3a (oui Unknown) > b4:00:af:00:40:4e (oui Unknown), ethertype Unknown (0xcb64), length 20: 
	0x0000:  b400 af00 404e 36d4 81e8 713a cb64 517d
	0x0010:  4293 00f2
04:37:02.088140 cb:64:51:7d:57:96 (oui Unknown) > c4:00:73:00:70:3a (oui Unknown), ethertype Unknown (0x3433), length 14: 
	0x0000:  c400 7300 703a cb64 517d 5796 3433
04:37:02.104042 36:d4:81:e8:70:3a (oui Unknown) > 94:00:00:00:40:4e (oui Unknown), ethertype Unknown (0xcb64), length 32: 
	0x0000:  9400 0000 404e 36d4 81e8 703a cb64 517d
	0x0010:  0400 508c ffff ffff ffff ffff 3de6 7aa8
04:37:02.120303 36:d4:81:e8:71:3a (oui Unknown) > b4:00:af:00:40:4e (oui Unknown), ethertype Unknown (0xcb64), length 20: 
	0x0000:  b400 af00 404e 36d4 81e8 713a cb64 517d
	0x0010:  4293 00f2
04:37:02.125969 9b:08:3c:33:d8:0d (oui Unknown) > d0:00:3c:00:a0:99 (oui Unknown), ethertype Unknown (0x1772), length 37: 
	0x0000:  d000 3c00 a099 9b08 3c33 d80d 1772 583a
	0x0010:  d80d 1772 583a e0f5 0300 5203 1000 0090
	0x0020:  0088 16e3 1a
04:37:02.126654 9b:08:3c:33:d8:0d (oui Unknown) > d0:08:3c:00:a0:99 (oui Unknown), ethertype Unknown (0x1772), length 37: 
	0x0000:  d008 3c00 a099 9b08 3c33 d80d 1772 583a
	0x0010:  d80d 1772 583a e0f5 0300 5203 1000 0090
	0x0020:  00dc 22f7 f9
04:37:02.127853 9b:08:3c:33:d8:0d (oui Unknown) > d0:08:3c:00:a0:99 (oui Unknown), ethertype Unknown (0x1772), length 37: 
	0x0000:  d008 3c00 a099 9b08 3c33 d80d 1772 583a
	0x0010:  d80d 1772 583a e0f5 0300 5203 1000 0090
	0x0020:  00dc 22f7 f9
04:37:02.128636 ff:ff:ff:ff:9c:3d (oui Unknown) > 80:00:00:00:ff:ff (oui Unknown), ethertype Unknown (0xcf25), length 347: 
	0x0000:  8000 0000 ffff ffff ffff 9c3d cf25 0902
	0x0010:  9c3d cf25 0902 2088 3c20 a927 6400 0000
	0x0020:  c800 1110 000b 5375 6544 6f64 6765 2035
	0x0030:  4701 088c 1298 24b0 4860 6c05 0401 0200
	0x0040:  0007 4655 5320 2401 1e28 011e 2c01 1e30
	0x0050:  011e 3401 1e38 011e 3c01 1e40 011e 6401
	0x0060:  1e68 011e 6c01 1e70 011e 7401 1e84 011e
	0x0070:  8801 1e8c 011e 9001 1e95 011e 9901 1e9d
	0x0080:  011e a101 1ea5 011e 0030 1401 0000 0fac
	0x0090:  0401 0000 0fac 0401 0000 0fac 020c 002d
	0x00a0:  1aef 0917 ffff ff00 0000 0000 0000 0000
	0x00b0:  0000 0000 0000 0000 0000 003d 1699 0f04
	0x00c0:  0000 0000 0000 0000 0000 0000 0000 0000
	0x00d0:  0000 007f 0804 0000 0000 0000 40bf 0cb2
	0x00e0:  5982 0fea ff00 00ea ff00 00c0 0501 9b00
	0x00f0:  0000 c304 0202 0202 dd31 0050 f204 104a
	0x0100:  0001 1010 4400 0102 1047 0010 1536 ee4f
	0x0110:  33ad 11be 2003 7826 26fe dff6 103c 0001
	0x0120:  0310 4900 0600 372a 0001 20dd 0900 1018
	0x0130:  0207 001c 0000 dd18 0050 f202 0101 8800
	0x0140:  03a4 0000 27a4 0000 4243 bc00 6232 6600
	0x0150:  4605 7208 0100 0006 3c1c e9
04:37:02.130720 9b:08:3c:33:d8:0d (oui Unknown) > d0:08:3c:00:a0:99 (oui Unknown), ethertype Unknown (0x1772), length 37: 
